:1033C300759850E4F587438E40538EFE53890F75ED
:1033D3008BB8758DFFC2ABD28ED2B3D28AD2AAD2AA
:0433E300ACD2AF2297
:0A371400C2998F993099FDC29922E5
:10184000001E006000010050003000010000000494
:101850000000000000000000000000000000000088
:101860000000000000000000000000000000000078
:10187000000000000000000000000000001E0060EA
:1018800000010050003200010000001000000000C4
:101890000000000000000000000000000000000048
:1018A0000000000000000000000000000000000038
:1018B00000000000000000001E6001503100000127
:1018C000011E1F1E6001503600000101191F1E601D
:1018D000015033000001011C1F1E600102030405BA
:1018E00006070809010203040506070809010203A7
:1018F00004050607080901021F006060606060605F
:101900006060606060600203040506070809010268
:0B1910000304050607080901021F0080
:10113300410001004100020041000300410004009E
:1011430041000500410006006024008A0000000001
:10115300000000000000000000000000000000008C
:10116300000000000000000000000000000000007C
:101173004100B7004100B8004200B900004200BB83
:1011830000004100BD00410000004100BE0060209E
:1011930000BF010203040506070809010203040551
:1011A30006070809010203040506070809010203EB
:1011B3000405602000DF00000000000000000000C4
:1011C300000000000000000000000000000000001C
:1011D300000000000000602000FF0000000000008D
:1011E30000000000000000000000000000000000FC
:1011F3000000000000000000000042011F510046F3
:1012030001215403C8C7C6C54C012754456E0500C8
:10121300000000000000004C01330000000000004B
:1012230000000000000052013F0001020304050614
:1012330008090A0B0C0D0E0F100000460151FFFFA9
:10124300FFFFFFFF410157005E015800000000004F
:10125300000000000000000000000000000000008B
:101263000000000000000000005E017600000000A6
:10127300000000000000000000000000000000006B
:101283000000000000000000000060200194000046
:10129300000000000000000000000000000000004B
:1012A30000000000000000000000000000005401E6
:1012B300D500000000000000000000000000000056
:1012C30000000000004101E9004601EAC8F0B7E56B
:0212D3001813EE
:10165200900212E0FBA3E0FAA3E0F9EF12064A902F
:101662000212E0FBA3E0FAA3E0F922EF3395E0FED9
:1016720074F02FF58274013EF583E4F090041BE0D0
:1016820004F02290041BE0FFC36480227D017BFFF3
:101692007E007F0B0205DEEFF0A3EBF0A3EAF0A3DE
:1016A200E9F022900474F0A37402F07B01A314F019
:1016B200A32274072DF58274003CF583227D017B01
:1016C200FFFE7F3C0205DEFFE0FD90047E7401F028
:1016D200A37405F0A37450F02225E024B5F582E44A
:1016E2003404F583A3E02225E024F6F582E43404F1
:1016F200F583A3E022EF3395E0FE74582FF5827450
:10170200012290000212061DFF22C2B47FD07E0782
:101712001234FCD2B422C2B47F2C7E011234DCD249
:10172200B422E92403F9E43AFA22C2B7D2B6123259
:1017320014D2B7227B017A05794D22C2AC9000897E
:0B174200E0227D017BFF7F210205DE1D
:0B36F300EF1FAC0670011E4C70F622A9
:1032140000000000000000000000000000000000AA
:10322400000000000000000000000000000000009A
:10323400000000000000000000000000000000008A
:0B32440000000000000000000000225D
:0F36B900D2B7D2B6123214C2B7123214C2B6222E
:0937280012172C123214C2B62251
:0637410012172CC2B62293
:10345300780C7608780CE6166018D2B7D2B6EF254A
:10346300E0FF30B7054401FF8004EF54FEFFC2B60E
:0234730080E2F5
:013475002234
:10328800E4FEEF30E704D2B78002C2B7EF25E0FFD3
:10329800123214D2B6123214C2B61232140EEEB46E
:1032A80008E0D2B7D2B6123214A2B7E433FFC2B6DE
:0332B800123214BB
:0132BB0022F0
:10332100AB07AA06C2B51236B97FA0123288EAFFEE
:10333100123288AF03123288AF0512328812372851
:0A3341007F2C7E011236F3D2B52274
:042FD500AD07AC0692
:102FD900D2B51236B97FA0123288EFB40102D200FD
:102FE900ECFF123288EFB40102D200AF0512328829
:102FF900EFB40102D2001236B97FA1123288EFB4C0
:103009000102D200123453AD071237411237287F1B
:083019000A7E001236F3AF0538
:01302100228C
:0626DD009005A812169CF6
:1026E300E4A3F0A3F09005ABF0A3F09005A81216B5
:1026F30064121704C39005ACE09F7480F89005AB97
:10270300E0648098504B121724E0FEA3E029F9EA15
:102713003EFA120604FF1237149005A8E0FBA3E06B
:10272300FAA3E0121725A3E0FEA3E0FF29F9EA3E8E
:10273300FA120604FD74332FF58274013EF583ED1E
:10274300F09005ACE004F070A29005ABE004F080DB
:012753009AEB
:012754002262
:1034DC00E4FDFCD3ED9FEC9E5015E4FBFA0BBB0016
:0F34EC00010AEB64644A70F50DBD00010C80E429
:0134FB0022AE
:1034FC00D3EF9400EE6480948040147D6E7C00EDDC
:0F350C001D70011CED4C70F7EF1F70E41E80E185
:01351B00228D
:102E83009004701216997F031228B0E4FF12210AEE
:102E93001217361214AC1216521206047030900434
:102EA30070E09004751216C9900471121664122210
:102EB3002EEF7018900474E0FF90047612166412DB
:102EC300234BEF7009FF1228B07F01228000E4FF3B
:062ED3001228B07F00226E
:102ED9009005971216997F031228B0E4FF12210A70
:102EE9001217361214AC12165212060470309005DD
:102EF90097E090059C1216C9900598121664122243
:102F09002EEF701890059BE0FF90059D1216641234
:102F19002460EF7009FF1228B07F01228000E4FFCE
:062F29001228B07F002217
:0632BC009005AD12169C06
:1032C200E4A3F07F031228B0E4FF12210A9005ADB7
:1032D2001216641214AC1216521206047007FF1270
:0C32E20028B07F0122E4FF1228B07F001A
:0132EE0022BD
:061E74009004B012169C60
:101E7A00E49004B4F078B57C047A1879401216BF5D
:101E8A009004B01216641217049004C3E4F0A3EF8E
:101E9A00F0E49004B3F09004B012166412170490A0
:101EAA0004B3E0C39F5029121724E0FF7C0029F9EC
:101EBA00EC3AFA120604FDEF25E024C5F582E43473
:101ECA0004F583ECF0A3EDF09004B3E004F080C6CF
:101EDA00E49004B3F09004C4E02408FF9004C3E043
:101EEA003400FE9004B3E0FDC39FE49E5023ED123C
:101EFA0016DBFF1237149004B4E0FF9004B3E0122B
:101F0A0016DBFEEF6E9004B4F09004B3E004F080A8
:0E1F1A00C49004B4E0FF1237147F1F02371486
:06219D009004F112169CF3
:1021A300E49004F5F078F67C047A18797C1216BF73
:1021B300E49004F4F09004F4E0FFC39410502D90E5
:1021C30004F1E0FBA3E475F001120694A9F0FA12FE
:1021D3000604FDEF25E02406F582E43405F583E4E7
:1021E300F0A3EDF09004F4E004F080C9E49004F46B
:1021F300F09004F4E0FFC394185023EF1216E9FFA4
:102203001237149004F5E0FF9004F4E01216E9FE8F
:10221300EF6E9004F5F09004F4E004F080D39004A2
:0B222300F5E0FF1237147F1F02371494
:1032EF00785E7C057A1879B812168EE490055DF039
:1032FF0090055DE0FFC3940B5017745E2FF582E4C9
:10330F003405F583E0FF12371490055DE004F0807B
:01331F00DFCE
:01332000228A
:10324F00786A7C057A1879C312168EE4900569F0B6
:10325F00900569E0FFC36480948B501CEF3395E0B9
:10326F00FE746A2FF58274053EF583E0FF12371462
:08327F00900569E004F080D81D
:013287002224
:1031D70078767C057D017BFF7A1879CE121692E40A
:1031E700900575F0900575E0FFC36480948B501CC3
:1031F700EF3395E0FE74762FF58274053EF583E094
:0C320700FF123714900575E004F080D829
:013213002298
:03002300020CAE1E
:100CAE00C0E0C083C082C0D075D000C004C005C0F3
:030CBE0006C00766
:100CC100209803020F3DC298900089E599F0E0FF5A
:100CD100B41E149000B8E0700E90015704F090001B
:100CE100B0E4F0EF020DAE900157E0640160030241
:100CF1000F3D900089E0FFB4600F9000B8E0B401AF
:100D0100089000B0E06F020DAE9000B8E0FC640204
:100D1100702E900089E0FE9000B1F064086004EE4E
:100D2100B4FF119000B0E0FE900089E0FDEE6D90FF
:100D310000B080799000B8E4F0900157F0020F3DC7
:100D4100EC64037026900089E0FF9000B2F064012A
:100D5100600FE0FE64066009EE64096004EEB40A07
:100D6100079000B0E06F8045020F349000B8E0FCBE
:100D7100B40410900089E0FE9000B3F09000B0E060
:100D81006E802AECB40510900089E0FF9000B4F069
:100D91009000B0E06F80169000B8E0FCB4061890A7
:100DA1000089E0FE9000B5F09000B0E06EF0900098
:100DB100B8E004F0020F3DEC64077037900089E061
:100DC100FF9000B6F0FD9000B0E06FF09000B5E04C
:100DD100FE7C00E42DFFEC3EFE9000AEF0A3EFF0B0
:100DE1009000B8E004F0EF4E6003020F3D7409F08B
:100DF100020F3D9000B8E0FC64086003020E9612F9
:100E0100173DFE900007F09000B3E0B40A0C90008B
:100E110007E0900158F090008BF09000B0E06EF088
:100E2100D39000AFE094009000AEE09400405FECFE
:100E3100605C7D017C00D39000AFE09D9000AEE04E
:100E41009C404B3098FDC2981216B4E599F0900081
:100E5100B3E0B40A221216B4E0FF74582DF582747F
:100E6100013CF583EFF01216B4E0FF748B2DF5828F
:100E710074003CF583EFF09000B0E0FF1216B4E08F
:100E8100FEEF6E9000B0F00DBD00010C80A8900047
:100E9100B8E00480219000B8E0FFB4091F12173DAB
:100EA100FE9000B0E09000B8B50605E004F08002C5
:100EB100E4F09000B0E4F0D2AC020F3DEF640A70B0
:100EC1007B12173D9000B7B41F057401F08002E456
:100ED100F09000B7E064017063F09000B3E014603B
:100EE1003E24F7604224037048900007E0642770B5
:100EF1004090000AE0FFB4010D9000037401F090EE
:100F010001E97405800FEFB402279000047401F029
:100F11009001E97406F09000B9E4F0A3F08012901A
:100F210000067401F0800A9000BD7401F090000584
:0C0F3100F0D2AC900157E4F09000B8F052
:100F3D00D007D006D005D004D0D0D082D083D0E059
:010F4D003271
:04376B0012170C2203
:103699007F031228B0E4FF12210A1217360214AC74
:10351C00E4FDFCD3ED9FEC9E5015E4FBFA0BBB00D5
:0F352C00010AEB64644A70F50DBD00010C80E4E8
:01353B00226D
:03000B00022DD4EF
:102DD400C0E0C083C082C0D0758C4C758A0090005E
:102DE400BAE004F070069000B9E004F0D39000BAA1
:102DF400E094149000B9E094004016E4F0A3F0903D
:102E04000003E0B40102E4F0900004E0B40102E441
:102E1400F0900000E004F0E0D394504002E4F0D0DD
:082E2400D0D082D083D0E0324F
:1036A900758901758C4CE4F58AD28CD2A9D2AF22E6
:1009DE00E490041BF0782C7C047A1879D9FE121757
:1009EE0044784D7C047A1879FA7E00121744E4900C
:1009FE00046EF0A3F012000EC29712339D1236E66B
:100A0E001233C31236A9C2B7D2A112170C12342F49
:100A1E0090008A7455F09001B47485F07F587E0270
:100A2E001234DC7F647E001234DC7FF77EFF1234DA
:100A3E00BB90046EEFF020E403020BB1D2B77B0142
:100A4E007A0179F07F201236439001F0E064016064
:100A5E0003020B3A90046FE004F0E0D364809483B9
:100A6E0040037405F0900005E06401702E7B017A5E
:100A7E0000798A7F20FE122072E4900005F0900427
:100A8E001B04F012168594A15024EF3395E0FE74EA
:100A9E008A2FF582740012167980E8900003E0B474
:100AAE00010C7A04792C120C98E4900003F090005B
:100ABE0004E0B4010C7A04794D120C98E490000411
:100ACE00F09001F1E0641E702AA3E064607024903F
:100ADE000006E06402701CD29790041BF01216857B
:100AEE0094925008120C8312167E80F1E490000648
:100AFE00F0C297900006E0B401137B017A0179B43D
:100B0E007F207E001220729000067402F090046F17
:100B1E00E0C3648094835003121718E490041BF012
:100B2E0012168594A0507C12166D80F49001F0E0A0
:100B3E006402706FA3E0641E7055A3E06460704F92
:100B4E00D29790041BF012168594925008120C83C3
:100B5E0012167E80F1C297E490041BF090041BE005
:100B6E00FFFD3395E0FC74F92DF58274013CF5839D
:100B7E00E0FEEF3395E0FC74D52DF58274013CF563
:100B8E0083EE12167DE0B407D39000BE7401F0120E
:100B9E001718E490041BF012168594A05005121637
:100BAE006D80F49000BDE064016003020C59900169
:100BBE00A27465F0E490041BF0121685948F5021F8
:100BCE00EF3395E0FE74662FF58274013EF583E0F7
:100BDE00FD74A32FF58274013EF583ED12167D8010
:100BEE00D87B017A0179A2900475E4F0A37410F019
:100BFE00FD7C001212F874081216A57401F07466CA
:100C0E00120CA2EF604012376B74091216A5740114
:100C1E00F07458120CA2E490041BF01216859496F0
:100C2E0050101216F73EF583E0FF12371412167E9F
:100C3E0080E9E490041BF0121685949D500812165C
:100C4E00F712167980F1E49000BDF09000BEE0B48A
:100C5E00011DE4F0900474740A1216A87401F0A336
:100C6E0074D5F07A0179EAE4FF122E8312376B12F3
:050C7E000026020A310E
:100C8300EF3395E0FE74F12FF58274013EF583E0B6
:100C9300FF123714227B017F207E0012207222A3D1
:0B0CA300F07A0179EAE4FF122E8322B0
:10000E00E4F591F592F595F596F5B1F5B2F5B37572
:05001E00B402D2B22281
:10306F00E4F522F523C3E5239FE5229E503C0000A3
:10307F000000000000000000000000000000000041
:10308F000000000000000000000000000000000031
:10309F000000000000000000000000000000000021
:0A30AF000523E52370BF052280BB56
:0130B90022F4
:10339D009002127401F0A37402F0A3741BF090025A
:1033AD00177401F0A37403F0A3741BF0E4F509F591
:0633BD0008F50AF50B22E1
:102B3F00900479A3E0FAA3E0240FF9E43AFA9004A1
:102B4F0080EBF0A3EAF0A3E9F022900479E0FBA375
:102B5F00E0FAA3E0227F017E007D007C0022740258
:102B6F00900488F0A3E4F0A3229004887401F07B12
:102B7F0000A314F0A3222403F9E43AFA22A3F0A34A
:102B8F00E4F0A322F912060454C0229000020206B8
:012B9F005CD9
:06256A0090047C122B50CE
:102570007D807F1212355C7D807F1312355C7D0873
:102580007F1312359A7D087F0812355C7D077F0D19
:1025900012374D752326122B641219ED122B787405
:1025A00000F0A37424F0A3EBF0A37400F0A374264E
:1025B000F07A0079237F0C120F4E8F22E5227023D0
:1025C000E52764104526701B90047C122B5CF9E50E
:1025D0002412064A90047C122B5CF9900001E52538
:0525E00012065CAF22B1
:0125E50022D3
:0625E600900470122B505E
:1025EC007D807F1212355C7D807F1312355C7D08F7
:1025FC007F1312359A7D087F0812355C7D077F0D9D
:10260C0012374D752252122B641219ED122B78745D
:10261C0000F0A37423F0A3EBF0A37400F0A37425D3
:10262C00F07A0079227F0C120F4E8F21E521702356
:10263C00E52664104525701B900470122B5CF9E59F
:10264C002312064A900470122B5CF9900001E524C9
:05265C0012065CAF2135
:012661002256
:091F280090047CEFF0A3122B5091
:101F31007D807F1212355C7D807F1312355C7D08B8
:101F41007F0812355CE4FD7F0D12374D7D807F0ED9
:101F510012355C90047CE0F524752520122B641267
:101F610019ED122B6D7400F07426122B8C7400F095
:101F7100A3742BF07B007A0079247F0C120F4E8F13
:101F810022E5227050F52374262523F8E6FF9004FC
:101F91007D122B5CF9852382758300EF12065C05A7
:101FA10023E523B405E190047D122B5CF990000137
:101FB10012061DFF1206046FFF90000212061D6F2C
:101FC100FF90000312061D6FFF90000412061D6FA3
:071FD1006003752201AF223D
:011FD80022E6
:0923D60090047CEFF0A3122B50DF
:1023DF00E4FD7F0D12374D7D807F1212359A7D807F
:1023EF007F1312359A7D087F0812355C90047CE0CC
:1023FF00F524752570E4F52390047D122B5CF98587
:10240F00238275830012061DFF74262523F8A60765
:10241F000523E523B405E1122B641219ED7407129D
:10242F002B6F7400F0742B122B8C7400F0A374308C
:10243F00F07B007A0079247F0C120F4E8F22E52259
:10244F00700C900480122B5CF9E52B12064AAF2218
:01245F00225A
:1030BA00752250E4F523FD7F0D12374D7D807F1276
:1030CA0012359A7D807F1312359A7D087F08123552
:1030DA005C122B641219ED122B6D7400F0A3742488
:1030EA00F0A3E4F0A37400F0A37425F07B007A0047
:0930FA0079227F04120F4E8F2190
:0131030022A9
:0614AC00900479122B50A0
:1014B20012256A8F21E521B401037F0122122B59E3
:1014C200122B93703012161DB401037F0122122BCE
:1014D20059122B85C003C002C001122B3FD001D08C
:1014E20002D00312163EB401037F0122122B59F9D6
:1014F2007404122B9A122B59122B936440705D12B2
:10150200161DB401037F0122122B59122B85C00331
:10151200C002C001122B3FD001D002D00312163EEE
:10152200B401037F0122122B5912162EB401037F3C
:101532000122122B592407F9E43AFAC003C002C06F
:1015420001122B3FD001D002D003121648B401037E
:101552007F0122122B59F97408122B9A122B59125D
:101562002B936480600302161AE9122B857F931273
:101572001F288F21E521B401037F0122122B59126A
:101582002B85C003C002C001122B3FD001D002D074
:10159200037F931223D68F21E521B401037F012219
:1015A200122B5912162EB401037F0122122B592439
:1015B20007F9E43AFAC003C002C001122B3FD0017E
:1015C200D002D003121648B401037F0122122B5914
:1015D200240BF9E43AFA7F97121F288F21E521B4F0
:1015E20001037F0122122B59240BF9E43AFAC003BA
:1015F200C002C001122B3FD001D002D0037F97124C
:1016020023D68F21E521B401037F0122122B59F940
:0A161200900002740C12065CAF2178
:10161C0022E92403F9E43AFA7F93121F288F21E57B
:10162C0021222407F9E43AFA7F95121F288F21E52D
:10163C0021227F931223D68F21E521227F9512231D
:06164C00D68F21E52122EA
:0A371E00EBF0A3EAF0A3E9F0EF22BC
:0D36E600E4F5CF75CDC075CED0F5A2FF2262
:10337500C292EF25E0F54F434F8075CDC0854FCF05
:10338500E5CD30E7FB75CDC0E4F5CFE5CD30E7FB06
:0733950085CF4ED292AF4E2E
:01339C00220E
:032D7A0090048F33
:102D7D0012371E6051C292AE05EE25E0F54C434C64
:102D8D008075CDC0854CCFE5CD30E7FBE4F54BE547
:102D9D004BC39F502F75CDC0EF14B54B05E4F5CF48
:102DAD008003854CCFE5CD30E7FB90048FE0FBA38E
:102DBD00E0FAA3E0F9854B82758300E5CF12065C3E
:062DCD00054B80CBD29201
:012DD30022DD
:1033E700C292EF25E0F54D534D7E75CDC0854DCF8B
:1033F700E5CD30E7FB75CDC0AF058FCFE5CD30E725
:03340700FBD29263
:01340A00229F
:0330220090048F88
:1030250012371E6044C292AE05EE25E0F54B534BB8
:103035007E75CDC0854BCFE5CD30E7FBE4F54CE59E
:103045004CC39F502275CDC090048FE0FBA3E0FADE
:10305500A3E0F9854C8275830012061DF5CFE5CDF9
:0930650030E7FB054C80D8D29243
:01306E00223F
:10299100EFF0A3EBF0A3EAF0A3E9F07F057E007D61
:1029A100007C00227402900488F0A3E4F0A3227456
:1029B10000F07443A3F0A3E4F0A3227400F07424A4
:1029C100A3F0A3E4F0A3227404900488F0A3E4F03C
:1029D100A322E0FBA3E0FAA3E0F9227400F0A374C0
:1029E10024F0A3E4F0A37400F0A37425F022900076
:1029F1000102061D90000202061D90000302061D41
:10222E00EF7003752160EFB40103752161ED25E0B8
:10223E0025E0F522120604F5231229EFF5241229C2
:10224E00F5F5251229FBF52690000412061DF5273B
:10225E0090000512061DF52890047E1229D3120651
:10226E0004F5291229EFF52A1229F5F52B1229FB6F
:10227E00F52C7F0112299E1219ED740C1229A774E8
:10228E0000F0742D1229B57400F0A3742FF07B00AA
:10229E007A0079217F0E120F4E8F2EE52E700F7F52
:1022AE0008123747EF30E3037F00227F01227F01C0
:0122BE0022FD
:102F85001229FBFEF5211229F5FDF5221229EFF58F
:102F950023120604F524EEF4F525EDF4F5261229A1
:102FA500EFFEF4F527120604FDF4F5281229FBF5CA
:102FB500291229F5F52A8E2B8D2C8F2DEFF4F52E60
:0F2FC5008F2FF5307B007A00792112234B8F314B
:012FD40022DA
:0E246000900470EFF0A3EBF0A3EAF0A3E9F014
:10246E007D807F1212374D7D807F1312374DE4FD34
:10247E007F0D12374D7F0112299E1219ED752130F5
:10248E00900470E0F5229004887402F0900471E0DC
:10249E00F9A3E0FAA3E0900489C9F0A3EAF0E912E7
:1024AE0029C17400F0A37424F07B007A0079217F97
:1024BE000C120F4E8F23E5256480452460047F01A6
:1024CE0080027F00E52360047E0180027E00EE4FD5
:0724DE0060037F01227F0073
:0124E50022D4
:03234B0090047982
:10234E001229911219ED7533A0900479E0F534122B
:10235E0029A51229B07400F0A37444F07B007A0012
:10236E0079331223C860047F0180027F00E532605A
:10237E00047E0180027E00EE4F60037F01227F0A01
:10238E0012299E1219ED74101229CA1229B0740066
:10239E00F0A37444F090047A1229D31223C8600477
:1023AE007F0180027F00E53260047E0180027E00A4
:0923BE00EE4F60037F01227F0055
:0F23C700227F0C120F4E8F32E543540F640A220F
:032A0100900470CE
:102A04001229911219ED7522C1900470E0F5231278
:102A140029A51229BC7400F0A37425F07B007A0068
:102A240079227F0C120F4E8F21E524540F640A6023
:102A3400047F0180027F00E52160047E0180027E24
:102A440000EE4F60037F012212299C1219ED122916
:102A5400C81229BC7400F0A37425F09004711229E3
:082A6400D37F0C120F4EAF21CD
:012A6C002247
:032C60009004706D
:102C63001229911219ED7522C0900470E0F5231218
:102C730029A51229DC7B007A0079227F0C120F4EE2
:102C83008F21E524540F640A60047F0180027F00D2
:102C9300E52160047E0180027E00EE4F60037F0128
:102CA3002212299C1219ED1229C81229DC900471F1
:0A2CB3001229D37F0C120F4EAF213F
:012CBD0022F4
:042E2C00900470EFAF
:102E300012299B1219ED7522B0900470E0F523124F
:102E400029A57400F0A37424F0A3E4F0A37400F0A7
:102E5000A37425F07B007A0079227F0C120F4E8F2D
:102E600021E524540F640A60047F0180027F00E59D
:102E70002160047E0180027E00EE4F60037F01220C
:022E8000AF2180
:012E8200222D
:04292100900470EFBF
:1029250012299B1219ED7522C2900470E0F523124D
:1029350029A51229738F21E526540F640A60047FA7
:102945000180027F00E52160047E0180027E00EEA9
:102955004F60037F012212299C1219EDE4F522F53F
:0D29650023F524F5251229C8122973AF218E
:10297200227400F0A37426F0A3E4F0A37400F0A381
:0F2982007427F07B007A0079227F0C120F4E220F
:0412D5004105B1001E
:10360F00900488E0FF900485E0FBA3E0FAA3E0229A
:0A361F00EBF0A3EAF0A3E9F0E422C7
:053747001233758F4DE7
:01374C00225A
:03334B009004707B
:10334E0012361FF521AF2112337590047012361705
:10335E00F9852182758300EF12065C0521E521C3F4
:06336E00944040E17F00E5
:013374002236
:06374D001233E77F0022A9
:063753007D09122D7A220F
:063759007D09123022225E
:103685007D807F0A12359A7F0A123375EF7002FF2B
:04369500227F01226D
:0A359A00900490EDF090048FEFF024
:1035A400123747900490E04FFD90048FE0FF1237EC
:0335B4004D8F4CEC
:0135B70022F1
:0A355C00900490EDF090048FEFF062
:10356600123747900490E0F45FFD90048FE0FF125D
:04357600374D8F4BF3
:01357A00222E
:0528B000900479EFF037
:1028B5007F14123747EF5403FF900479E0FEB50704
:1028C500037F0022EE70057D03122911900479E043
:1028D500B4010A7D011229197D021229119004798A
:1028E500E0B4020E7D017F1412355C8F217D02124A
:1028F5002919900479E0B403097D037F1412359AF0
:0B2905008F217FE87E0312306FAF21AE
:10291000227F1412355C8F21227F1412359A8F2169
:012920002294
:060F4E00900484EFF0A303
:100F540012361FF547F548F54912368512112B7DD7
:100F6400207F0B12374D7D7F7F0412374D90048410
:100F7400E0B40E0A12360FF91237591211237D808C
:100F84007F2A12359A900484E0FD7F0112374D7F49
:100F9400041237478F4AE54A30E0067546010210CD
:100FA4008B900484E0FFB40E08E54A30E403021099
:100FB40088EF6404703FE54A30E22A900488E0FF39
:100FC400D394004020EF9420123614F9500A1237BB
:100FD40059E4900488F0800312110C7D047F0412FC
:100FE400374D121123E54A30E60B900488E0700572
:100FF400F54602108B900484E0640C7092E54A304C
:10100400E233900488E0FFD394004029EFD3942086
:101014004009123614F912110C800C12360FF91211
:101024003759E4900488F07D807F0D12359A7D0451
:101034007F0412374DE54A30E33430E631900488BA
:10104400E0702B7F0A123747EFD39420402090049E
:10105400891236177E002548F9EE3AFA7F201237B6
:101064005374202548F5487D087F0412374DE54A1E
:1010740020E503020F93900488E06003020F93902D
:1010840005B104F0E4F546900484E0640C7065F561
:10109400487F0A1237478F479004891236177E001B
:1010A4002548F9EE3AFA123753E5472548F5487FC3
:1010B4000C123747EF5407F5496024E54824FFFF35
:1010C400E434FFFEEF7803C333CE33CED8F97C008B
:1010D4002549FFEC3EF990048C123617C98010E5BF
:1010E4004875F008A4FF90048C123617F9E5F08FC8
:1010F400F01206AA7D807F0C12359A12112B7D8086
:071104007F0D12355CAF46C0
:10110B00227F20123759900488E024E0F090048667
:10111B00E475F02012067E227D807F0D12359A2217
:08112B00E4FD7F0112374D22A3
:0619ED0090048412080AB8
:1019F300E4F54AF54BF549F548F547F546E47FF834
:101A03007E34FDFC900484E0F8A3E0F9A3E0FAA39C
:101A1300E0FB1206C9EF24FFFFEE34FFFEED34FFB7
:101A2300FDEC34FFFCC006C007E54B25E0FFE54AAB
:101A330033FEEF2401FFE43EAB07FAE4F9F8D007E5
:101A4300D0061207548F498E488D478C46E47FFF9A
:101A53007EFFFDFCAB49AA48A947A846C31207E687
:101A63004011054BE54B7002054AF47004E54A64E6
:101A73000F708AE549F549E548F548E4F547F54629
:101A8300E54AFD7F2A12359AE54BFD7F2B12374D30
:101A9300AF49AE48AD47AC4678081207F7AD077FAC
:101AA3002C12374DE549FFAD077F2D12374D7F00CF
:011AB3002210
:10210A00900479EFF0701C7D107F0C12359A7D4097
:10211A007F1512359AE4FD7F1212374DE4FD7F13C5
:10212A0012374D900479E0640170217D107F0C1202
:10213A00374D7D837F1212374D7D831221907DF4B6
:10214A007F2312374DE4FD7F1512374D900479E055
:10215A006402702F7D107F0C12374D7D927F121210
:10216A00374D7D961221907D207F2812374D7D4F65
:10217A007F2312374D7D207F2912374D7D077F152A
:10218A0012374D7F00227F1312374D7DF47F2712BD
:03219A00374D229C
:1035B8007D0F7F0112374D7D107F0C12359A7F0CDD
:0D35C800123747EF30E4037F00227F01221D
:10365B00C2B27F017E0012306FD2B27F017E0012A8
:05366B00306F7F00221A
:1035D5007F01123747EF30E40A7D107F0112355C19
:0D35E5007F01227D107F0112359A7F0022A8
:0B36FE00B2B230B2037F00227F012235
:0F36C800EF2480FD7F0F12374D7F0F12374722FF
:1035F200900470EDF0EF2440FD7F0F12374D9004E0
:0D36020070E024C0FD7F0F12374D7F0022C5
:06375F00008400000800D8
:10266200F9E43AA801FCAD03900477A3A3E0F912C0
:1026720009B6900581E0FF900477E0FBA3E0FAA39E
:10268200E0F922E0F9A3E0FAA3E0900489C9F0A3FB
:10269200EAF0A3E9F022900475E0FBA3E0FAA3E0DC
:1026A2002402F9E43AFA7E00E92524F9EE3AFA0224
:1026B2000604120604900581F054F0FF227F647E26
:1026C200007D007C0022E0FF7E00A3E0FBA3E0FA95
:0B26D200A3E02212061D900583F022F9
:0D174D00900470EFF0A3EDF0A3EB122690D6
:10175A007D807F1212374D7D807F1312374DE4FD55
:10176A007F0D12374D1226BF1219ED7522E0900433
:10177A0071E0F523540F900582F0900470E0900513
:10178A0081F01236859004887402F090047512264E
:10179A0085A3E4F0A37400F0A37425F07B007A001B
:1017AA0079227F0C120F4E8F21E521707CF524E5FA
:1017BA0026AE257803CEC313CE13D8F9FF90047250
:1017CA0012267CEF12064A90047512267C12060431
:1017DA00900584F090000112061D900585F0540FC3
:1017EA00900589F0900585E030E60D900475A31206
:1017FA0026A0900586F00524900585E030E51812AC
:10180A002698900587F090058AE4F0900587E054C1
:10181A000F90058BF00524900585E030E41512261B
:10182A0098900588F00524800A90047212267CE4B8
:05183A0012064AAF2177
:01183F002286
:0D24E600900470EFF0A3EDF0A3EB12269030
:1024F3007F321226C11219ED900582E044D0F522F5
:10250300900470E0F523123685900470E030E40BFC
:10251300A3E0F52490048874038005900488740272
:10252300F0900475122685A3E4F0A37400F0A3745D
:1025330025F07B007A0079227F0C120F4E8F21E564
:10254300217017E526AE257803CEC313CE13D8F931
:10255300FF90047212267CEF800790047212267C8F
:06256300E412064AAF215C
:01256900224F
:08000300900581E06401F02288
:07310400900470EB1226900D
:10310B0078227C007D007BFF7A37795F7E007F051C
:10311B001205DE900470E0F9A3E0FAA3E090047AC4
:10312B0012268F900473E0F9A3E0FAA3E090047DDC
:10313B0012268F7B007A0079227F05121CFC8F21CF
:01314B002261
:0A2CBE00900470EFF0A3EB122690D3
:102CC8001226BF1219ED900470E0900488F0900469
:102CD80077122685A3E4F0A37400F0A37422F09081
:102CE800047112267C7F0C120F4E8F21E52170177C
:102CF800E523AE227803CEC313CE13D8F9FF900490
:102D08007412267CEF800790047412267CE4120665
:032D18004AAF219E
:012D1B002295
:0A1CFC00900476EFF0A3EB1226909F
:101D06007FF47E017D007C001219ED900581E09044
:101D1600047630E3221226C82402122662EF120647
:101D26004A900582122677900001EF12065C900415
:101D360076E02402F080121226C82401122662EFF1
:101D460012064A900476E004F0900476E090048847
:101D5600F090047D122685A3E4F0A37400F0A3742A
:101D660028F01226797F0C120F4E8F27E527703543
:101D760090047D12267C1226B4BFF00FE030E305F6
:101D860090000280039000011226D5120003E52977
:101D9600AE287803CEC313CE13D8F9FF90047A1277
:101DA600267CEF800790047A12267CE412064AAF5E
:011DB6002705
:011DB7002209
:071FD900900470EB1226904A
:101FE0001226BF1219ED900581E030E311540F4421
:101FF000A0F521A3E0F5229004887402800F9005DB
:1020000081E0540F44A0F5219004887401F09004FD
:1020100073122685A3E4F0A37400F0A37424F07B6C
:10202000007A0079217F0C120F4E8F23E523703543
:1020300090047312267C1226B4BFF00FE030E30543
:1020400090000280039000011226D5120003E525BE
:10205000AE247803CEC313CE13D8F9FF90047012C8
:10206000267CEF800790047012267CE412064AAFAB
:01207000234C
:01207100224C
:0A1B7A00900470EFF0A3EB12269028
:101B84007FF47E017D007C001219ED900470E0FF6B
:101B940044C0F521900581E030E323EF54F064F074
:101BA400700FA3E0F522A3E0F5239004887403806A
:101BB40025900582E0F52290048874028018900430
:101BC40070E054F0FFBFF006900583E08001E4F577
:101BD400229004887402F0900474122685A3E4F021
:101BE400A37400F0A37425F07B007A0079217F0CA4
:101BF400120F4E8F24E524703590047412267C1243
:101C040026B4BFF00FE030E305900002800390009B
:101C1400011226D5120003E526AE257803CEC313A0
:101C2400CE13D8F9FF90047112267CEF800790043C
:0A1C34007112267CE412064AAF2468
:011C3E002283
:102F2F00900470EFF07D707F1212355C7D707F130F
:102F3F0012355C900470E014601514601D14602548
:102F4F002403702FE4FD7F1212359AE4FD801F7D5C
:102F5F00107F1212359A7D1080147D207F1212354A
:102F6F009A7D2080097D307F1212359A7D307F1334
:062F7F0012359A7F0022CA
:0E2A6D00900470EFF0A3EBF0A3EAF0A3E9F001
:102A7B007D807F1212374D7D807F1312374DE4FD21
:102A8B007F0D12374D752230900470E0F5237F01D6
:102A9B007E007D007C001219ED9004887402F0908A
:102AAB000471E0F9A3E0FAA3E0900489C9F0A3EA6A
:102ABB00F0A3E9F0A3E4F0A37400F0A37424F07B7B
:0C2ACB00007A0079227F0C120F4E8F2140
:012AD70022DC
:102755007522A28F23120604F52490000112061D8E
:10276500F52590000212061DF52690000312061DA0
:10277500F5277F0A7E007D007C001219ED90048804
:102785007406F0A3E4F0A37400F0A37428F0A3E4A6
:10279500F0A37400F0A37429F07B007A0079227FFE
:1027A5000C120F4E8F21E528640A60047F01800218
:1027B5007F00E52160047E0180027E00EE4F60030C
:0527C5007F01227F00EE
:0127CA0022EC
:102C01007E007F041205DE900473E0FBA3E0FAA3CB
:102C1100E022E0F9A3E0FAA3E0900489C9F0A3EA75
:102C2100F0E9A3F0A37401F0A322EBF0A3EAF0A36F
:102C3100E9F07F057E007D007C00222404F9E43A5E
:102C4100A801FCAD0322F97E007F040205DEE0FE4F
:0F2C5100A3E0780322A3F0A37408F09004882274
:032AD800900470F7
:102ADB00122C2B1219ED9004797450F0787A7C0437
:102AEB007D01900470122C0B122C479004887405F6
:102AFB00F0900476122C137404F0A3747EF07B0117
:102B0B007A0479797F0C120F4EAD07ED7018900493
:102B1B007E122C4FCEC313CE13D8F9FF9004731231
:102B2B002C0BF9EF8008900473122C0BF9E41206AE
:032B3B004AAF0599
:012B3E002274
:031DB80090047024
:101DBB00122C2B1219ED90047A7405F0E4122C56A8
:101DCB007403F0900473122C137404F0A3747DF05D
:101DDB007B017A04797A7F0C120F4E900479EFF025
:101DEB00707690047D122C4FCEC313CE13D8F9FF0F
:101DFB00900470122C0BF9EF12064A122C082401D6
:101E0B00F9E43AFAC003C002A3122C0BF8AC02ADF2
:101E1B0003D002D003122C012406F9E43AFAC003D2
:101E2B00C002C001A3122C0B122C3CD001D002D04B
:101E3B0003122C01240AF9E43AFAC003C002C001D0
:101E4B00A3122C0B2408122C3ED001D002D0037EFF
:101E5B00007F031205DE800B900470122C0BF9E44B
:081E6B0012064A900479E0FF21
:011E7300224C
:03191B00900470C5
:10191E00122C2B1219ED90047A7405F0E4A3F0A3A7
:10192E00F09004887403F0900473122C137404F076
:10193E00A3747DF07B017A04797A7F0C120F4E909E
:10194E000479EFF060030219DC90047D122C4FCE67
:10195E00C313CE13D8F9FF900470122C0BF9EF12AB
:10196E00064A900473122C0B2401F9E43AFAC003D0
:10197E00C002A3122C0BF8AC02AD03D002D003129E
:10198E002C48900473122C0B2406F9E43AFAC00387
:10199E00C002C001A3122C0B122C3CD001D002D0DD
:1019AE0003122C48900473122C0B240AF9E43AFA11
:1019BE00C003C002C001A3122C0B2408122C3ED06F
:1019CE0001D002D0037E007F031205DE800B90044F
:0E19DE0070122C0BF9E412064A900479E0FF17
:0119EC0022D8
:03283E0090047093
:10284100122C2B1219ED900479741DF0787A7C0406
:102851007D01900470122C0B122C47E490047EF041
:102861007408122C23F09004887409F090047612F5
:102871002C137404F0A37482F07B017A0479797FBC
:102881000C120F4EAD07ED7018900482122C4FCE32
:10289100C313CE13D8F9FF900473122C0BF9EF80F8
:0E28A10008900473122C0BF9E412064AAF05DE
:0128AF002206
:032D1C00900470B0
:102D1F00122C2B1219EDE4900476F0A37436F0E424
:102D2F00A3F0122C567405F0900473122C13740434
:102D3F00F0A3747BF07B017A0479767F0C120F4E2F
:102D4F00AD07ED701890047B122C4FCEC313CE132A
:102D5F00D8F9FF900470122C0BF9EF8008900470D3
:0A2D6F00122C0BF9E412064AAF051E
:012D79002237
:063765000600FFFF00005A
:0B370900900471E0FBA3E0FAA3E022B3
:0E1AB400900470EFF0A3EBF0A3EAF0A3E9F0CA
:101AC20078797C047D017BFF7A3779657E007F0619
:101AD2001205DE900470E0FF601664016012EF648C
:101AE20003600DEF64076008EF640F60037F01225B
:101AF200900470E090047EF07F0A7E007D007C00FE
:101B02001219ED9004887406F0900474E0F9A3E0D1
:101B1200FAA3E0900489C9F0A3EAF0A3E9F0A37460
:101B220001F0A37404F0A37477F07B017A0479794D
:101B32007F0C120F4EEF7035900477E0FEA3E07831
:101B420003CEC313CE13D8F9FF123709F9EF1206E9
:101B52004A90047412370C2402F9E43AFA78A07C11
:101B6200057D017E007F081205DE7F002212370903
:071B7200F9E412064A7F01AD
:011B79002249
:1012D9005B0532010203040506070809010203043C
:0E12E9000506070809010203040506070809A7
:101C3F00900212E0FBA3E0FAA3E0F9E412064A9047
:101C4F000217E0FBA3E0FAA3E0F990000112061DD2
:101C5F00FF900212E0FBA3E0FAA3E0222401F9E4D3
:101C6F003AFAEBF0A3EAF0A3E9F0900212A3E0FA3C
:101C7F00A3E02402F9E43AFA22F990000212061DB9
:101C8F0025E025E0FF90000102061DEBF0A3EAF02E
:101C9F00A3E9F0222401F9E43AFA22FCAD037B0117
:101CAF007E007F010205DEF9900001EF02065CFF66
:101CBF0090000212061DFD22F9EF12064A90021142
:101CCF00222FFFE92403F9E43AFA22A37401F0A3C7
:101CDF007405F0A3748CF022F9E43AA801FCAD036B
:0D1CEF007B0122F9EF12064A90054DE0221C
:10002600E509640160030204F1E50A60030204F1D4
:10003600F509FEFF60030204E4EF12081604F1005E
:1000460000B90100BF0200C50300D80400EE050197
:100056000906012807014A0801500901560A0171DB
:100066000B01940C019A1001FF1102231202451391
:10007600025714026C15027E16028F1702A0180290
:10008600B52002E321031122032223033C24035D4E
:1000960025037E2603AE2703CF3103F6320414333D
:1000A600043234045335047A52048D5304A9600093
:1000B6000004E41235B802049F12365B02049F1254
:1000C6001C60121CA312334B121C60121CC7744115
:1000D600F022121C3F121CB6900217121C63F91272
:1000E6001C94FF123747802F900217121C63F912D7
:1000F6001C94121CBE12374D121C60F9E4121CC966
:1001060004F022121C3F121CB6900217121C63F94F
:10011600121C94FF1236C8121C60F9900002EF02FE
:10012600018A900217121C63F9121C94121CBE124B
:1001360035F2121C60F9EF121C4B121CB69002111C
:100146007402F0221236FE02049F1235D502049F75
:100156001204F212256A121C60121CF2121C5F12A3
:100166001CB690054EE090000280191204F212258A
:10017600E6121C60121CF2121C5F121CB690054E91
:10018600E090000212065C9002117403F022123015
:10019600BA02049F7F031228B0E4FF12210A7B01F2
:1001A6007A05794D1214AC121C60F9EF12064A1248
:1001B6001C602401121CE77A05794D7E007F02122D
:1001C60005DE121C602403F9E43AA8017A05794F8A
:1001D600121CAA121C602404121CE77A0579507EB0
:1001E600007F0C1205DE121C602410F9E43AA80107
:1001F6007A05795C121CAA803F900217121C63F9DB
:10020600121C94121CBE121CD290047E7401F0A320
:100216007405F0A37450F012222E02049F90021768
:10022600121C63121C882F121C5F121CA31224605E
:10023600121C60F9EF12064A9002117411F0229016
:100246000217121C63121C88121CD012234B0204C4
:100256009F900217121C63F9121C94FFE9121C816D
:10026600122A0102049F900217121C63121C8812A4
:100276001CD0122C6002049F900217121C63F91204
:100286001C94FF122E2C02049F900217121C63125C
:100296001C882FFF12292102049F900217121C634B
:1002A600F9121C94FFE9121C81122F8502049F90FB
:1002B6000217121C63F9121C94121CBE121C601247
:1002C6001CA3C003C002C001121C79900475121C45
:1002D6009AD001D002D00312174D0204D190021712
:1002E600121C63F9121C94121CBE121C60121CA371
:1002F600C003C002C001121C79900475121C9AD06A
:1003060001D002D0031224E60204D1900217121C77
:1003160063F9121C94FF122F2F02049F121C609087
:100326000474121C6B900477121C9A7B017A05796F
:10033600327F19022CBE121C60121CA3C003C0021D
:10034600C001121C79900473121C9AD001D002D0FD
:1003560003121FD90204D1121C4E121CA3C003C0E3
:1003660002C001121C79900474121C9AD001D002AA
:10037600D003121B7A0204D1900217121C63F912E1
:100386001C94FFE9121C81C003C002C001121C604C
:1003960090047A121C6B90047D121C9AD001D00234
:1003A600D003121CFC0204D1121C60121CA3C00351
:1003B600C002C001121C79900473121C9AD001D09D
:1003C60002D0031231040204D1120503121C60127A
:1003D6001CA3C003C002C001121C79900473121C36
:1003E6009A121CDAD001D002D00312191B0204D1D2
:1003F600121C60121CA3900473121C7190047612D6
:100406001C9A7B017A05798C12283E0204D1121CB3
:1004160060121CA3900473121C71900476121C9A2D
:100426007B017A05798C122AD80204D1121C60123B
:100436001CA3C003C002C001121C79900473121CD5
:100446009AD001D002D003122D1C0204D11205034A
:10045600121C60121CA3C003C002C001121C7990BA
:100466000473121C9A121CDAD001D002D003121D9A
:10047600B80204D1121C4E121CA3122A6D121C6063
:10048600121CC77405F022900217121C63F9121C85
:1004960094FFE9121C81122755121C60121CC774A6
:1004A60001F0227F031228B07F0212210A121C4E8D
:1004B600121CA3C003C002C001121C79900474125E
:1004C6001C9AD001D002D003121AB4121C60F9EFA4
:1004D60012064A121C60F9121C9424028009121C8E
:1004E60060F9740112064A900211F0227F03122865
:1004F600B0E4FF12210A7B017A05794D227F0312AF
:0805060028B07F0112210A2236
:102BA00074109005B2F0900470E0FBA3E0FAA3E08B
:102BB000F9A3E0FCA3E0FD90047F227FAE123476FF
:102BC000023418123629900474E02410F090047333
:102BD000E03400F0900471E475F01022EE9400905F
:102BE0000474E0FBA3E0FAA3E0F922EBF0A3EAF01F
:102BF000A3E9F022F0900470E034FFF0900475E453
:012C000022B1
:0C314C00C2B6123158C2B5123158D2B6CA
:103158000000000000000000000000000000000067
:103168000000000000000000000000000000000057
:103178000000000000000000000000000000000047
:0B31880000000000000000000000221A
:10353C00D2B5D2B612315820B5037F0022C2B512D3
:10354C00315830B5037F0022C2B51231587F0122A9
:0837310012314CD2B5023158EF
:0837390012314CC2B6023158F6
:0F36D700C2B6123158D2B5123153C2B6023158B1
:0D340B00EAFF123476123418AF0312347643
:10341800C2B6123158D2B512315330B505C2B67F93
:073428000022C2B67F012261
:103476007E08AD061EED6018C2B6123158EF30E771
:1034860004D2B58002C2B5EF25E0FF12315380E2C7
:02349600C2B6BC
:013498002211
:103499007F08E4FED2B5AD071FED6011EE25E0FE11
:1034A900C2B612315330B5EE4401FE80E9C2B6AF5F
:0134B900060C
:0134BA0022EF
:10362900E4900000F0900000E0D3943C500912357A
:0A3639003C122BBBEF60EE023731AC
:1031930090047DECF0A3EDF012353CEF7002FF22BA
:1031A300122BBB90047DE0FF122BBD90047DA3E0A6
:1031B300FF122BBD90047FE0FF14F0EF60101206A6
:1031C30004FF122BBD740129F9E43AFA80E61237A1
:0431D300317F012225
:0C12F800900470122BEBA3ECF0A3EDF0BF
:10130400E4900477F0A3F0A3F0ED540FFFC374103E
:101314009FF0900475E0FCA3E0FDECC4F854F0C821
:10132400EDC4540F48A3F0ED540FA3F0EF704890B0
:101334000477E0700BA31214847002FF2202147E5F
:10134400900477E0FF14F0EF6016122BA07410F0F5
:10135400123193EF7002FF22122BC312067E80E03B
:10136400900478E0FF7003021481122BA21214A5DA
:101374007002FF2202147E900477E070709004796A
:10138400E0FFFDD3900476E09D900475E094004066
:101394004FEF122BA21214A57002FF2212362990CD
:1013A4000475A3E0FF900479E0FEC3EF9E9005B2BC
:1013B400F0900470122BE2EEFF7E00E92FF9EE3A72
:1013C400FA900474E02FFD900473E03EFC9005B2A3
:1013D400E090047FF0123193EF7002FF2202147E3A
:1013E4009004781214847002FF2202147E9004790F
:1013F400E0FDFFC3900476E09FF0900475E0940054
:10140400F0E0FAA3E0FBEAC4F854F0C8EBC4540FCC
:1014140048A3F0EB540FA3F0ED602B122BA2EFF0D6
:10142400123193EF7002FF22123629900479E0FF03
:101434007E00900474E02FF0900473E03EF090047A
:1014440071EE8FF0801B900477E0FF14F0EF6016CC
:10145400122BA07410F0123193EF7002FF22122BA2
:10146400C312067E80E0900478E0FF6010122BA285
:0F147400EFF0123193EF7002FF221236297F0141
:1014830022E0FF9005B2F0900470E0FBA3E0FAA322
:10149300E0F9A3E0FCA3E0FD90047FEFF0123193A9
:0914A300EF22EFF0123193EF2269
:1034BB007B017A047977AD07AC069004AEE4F0A3F8
:1034CB0004F01227CBEF6006900477E0FF227F0019
:0134DB0022CE
:10357B00AB07AA06AC0512353CEF7002FF22122BEB
:0F358B00BB12340BAF04122BBD1237317F01225C
:1027CB009004A9122BEBAB05AA0412353CEF700257
:1027DB00FF22122BBBEF7005123731FF2212340B85
:1027EB0012353C7FAF122BBD9004AEE07002A3E01C
:1027FB00603B1234999004A9122BE2EF12064A9017
:10280B0004AEE07004A3E0640170051236D78003B8
:10281B001237399004AAE475F00112067E9004AFCA
:10282B00E024FFF09004AEE034FFF080BB123731B0
:03283B007F0122F8
:103643009004AEE4F0A3EFF07DF07CFF1227CBEF04
:0836530060037F01227F0022C9
:1036700090047FEDF07DF07CFF123193EF60037FCB
:0536800001227F002281
:10342F007D447FFA7EFF12357B7D077FFB7EFF1287
:10343F00357B7D037FFD7EFF12357B7DFF7FF17E28
:04344F00FF02357BC8
:10207200900470EEF0A3EFF0900474122BEBD3EF08
:102082009420122BDC500C900470A3E0FD1220FF70
:102092000220F37D20123670900471E024E0122BAE
:1020A200F475F02012067E8048D3900471E094000B
:1020B200900470E0940040447FF27EFF1234BBEF44
:1020C200543FD39408502A900470E0FEA3E0FF949A
:1020D20018122BDC5007AD071220FF80147D181256
:1020E2003670900471E024E8122BF475F018120691
:0C20F2007E7D557FF47EFF12357B80ADB3
:0C20FE0022123670E4900470F0A3F0226F
:030000000222BF1A
:0C22BF00787FE4F6D8FD75814F022306FD
:10050E00E709F608DFFA8046E709F208DFFA803ECF
:10051E0088828C83E709F0A3DFFA8032E309F608BC
:10052E00DFFA8078E309F208DFFA807088828C8324
:10053E00E309F0A3DFFA806489828A83E0A3F608D8
:10054E00DFFA805889828A83E0A3F208DFFA804CB2
:10055E0080D280FA80C680D4806980F28033801089
:10056E0080A680EA809A80A880DA80E280CA8033F2
:10057E0089828A83ECFAE493A3C8C582C8CCC5836A
:10058E00CCF0A3C8C582C8CCC583CCDFE9DEE7803A
:10059E000D89828A83E493A3F608DFF9ECFAA9F0B9
:1005AE00EDFB2289828A83ECFAE0A3C8C582C8CC0F
:1005BE00C583CCF0A3C8C582C8CCC583CCDFEADE28
:1005CE00E880DB89828A83E493A3F208DFF980CC8A
:1005DE0088F0EF60010E4E60C388F0ED2402B40483
:1005EE000050B9F582EB2402B4040050AF2323452A
:0605FE00822390055E73EC
:10060400BB010689828A83E0225002E722BBFE02F4
:09061400E32289828A83E4932227
:10061D00BB010CE58229F582E5833AF583E0225092
:10062D0006E92582F8E622BBFE06E92582F8E222DC
:0D063D00E58229F582E5833AF583E49322F6
:10064A00BB010689828A83F0225002F722BBFE018F
:02065A00F32289
:10065C00F8BB010DE58229F582E5833AF583E8F0D4
:10066C00225006E92582C8F622BBFE05E92582C880
:02067C00F22268
:10067E00C5F0F8A3E028F0C5F0F8E5821582700207
:06068E001583E038F022A4
:10069400A3F8E0C5F025F0F0E58215827002158319
:0606A400E0C838F0E82276
:1006AA00BB010A89828A83F0E5F0A3F0225006F79B
:0F06BA0009A7F01922BBFE06F3E5F009F3192298
:1006C900E88FF0A4CC8BF0A42CFCE98EF0A42CFCD0
:1006D9008AF0EDA42CFCEA8EF0A4CDA8F08BF0A44E
:1006E9002DCC3825F0FDE98FF0A42CCD35F0FCEBAD
:1006F9008EF0A4FEA9F0EB8FF0A4CFC5F02ECD3972
:0F070900FEE43CFCEAA42DCE35F0FDE43CFC22DE
:1007180075F008758200EF2FFFEE33FECD33CDCC98
:1007280033CCC58233C5829BED9AEC99E58298401B
:100738000CF582EE9BFEED9AFDEC99FC0FD5F0D6F8
:10074800E4CEFBE4CDFAE4CCF9A88222B800C1B922
:100758000059BA002DEC8BF084CFCECDFCE5F0CB60
:10076800F97818EF2FFFEE33FEED33FDEC33FCEB99
:1007780033FB10D703994004EB99FB0FD8E5E4F954
:10078800FA227818EF2FFFEE33FEED33FDEC33FC41
:10079800C933C910D7059BE99A4007EC9BFCE99A35
:1007A800F90FD8E0E4C9FAE4CCFB2275F010EF2F7A
:1007B800FFEE33FEED33FDCC33CCC833C810D7077A
:1007C8009BEC9AE899400AED9BFDEC9AFCE899F8B5
:0E07D8000FD5F0DAE4CDFBE4CCFAE4C8F92248
:1007E600EB9FF5F0EA9E42F0E99D42F0E89C45F069
:0107F60022E0
:1007F700E8600FECC313FCED13FDEE13FEEF13FFE0
:03080700D8F12203
:0C080A00ECF0A3EDF0A3EEF0A3EFF02261
:10081600D083D082F8E4937012740193700DA3A371
:1008260093F8740193F5828883E473740293686085
:06083600EFA3A3A380DF85
:10083C00E709F608DFFA807BE9D39850F3E92FF942
:10084C00E82FF819E718F6DFFA8068E709F208DFF5
:10085C00FA806080E388828C83E709F0A3DFFA805A
:10086C0052E309F608DFFA804AE9D398500EE92FD3
:10087C00F9E82FF819E318F2DFFA8037E309F208E8
:10088C00DFFA802F88828C83E309F0A3DFFA8023C0
:10089C0089828A83E0A3F608DFFA801789828A832B
:1008AC00E493A3F208DFF9800A89828A83E0A3F239
:1008BC0008DFFA02094E80B180F980A580C680DC81
:1008CC0080F180738010808380E98087808780D955
:1008DC0080E180BC8073D3E998EA9C5039E92FF50C
:1008EC0082EA3BF583E82FF8EC3BFC0582D58202CB
:1008FC0015831582E493C8C582C8CCC583CC058208
:10090C00D5820215831582F0C8C582C8CCC583CCAC
:10091C00DFD9DED7802E89828A83ECFAE493A3C8D0
:10092C00C582C8CCC583CCF0A3C8C582C8CCC5834E
:10093C00CCDFE9DEE7800D89828A83E493A3F60895
:10094C00DFF9ECFAA9F0EDFB22D3E998EA9C5038D8
:10095C00E92FF582EA3BF583E82FF8EC3BFC0582A6
:10096C00D5820215831582E0C8C582C8CCC583CC5C
:10097C000582D5820215831582F0C8C582C8CCC504
:10098C0083CCDFDADED880BC89828A83ECFAE0A3E0
:10099C00C8C582C8CCC583CCF0A3C8C582C8CCC599
:1009AC0083CCDFEADEE8809C809888F08E83EF6051
:1009BC00010E4E608DED2402B404005085F582EBDF
:1009CC002402B4040050E123234582AB8323900816
:0209DC00C273E4
:1022CB000209DEE493A3F8E493A34003F68001F242
:1022DB0008DFF48029E493A3F85407240CC8C33314
:1022EB00C4540F4420C8834004F456800146F6DFE3
:1022FB00E4800B0102040810204080901133E47E2F
:10230B00019360BCA3FF543F30E509541FFEE493D7
:10231B00A360010ECF54C025E060A840B8E493A39E
:10232B00FAE493A3F8E493A3C8C582C8CAC583CAC9
:10233B00F0A3C8C582C8CAC583CADFE9DEE780BE81
:0112F70000F6
:00000001FF
