:104C8C00759850E4F587438E40538EFE53890F750B
:0E4C9C008BE8758DFFC2ABD28ED2ACD2AF22A8
:104A2100900636E0FBA3E475F00112198AA9F0FAA9
:044A31001218FAFF5E
:104A3500C2ACC299309F05EFA2D0929B8F99309955
:064A4500FDC299D2AC2273
:10497500900636EBF0A3EAF0A3E9F0ED4C701D903C
:104985000636E0FBA3E0FAA3E0F91218FA601CB4BE
:104995000A057F0D124A35124A2180E3ED1DAE044A
:0C49A50070011C4E6005124A2180F122B6
:104A7500900636E0FBA3E475F00112198AA9F0FA55
:044A85001218FAFF0A
:104A890053AFFE539AFD8F9BE59A30E1FB539AFD94
:044A990043AF012204
:1049B100900636EBF0A3EAF0A3E9F0ED4C701D9000
:1049C1000636E0FBA3E0FAA3E0F91218FA601CB482
:1049D1000A057F0D124A89124A7580E3ED1DAE0466
:0C49E10070011C4E6005124A7580F12226
:10000E0053BAFE759A5075D7E875D6FF438E1443D2
:05001E00AF01D2AF228A
:104D39000AB1E0D2EBCAB1BCE432303138C4EA3945
:084D4900D4C23132C8D50A00C2
:1028CC004102E7004102D000410295004102E80AB2
:1028DC004102F0004602A9FFFFFFFFFFFF6101006C
:1028EC0004B2D9D7F7D4B13A2000000000000000A0
:1028FC0000000000000000000000000000000000CC
:10290C0000000000000000000000000000000000BB
:10291C0000000000000000000000000000000000AB
:10292C00000000000000000000000000000000009B
:10293C00000000000000000000000000000000008B
:10294C00000000000000000000000000000000007B
:10295C00000000000000000000000000000000006B
:10296C00000000000000000000000000000000005B
:10297C00000000000000000000000000000000004B
:10298C00000000000000000000000000000000003B
:10299C00000000000000000000000000000000002B
:1029AC00000000000000000000000000000000001B
:1029BC00000000000000000000000000000000000B
:1029CC0000000000000000000000000000000000FB
:1029DC0000000000000000000000000000000000EB
:1029EC0000004602EAC8F0B7E5181360210312C0D4
:1029FC00B6D1C0D6DC0000000000000000000000D2
:102A0C0000000000000000000000000000000000BA
:102A1C00602102F1D6B1BDD3BAD005060708090171
:102A2C00020304050607080901020304050607084A
:102A3C000901021F0041029600C10141029700C129
:102A4C0000510298303132333435363738394142FF
:092A5C0043444546004102E90033
:104CAA00D3EF9400EE940040147D6E7C00ED1D70ED
:0D4CBA00011CED4C70F7EF1F70E61E80E34B
:014CC70022CA
:103FEC009006ADEFF0A3EBF0A3EAF0A3E9F07F03AA
:103FFC001244A5E4FF123E267B017A06797D12203D
:10400C004890039DE0FBA3E0FAA3E0F9EF121940FE
:10401C0090039DE0FBA3E0FAA3E0F91218FA7048B4
:10402C009006ADE0FF9006B2E0FD90063F7401F003
:10403C00A37406F0A37480F09006AEE0FBA3E0FA44
:10404C00A3E0F912384CEF701D9006B1E0FF90061A
:10405C00B3E0FBA3E0FAA3E0F912360DEF7009FF11
:10406C001244A57F01228000E4FF1244A57F0022A8
:1038FF00900631EFF0A3EBF0A3EAF0A3E9F0A3E019
:10390F00D3648094835009A3E0FE6480948F4003B6
:10391F007F0022EE25E025E0FF900635E02FF07FB7
:10392F00031244A5E4FF123E267B017A06797D122D
:10393F00204890039DE0FBA3E0FAA3E0F9EF1219F2
:10394F004090039DE0FBA3E0FAA3E0F91218FA7090
:10395F0048900631E0FF900636E0FD90063F740177
:10396F00F0A37406F0A37480F0900632E0FBA3E09E
:10397F00FAA3E0F912384CEF701D900635E0FF9076
:10398F000637E0FBA3E0FAA3E0F912410CEF700950
:10399F00FF1244A57F01228000E4FF1244A57F009F
:0139AF0022F5
:0E2BE800900624EFF0A3EBF0A3EAF0A3E9F0CF
:102BF600E490062FF0A3F090062DE0C4F854F0C838
:102C060068FEA3E0C4540F48FFC3900630E09F90CF
:102C1600062FE09E4003022CA2900628E0FF339583
:102C2600E0FE90062FE0FCA3E0FD2FFFEC3EFEEF5A
:102C36005403900635F0EF7802CEC313CE13D8F9BD
:102C4600FF900629E02F900636F0EDC4F8540FC821
:102C560068FFECC454F048FE90062AE0FBA3E0FAB5
:102C6600A3E02FF9EA3EFA900637EBF0A3EAF0A3C9
:102C7600E9F0900625E0FBA3E0FAA3E0F99006242C
:102C8600E0FF1238FFEF6014900630E004F06003B6
:102C9600022BFD90062FE004F0022BFD90062DE09E
:102CA600FCA3E0FDECC4F854F0C868FEEDC4540F74
:102CB60048FFA3E06E7003A3E06F7074ED540F60DD
:102CC6006C900628E0FF3395E0FE90062FE0FCA30B
:102CD600E0FD2FFFEC3EFEEF5403900635F0EF7853
:102CE60002CEC313CE13D8F9FF900629E02F900623
:102CF60036F0EDC4F8540FC868FFECC454F048FE33
:102D060090062AE0FBA3E0FAA3E02FF9EA3EFA9048
:102D16000637EBF0A3EAF0A3E9F0900625E0FBA363
:102D2600E0FAA3E0F9900624E0FF0238FF7F0122D3
:022D36007F001C
:012D38002278
:0B1CD4009005ADEBF0A3EAF0A3E9F0EF
:101CDF009005B3E024FE602C0460030220479005BA
:101CEF00B4E599F0900000E0FFA3E09005B5CFF0C8
:101CFF00A3EFF09002D1E0FFA3E09005B7CFF0A3E0
:101D0F00EFF0807A9005B4E59BF0900002E0FFA31E
:101D1F00E09005B5CFF0A3EFF09002D3E0FFA3E082
:101D2F009005B7CFF0A3EFF02000539005B4E0FF7C
:101D3F009005ADE0FBA3E0FAA3E0F99005B5E475DB
:101D4F00F00112198A85F082F583EF12195290056E
:101D5F00B5E0FFA3E0900002CFF0A3EFF09005B045
:101D6F00E0FBA3E0FAA3E0F990000374011219520B
:101D7F00900002E4121952900001E40219529005EA
:101D8F00B4E0FF9005ADE0FBA3E0FAA3E0F9900506
:101D9F00B5E0FCA3E0FDF5828C83EF12195290059C
:101DAF00B0E0FBA3E0FAA3E0F9C003C002C0011248
:101DBF0018FAFF9005ADE0FBA3E0FAA3E0F98D82DE
:101DCF008C831219136FD001D002D00312194090D7
:101DDF0005B0E0FBA3E0FAA3E0F990000812191395
:101DEF0070279005ADE0FBA3E0FAA3E0F99005B5ED
:101DFF00E0FEA3E0F5828E83121913FF9005B8E081
:101E0F002FF09005B7E03400F09005B6E004F070C5
:101E1F00069005B5E004F09005B5E07004A3E0640A
:101E2F0001707A9005ADE0FBA3E0FAA3E0F9121878
:101E3F00FAFF9005B0E0FBA3E0FAA3E0F9EF121967
:101E4F00409005ADE0FBA3E0FAA3E0F91218FAFF0A
:101E5F00FD9005B7E4F0A3EDF09005B0E0FBA3E033
:101E6F00FAA3E0F9900008E41219529000037401EC
:101E7F00121952900002E4121952900001E4121943
:101E8F0052EF24E27002803C9005B0E0FBA3E0FA31
:101E9F00A3E0F9900003E4121952021FCF9005B589
:101EAF00E0FEA3E0FF64024E70379005ADE0FBA3A8
:101EBF00E0FAA3E0F91218FAB41E1C9000011219EF
:101ECF0013B460139005B0E0FBA3E0FAA3E0F99020
:101EDF000004741E021FCAE49005B5F0A3F0021DA2
:101EEF008D9005B0E0FBA3E0FAA3E0F99000041297
:101EFF001913641E6003021FCFD3EF9409EE9400F1
:101F0F005003021FD69005ADE0FBA3E0FAA3E0F962
:101F1F00900006121913FE9000071219137C00246B
:101F2F0000FFEC3EFE9005B6E024F6FD9005B5E00F
:101F3F0034FFFCEF6D7002EE6C70719005B0E0FB3A
:101F4F00A3E0FAA3E0F91218FAFFB41F07900002FA
:101F5F00740180379005ADE0FBA3E0FAA3E0F990A0
:101F6F0005B6E024FEFD9005B5E034FF8D82F583C4
:101F7F00121913FEEF641F6EFF124A359005B0E081
:101F8F00FBA3E0FAA3E0F9900002E41219529005C6
:101F9F00B0E0FBA3E0FAA3E0F9900003E4121952BA
:101FAF00E49005B5F0A3F0900001800F9005B0E02C
:101FBF00FBA3E0FAA3E0F9900002E41219528007A4
:101FCF00E49005B5F0A3F09005B3E024FE6034046F
:101FDF0070669005B0E0FBA3E0FAA3E0F990000271
:101FEF00121913B40102C2AC9005B5E0FFA3E09043
:101FFF000000CFF0A3EFF09005B7E0FFA3E0900251
:10200F00D180309005B0E0FBA3E0FAA3E0F9900097
:10201F0002121913B4010353AFFE9005B5E0FFA3ED
:10202F00E0900002CFF0A3EFF09005B7E0FFA3E040
:08203F009002D3CFF0A3EFF0F3
:012047002276
:030023000245167D
:10451600C0E0C0F0C083C082C0D075D000C000C06B
:1045260001C002C003C004C005C006C0073099021E
:10453600C29930982FC298C3900001E094C89000A9
:1045460000E094004004E4F0A3F09005B07401F09C
:10455600A37402F0A374D5F0A37401F0FB7A017979
:1045660005121CD4D007D006D005D004D003D00243
:0F457600D001D000D0D0D082D083D0F0D0E032AE
:030043000243B9BC
:1043B900C0E0C0F0C083C082C0D075D000C000C0CA
:1043C90001C002C003C004C005C006C007E59A3099
:1043D900E031539AFEC3900003E094C8900002E0D4
:1043E90094004004E4F0A3F09005B07401F0A374C4
:1043F90002F0A374DEF0A37402F07B017A0179CD97
:10440900121CD4E59A30E103539AFDD007D006D0A7
:1044190005D004D003D002D001D000D0D0D082D0B2
:0644290083D0F0D0E03268
:074DBD00D201E4900297F01F
:0C4DC400C2B47FD07E07124CAAD2B422E9
:104D7F00538E7F5389F0E4F58A758C4CC28DD28C9B
:054D8F00D2A9D2AF2201
:03000B0002379128
:10379100C0E0C0F0C083C082C0D075D000C000C0FE
:1037A10001C002C003C004C005C006C00790029753
:1037B100E004F09002D8E060209002D6E004F0E04E
:1037C100C394144014A3E4F0A3F0900000F0A3F01C
:1037D1009002D6F07FE1124A359002E1E06020903C
:1037E10002DFE004F0E0C394144014A3E4F0A3F07A
:1037F100900002F0A3F09002DFF07FE2124A353030
:103801008504D2008002C200900297E0FF75F00AA1
:1038110084E5F07002B2A5EFC394C8400590029709
:10382100E4F09002F0E004F0E0D394504002E4F0C0
:10383100D007D006D005D004D003D002D001D000EB
:0B384100D0D0D082D083D0F0D0E03295
:104224009005BBE0FFFCA3E0FD9005B9E0FAA3E034
:10423400FBC39DFDEA9CFC74BE2DF58274053CF520
:1042440083EFF09005BBA3E0FF74BF2DF5827405E6
:104254003CF583EFF0EB24F8EA34FF9005C6F0EB6D
:1042640024F8A3F07B017A0579C09005B9E0FCA39A
:02427400E0FD6B
:1042760090062FEBF0A3EAF0A3E9F0A3ECF0A3ED90
:01428600F047
:10428700E4FF90063274FFF5F012198A45F06017C3
:1042970090062FE0FBA3E475F00112198AA9F0FA42
:0742A7001218FA6FFF80DB23
:0142AE0022ED
:0B11DA00900624EBF0A3EAF0A3E9F07C
:1011E50090000212191390062EF0C2D5ED641E6010
:1011F50003021801900629F0A37408F0900624E074
:10120500FBA3E0FAA3E0F990000412191324FB7084
:101215000302151414700302161A2405600302163E
:1012250067900629E475F00112198A85F082F58325
:101235007409121952900629E475F00112198A856C
:10124500F082F583E4121952900629E475F0011233
:10125500198A85F082F5837404121952900629E4DF
:1012650075F00112198A85F082F5837456121952A8
:10127500900629E475F00112198A85F082F58374C8
:1012850065121952900629E475F00112198A85F044
:1012950082F5837472121952900629E475F00112D1
:1012A500198A85F082F58374101219529002E8E0CC
:1012B500FF90062EE06F6003021379900624E0FB91
:1012C500A3E0FAA3E0F9900003121913F4600302F6
:1012D500137990062975F00112198A85F082F58334
:1012E500744D121952900629E475F00112198A8578
:1012F500F082F5837443121952900629E475F001C2
:1013050012198A85F082F5837455121952900629AF
:10131500E475F00112198A85F082F583745F12195C
:1013250052900629E475F00112198A85F082F58339
:101335007449121952900629E475F00112198A852B
:10134500F082F5837444121952E4FF740C2FF8E609
:10135500FE900624E0FBA3E0FAA3E0F9900629E459
:1013650075F00112198A85F082F583EE1219520F74
:10137500EFB407D7900629A3E024F5FF900624E0F3
:10138500FBA3E0FAA3E0F990000AEF1219529006C8
:1013950029E475F00112198A85F082F583740A1221
:1013A5001952900629E475F00112198A85F082F523
:1013B50083E4121952900629E475F00112198A8501
:1013C500F082F5837405121952900629E475F0012F
:1013D50012198A85F082F583742012195290062914
:1013E500E475F00112198A85F082F58374181219D3
:1013F50052900629E475F00112198A85F082F58369
:101405007409121952900629E475F00112198A859A
:10141500F082F5837412121952900629E475F001D1
:1014250012198A85F082F5837411121952900628D3
:10143500E024FE600804700D9002DC80039002E554
:101445007401F080037F022290062EE0F46003020F
:1014550016C1900624E0FBA3E0FAA3E0F99000038F
:10146500121913FF640160030216C1900002EF1206
:101475001952900003741012195290000474051249
:101485001952900006E4121952900629E0FCA3E0D7
:10149500FD24F8900007121952124276900624E0B6
:1014A500FBA3E0FAA3E0F9900629E475F00112190F
:1014B5008A85F082F583EF121952900629E475F0BA
:1014C5000112198A85F082F583741F12195290064C
:1014D50028E024FE601B047030900624E0FBA3E0A6
:1014E500FAA3E0F9900629E0FCA3E0FD1249758016
:1014F5001B900624E0FBA3E0FAA3E0F9900629E09F
:10150500FCA3E0FD1249B180037F02227F012290F6
:101515000624E0FBA3E0FAA3E0F9900006121913F4
:10152500FE9000071219137C002400FFEC3ECF2427
:101535000AFDE43FFC900624A3A3E012497590063A
:1015450024E0FBA3E0FAA3E0F9900002121913FFCF
:101555009002E7E06F60030216179000031219135B
:10156500FF9002D0E06F6003021617900005121974
:1015750013FF900295E06F600302161790000612A4
:101585001913FF70089000071219136065EF703981
:10159500900624E0FBA3E0FAA3E0F99000071219F6
:1015A5001364047024900008121913B40C1B9000E6
:1015B50009121913701390000A121913B4010A9035
:1015C500000B12191364016029900624E0FBA3E0C7
:1015D500FAA3E0F990000812191364097034900019
:1015E5000A121913240BF582E433F583121913B487
:1015F5000A20900628E024FE600B0470129002DB9E
:101605007401F0800D9002E47401F0C20180037F43
:1016150002227F0122900624E0FBA3E0FAA3E0F971
:1016250090000812191360030216C19000051219E3
:1016350013FF9002E8E06F702590000612191370F1
:101645001D900007121913B4031490000912191301
:10165500700C90000A1219137004D2D5805EC2D5A1
:10166500805A900624E0FBA3E0FAA3E0F99006294E
:10167500E475F00112198A85F082F583740C12194C
:1016850052900629E475F00112198A85F082F583D6
:10169500E4121952900629E475F00112198A85F0B1
:1016A50082F5837401121952900629E475F001122E
:1016B500198A85F082F5837403121952900624E085
:1016C500FBA3E0FAA3E0F9900002121913FF9002C0
:1016D500E8E06F601790062EE0F470030217D490CF
:1016E5000003121913640160030217D4900624E065
:1016F500FBA3E0FAA3E0F99000031219139000028E
:1017050012195290062EE09000031219529000040F
:101715007405121952900006E4121952900629E038
:10172500FCA3E0FD24F890000712195212427690AE
:101735000624E0FBA3E0FAA3E0F9900629E475F09E
:101745000112198A85F082F583EF12195290062944
:10175500E475F00112198A85F082F583741F121958
:1017650052900628E024FE601B047030900624E0A9
:10177500FBA3E0FAA3E0F9900629E0FCA3E0FD1243
:101785004975801B900624E0FBA3E0FAA3E0F990DD
:101795000629E0FCA3E0FD1249B180037F02223057
:1017A500D511E4900297F0900297E0C3940A40F7B0
:1017B50075C760900624E0FBA3E0FAA3E0F9900664
:1017C5002AE024FEFF900629E034FF8F82802390D3
:1017D5000629E0FEA3E0FFD39408EE9400401A909A
:1017E5000624E0FBA3E0FAA3E0F974FF2FF5827469
:0E17F500FF3EF583121913FF227F01227F00B1
:0118030022C2
:100957009005BD74F1F0A374BFF0A374F9F0C2025F
:10096700C203124D1F124B14124DEE124C8C120083
:100977000E124D7F124B821222EF124DC47FD07E92
:1009870007124CAA124DC47FF47E01124CAA124DD5
:10099700C47BFF7A4D7939E4FDFC1249757BFF7AF8
:1009A7004D7939E4FDFC1249B1E49005B9F0A3F0A3
:1009B7009005B9E0FEA3E0FFC39407EE9400505FF3
:1009C7009005BDE02FF8E6C4540F7E00540F24981D
:1009D700F582EE3402F583E0FF124A359005B9A39C
:1009E700E0FF9005BDE02FF8E67E00540F2498F550
:1009F70082EE3402F583E0FF124A359005B9A3E091
:100A0700FF9005BDE02FF8E6FE740C2FF8A60690C0
:100A170005BAE004F070999005B9E004F080917F81
:100A27000D124A357F0A124A35E49005B9F0A3F052
:100A37009005B9E0FEA3E0FFC39407EE9400505F72
:100A47009005BEE0FCA3E02FF582EC3EF583E4932E
:100A5700C4540F7E00540F2498F582EE3402F583B8
:100A6700E0FF124A359005B9E0FEA3E0FF9005BE0E
:100A7700E0FCA3E02FF582EC3EF583E4937E00547F
:100A87000F2498F582EE3402F583E0FF124A359081
:100A970005BAE004F070999005B9E004F08091126E
:100AA7000046C2B77FF77EFF124C0DEF20E403022A
:100AB7000E0BD2B77B017A0279AF7F20124D51908E
:100AC70002AFE0B401107B017A0279F17F207E004A
:100AD7001236D2020DCF9002AFE064036003020D1D
:100AE700CFD2039005B9F0A3F09005B975F00112C4
:100AF700198AFE74C025F0F58274053EF583741ECD
:100B0700F09005B9E475F00112198AFE74C025F05A
:100B1700F58274053EF5837460F09005B9E475F0CD
:100B27000112198AFE74C025F0F58274053EF5831B
:100B37007401F09005B9E475F00112198AFE74C0CA
:100B470025F0F58274053EF583740AF09005B9E443
:100B570075F00112198AFE74C025F0F58274053EFE
:100B6700F5837408F0900296E004FFF09005B9E46D
:100B770075F00112198AFC74C025F0F58274053CE2
:100B8700F583EFF09002E7740AF09002D07401F059
:100B9700900296E0900295F09005BAE02402F0905A
:100BA70005B9E03400F0E475F00112198AFE74C04B
:100BB70025F0F58274053EF5837428F09005BAE0B8
:100BC7002402F09005B9E03400F0E49005BBF0A3EF
:100BD700F09005BBE0FEA3E0FFC39409EE9400503C
:100BE7003674B02FF58274023EF583E0FF602890DB
:100BF70005B9E475F00112198AFC74C025F0F58275
:100C070074053CF583EFF09005BCE004F070C290EA
:100C170005BBE004F080BA9005BBE0FFFCA3E0FD54
:100C2700C39005BAE09DFD9005B9E09CFC74BE2D0C
:100C3700F58274053CF583EFF09005BBA3E0FF74E4
:100C4700BF2DF58274053CF583EFF09005B9E47587
:100C5700F00112198AFE74C025F0F58274053EF57D
:100C670083743CF09005BAE02402F09005B9E034B3
:100C770000F0E49005BBF0A3F09005BBE0FEA3E015
:100C8700FFC39407EE9400503474B92FF5827402B1
:100C97003EF583E0FF9005B9E475F00112198AFC6F
:100CA70074C025F0F58274053CF583EFF09005BC20
:100CB700E004F070C49005BBE004F080BC9005BB75
:100CC700E0FFFCA3E0FDC39005BAE09DFD9005B9E8
:100CD700E09CFC74BE2DF58274053CF583EFF09023
:100CE70005BBA3E0FF74BF2DF58274053CF583EFC8
:100CF700F09005B9E475F00112198AFE74C025F069
:100D0700F58274053EF5837420F09005BAE024025D
:100D1700F09005B9E03400F0E49005BBF0A3F09043
:100D270005BBE0FEA3E0FFC39408EE9400503674C1
:100D3700C02FF58274023EF583E0FF60289005B965
:100D4700E475F00112198AFC74C025F0F582740568
:100D57003CF583EFF09005BCE004F070C29005BB52
:100D6700E004F080BA1242249005B9E475F001124C
:100D7700198AFC74C025F0F58274053CF583EFF001
:100D87009005B9E475F00112198AFE74C025F0F5D3
:100D97008274053EF583741FF07B017A0579C09054
:100DA70005B9E0FCA3E0FD1249757B017A0579C01E
:100DB7009005B9E0FCA3E0FD1249B1124DBD7F14C7
:100DC7007E00124CAA124DC4E49005B9F0A3F0902E
:100DD70005B9E0FEA3E0FFC39420EE9400501C7415
:100DE700AF2FF58274023EF583E4F09005BAE00474
:100DF700F070DC9005B9E004F080D47DFF7FF17ED0
:100E0700FF124AEDE4900628F0A37402F07B01A3D9
:100E170014F0A37400F0A37404F0A3E4F0A37430F7
:100E2700F07A0279EA7F01122BE8EF64016003028E
:100E3700112C300203021130300303021130D202A9
:100E47009005B9F0A3F09005B975F00112198AFE63
:100E570074C025F0F58274053EF583741EF0900585
:100E6700B9E475F00112198AFE74C025F0F5827491
:100E7700053EF5837460F09005B9E475F001121929
:100E87008AFE74C025F0F58274053EF5837401F07F
:100E97009005B9E475F00112198AFE74C025F0F5C2
:100EA7008274053EF583740AF09005B9E475F00184
:100EB70012198AFE74C025F0F58274053EF5837415
:100EC70008F0900296E004FFF09005B9E475F00190
:100ED70012198AFC74C025F0F58274053CF583EF7E
:100EE700F09002E7740AF09002D07401F090029635
:100EF700E0900295F09005BAE02402F09005B9E081
:100F07003400F0E475F00112198AFE74C025F0F57B
:100F17008274053EF5837428F09005BAE02402F048
:100F27009005B9E03400F0E49005BBF0A3F090051C
:100F3700BBE0FEA3E0FFC39409EE940050367404AF
:100F47002FF58274003EF583E0FF60289005B9E431
:100F570075F00112198AFC74C025F0F58274053CFE
:100F6700F583EFF09005BCE004F070C29005BBE09C
:100F770004F080BA9005BBE0FFFCA3E0FDC3900539
:100F8700BAE09DFD9005B9E09CFC74BE2DF5827416
:100F9700053CF583EFF09005BBA3E0FF74BF2DF58B
:100FA7008274053CF583EFF0E4900004F09005B9F6
:100FB70075F00112198AFE74C025F0F58274053E9A
:100FC700F583743CF09005BAE02402F09005B9E08F
:100FD7003400F0E49005BBF0A3F09005BBE0FEA35E
:100FE700E0FFC39407EE9400503474242FF5827405
:100FF700003EF583E0FF9005B9E475F00112198A08
:10100700FC74C025F0F58274053CF583EFF090057C
:10101700BCE004F070C49005BBE004F080BC900510
:10102700BBE0FFFCA3E0FDC39005BAE09DFD900582
:10103700B9E09CFC74BE2DF58274053CF583EFF096
:101047009005BBA3E0FF74BF2DF58274053CF583C3
:10105700EFF0E4900004F09005B975F00112198AD9
:10106700FE74C025F0F58274053EF5837420F09078
:1010770005BAE02402F09005B9E03400F0E49005E9
:10108700BBF0A3F09005BBE0FEA3E0FFC39408EE1E
:101097009400503674142FF58274003EF583E0FFF8
:1010A70060289005B9E475F00112198AFC74C0250F
:1010B700F0F58274053CF583EFF09005BCE004F091
:1010C70070C29005BBE004F080BA1242249005B9C3
:1010D700E475F00112198AFC74C025F0F5827405D5
:1010E7003CF583EFF09005B9E475F00112198AFE1B
:1010F70074C025F0F58274053EF583741FF07B01FB
:101107007A0579C09005B9E0FCA3E0FD1249757B2B
:10111700017A0579C09005B9E0FCA3E0FD1249B159
:10112700124DBD8004C202C203E4FF1244A5300180
:101137004D900297E0D3946440443000417B017A9C
:101147000579C09005C6E0FEA3E07C002400FFEC13
:101157003ECF240AFDE43FFC1249757B017A0579ED
:10116700C09005C6E0FEA3E07C002400FFEC3ECF64
:10117700240AFDE43FFC1249B1E4900297F0900283
:10118700D7E060217B017A0179059002D9E0FD90D3
:1011970006287401F01211DAD2ACE49002D7F0906D
:1011A7000000F0A3F09002E0E07003020AA97B01BF
:1011B7007A0179CD9002E2E0FD9006287402F012E0
:1011C70011DA43AF01E49002E0F0900002F0A3F0DF
:0311D700020AA960
:104D1F00E4F591F592F595F596F5B1F5B2F5B37514
:0A4D2F00B402D2B2C2A543962022BE
:10493100E4FDFCC3ED9FEC9E503900000000000037
:104941000000000000000000000000000000000066
:104951000000000000000000000000000000000056
:104961000000000000000000000000000DBD00017B
:034971000C80C0F7
:014974002220
:104B140090039D7401F0A37403F0A374A1F09003B7
:104B2400987401F0A37404F0A374A1F0E4F509F5FA
:064B340008F50AF50B2252
:0B3EBE0090063DEBF0A3EAF0A3E9F052
:103EC9007D807F12124C4E7D807F13124C4E7D08EF
:103ED9007F13124BCD7D087F08124C4E7D077F0D55
:103EE900124E0A7523267F017E007D007C00123563
:103EF900469006487401F07B00A314F0A37400F007
:103F0900A37424F0A3EBF0A37400F0A37426F07A51
:103F19000079237F0C1224F08F22E522702BE527EC
:103F290064104526702390063DE0FBA3E0FAA3E068
:103F3900F9E52412194090063DE0FBA3E0FAA3E05D
:0B3F4900F9900001E525121952AF228B
:013F5400224A
:0B3F5500900624EBF0A3EAF0A3E9F0D3
:103F60007D807F12124C4E7D807F13124C4E7D0857
:103F70007F13124BCD7D087F08124C4E7D077F0DBD
:103F8000124E0A7522527F017E007D007C001235A0
:103F9000469006487401F07B00A314F0A37400F06F
:103FA000A37423F0A3EBF0A37400F0A37425F07ABC
:103FB0000079227F0C1224F08F21E521702BE52659
:103FC000641045257023900624E0FBA3E0FAA3E0EB
:103FD000F9E523121940900624E0FBA3E0FAA3E0E0
:0B3FE000F9900001E524121952AF21F6
:013FEB0022B3
:1032C40090063AE0FBA3E0FAA3E02407F9E43AFA13
:0232D4007F95E4
:0E32D60090063DEFF0A3EBF0A3EAF0A3E9F0C1
:1032E4007D807F12124C4E7D807F13124C4E7D08E0
:1032F4007F08124C4EE4FD7F0D124E0A7D807F0E36
:10330400124C4E90063DE0F5247525207F017E0089
:103314007D007C001235469006487402F0A3E4F068
:10332400A37400F0A37426F0A3E4F0A37400F0A344
:10333400742BF07B007A0079247F0C1224F08F2206
:10334400E5227058F52374262523F8E6FF90063EFF
:10335400E0FBA3E0FAA3E0F9852382758300EF1272
:1033640019520523E523B405DD90063EE0FBA3E0F6
:10337400FAA3E0F9900001121913FF1218FA6FFF73
:103384009000021219136FFF9000031219136FFFBC
:0E3394009000041219136F6003752201AF221E
:0133A2002208
:0E3A5B0090063DEFF0A3EBF0A3EAF0A3E9F034
:103A6900E4FD7F0D124E0A7D807F12124BCD7D80C1
:103A79007F13124BCD7D087F08124C4E90063DE016
:103A8900F524752570E4F52390063EE0FBA3E0FAE2
:103A9900A3E0F9852382758300121913FF74262583
:103AA90023F8A6070523E523B405DD7F017E007D04
:103AB900007C001235469006487407F0A3E4F0A391
:103AC9007400F0A3742BF0A3E4F0A37400F0A374C2
:103AD90030F07B007A0079247F0C1224F08F22E5E4
:103AE900227010900641E0FBA3E0FAA3E0F9E52B70
:053AF900121940AF228C
:013AFE0022A5
:10478600752250E4F523FD7F0D124E0A7D807F12BF
:10479600124BCD7D807F13124BCD7D087F08124CC6
:1047A6004E7F017E007D007C0012354690064874DF
:1047B60002F0A3E4F0A37400F0A37424F0A3E4F0E1
:1047C600A37400F0A37425F07B007A0079227F049D
:0547D6001224F08F2108
:0147DB0022BB
:0B20480090063AEBF0A3EAF0A3E9F0E9
:10205300123EBE8F21E521B401037F012290063A8F
:10206300E0FBA3E0FAA3E0F91218FA54C0706DE99B
:102073002403F9E43AFA7F931232D68F21E521B48F
:1020830001037F012290063AE0FBA3E0FAA3E024D8
:1020930003F9E43AFAC003C002C00190063AA3E090
:1020A300FAA3E0240FF9E43AFA900641EBF0A3EA2D
:1020B300F0A3E9F0D001D002D0037F93123A5B8FF3
:1020C30021E521B401037F012290063AE0FBA3E05E
:1020D300FAA3E0F9900002740412195290063AE050
:1020E300FBA3E0FAA3E0F91218FA54C064406003BA
:1020F3000221B4E92403F9E43AFA7F931232D68F2A
:1021030021E521B401037F012290063AE0FBA3E01D
:10211300FAA3E02403F9E43AFAC003C002C0019031
:10212300063AA3E0FAA3E0240FF9E43AFA90064151
:10213300EBF0A3EAF0A3E9F0D001D002D0037F9340
:10214300123A5B8F21E521B401037F01221232C4CD
:102153008F21E521B401037F012290063AE0FBA31E
:10216300E0FAA3E02407F9E43AFAC003C002C0018D
:1021730090063AA3E0FAA3E0240FF9E43AFA9006B2
:1021830041EBF0A3EAF0A3E9F0D001D002D0037F42
:1021930095123A5B8F21E521B401037F012290065A
:1021A3003AE0FBA3E0FAA3E0F990000274081219E5
:1021B3005290063AE0FBA3E0FAA3E0F91218FA54AE
:1021C300C0648060030222ECE92403F9E43AFA7F55
:1021D300931232D68F21E521B401037F01229006A9
:1021E3003AE0FBA3E0FAA3E02403F9E43AFAC003DC
:1021F300C002C00190063AA3E0FAA3E0240FF9E479
:102203003AFA900641EBF0A3EAF0A3E9F0D001D04B
:1022130002D0037F93123A5B8F21E521B401037F40
:1022230001221232C48F21E521B401037F012290E0
:10223300063AE0FBA3E0FAA3E02407F9E43AFAC084
:1022430003C002C00190063AA3E0FAA3E0240FF909
:10225300E43AFA900641EBF0A3EAF0A3E9F0D001E7
:10226300D002D0037F95123A5B8F21E521B401039D
:102273007F012290063AE0FBA3E0FAA3E0240BF9E6
:10228300E43AFA7F971232D68F21E521B401037F16
:10229300012290063AE0FBA3E0FAA3E0240BF9E461
:1022A3003AFAC003C002C00190063AA3E0FAA3E0E1
:1022B300240FF9E43AFA900641EBF0A3EAF0A3E91C
:1022C300F0D001D002D0037F97123A5B8F21E52132
:1022D300B401037F012290063AE0FBA3E0FAA3E0F6
:0B22E300F9900002740C121952AF2198
:0122EE0022CD
:0D4DEE00E4F5CF75CDC075CED0F5A2FF2243
:104A9D00900653E004F07006900652E004F0D390B7
:104AAD000653E094C8900652E0940040037F002224
:074ABD00E5CD5F60DB7F0126
:014AC40022CF
:104AC500C292EF25E0F54F434F8075CDC0854FCF9E
:104AD5007F80124A9D75CDC0E4F5CF7F80124A9D37
:074AE50085CF4ED292AF4EC7
:014AEC0022A7
:0D46C20090064FEBF0A3EAF0A3E9F0AE077D
:1046CF00EE6051C292AF05EF25E0F54C434C80757B
:1046DF00CDC0854CCF7F80124A9DE4F54BE54BC38F
:1046EF009E502F75CDC0EE14B54B05E4F5CF80036A
:1046FF00854CCF7F80124A9D90064FE0FBA3E0FAD6
:10470F00A3E0F9854B82758300E5CF121952054B53
:04471F0080CBD292E7
:014723002273
:104B3A00C292EF25E0F54D534D7E75CDC0854DCF20
:104B4A007F80124A9D75CDC0AF058FCF7F80124AF4
:034B5A009DD29257
:014B5D002235
:0D48880090064FEBF0A3EAF0A3E9F0AE07B5
:10489500EE6044C292AF05EF25E0F54B534B7E75B4
:1048A500CDC0854BCF7F80124A9DE4F54CE54CC3C6
:1048B5009E502275CDC090064FE0FBA3E0FAA3E021
:1048C500F9854C82758300121913F5CF7F80124A42
:0748D5009D054C80D8D29232
:0148DC0022B9
:10384C00EF7003752160EFB40103752161ED25E084
:10385C0025E0F5221218FAF523900001121913F540
:10386C0024900002121913F525900003121913F578
:10387C0026900004121913F527900005121913F560
:10388C002890063FE0FBA3E0FAA3E0F91218FAF542
:10389C0029900001121913F52A900002121913F540
:1038AC002B900003121913F52C7F017E007D007CF8
:1038BC0000123546900648740CF0A3E4F0A3740093
:1038CC00F0A3742DF0A3E4F0A37400F0A3742FF014
:1038DC007B007A0079217F0E1224F08F2EE52E705A
:1038EC000F7F08124E20EF30E3037F00227F01226E
:0238FC007F014A
:0138FE0022A7
:10472400900003121913FEF521900002121913FDD3
:10473400F522900001121913F5231218FAF524EE4C
:10474400F4F525EDF4F526900001121913FEF4F5A5
:10475400271218FAFDF4F528900003121913F5290D
:10476400900002121913F52A8E2B8D2C8F2DEFF445
:10477400F52E8F2FF5307B007A00792112360D8FBC
:014784003103
:014785002211
:0E410C0090063AEFF0A3EBF0A3EAF0A3E9F07F
:10411A007D807F12124E0A7D807F13124E0AE4FDC3
:10412A007F0D124E0A7F017E007D007C001235460B
:10413A0075213090063AE0F5229006487402F09014
:10414A00063BE0F9A3E0FAA3E0900649C9F0A3EA26
:10415A00F0A3E9F0A3E4F0A37400F0A37424F07BC5
:10416A00007A0079217F0C1224F08F23E5256480E0
:10417A00452460047F0180027F00E52360047E01FC
:0D418A0080027E00EE4F60037F01227F0067
:014197002205
:0E360D00900624EFF0A3EBF0A3EAF0A3E9F09F
:10361B007F057E007D007C001235467533A0900639
:10362B0024E0F5349006487402F0A3E4F0A3740090
:10363B00F0A37443F0A3E4F0A37400F0A37444F07C
:10364B007B007A0079337F0C1224F08F32E54354E0
:10365B000F640A60047F0180027F00E53260047E04
:10366B000180027E00EE4F60037F01227F0A7E0005
:10367B007D007C001235469006487410F0A3E4F0F0
:10368B00A37400F0A37443F0A3E4F0A37400F0A3BD
:10369B007444F0900625E0FBA3E0FAA3E0F97F0C5D
:1036AB001224F08F32E543540F640A60047F0180CB
:1036BB00027F00E53260047E0180027E00EE4F60E7
:0636CB00037F01227F00D5
:0136D10022D6
:0E3AFF00900624EFF0A3EBF0A3EAF0A3E9F0A9
:103B0D007F057E007D007C001235467522C1900632
:103B1D0024E0F5239006487402F0A3E4F0A37400AA
:103B2D00F0A37424F0A3E4F0A37400F0A37425F0C3
:103B3D007B007A0079227F0C1224F08F21E524542A
:103B4D000F640A60047F0180027F00E52160047E1E
:103B5D000180027E00EE4F60037F01227F057E0013
:103B6D007D007C001235469006487404F0A3E4F005
:103B7D00A37400F0A37424F0A3E4F0A37400F0A3E5
:103B8D007425F0900625E0FBA3E0FAA3E0F97F0C85
:053B9D001224F0AF212D
:013BA2002200
:0E3BA300900624EFF0A3EBF0A3EAF0A3E9F004
:103BB1007F057E007D007C001235467522C090068F
:103BC10024E0F5239006487402F0A3E4F0A3740006
:103BD100F0A37424F0A3E4F0A37400F0A37425F01F
:103BE1007B007A0079227F0C1224F08F21E5245486
:103BF1000F640A60047F0180027F00E52160047E7A
:103C01000180027E00EE4F60037F01227F057E006E
:103C11007D007C001235469006487404F0A3E4F060
:103C2100A37400F0A37424F0A3E4F0A37400F0A340
:103C31007425F0900625E0FBA3E0FAA3E0F97F0CE0
:053C41001224F0AF2188
:013C4600225B
:05465E00900624EFF0BE
:104663007F057E007D007C001235467522B09006E2
:1046730024E0F5239006487402F0A3E4F0A3740049
:10468300F0A37424F0A3E4F0A37400F0A37425F062
:104693007B007A0079227F0C1224F08F21E52454C9
:1046A3000F640A60047F0180027F00E52160047EBD
:0E46B3000180027E00EE4F60037F0122AF21E6
:0146C10022D6
:053CEB00900624EFF03B
:103CF0007F057E007D007C001235467522C290064D
:103D000024E0F5239006487402F0A3E4F0A37400C5
:103D1000F0A37426F0A3E4F0A37400F0A37427F0DA
:103D20007B007A0079227F0C1224F08F21E5265443
:103D30000F640A60047F0180027F00E52160047E39
:103D40000180027E00EE4F60037F01227F057E002E
:103D50007D007C00123546E4F522F523F524F52597
:103D60009006487404F0A3E4F0A37400F0A3742652
:103D7000F0A3E4F0A37400F0A37427F07B007A00B2
:093D800079227F0C1224F0AF211E
:013D89002217
:042A65004106BE0068
:054E2000124AC58F4D90
:014E2500226A
:0B49ED00900624EBF0A3EAF0A3E9F031
:1049F800E4F521AF21124AC5900624E0FBA3E0FAB2
:104A0800A3E0F9852182758300EF1219520521E58B
:084A180021C3944040DD7F0042
:014A20002273
:044E0600E4FD7F0147
:064E0A00124B3A7F00226A
:064E26007D091246C222C4
:104D6900900648E0FF900645E0FBA3E0FAA3E0F9CE
:064D79007D0912488822AA
:104DA9007D807F0A124BCD7F0A124AC5EF7002FF40
:044DB900227F012232
:044BC9007D807F0D5F
:0A4BCD00900650EDF090064FEFF057
:104BD700124E20900650E04FFD90064FE0FF124E18
:034BE7000A8F4CE6
:014BEA0022A8
:0A4C4E00900650EDF090064FEFF0D5
:104C5800124E20900650E0F45FFD90064FE0FF12E0
:044C68004E0A8F4B16
:014C6C002225
:0544A50090063AEFF063
:1044AA007F14124E20EF5403FF90063AE0FEB50740
:1044BA00037F0022EE70097D037F14124C4E8F2178
:1044CA0090063AE0B401127D017F14124BCD8F2180
:1044DA007D027F14124C4E8F2190063AE0B40212EC
:1044EA007D017F14124C4E8F217D027F14124BCD19
:1044FA008F2190063AE0B403097D037F14124BCD55
:0B450A008F217FE87E03124931AF21B2
:014515002283
:0E24F000900644EFF0A3EBF0A3EAF0A3E9F0AE
:1024FE00E4F547F548F549124DA9124E067D207FA9
:10250E000B124E0A7D7F7F04124E0A900644E0B4F1
:10251E000E06124D69124BC97D807F2A124BCD904B
:10252E000644E0FD7F01124E0A7F04124E208F4AB0
:10253E00E54A30E006754601022662900644E0FF49
:10254E00B40E08E54A30E40302265FEF64047059C6
:10255E00E54A30E244900648E0FFD39400403AEF5B
:10256E009420900645E0FBA3E0FAA3E0F9500A128E
:10257E004D79E4900648F080167F20124D79900632
:10258E0048E024E0F0900646E475F0201219747DC0
:10259E00047F04124E0A124BC9E54A30E60B900630
:1025AE0048E07005F546022662900644E0640C6031
:1025BE0003022537E54A30E245900648E0FFD39402
:1025CE0000403BEFD394204023900645E0FBA3E070
:1025DE00FAA3E0F97F20124D79900648E024E0F04E
:1025EE00900646E475F0201219748008124D69E4C5
:1025FE00900648F0124BC97D047F04124E0AE54A3C
:10260E0030E33830E635900648E0702F7F0A124EE0
:10261E0020EFD394204024900649E0FBA3E0FAA3D8
:10262E00E07E002548F9EE3AFA7F20124E267420FD
:10263E002548F5487D087F04124E0AE54A20E50339
:10264E00022537900648E060030225379006BE0447
:10265E00F0E4F546900644E0640C7071F5487F0A8C
:10266E00124E208F47900649E0FBA3E0FAA3E07ECE
:10267E00002548F9EE3AFA124E26E5472548F54868
:10268E007F0C124E20EF5407F5496028E54824FFD1
:10269E00FFE434FFFEEF7803C333CE33CED8F97C9C
:1026AE00002549FFEC3EF990064CE0FBA3E0FAA3AF
:1026BE00E0C98014E54875F008A4FF90064CE0FBD5
:1026CE00A3E0FAA3E0F9E5F08FF01219A07D807F68
:1026DE000C124BCD124E067D807F0D124C4EAF4626
:0126EE0022C9
:06354600900644121B0078
:10354C00E4F54AF54BF549F548F547F546E47FF8BF
:10355C007E34FDFC900644E0F8A3E0F9A3E0FAA366
:10356C00E0FB1219BFEF24FFFFEE34FFFEED34FF3A
:10357C00FDEC34FFFCC006C007E54B25E0FFE54A37
:10358C0033FEEF2401FFE43EAB07FAE4F9F8D00771
:10359C00D006121A4A8F498E488D478C46E47FFF1D
:1035AC007EFFFDFCAB49AA48A947A846C3121ADC0A
:1035BC004011054BE54B7002054AF47004E54A6472
:1035CC000F708AE549F549E548F548E4F547F546B5
:1035DC00E54AFD7F2A124BCDE54BFD7F2B124E0A9F
:1035EC00AF49AE48AD47AC467808121AEDAD077F2F
:1035FC002C124E0AE549FFAD077F2D124E0A7F00B3
:01360C00229B
:103E260090063AEFF0701C7D107F0C124BCD7D4052
:103E36007F15124BCDE4FD7F12124E0AE4FD7F136F
:103E4600124E0A90063AE06401702A7D107F0C1229
:103E56004E0A7D837F12124E0A7D837F13124E0A0D
:103E66007DF47F27124E0A7DF47F23124E0AE4FD6D
:103E76007F15124E0A90063AE0640270387D107F74
:103E86000C124E0A7D927F12124E0A7D967F1312F5
:103E96004E0A7DF47F27124E0A7D207F28124E0A95
:103EA6007D4F7F23124E0A7D207F29124E0A7D0701
:083EB6007F15124E0A7F002265
:100026007D0F7F01124E0A7D107F0C124BCD7F0C87
:0D003600124E20EF30E4037F00227F0122F4
:104D9400C2B27F017E00124931D2B27F017E00127D
:054DA40049317F0022EF
:104CC8007F01124E20EF30E40A7D107F01124C4E16
:0D4CD8007F01227D107F01124BCD7F002255
:0B4DFB00B2B230B2037F00227F012221
:0F4DD000EF2480FD7F0F124E0A7F0F124E20221C
:104CE500900624EDF0EF2440FD7F0F124E0A90064A
:0D4CF50024E024C0FD7F0F124E0A7F002234
:064E2C00008400000800F4
:102A8800900624EFF0A3EDF0A3EBF0A3EAF0A3E99E
:012A9800F04D
:102A99007D807F12124E0A7D807F13124E0AE4FD5B
:102AA9007F0D124E0A7F647E007D007C0012354640
:102AB9007522E0900625E0F523540F90068EF090DC
:102AC9000624E090068DF0124DA99006487402F094
:102AD900900629E0F9A3E0FAA3E0900649C9F0A31A
:102AE900EAF0A3E9F0A3E4F0A37400F0A37425F0DD
:102AF9007B007A0079227F0C1224F08F21E5216076
:102B090003022BD6F524E526AE257803CEC313CED2
:102B190013D8F9FF900626E0FBA3E0FAA3E0F9EF4A
:102B2900121940900629E0FBA3E0FAA3E0F9121874
:102B3900FA900690F0900001121913900691F05442
:102B49000F900695F0900691E030E61E900629A3B5
:102B5900A3E02402F9E43AFA7E00E92524F9EE3AE1
:102B6900FA1218FA900692F00524900691E030E5E1
:102B790031900629E0FBA3E0FAA3E02402F9E43A44
:102B8900FA7E00E92524F9EE3AFA1218FA9006932A
:102B9900F0900696E4F0900693E0540F900697F0B3
:102BA9000524900691E030E433900629E0FBA3E088
:102BB900FAA3E02402F9E43AFA7E00E92524F9EEC1
:102BC9003AFA1218FA900694F00524800F90062616
:0E2BD900E0FBA3E0FAA3E0F9E4121940AF21FB
:012BE70022CB
:103C4700900624EFF0A3EDF0A3EBF0A3EAF0A3E9CD
:013C5700F07C
:103C58007F327E007D007C0012354690068EE0445F
:103C6800D0F522900624E0F523124DA9900624E011
:103C780030E40BA3E0F52490064874038005900611
:103C8800487402F0900629E0F9A3E0FAA3E0900650
:103C980049C9F0A3EAF0A3E9F0A3E4F0A37400F0A3
:103CA800A37425F07B007A0079227F0C1224F08F10
:103CB80021E521701CE526AE257803CEC313CE136B
:103CC800D8F9FF900626E0FBA3E0FAA3E0F9EF801D
:103CD8000C900626E0FBA3E0FAA3E0F9E4121940F1
:023CE800AF210A
:013CEA0022B7
:0800030090068DE06401F0227B
:0B47DC00900624EBF0A3EAF0A3E9F044
:1047E70078227C007D007BFF7A4E792C7E007F0546
:1047F7001218D4900624E0F9A3E0FAA3E090062E5D
:10480700C9F0A3EAF0A3E9F0900627E0F9A3E0FADC
:10481700A3E0900631C9F0A3EAF0A3E9F07B007AA0
:0A4827000079227F05122D398F2140
:014831002264
:0E42AF00900624EFF0A3EBF0A3EAF0A3E9F0F1
:1042BD007F647E007D007C00123546900624E090E0
:1042CD000648F090062BE0F9A3E0FAA3E09006492A
:1042DD00C9F0A3EAF0A3E9F0A3E4F0A37400F0A3FE
:1042ED007422F0900625E0FBA3E0FAA3E0F97F0C21
:1042FD001224F08F21E521701CE523AE227803CE28
:10430D00C313CE13D8F9FF900628E0FBA3E0FAA360
:10431D00E0F9EF800C900628E0FBA3E0FAA3E0F9AA
:06432D00E4121940AF216B
:014333002267
:0E2D390090062AEFF0A3EBF0A3EAF0A3E9F076
:102D47007FF47E017D007C0012354690068DE09071
:102D5700062A30E354E0FF7E00A3E0FBA3E0FAA3DA
:102D6700E02402F9E43AA801FCAD0390062BA3A3E3
:102D7700E0F9121CAC90068DE0FF90062BE0FBA358
:102D8700E0FAA3E0F9EF12194090068EE0FF9006F3
:102D97002BE0FBA3E0FAA3E0F9900001EF12195230
:102DA70090062AE02402F0803AE0FF7E00A3E0FBD1
:102DB700A3E0FAA3E02401F9E43AA801FCAD0390EB
:102DC700062BA3A3E0F9121CAC90068DE0FF90063A
:102DD7002BE0FBA3E0FAA3E0F9EF12194090062AD3
:102DE700E004F090062AE0900648F0900631E0F9FA
:102DF700A3E0FAA3E0900649C9F0A3EAF0A3E9F03B
:102E0700A3E4F0A37400F0A37428F090062BE0FB72
:102E1700A3E0FAA3E0F97F0C1224F08F27E52770CF
:102E27004A900631E0FBA3E0FAA3E0F91218FA9002
:102E3700068DF054F0FFBFF013E030E30590000279
:102E4700800390000112191390068FF0120003E51A
:102E570029AE287803CEC313CE13D8F9FF90062ED8
:102E6700E0FBA3E0FAA3E0F9EF800C90062EE0FB6D
:0C2E7700A3E0FAA3E0F9E4121940AF2731
:012E8300222C
:0B347B00900624EBF0A3EAF0A3E9F0B8
:103486007F647E007D007C0012354690068DE0301C
:10349600E311540F44A0F521A3E0F52290064874E9
:1034A60002800F90068DE0540F44A0F52190064847
:1034B6007401F0900627E0F9A3E0FAA3E09006492C
:1034C600C9F0A3EAF0A3E9F0A3E4F0A37400F0A323
:1034D6007424F07B007A0079217F0C1224F08F236C
:1034E600E523704A900627E0FBA3E0FAA3E0F91271
:1034F60018FA90068DF054F0FFBFF013E030E305A4
:10350600900002800390000112191390068FF012AA
:103516000003E525AE247803CEC313CE13D8F9FFF6
:10352600900624E0FBA3E0FAA3E0F9EF800C9006F6
:0F35360024E0FBA3E0FAA3E0F9E4121940AF236D
:013545002263
:0E31D200900624EFF0A3EBF0A3EAF0A3E9F0DF
:1031E0007FF47E017D007C00123546900624E0FFCE
:1031F00044C0F52190068DE030E323EF54F064F0F5
:10320000700FA3E0F522A3E0F52390064874038035
:103210002590068EE0F522900648740280189006EC
:1032200024E054F0FFBFF00690068FE08001E4F543
:10323000229006487402F0900628E0F9A3E0FAA371
:10324000E0900649C9F0A3EAF0A3E9F0A3E4F0A3F3
:103250007400F0A37425F07B007A0079217F0C12B2
:1032600024F08F24E524704A900628E0FBA3E0FABE
:10327000A3E0F91218FA90068DF054F0FFBFF01396
:10328000E030E305900002800390000112191390D2
:10329000068FF0120003E526AE257803CEC313CEC9
:1032A00013D8F9FF900625E0FBA3E0FAA3E0F9EFBD
:1032B000800C900625E0FBA3E0FAA3E0F9E41219E4
:0332C00040AF24F8
:0132C30022E8
:10483200900624EFF07D707F12124C4E7D707F1334
:10484200124C4E900624E014601514601D1460256D
:104852002403702FE4FD7F12124BCDE4FD801F7DF7
:10486200107F12124BCD7D1080147D207F12124BCF
:10487200CD7D2080097D307F12124BCD7D307F139C
:06488200124BCD7F002265
:0E45F300900624EFF0A3EBF0A3EAF0A3E9F0AA
:104601007D807F12124E0A7D807F13124E0AE4FDD7
:104611007F0D124E0A752230900624E0F5237F01AA
:104621007E007D007C001235469006487402F090B1
:104631000625E0F9A3E0FAA3E0900649C9F0A3EA50
:10464100F0A3E9F0A3E4F0A37400F0A37424F07BD9
:0C465100007A0079227F0C1224F08F21E7
:01465D00223A
:10442F007522A28F231218FAF52490000112191386
:10443F00F525900002121913F52690000312191397
:10444F00F5277F0A7E007D007C00123546900648D6
:10445F007406F0A3E4F0A37400F0A37428F0A3E4AF
:10446F00F0A37400F0A37429F07B007A0079227F07
:10447F000C1224F08F21E528640A60047F0180026A
:10448F007F00E52160047E0180027E00EE4F600315
:05449F007F01227F00F7
:0144A40022F5
:0B3D8A00900624EBF0A3EAF0A3E9F0A0
:103D95007F057E007D007C0012354690062D74500F
:103DA500F0782E7C067D01900624E0FBA3E0FAA3C3
:103DB500E0F97E007F041218D49006487405F0904F
:103DC500062AE0F9A3E0FAA3E0900649C9F0A3EAC0
:103DD500F0A3E9F0A37401F0A37406F0A37432F024
:103DE5007B017A06792D7F0C1224F0AD07ED701F4B
:103DF500900632E0FEA3E07803CEC313CE13D8F9C4
:103E0500FF900627E0FBA3E0FAA3E0F9EF800C9012
:103E15000627E0FBA3E0FAA3E0F9E4121940AF0599
:013E2500227A
:0B2E8400900624EBF0A3EAF0A3E9F0B5
:102E8F007F057E007D007C0012354690062E74056E
:102E9F00F0E4A3F0A37408F09006487403F09006D2
:102EAF0027E0F9A3E0FAA3E0900649C9F0A3EAF0FE
:102EBF00A3E9F0A37401F0A37406F0A37431F07BBF
:102ECF00017A06792E7F0C1224F090062DEFF06018
:102EDF0003022F9B900631E0FEA3E07803CEC313CD
:102EEF00CE13D8F9FF900624E0FBA3E0FAA3E0F994
:102EFF00EF121940900627E0FBA3E0FAA3E02401AC
:102F0F00F9E43AFAC003C002A3E0FBA3E0FAA3E09E
:102F1F00F8AC02AD03D002D0037E007F041218D4A8
:102F2F00900627E0FBA3E0FAA3E02406F9E43AFABF
:102F3F00C003C002C001A3E0FBA3E0FAA3E0240496
:102F4F00F9E43AA801FCAD03D001D002D0037E0012
:102F5F007F041218D4900627E0FBA3E0FAA3E02425
:102F6F000AF9E43AFAC003C002C001A3E0FBA3E0F0
:102F7F00FAA3E02408F9E43AA801FCAD03D001D08C
:102F8F0002D0037E007F031218D4800F900624E036
:102F9F00FBA3E0FAA3E0F9E412194090062DE0FF3D
:012FAF0022FF
:0B2FB000900624EBF0A3EAF0A3E9F088
:102FBB007F057E007D007C0012354690062E740541
:102FCB00F0E4A3F0A3F09006487403F0900627E01A
:102FDB00F9A3E0FAA3E0900649C9F0A3EAF0A3E94C
:102FEB00F0A37401F0A37406F0A37431F07B017AA3
:102FFB0006792E7F0C1224F090062DEFF060030261
:10300B0030C5900631E0FEA3E07803CEC313CE1398
:10301B00D8F9FF900624E0FBA3E0FAA3E0F9EF1246
:10302B001940900627E0FBA3E0FAA3E02401F9E4A2
:10303B003AFAC003C002A3E0FBA3E0FAA3E0F8ACAA
:10304B0002AD03D002D0037E007F041218D4900689
:10305B0027E0FBA3E0FAA3E02406F9E43AFAC00365
:10306B00C002C001A3E0FBA3E0FAA3E02404F9E44F
:10307B003AA801FCAD03D001D002D0037E007F043F
:10308B001218D4900627E0FBA3E0FAA3E0240AF978
:10309B00E43AFAC003C002C001A3E0FBA3E0FAA329
:1030AB00E02408F9E43AA801FCAD03D001D002D02A
:1030BB00037E007F031218D4800F900624E0FBA33D
:0E30CB00E0FAA3E0F9E412194090062DE0FFB0
:0130D90022D4
:0B39B000900624EBF0A3EAF0A3E9F07E
:1039BB007F057E007D007C0012354690062D741D20
:1039CB00F0782E7C067D01900624E0FBA3E0FAA3A1
:1039DB00E0F97E007F041218D4E4900632F0A37451
:1039EB0008F0A37401F0A3F09006487409F0900658
:1039FB002AE0F9A3E0FAA3E0900649C9F0A3EAF0A4
:103A0B00A3E9F0A37401F0A37406F0A37436F07B62
:103A1B00017A06792D7F0C1224F0AD07ED701F9003
:103A2B000636E0FEA3E07803CEC313CE13D8F9FF1E
:103A3B00900627E0FBA3E0FAA3E0F9EF800C9006D9
:0F3A4B0027E0FBA3E0FAA3E0F9E4121940AF056E
:013A5A002249
:0B407C00900624EBF0A3EAF0A3E9F0AB
:104087007F057E007D007C00123546E490062AF00D
:10409700A37436F0E4A3F0A3F0A37408F0900648E5
:1040A7007405F0900627E0F9A3E0FAA3E09006492B
:1040B700C9F0A3EAF0A3E9F0A37401F0A37406F032
:1040C700A3742FF07B017A06792A7F0C1224F0ADB6
:1040D70007ED701F90062FE0FEA3E07803CEC31311
:1040E700CE13D8F9FF900624E0FBA3E0FAA3E0F98A
:1040F700EF800C900624E0FBA3E0FAA3E0F9E412BA
:044107001940AF05A7
:01410B002291
:064E32000600FFFF000076
:0E33A300900624EFF0A3EBF0A3EAF0A3E9F00C
:1033B100782D7C067D017BFF7A4E79327E007F0677
:1033C1001218D4900624E0FF601664016012EF64C5
:1033D10003600DEF64076008EF640F60037F012253
:1033E100900624E0900632F07F0A7E007D007C008A
:1033F1001235469006487406F0900628E0F9A3E0DD
:10340100FAA3E0900649C9F0A3EAF0A3E9F0A37496
:1034110001F0A37406F0A3742BF07B017A06792DD9
:103421007F0C1224F0EF704090062BE0FEA3E078B1
:1034310003CEC313CE13D8F9FF900625E0FBA3E01A
:10344100FAA3E0F9EF121940900628E0FBA3E0FA95
:10345100A3E02402F9E43AFA78B67C067D017E0005
:103461007F081218D47F0022900625E0FBA3E0FA22
:09347100A3E0F9E41219407F0107
:01347A00222F
:102A69005B06620102030405060708090102030463
:0E2A79000506070809010203040506070809FF
:10004600E50964016003020956E50A6003020956E0
:10005600F509900398E0FBA3E0FAA3E0F9E412198E
:1000660040900398E0FBA3E0FAA3E0F91218FA1215
:100076001B0C09560000EE0100F40200FA030123EE
:1000860004016D05019E0601F807024E0802540997
:10009600025A0A029C0B02E60C02EC1003941103AE
:1000A600C812040F13043A14045915048416049C48
:1000B6001704C01804DF20053321058722059F2376
:1000C60005DE2406192506662606C527070031071C
:1000D600513207913307D134080C35085D52089820
:1000E6005308CA60000009421200260208B4124DE5
:1000F600940208B490039DE0FBA3E0FAA3E0240178
:10010600F9E43AFA1249ED90039DE0FBA3E0FAA365
:10011600E0F9EF12194090039C7441F02290039D80
:10012600E0FBA3E0FAA3E0F9E4121940900398E09B
:10013600FBA3E0FAA3E0F9900001121913FF900364
:100146009DE0FBA3E0FAA3E0F9900001EF1219523B
:10015600900398E0FBA3E0FAA3E0F99000011219DE
:1001660013FF124E208079900398E0FBA3E0FAA3D8
:10017600E0F9900001121913FF900002121913FD05
:10018600124E0A90039DE0FBA3E0FAA3E0F9E41205
:10019600194090039C04F02290039DE0FBA3E0FA33
:1001A600A3E0F9E4121940900398E0FBA3E0FAA358
:1001B600E0F9900001121913FF90039DE0FBA3E004
:1001C600FAA3E0F9900001EF121952900398E0FBB0
:1001D600A3E0FAA3E0F9900001121913FF124DD023
:1001E60090039DE0FBA3E0FAA3E0F9900002EF0282
:1001F60002DC900398E0FBA3E0FAA3E0F99000018B
:10020600121913FF900002121913FD124CE5900308
:100216009DE0FBA3E0FAA3E0F9EF121940900398E2
:10022600E0FBA3E0FAA3E0F9900001121913FF9096
:10023600039DE0FBA3E0FAA3E0F9900001EF121999
:100246005290039C7402F022124DFB0208B4124C29
:10025600C80208B47F031244A5E4FF123E267B01C0
:100266007A06797D123EBE90039DE0FBA3E0FAA3D9
:10027600E0F9EF12194090067DE0FF90039DE0FB48
:10028600A3E0FAA3E0F9900001EF12195290067E5E
:10029600E090000280407F031244A5E4FF123E2650
:1002A6007B017A06797D123F5590039DE0FBA3E022
:1002B600FAA3E0F9EF12194090067DE0FF90039D46
:1002C600E0FBA3E0FAA3E0F9900001EF12195290C7
:1002D600067EE090000212195290039C7403F022ED
:1002E6001247860208B47F031244A5E4FF123E2695
:1002F6007B017A06797D12204890039DE0FBA3E0FE
:10030600FAA3E0F9EF12194090039DE0FBA3E0FA8F
:10031600A3E02401F9E43AA801FCAD037B017A06C7
:10032600797D7E007F021218D490039DE0FBA3E046
:10033600FAA3E02403F9E43AA801FCAD037B017AB1
:1003460006797F7E007F011218D490039DE0FBA3FF
:10035600E0FAA3E02404F9E43AA801FCAD037B012A
:100366007A0679807E007F0C1218D490039DE0FBFC
:10037600A3E0FAA3E02410F9E43AA801FCAD037B5C
:10038600017A06798C7E007F011218D4807490035E
:1003960098E0FBA3E0FAA3E0F9900001121913FF1D
:1003A600900002121913FDE92403F9E43AFA9006C3
:1003B6003F7401F0A37406F0A37480F012384C0267
:1003C60008B4900398E0FBA3E0FAA3E0F9900002DA
:1003D60012191325E025E0FF9000011219132FFFD3
:1003E60090039DE0FBA3E0FAA3E02401F9E43AFAC6
:1003F60012410C90039DE0FBA3E0FAA3E0F9EF1293
:10040600194090039C7411F022900398E0FBA3E03E
:10041600FAA3E0F990000212191325E025E0FF90F7
:1004260000011219132FFFE92403F9E43AFA1236F0
:100436000D0208B4900398E0FBA3E0FAA3E0F9905C
:100446000001121913FFE92402F9E43AFA123AFFFD
:100456000208B4900398E0FBA3E0FAA3E0F9900049
:100466000212191325E025E0FF9000011219132F3F
:10047600FFE92403F9E43AFA123BA30208B4900315
:1004860098E0FBA3E0FAA3E0F9900001121913FF2C
:1004960012465E0208B4900398E0FBA3E0FAA3E0DC
:1004A600F990000212191325E025E0FF90000112D1
:1004B60019132FFF123CEB0208B4900398E0FBA33C
:1004C600E0FAA3E0F9900001121913FFE92402F9FA
:1004D600E43AFA1247240208B4900398E0FBA3E03A
:1004E600FAA3E0F9900001121913FF900002121905
:1004F60013FD90039DE0FBA3E0FAA3E02401F9E4D9
:100506003AFAC003C002C00190039DA3E0FAA3E03B
:100516002402F9E43AFA900629EBF0A3EAF0A3E9FB
:10052600F0D001D002D003122A8802091E90039847
:10053600E0FBA3E0FAA3E0F9900001121913FF9083
:100546000002121913FD90039DE0FBA3E0FAA3E05D
:100556002401F9E43AFAC003C002C00190039DA346
:10056600E0FAA3E02402F9E43AFA900629EBF0A3B4
:10057600EAF0A3E9F0D001D002D003123C47020909
:100586001E900398E0FBA3E0FAA3E0F990000112A5
:100596001913FF1248320208B490039DE0FBA3E052
:1005A600FAA3E02401F9E43AFA900628EBF0A3EA6C
:1005B600F0A3E9F090039DA3E0FAA3E02402F9E496
:1005C6003AFA90062BEBF0A3EAF0A3E9F07B017A66
:1005D6000679627F190242AF90039DE0FBA3E0FA21
:1005E600A3E02401F9E43AFAC003C002C001900373
:1005F6009DA3E0FAA3E02402F9E43AFA900627EB79
:10060600F0A3EAF0A3E9F0D001D002D00312347BC4
:1006160002091E900398E0FBA3E0FAA3E0F990001C
:1006260001121913FF90039DE0FBA3E0FAA3E02457
:1006360001F9E43AFAC003C002C00190039DA3E0A9
:10064600FAA3E02402F9E43AFA900628EBF0A3EACA
:10065600F0A3E9F0D001D002D0031231D202091E74
:10066600900398E0FBA3E0FAA3E0F99000011219C9
:1006760013FFE92402F9E43AFAC003C002C001906C
:10068600039DE0FBA3E0FAA3E02401F9E43AFA9023
:10069600062EEBF0A3EAF0A3E9F090039DA3E0FA9F
:1006A600A3E02402F9E43AFA900631EBF0A3EAF06B
:1006B600A3E9F0D001D002D003122D3902091E9011
:1006C600039DE0FBA3E0FAA3E02401F9E43AFAC0B3
:1006D60003C002C00190039DA3E0FAA3E02402F93F
:1006E600E43AFA900627EBF0A3EAF0A3E9F0D0018A
:1006F600D002D0031247DC02091E7F031244A57FF5
:1007060001123E2690039DE0FBA3E0FAA3E024013C
:10071600F9E43AFAC003C002C00190039DA3E0FACF
:10072600A3E02402F9E43AFA900627EBF0A3EAF0F4
:10073600A3E9F0A37401F0A37406F0A37498F0D0B3
:1007460001D002D003122FB002091E90039DE0FBD8
:10075600A3E0FAA3E02401F9E43AFA900627EBF0C5
:10076600A3EAF0A3E9F090039DA3E0FAA3E0240234
:10077600F9E43AFA90062AEBF0A3EAF0A3E9F07B53
:10078600017A0679981239B002091E90039DE0FBA2
:10079600A3E0FAA3E02401F9E43AFA900627EBF085
:1007A600A3EAF0A3E9F090039DA3E0FAA3E02402F4
:1007B600F9E43AFA90062AEBF0A3EAF0A3E9F07B13
:1007C600017A067998123D8A02091E90039DE0FB84
:1007D600A3E0FAA3E02401F9E43AFAC003C002C098
:1007E6000190039DA3E0FAA3E02402F9E43AFA900B
:1007F6000627EBF0A3EAF0A3E9F0D001D002D0037C
:1008060012407C02091E7F031244A57F01123E2678
:1008160090039DE0FBA3E0FAA3E02401F9E43AFA91
:10082600C003C002C00190039DA3E0FAA3E0240226
:10083600F9E43AFA900627EBF0A3EAF0A3E9F0A36D
:100846007401F0A37406F0A37498F0D001D002D01E
:1008560003122E8402091E900398E0FBA3E0FAA37C
:10086600E0F9900001121913FF90039DE0FBA3E04D
:10087600FAA3E02401F9E43AFA1245F390039DE065
:10088600FBA3E0FAA3E0F9EF12194090039C74056C
:10089600F022900398E0FBA3E0FAA3E0F9900001B0
:1008A600121913FFE92402F9E43AFA12442F9003CD
:1008B6009DE0FBA3E0FAA3E0F9EF12194090039C38
:1008C6007401F0227F031244A57F02123E26900394
:1008D60098E0FBA3E0FAA3E0F9900001121913FFD8
:1008E60090039DE0FBA3E0FAA3E02401F9E43AFAC1
:1008F600C003C002C00190039DA3E0FAA3E0240256
:10090600F9E43AFA900628EBF0A3EAF0A3E9F0D06E
:1009160001D002D0031233A390039DE0FBA3E0FABB
:10092600A3E0F9EF12194090039DE0FBA3E0FAA3C0
:10093600E0F99000011219132402801090039DE043
:10094600FBA3E0FAA3E0F9740112194090039CF0AE
:01095600227E
:0C4A4B00C2B6124A57C2B5124A57D2B682
:104A5700000000000000000000000000000000004F
:0E4A670000000000000000000000000000221F
:104C2E00D2B5D2B6124A5720B5037F0022C2B512B2
:104C3E004A5730B5037F0022C2B5124A577F012270
:084E1000124A4BD2B5024A57C9
:084E1800124A4BC2B6024A57D0
:0F4DDF00C2B6124A57D2B5124A52C2B6024A574A
:0D4B5E00EAFF124BA6124B6BAF03124BA6E1
:104B6B00C2B6124A57D2B5124A5230B505C2B67FF9
:074B7B000022C2B67F0122F7
:104BA6007E08AD061EED6018C2B6124A57EF30E712
:104BB60004D2B58002C2B5EF25E0FF124A5280E268
:024BC600C2B675
:014BC80022CA
:104BEB007F08E4FED2B5AD071FED6011EE25E0FEA8
:104BFB00C2B6124A5230B5EE4401FE80E9C2B6AFDE
:014C0B0006A2
:014C0C002285
:104C6D00E49002F0F09002F0E0D3943C500E124C20
:0F4C7D002E7FAE124BA6124B6BEF60E9024E106A
:10458500E0FF9006BFF09006A3E0FBA3E0FAA3E0EE
:0C459500F9A3E0FCA3E0FDEF90062EF07F
:1045A10090062CECF0A3EDF0124C2EEF7002FF22DE
:1045B1007FAE124BA6124B6B90062CE0FF124BA65E
:1045C100124B6B90062CA3E0FF124BA6124B6B9083
:1045D100062EE0FF14F0EF60131218FAFF124BA63B
:1045E100124B6B740129F9E43AFA80E3124E107F01
:0245F1000122A5
:1026EF009006A3EBF0A3EAF0A3E9F0A3ECF0A3EDBF
:0126FF00F0EA
:10270000E49006AAF0A3F0A3F0ED540FFFC37410F9
:102710009FF09006A8E0FCA3E0FDECC4F854F0C8DC
:10272000EDC4540F48A3F0ED540FA3F0EF706F9079
:1027300006AAE0700CA3124585EF7002FF22022862
:10274000C69006AAE0FF14F0EF603E9006BF74103A
:10275000F09006A3E0FBA3E0FAA3E0F9A3E0FCA35A
:10276000E0FD741012459DEF7002FF22124C6D9037
:1027700006A7E02410F09006A6E03400F09006A42E
:10278000E475F01012197480B89006ABE0FF700386
:102790000228C9124587EF7002FF220228C6900660
:1027A000AAE070739006ACE0FFFDD39006A9E09D0F
:1027B0009006A8E0940040519006BFEF12458AEFC2
:1027C0007002FF22124C6D9006A8A3E0FF9006ACA9
:1027D000E0FEC3EF9E9006BFF09006A3E0FBA3E0EF
:1027E000FAA3E0F9EEFF7E00E92FF9EE3AFA90063F
:1027F000A7E02FFD9006A6E03EFC9006BFE0124544
:102800009DEF7002FF220228C69006AB124585EFAD
:102810007002FF220228C69006ACE0FDFFC39006BE
:10282000A9E09FF09006A8E09400F0E0FAA3E0FB96
:10283000EAC4F854F0C8EBC4540F48A3F0EB540FAB
:10284000A3F0ED6026124587EF7002FF22124C6D57
:102850009006ACE0FF7E009006A7E02FF09006A661
:10286000E03EF09006A4EE8FF080479006AAE0FFCD
:1028700014F0EF60429006BF7410F09006A3E0FBE6
:10288000A3E0FAA3E0F9A3E0FCA3E0FD90062E7418
:1028900010F01245A1EF7002FF22124C6D9006A7B6
:1028A000E02410F09006A6E03400F09006A4E47551
:1028B000F01012197480B49006ABE0FF600B124563
:0B28C00087EF7002FF22124C6D7F01B9
:0128CB0022EA
:104C0D007B017A067929AD07AC06900660E4F0A326
:104C1D0004F0124334EF6006900629E0FF227F0076
:014C2D002264
:104AED00AB07AA06AC05124C2EEF7002FF227FAE6B
:104AFD00124BA6124B6B124B5EAF04124BA6124B10
:074B0D006B124E107F012224
:1043340090065BEBF0A3EAF0A3E9F0AB05AA041244
:104344004C2EEF7002FF227FAE124BA6124B6BEF86
:104354007005124E10FF22124B5E124C2E7FAF12CC
:104364004BA6124B6B900660E07002A3E060401213
:104374004BEB90065BE0FBA3E0FAA3E0F9EF121924
:1043840040900660E07004A3E064017005124DDF04
:104394008003124E1890065CE475F00112197490B3
:1043A4000661E024FFF0900660E034FFF080B6126E
:0543B4004E107F012204
:104D5100900660E4F0A3EFF07DF07CFF124334EFA6
:084D610060037F01227F0022A4
:084D0200E0FBA3E0FAA3E0F9D5
:104D0A0090062EEDF07DF07CFF1245A1EF60037F47
:054D1A0001227F0022D0
:104B82007D447FFA7EFF124AED7D077FFB7EFF1296
:104B92004AED7D037FFD7EFF124AED7DFF7FF17EB0
:044BA200FF024AEDD7
:1036D200900624EEF0A3EFF0A3EBF0A3EAF0A3E947
:1036E200F0D3EF9420EE9400900626E0FBA3E0FADC
:1036F200A3E0F95013900624A3E0FD124D0AE490D2
:103702000624F0A3F00237857D20124D0A9006258B
:10371200E024E0F0900624E034FFF0900627E47500
:10372200F020121974805CD3900625E09400900674
:1037320024E0940040587FF27EFF124C0DEF543F7C
:10374200D39408503E900624E0FEA3E0FF9418EEC6
:103752009400500FA3AD07124D02E4900624F0A38B
:10376200F080209006267D18124D02900625E02456
:10377200E8F0900624E034FFF0900627E475F01894
:0E3782001219747D557FF47EFF124AED809976
:013790002216
:1048DD000A41542B5645520A0041542B5645520A53
:1048ED00000A41542B4E414D450A0041542B4E4177
:1048FD004D450A0052462D424C45342E30004F4B4B
:10490D00000A41542B4D41430A0041542B4D414364
:10491D000A0041542B4E414D4552462D424C4534D3
:04492D002E300A001E
:0B30DA00900636EBF0A3EAF0A3E9F04B
:1030E5001218FA7002FF22E490063EF0A3F0A3F056
:1030F500A3F090063CE0FEA3E0FFC390063FE09FEF
:1031050090063EE09E40030231CF900636E0FBA3D9
:10311500E0FAA3E0F9900640E0FEA3E0F5828E8395
:10312500121913FF900642F0900639E0FBA3E0FA6E
:10313500A3E0F990063EE0FCA3E0F5828C8312192A
:10314500136F707290063EE0FEA3E0FFD390063D3C
:10315500E09F90063CE09E4056900636E0FBA3E0DB
:10316500FAA3E0F9900640E0FCA3E0F5828C831217
:103175001913900642F0700890063EA3E004FF2262
:10318500900639E0FBA3E0FAA3E0F98F828E831263
:103195001913FD900642E0B505150FBF00010E900D
:1031A5000641E004F070A5900640E004F0809DE43F
:1031B500900640F0A3F090063FE004F06003023073
:0C31C500F790063EE004F00230F77F00B7
:0131D10022DB
:1022EF0078247C067D017BFF7A49791F7E007F125F
:1022FF001218D4C282E4900297F0900297E0C39430
:10230F000540F7D282E4900297F0900297E0C394D1
:10231F000540F7C284E4900297F0900297E0C394CF
:10232F000540F7E49002E1F09002DFF0900002F038
:10233F00A3F07BFF7A4879DDFDFC1249757BFF7AAC
:10234F004879E6E4FDFC1249B1E4900297F090025F
:10235F0097E0C3940540F7E49002E1F07B017A0126
:10236F0079CD900002E0FCA3E0FD124975E49000E6
:10237F0002F0A3F07F0D124A357F0A124A35E4901E
:10238F0002E1F09002DFF0900002F0A3F07BFF7A01
:10239F004879EEFDFC1249757BFF7A4879F8E4FD28
:1023AF00FC1249B1E4900297F09006397401F0A342
:1023BF007401F0A374CDF0900002E0FFA3E090064B
:1023CF003CCFF0A3EFF07BFF7A4979011230DAEFBF
:1023DF007009900297E0D3940F40CEE49002E1F0A1
:1023EF007B017A0179CD900002E0FCA3E0FD124958
:1023FF0075E4900002F0A3F0900297E0D3940F5091
:10240F0003022498E49002E1F09002DFF0900002C2
:10241F00F0A3F07F0D124A357F0A124A357B017AFD
:10242F00067924E4FDFC1249757B017A067924E4D0
:10243F00FDFC1249B1E4900297F09006397401F057
:10244F00A37401F0A374CDF0900002E0FFA3E0901D
:10245F00063CCFF0A3EFF07BFF7A49790B1230DA0D
:10246F00EF7009900297E0D3940F40CEE49002E111
:10247F00F07B017A0179CD900002E0FCA3E0FD1220
:10248F004975E4900002F0A3F0E49002E1F09002AD
:10249F00DFF0900002F0A3F07BFF7A49790EFDFC8C
:1024AF001249757BFF7A497917E4FDFC1249B1E4B3
:1024BF00900297F0900297E0C3940540F7E49002E2
:1024CF00E1F07B017A0179CD900002E0FCA3E0FD01
:1024DF00124975E4900002F0A3F09002DFF0D2846D
:0124EF0022CA
:0300000002419822
:0C419800787FE4F6D8FD75814F0241DF0E
:10180400E709F608DFFA8046E709F208DFFA803EC6
:1018140088828C83E709F0A3DFFA8032E309F608B3
:10182400DFFA8078E309F208DFFA807088828C831B
:10183400E309F0A3DFFA806489828A83E0A3F608CF
:10184400DFFA805889828A83E0A3F208DFFA804CA9
:1018540080D280FA80C680D4806980F28033801080
:1018640080A680EA809A80A880DA80E280CA8033E9
:1018740089828A83ECFAE493A3C8C582C8CCC58361
:10188400CCF0A3C8C582C8CCC583CCDFE9DEE78031
:101894000D89828A83E493A3F608DFF9ECFAA9F0B0
:1018A400EDFB2289828A83ECFAE0A3C8C582C8CC06
:1018B400C583CCF0A3C8C582C8CCC583CCDFEADE1F
:1018C400E880DB89828A83E493A3F208DFF980CC81
:1018D40088F0EF60010E4E60C388F0ED2402B4047A
:1018E4000050B9F582EB2402B4040050AF23234521
:0618F400822390185473DA
:1018FA00BB010689828A83E0225002E722BBFE02EC
:09190A00E32289828A83E493221E
:10191300BB010CE58229F582E5833AF583E0225089
:1019230006E92582F8E622BBFE06E92582F8E222D3
:0D193300E58229F582E5833AF583E49322ED
:10194000BB010689828A83F0225002F722BBFE0186
:02195000F32280
:10195200F8BB010DE58229F582E5833AF583E8F0CB
:10196200225006E92582C8F622BBFE05E92582C877
:02197200F2225F
:10197400C5F0F8A3E028F0C5F0F8E58215827002FE
:061984001583E038F0229B
:10198A00A3F8E0C5F025F0F0E58215827002158310
:06199A00E0C838F0E8226D
:1019A000BB010A89828A83F0E5F0A3F0225006F792
:0F19B00009A7F01922BBFE06F3E5F009F319228F
:1019BF00E88FF0A4CC8BF0A42CFCE98EF0A42CFCC7
:1019CF008AF0EDA42CFCEA8EF0A4CDA8F08BF0A445
:1019DF002DCC3825F0FDE98FF0A42CCD35F0FCEBA4
:1019EF008EF0A4FEA9F0EB8FF0A4CFC5F02ECD3969
:0F19FF00FEE43CFCEAA42DCE35F0FDE43CFC22D6
:101A0E0075F008758200EF2FFFEE33FECD33CDCC8F
:101A1E0033CCC58233C5829BED9AEC99E582984012
:101A2E000CF582EE9BFEED9AFDEC99FC0FD5F0D6EF
:101A3E00E4CEFBE4CDFAE4CCF9A88222B800C1B919
:101A4E000059BA002DEC8BF084CFCECDFCE5F0CB57
:101A5E00F97818EF2FFFEE33FEED33FDEC33FCEB90
:101A6E0033FB10D703994004EB99FB0FD8E5E4F94B
:101A7E00FA227818EF2FFFEE33FEED33FDEC33FC38
:101A8E00C933C910D7059BE99A4007EC9BFCE99A2C
:101A9E00F90FD8E0E4C9FAE4CCFB2275F010EF2F71
:101AAE00FFEE33FEED33FDCC33CCC833C810D70771
:101ABE009BEC9AE899400AED9BFDEC9AFCE899F8AC
:0E1ACE000FD5F0DAE4CDFBE4CCFAE4C8F9223F
:101ADC00EB9FF5F0EA9E42F0E99D42F0E89C45F060
:011AEC0022D7
:101AED00E8600FECC313FCED13FDEE13FEEF13FFD7
:031AFD00D8F122FB
:0C1B0000ECF0A3EDF0A3EEF0A3EFF02258
:101B0C00D083D082F8E4937012740193700DA3A368
:101B1C0093F8740193F5828883E47374029368607C
:061B2C00EFA3A3A380DF7C
:101B3200E709F608DFFA807BE9D39850F3E92FF939
:101B4200E82FF819E718F6DFFA8068E709F208DFEC
:101B5200FA806080E388828C83E709F0A3DFFA8051
:101B620052E309F608DFFA804AE9D398500EE92FCA
:101B7200F9E82FF819E318F2DFFA8037E309F208DF
:101B8200DFFA802F88828C83E309F0A3DFFA8023B7
:101B920089828A83E0A3F608DFFA801789828A8322
:101BA200E493A3F208DFF9800A89828A83E0A3F230
:101BB20008DFFA021C4480B180F980A580C680DC6F
:101BC20080F180738010808380E98087808780D94C
:101BD20080E180BC8073D3E998EA9C5039E92FF503
:101BE20082EA3BF583E82FF8EC3BFC0582D58202C2
:101BF20015831582E493C8C582C8CCC583CC0582FF
:101C0200D5820215831582F0C8C582C8CCC583CCA3
:101C1200DFD9DED7802E89828A83ECFAE493A3C8C7
:101C2200C582C8CCC583CCF0A3C8C582C8CCC58345
:101C3200CCDFE9DEE7800D89828A83E493A3F6088C
:101C4200DFF9ECFAA9F0EDFB22D3E998EA9C5038CF
:101C5200E92FF582EA3BF583E82FF8EC3BFC05829D
:101C6200D5820215831582E0C8C582C8CCC583CC53
:101C72000582D5820215831582F0C8C582C8CCC5FB
:101C820083CCDFDADED880BC89828A83ECFAE0A3D7
:101C9200C8C582C8CCC583CCF0A3C8C582C8CCC590
:101CA20083CCDFEADEE8809C809888F08E83EF6048
:101CB200010E4E608DED2402B404005085F582EBD6
:101CC2002402B4040050E123234582AB8323901BFA
:021CD200B873E5
:1041A400020957E493A3F8E493A34003F68001F2D1
:1041B40008DFF48029E493A3F85407240CC8C3331C
:1041C400C4540F4420C8834004F456800146F6DFEB
:1041D400E4800B01020408102040809028CCE47E87
:1041E400019360BCA3FF543F30E509541FFEE493E0
:1041F400A360010ECF54C025E060A840B8E493A3A7
:10420400FAE493A3F8E493A3C8C582C8CAC583CAD1
:10421400F0A3C8C582C8CAC583CADFE9DEE780BE89
:012A8700004E
:00000001FF
