:104CE200759850E4F587438E40538EFE53890F75B5
:0E4CF2008BE8758DFFC2ABD28ED2ACD2AF2252
:104A7700900636E0FBA3E475F0011219E0A9F0FAFD
:044A8700121950FFB1
:104A8B00C2ACC299309F05EFA2D0929B8F993099FF
:064A9B00FDC299D2AC221D
:1049CB00900636EBF0A3EAF0A3E9F0ED4C701D90E6
:1049DB000636E0FBA3E0FAA3E0F9121950601CB411
:1049EB000A057F0D124A8B124A7780E3ED1DAE0448
:0C49FB0070011C4E6005124A7780F1220A
:104ACB00900636E0FBA3E475F0011219E0A9F0FAA9
:044ADB00121950FF5D
:104ADF0053AFFE539AFD8F9BE59A30E1FB539AFD3E
:044AEF0043AF0122AE
:104A0700900636EBF0A3EAF0A3E9F0ED4C701D90A9
:104A17000636E0FBA3E0FAA3E0F9121950601CB4D4
:104A27000A057F0D124ADF124ACB80E3ED1DAE0463
:0C4A370070011C4E6005124ACB80F12279
:10000E0053BAFE759A5075D7E875D6FF438E1443D2
:05001E00AF01D2AF228A
:104D8F000AB1E0D2EBCAB1BCE432303138C4EA39EF
:084D9F00D4C23133C8D50A006B
:102922004102E7004102D000410295004102E80A5B
:102932004102F0004602A9FFFFFFFFFFFF61010015
:1029420004B2D9D7F7D4B13A200000000000000049
:102952000000000000000000000000000000000075
:102962000000000000000000000000000000000065
:102972000000000000000000000000000000000055
:102982000000000000000000000000000000000045
:102992000000000000000000000000000000000035
:1029A2000000000000000000000000000000000025
:1029B2000000000000000000000000000000000015
:1029C2000000000000000000000000000000000005
:1029D20000000000000000000000000000000000F5
:1029E20000000000000000000000000000000000E5
:1029F20000000000000000000000000000000000D5
:102A020000000000000000000000000000000000C4
:102A120000000000000000000000000000000000B4
:102A220000000000000000000000000000000000A4
:102A32000000000000000000000000000000000094
:102A420000004602EAC8F0B7E5181360210312C07D
:102A5200B6D1C0D6DC00000000000000000000007B
:102A62000000000000000000000000000000000064
:102A7200602102F1D6B1BDD3BAD00506070809011B
:102A820002030405060708090102030405060708F4
:102A92000901021F0041029600C10141029700C1D3
:102AA20000510298303132333435363738394142A9
:092AB20043444546004102E900DD
:104D0000D3EF9400EE940040147D6E7C00ED1D7096
:0D4D1000011CED4C70F7EF1F70E61E80E3F4
:014D1D002273
:104042009006ADEFF0A3EBF0A3EAF0A3E9F07F0353
:104052001244FBE4FF123E7C7B017A06797D12203A
:104062009E90039DE0FBA3E0FAA3E0F9EF121996FC
:1040720090039DE0FBA3E0FAA3E0F9121950704807
:104082009006ADE0FF9006B2E0FD90063F7401F0AD
:10409200A37406F0A37480F09006AEE0FBA3E0FAEE
:1040A200A3E0F91238A2EF701D9006B1E0FF90066E
:1040B200B3E0FBA3E0FAA3E0F9123663EF7009FF65
:1040C2001244FB7F01228000E4FF1244FB7F0022A6
:10395500900631EFF0A3EBF0A3EAF0A3E9F0A3E0C2
:10396500D3648094835009A3E0FE6480948F400360
:103975007F0022EE25E025E0FF900635E02FF07F61
:10398500031244FBE4FF123E7C7B017A06797D122B
:10399500209E90039DE0FBA3E0FAA3E0F9EF121946
:1039A5009690039DE0FBA3E0FAA3E0F9121950708D
:1039B50048900631E0FF900636E0FD90063F740121
:1039C500F0A37406F0A37480F0900632E0FBA3E048
:1039D500FAA3E0F91238A2EF701D900635E0FF90CA
:1039E5000637E0FBA3E0FAA3E0F9124162EF7009A4
:1039F500FF1244FB7F01228000E4FF1244FB7F009D
:013A0500229E
:0E2C3E00900624EFF0A3EBF0A3EAF0A3E9F078
:102C4C00E490062FF0A3F090062DE0C4F854F0C8E1
:102C5C0068FEA3E0C4540F48FFC3900630E09F9079
:102C6C00062FE09E4003022CF8900628E0FF3395D7
:102C7C00E0FE90062FE0FCA3E0FD2FFFEC3EFEEF04
:102C8C005403900635F0EF7802CEC313CE13D8F967
:102C9C00FF900629E02F900636F0EDC4F8540FC8CB
:102CAC0068FFECC454F048FE90062AE0FBA3E0FA5F
:102CBC00A3E02FF9EA3EFA900637EBF0A3EAF0A373
:102CCC00E9F0900625E0FBA3E0FAA3E0F9900624D6
:102CDC00E0FF123955EF6014900630E004F0600309
:102CEC00022C5390062FE004F0022C5390062DE09A
:102CFC00FCA3E0FDECC4F854F0C868FEEDC4540F1E
:102D0C0048FFA3E06E7003A3E06F7074ED540F6086
:102D1C006C900628E0FF3395E0FE90062FE0FCA3B4
:102D2C00E0FD2FFFEC3EFEEF5403900635F0EF78FC
:102D3C0002CEC313CE13D8F9FF900629E02F9006CC
:102D4C0036F0EDC4F8540FC868FFECC454F048FEDC
:102D5C0090062AE0FBA3E0FAA3E02FF9EA3EFA90F2
:102D6C000637EBF0A3EAF0A3E9F0900625E0FBA30D
:102D7C00E0FAA3E0F9900624E0FF0239557F012226
:022D8C007F00C6
:012D8E002222
:0B1D2A009005ADEBF0A3EAF0A3E9F098
:101D35009005B3E024FE602C04600302209D90050D
:101D4500B4E599F0900000E0FFA3E09005B5CFF071
:101D5500A3EFF09002D1E0FFA3E09005B7CFF0A389
:101D6500EFF0807A9005B4E59BF0900002E0FFA3C8
:101D7500E09005B5CFF0A3EFF09002D3E0FFA3E02C
:101D85009005B7CFF0A3EFF02084539005B4E0FFA2
:101D95009005ADE0FBA3E0FAA3E0F99005B5E47585
:101DA500F0011219E085F082F583EF1219A890056C
:101DB500B5E0FFA3E0900002CFF0A3EFF09005B0EF
:101DC500E0FBA3E0FAA3E0F990000374011219A85F
:101DD500900002E41219A8900001E40219A89005E8
:101DE500B4E0FF9005ADE0FBA3E0FAA3E0F99005B0
:101DF500B5E0FCA3E0FDF5828C83EF1219A89005F0
:101E0500B0E0FBA3E0FAA3E0F9C003C002C00112F1
:101E15001950FF9005ADE0FBA3E0FAA3E0F98D8230
:101E25008C831219696FD001D002D00312199690D4
:101E350005B0E0FBA3E0FAA3E0F9900008121969E8
:101E450070279005ADE0FBA3E0FAA3E0F99005B596
:101E5500E0FEA3E0F5828E83121969FF9005B8E0D4
:101E65002FF09005B7E03400F09005B6E004F0706F
:101E7500069005B5E004F09005B5E07004A3E064B4
:101E850001707A9005ADE0FBA3E0FAA3E0F9121921
:101E950050FF9005B0E0FBA3E0FAA3E0F9EF1219BB
:101EA500969005ADE0FBA3E0FAA3E0F9121950FF07
:101EB500FD9005B7E4F0A3EDF09005B0E0FBA3E0DD
:101EC500FAA3E0F9900008E41219A8900003740140
:101ED5001219A8900002E41219A8900001E4121941
:101EE500A8EF24E27002803C9005B0E0FBA3E0FA85
:101EF500A3E0F9900003E41219A80220259005B586
:101F0500E0FEA3E0FF64024E70379005ADE0FBA351
:101F1500E0FAA3E0F9121950B41E1C900001121941
:101F250069B460139005B0E0FBA3E0FAA3E0F99073
:101F35000004741E022020E49005B5F0A3F0021DF4
:101F4500E39005B0E0FBA3E0FAA3E0F990000412EA
:101F55001969641E6003022025D3EF9409EE9400ED
:101F6500500302202C9005ADE0FBA3E0FAA3E0F9B5
:101F7500900006121969FE9000071219697C002469
:101F850000FFEC3EFE9005B6E024F6FD9005B5E0B9
:101F950034FFFCEF6D7002EE6C70719005B0E0FBE4
:101FA500A3E0FAA3E0F9121950FFB41F079000024D
:101FB500740180379005ADE0FBA3E0FAA3E0F9904A
:101FC50005B6E024FEFD9005B5E034FF8D82F5836E
:101FD500121969FEEF641F6EFF124A8B9005B0E07F
:101FE500FBA3E0FAA3E0F9900002E41219A890051A
:101FF500B0E0FBA3E0FAA3E0F9900003E41219A80E
:10200500E49005B5F0A3F0900001800F9005B0E0D5
:10201500FBA3E0FAA3E0F9900002E41219A88007F7
:10202500E49005B5F0A3F09005B3E024FE60340418
:1020350070669005B0E0FBA3E0FAA3E0F99000021A
:10204500121969B40102C2AC9005B5E0FFA3E09096
:102055000000CFF0A3EFF09005B7E0FFA3E09002FA
:10206500D180309005B0E0FBA3E0FAA3E0F9900041
:1020750002121969B4010353AFFE9005B5E0FFA341
:10208500E0900002CFF0A3EFF09005B7E0FFA3E0EA
:082095009002D3CFF0A3EFF09D
:01209D002220
:0300230002456C27
:10456C00C0E0C0F0C083C082C0D075D000C000C015
:10457C0001C002C003C004C005C006C007309902C8
:10458C00C29930982FC298C3900001E094C8900053
:10459C0000E094004004E4F0A3F09005B07401F046
:1045AC00A37402F0A374D5F0A37401F0FB7A017923
:1045BC0005121D2AD007D006D005D004D003D00296
:0F45CC00D001D000D0D0D082D083D0F0D0E03258
:0300430002440F65
:10440F00C0E0C0F0C083C082C0D075D000C000C073
:10441F0001C002C003C004C005C006C007E59A3042
:10442F00E031539AFEC3900003E094C8900002E07D
:10443F0094004004E4F0A3F09005B07401F0A3746D
:10444F0002F0A374DEF0A37402F07B017A0179CD40
:10445F00121D2AE59A30E103539AFDD007D006D0FA
:10446F0005D004D003D002D001D000D0D0D082D05C
:06447F0083D0F0D0E03212
:074E1300D201E4900297F0C8
:0C4E1A00C2B47FD07E07124D00D2B4223B
:104DD500538E7F5389F0E4F58A758C4CC28DD28C45
:054DE500D2A9D2AF22AB
:03000B000237E7D2
:1037E700C0E0C0F0C083C082C0D075D000C000C0A8
:1037F70001C002C003C004C005C006C007900297FD
:10380700E004F09002D8E060209002D6E004F0E0F7
:10381700C394144014A3E4F0A3F0900000F0A3F0C5
:103827009002D6F07FE1124A8B9002E1E06020908F
:1038370002DFE004F0E0C394144014A3E4F0A3F023
:10384700900002F0A3F09002DFF07FE2124A8B3083
:103857008504D2008002C200900297E0FF75F00A4B
:1038670084E5F07002B2A5EFC394C84005900297B3
:10387700E4F09002F0E004F0E0D394504002E4F06A
:10388700D007D006D005D004D003D002D001D00095
:0B389700D0D0D082D083D0F0D0E0323F
:10427A009005BBE0FFFCA3E0FD9005B9E0FAA3E0DE
:10428A00FBC39DFDEA9CFC74BE2DF58274053CF5CA
:10429A0083EFF09005BBA3E0FF74BF2DF582740590
:1042AA003CF583EFF0EB24F8EA34FF9005C6F0EB17
:1042BA0024F8A3F07B017A0579C09005B9E0FCA344
:0242CA00E0FD15
:1042CC0090062FEBF0A3EAF0A3E9F0A3ECF0A3ED3A
:0142DC00F0F1
:1042DD00E4FF90063274FFF5F01219E045F0601717
:1042ED0090062FE0FBA3E475F0011219E0A9F0FA96
:0742FD001219506FFF80DB76
:014304002296
:0B123000900624EBF0A3EAF0A3E9F025
:10123B0090000212196990062EF0C2D5ED641E6063
:10124B0003021857900629F0A37408F0900624E0C7
:10125B00FBA3E0FAA3E0F990000412196924FB70D8
:10126B000302156A1470030216702405600302163C
:10127B00BD900629E475F0011219E085F082F58323
:10128B0074091219A8900629E475F0011219E0856A
:10129B00F082F583E41219A8900629E475F0011287
:1012AB0019E085F082F58374041219A8900629E4DD
:1012BB0075F0011219E085F082F58374561219A8A6
:1012CB00900629E475F0011219E085F082F583741C
:1012DB00651219A8900629E475F0011219E085F042
:1012EB0082F58374721219A8900629E475F0011225
:1012FB0019E085F082F58374101219A89002E8E0CA
:10130B00FF90062EE06F60030213CF900624E0FBE4
:10131B00A3E0FAA3E0F9900003121969F460030249
:10132B0013CF90062975F0011219E085F082F58331
:10133B00744D1219A8900629E475F0011219E08575
:10134B00F082F58374431219A8900629E475F00115
:10135B001219E085F082F58374551219A8900629AD
:10136B00E475F0011219E085F082F583745F1219B0
:10137B00A8900629E475F0011219E085F082F58337
:10138B0074491219A8900629E475F0011219E08529
:10139B00F082F58374441219A8E4FF740C2FF8E65D
:1013AB00FE900624E0FBA3E0FAA3E0F9900629E403
:1013BB0075F0011219E085F082F583EE1219A80F72
:1013CB00EFB407D7900629A3E024F5FF900624E09D
:1013DB00FBA3E0FAA3E0F990000AEF1219A890061C
:1013EB0029E475F0011219E085F082F583740A1275
:1013FB0019A8900629E475F0011219E085F082F521
:10140B0083E41219A8900629E475F0011219E085FE
:10141B00F082F58374051219A8900629E475F00182
:10142B001219E085F082F58374201219A890062911
:10143B00E475F0011219E085F082F5837418121926
:10144B00A8900629E475F0011219E085F082F58366
:10145B0074091219A8900629E475F0011219E08598
:10146B00F082F58374121219A8900629E475F00125
:10147B001219E085F082F58374111219A8900628D1
:10148B00E024FE600804700D9002DC80039002E5FE
:10149B007401F080037F022290062EE0F4600302B9
:1014AB001717900624E0FBA3E0FAA3E0F9900003E2
:1014BB00121969FF64016003021717900002EF1203
:1014CB0019A890000374101219A890000474051247
:1014DB0019A8900006E41219A8900629E0FCA3E0D5
:1014EB00FD24F89000071219A81242CC900624E0B4
:1014FB00FBA3E0FAA3E0F9900629E475F0011219B9
:10150B00E085F082F583EF1219A8900629E475F0B7
:10151B00011219E085F082F583741F1219A8900649
:10152B0028E024FE601B047030900624E0FBA3E04F
:10153B00FAA3E0F9900629E0FCA3E0FD1249CB8069
:10154B001B900624E0FBA3E0FAA3E0F9900629E048
:10155B00FCA3E0FD124A0780037F02227F01229049
:10156B000624E0FBA3E0FAA3E0F990000612196948
:10157B00FE9000071219697C002400FFEC3ECF247B
:10158B000AFDE43FFC900624A3A3E01249CB90068E
:10159B0024E0FBA3E0FAA3E0F9900002121969FF23
:1015AB009002E7E06F600302166D90000312196959
:1015BB00FF9002D0E06F600302166D9000051219C8
:1015CB0069FF900295E06F600302166D90000612A2
:1015DB001969FF70089000071219696065EF70397F
:1015EB00900624E0FBA3E0FAA3E0F99000071219A0
:1015FB006964047024900008121969B40C1B9000E4
:10160B0009121969701390000A121969B4010A9032
:10161B00000B12196964016029900624E0FBA3E01A
:10162B00FAA3E0F99000081219696409703490006C
:10163B000A121969240BF582E433F583121969B484
:10164B000A20900628E024FE600B0470129002DB47
:10165B007401F0800D9002E47401F0C20180037FED
:10166B0002227F0122900624E0FBA3E0FAA3E0F91B
:10167B0090000812196960030217179000051219E0
:10168B0069FF9002E8E06F702590000612196970EF
:10169B001D900007121969B40314900009121969FF
:1016AB00700C90000A1219697004D2D5805EC2D5F5
:1016BB00805A900624E0FBA3E0FAA3E0F9900629F8
:1016CB00E475F0011219E085F082F583740C1219A0
:1016DB00A8900629E475F0011219E085F082F583D4
:1016EB00E41219A8900629E475F0011219E085F0AF
:1016FB0082F58374011219A8900629E475F0011282
:10170B0019E085F082F58374031219A8900624E082
:10171B00FBA3E0FAA3E0F9900002121969FF900213
:10172B00E8E06F601790062EE0F4700302182A9021
:10173B0000031219696401600302182A900624E061
:10174B00FBA3E0FAA3E0F9900003121969900002E1
:10175B001219A890062EE09000031219A89000040D
:10176B0074051219A8900006E41219A8900629E036
:10177B00FCA3E0FD24F89000071219A81242CC90AC
:10178B000624E0FBA3E0FAA3E0F9900629E475F048
:10179B00011219E085F082F583EF1219A890062942
:1017AB00E475F0011219E085F082F583741F1219AC
:1017BB00A8900628E024FE601B047030900624E0FD
:1017CB00FBA3E0FAA3E0F9900629E0FCA3E0FD12ED
:1017DB0049CB801B900624E0FBA3E0FAA3E0F99031
:1017EB000629E0FCA3E0FD124A0780037F022230AA
:1017FB00D511E4900297F0900297E0C3940A40F75A
:10180B0075C760900624E0FBA3E0FAA3E0F990060D
:10181B002AE024FEFF900629E034FF8F828023907C
:10182B000629E0FEA3E0FFD39408EE9400401A9043
:10183B000624E0FBA3E0FAA3E0F974FF2FF5827412
:0E184B00FF3EF583121969FF227F01227F0004
:01185900226C
:100957009005BD74F1F0A374BFF0A374F9F0C2025F
:10096700C203124D75124B6A124E44124CE212002A
:100977000E124DD5124BD8122345124E1A7FD07E38
:1009870007124D00124E1A7FF47E01124D00124ECF
:100997001A7BFF7A4D798FE4FDFC1249CB7BFF7AF6
:1009A7004D798FE4FDFC124A07E49005B9F0A3F0F6
:1009B7009005B9E0FEA3E0FFC39407EE9400505FF3
:1009C7009005BDE02FF8E6C4540F7E00540F24981D
:1009D700F582EE3402F583E0FF124A8B9005B9A346
:1009E700E0FF9005BDE02FF8E67E00540F2498F550
:1009F70082EE3402F583E0FF124A8B9005B9A3E03B
:100A0700FF9005BDE02FF8E6FE740C2FF8A60690C0
:100A170005BAE004F070999005B9E004F080917F81
:100A27000D124A8B7F0A124A8BE49005B9F0A3F0A6
:100A37009005B9E0FEA3E0FFC39407EE9400505F72
:100A47009005BEE0FCA3E02FF582EC3EF583E4932E
:100A5700C4540F7E00540F2498F582EE3402F583B8
:100A6700E0FF124A8B9005B9E0FEA3E0FF9005BEB8
:100A7700E0FCA3E02FF582EC3EF583E4937E00547F
:100A87000F2498F582EE3402F583E0FF124A8B902B
:100A970005BAE004F070999005B9E004F08091126E
:100AA7000046C2B77FF77EFF124C63EF20E40302D4
:100AB7000E0BD2B77B017A0279AF7F20124DA79038
:100AC70002AFE0B401107B017A0279F17F207E004A
:100AD700123728020DCF9002AFE064036003020DC6
:100AE700CFD2039005B9F0A3F09005B975F00112C4
:100AF70019E0FE74C025F0F58274053EF583741E77
:100B0700F09005B9E475F0011219E0FE74C025F004
:100B1700F58274053EF5837460F09005B9E475F0CD
:100B2700011219E0FE74C025F0F58274053EF583C5
:100B37007401F09005B9E475F0011219E0FE74C074
:100B470025F0F58274053EF583740AF09005B9E443
:100B570075F0011219E0FE74C025F0F58274053EA8
:100B6700F5837408F0900296E004FFF09005B9E46D
:100B770075F0011219E0FC74C025F0F58274053C8C
:100B8700F583EFF09002E7740AF09002D07401F059
:100B9700900296E0900295F09005BAE02402F0905A
:100BA70005B9E03400F0E475F0011219E0FE74C0F5
:100BB70025F0F58274053EF5837428F09005BAE0B8
:100BC7002402F09005B9E03400F0E49005BBF0A3EF
:100BD700F09005BBE0FEA3E0FFC39409EE9400503C
:100BE7003674B02FF58274023EF583E0FF602890DB
:100BF70005B9E475F0011219E0FC74C025F0F5821F
:100C070074053CF583EFF09005BCE004F070C290EA
:100C170005BBE004F080BA9005BBE0FFFCA3E0FD54
:100C2700C39005BAE09DFD9005B9E09CFC74BE2D0C
:100C3700F58274053CF583EFF09005BBA3E0FF74E4
:100C4700BF2DF58274053CF583EFF09005B9E47587
:100C5700F0011219E0FE74C025F0F58274053EF527
:100C670083743CF09005BAE02402F09005B9E034B3
:100C770000F0E49005BBF0A3F09005BBE0FEA3E015
:100C8700FFC39407EE9400503474B92FF5827402B1
:100C97003EF583E0FF9005B9E475F0011219E0FC19
:100CA70074C025F0F58274053CF583EFF09005BC20
:100CB700E004F070C49005BBE004F080BC9005BB75
:100CC700E0FFFCA3E0FDC39005BAE09DFD9005B9E8
:100CD700E09CFC74BE2DF58274053CF583EFF09023
:100CE70005BBA3E0FF74BF2DF58274053CF583EFC8
:100CF700F09005B9E475F0011219E0FE74C025F013
:100D0700F58274053EF5837420F09005BAE024025D
:100D1700F09005B9E03400F0E49005BBF0A3F09043
:100D270005BBE0FEA3E0FFC39408EE9400503674C1
:100D3700C02FF58274023EF583E0FF60289005B965
:100D4700E475F0011219E0FC74C025F0F582740512
:100D57003CF583EFF09005BCE004F070C29005BB52
:100D6700E004F080BA12427A9005B9E475F00112F6
:100D770019E0FC74C025F0F58274053CF583EFF0AB
:100D87009005B9E475F0011219E0FE74C025F0F57D
:100D97008274053EF583741FF07B017A0579C09054
:100DA70005B9E0FCA3E0FD1249CB7B017A0579C0C8
:100DB7009005B9E0FCA3E0FD124A07124E137F1419
:100DC7007E00124D00124E1AE49005B9F0A3F09080
:100DD70005B9E0FEA3E0FFC39420EE9400501C7415
:100DE700AF2FF58274023EF583E4F09005BAE00474
:100DF700F070DC9005B9E004F080D47DFF7FF17ED0
:100E0700FF124B43E4900628F0A37402F07B01A382
:100E170014F0A37400F0A37404F0A3E4F0A37430F7
:100E2700F07A0279EA7F01122C3EEF640160030237
:100E3700112C300203021130300303021130D202A9
:100E47009005B9F0A3F09005B975F0011219E0FE0D
:100E570074C025F0F58274053EF583741EF0900585
:100E6700B9E475F0011219E0FE74C025F0F582743B
:100E7700053EF5837460F09005B9E475F001121929
:100E8700E0FE74C025F0F58274053EF5837401F029
:100E97009005B9E475F0011219E0FE74C025F0F56C
:100EA7008274053EF583740AF09005B9E475F00184
:100EB7001219E0FE74C025F0F58274053EF58374BF
:100EC70008F0900296E004FFF09005B9E475F00190
:100ED7001219E0FC74C025F0F58274053CF583EF28
:100EE700F09002E7740AF09002D07401F090029635
:100EF700E0900295F09005BAE02402F09005B9E081
:100F07003400F0E475F0011219E0FE74C025F0F525
:100F17008274053EF5837428F09005BAE02402F048
:100F27009005B9E03400F0E49005BBF0A3F090051C
:100F3700BBE0FEA3E0FFC39409EE940050367404AF
:100F47002FF58274003EF583E0FF60289005B9E431
:100F570075F0011219E0FC74C025F0F58274053CA8
:100F6700F583EFF09005BCE004F070C29005BBE09C
:100F770004F080BA9005BBE0FFFCA3E0FDC3900539
:100F8700BAE09DFD9005B9E09CFC74BE2DF5827416
:100F9700053CF583EFF09005BBA3E0FF74BF2DF58B
:100FA7008274053CF583EFF0E4900004F09005B9F6
:100FB70075F0011219E0FE74C025F0F58274053E44
:100FC700F583743CF09005BAE02402F09005B9E08F
:100FD7003400F0E49005BBF0A3F09005BBE0FEA35E
:100FE700E0FFC39407EE9400503474242FF5827405
:100FF700003EF583E0FF9005B9E475F0011219E0B2
:10100700FC74C025F0F58274053CF583EFF090057C
:10101700BCE004F070C49005BBE004F080BC900510
:10102700BBE0FFFCA3E0FDC39005BAE09DFD900582
:10103700B9E09CFC74BE2DF58274053CF583EFF096
:101047009005BBA3E0FF74BF2DF58274053CF583C3
:10105700EFF0E4900004F09005B975F0011219E083
:10106700FE74C025F0F58274053EF5837420F09078
:1010770005BAE02402F09005B9E03400F0E49005E9
:10108700BBF0A3F09005BBE0FEA3E0FFC39408EE1E
:101097009400503674142FF58274003EF583E0FFF8
:1010A70060289005B9E475F0011219E0FC74C025B9
:1010B700F0F58274053CF583EFF09005BCE004F091
:1010C70070C29005BBE004F080BA12427A9005B96D
:1010D700E475F0011219E0FC74C025F0F58274057F
:1010E7003CF583EFF09005B9E475F0011219E0FEC5
:1010F70074C025F0F58274053EF583741FF07B01FB
:101107007A0579C09005B9E0FCA3E0FD1249CB7BD5
:10111700017A0579C09005B9E0FCA3E0FD124A0702
:10112700124E138004C202C203E4FF1244FB2001E3
:10113700030211DB900297E0D3946450030211DBA2
:101147002000030211DB900296E004F09005C5F041
:10115700900296E0900295F07B017A0579C09005A0
:10116700C6E0FEA3E07C002400FFEC3ECF2408FD90
:10117700E43FFC1242CCAD079005C6E0FEA3E07A3F
:10118700002400FFEA3EFE74C82FF58274053EF581
:1011970083EDF07B017A0579C09005C6E0FEA3E0F8
:1011A7007C002400FFEC3ECF240AFDE43FFC1249FB
:1011B700CB7B017A0579C09005C6E0FEA3E07C00F1
:1011C7002400FFEC3ECF240AFDE43FFC124A07E46B
:1011D700900297F09002D7E060217B017A017905B0
:1011E7009002D9E0FD9006287401F0121230D2ACBB
:1011F700E49002D7F0900000F0A3F09002E0E070D6
:1012070003020AA97B017A0179CD9002E2E0FD9001
:1012170006287402F012123043AF01E49002E0F0A6
:09122700900002F0A3F0020AA9F4
:104D7500E4F591F592F595F596F5B1F5B2F5B375BE
:0A4D8500B402D2B2C2A54396202268
:10498700E4FDFCC3ED9FEC9E5039000000000000E1
:104997000000000000000000000000000000000010
:1049A7000000000000000000000000000000000000
:1049B7000000000000000000000000000DBD000125
:0349C7000C80C0A1
:0149CA0022CA
:104B6A0090039D7401F0A37403F0A374A1F0900361
:104B7A00987401F0A37404F0A374A1F0E4F509F5A4
:064B8A0008F50AF50B22FC
:0B3F140090063DEBF0A3EAF0A3E9F0FB
:103F1F007D807F12124CA47D807F13124CA47D08EC
:103F2F007F13124C237D087F08124CA47D077F0D51
:103F3F00124E607523267F017E007D007C001235B6
:103F4F009C9006487401F07B00A314F0A37400F05A
:103F5F00A37424F0A3EBF0A37400F0A37426F07AFB
:103F6F000079237F0C1225468F22E522702BE5273F
:103F7F0064104526702390063DE0FBA3E0FAA3E012
:103F8F00F9E52412199690063DE0FBA3E0FAA3E0B1
:0B3F9F00F9900001E5251219A8AF22DF
:013FAA0022F4
:0B3FAB00900624EBF0A3EAF0A3E9F07D
:103FB6007D807F12124CA47D807F13124CA47D0855
:103FC6007F13124C237D087F08124CA47D077F0DBA
:103FD600124E607522527F017E007D007C001235F4
:103FE6009C9006487401F07B00A314F0A37400F0C3
:103FF600A37423F0A3EBF0A37400F0A37425F07A66
:104006000079227F0C1225468F21E521702BE526AB
:10401600641045257023900624E0FBA3E0FAA3E094
:10402600F9E523121996900624E0FBA3E0FAA3E033
:0B403600F9900001E5241219A8AF2149
:01404100225C
:10331A0090063AE0FBA3E0FAA3E02407F9E43AFABC
:02332A007F958D
:0E332C0090063DEFF0A3EBF0A3EAF0A3E9F06A
:10333A007D807F12124CA47D807F13124CA47D08DD
:10334A007F08124CA4E4FD7F0D124E607D807F0E33
:10335A00124CA490063DE0F5247525207F017E00DD
:10336A007D007C0012359C9006487402F0A3E4F0BC
:10337A00A37400F0A37426F0A3E4F0A37400F0A3EE
:10338A00742BF07B007A0079247F0C1225468F2259
:10339A00E5227058F52374262523F8E6FF90063EA9
:1033AA00E0FBA3E0FAA3E0F9852382758300EF121C
:1033BA0019A80523E523B405DD90063EE0FBA3E04A
:1033CA00FAA3E0F9900001121969FF1219506FFF70
:1033DA009000021219696FFF9000031219696FFFBA
:0E33EA009000041219696F6003752201AF2272
:0133F80022B2
:0E3AB10090063DEFF0A3EBF0A3EAF0A3E9F0DE
:103ABF00E4FD7F0D124E607D807F12124C237D80BE
:103ACF007F13124C237D087F08124CA490063DE013
:103ADF00F524752570E4F52390063EE0FBA3E0FA8C
:103AEF00A3E0F9852382758300121969FF742625D7
:103AFF0023F8A6070523E523B405DD7F017E007DAE
:103B0F00007C0012359C9006487407F0A3E4F0A3E4
:103B1F007400F0A3742BF0A3E4F0A37400F0A3746B
:103B2F0030F07B007A0079247F0C1225468F22E536
:103B3F00227010900641E0FBA3E0FAA3E0F9E52B19
:053B4F00121996AF22DF
:013B5400224E
:1047DC00752250E4F523FD7F0D124E607D807F1213
:1047EC00124C237D807F13124C237D087F08124CC2
:1047FC00A47F017E007D007C0012359C90064874DD
:10480C0002F0A3E4F0A37400F0A37424F0A3E4F08A
:10481C00A37400F0A37425F07B007A0079227F0446
:05482C001225468F215A
:014831002264
:0B209E0090063AEBF0A3EAF0A3E9F093
:1020A900123F148F21E521B401037F012290063AE2
:1020B900E0FBA3E0FAA3E0F912195054C0706DE9EE
:1020C9002403F9E43AFA7F9312332C8F21E521B4E2
:1020D90001037F012290063AE0FBA3E0FAA3E02482
:1020E90003F9E43AFAC003C002C00190063AA3E03A
:1020F900FAA3E0240FF9E43AFA900641EBF0A3EAD7
:10210900F0A3E9F0D001D002D0037F93123AB18F46
:1021190021E521B401037F012290063AE0FBA3E007
:10212900FAA3E0F990000274041219A890063AE0A3
:10213900FBA3E0FAA3E0F912195054C0644060030C
:1021490002220AE92403F9E43AFA7F9312332C8F25
:1021590021E521B401037F012290063AE0FBA3E0C7
:10216900FAA3E02403F9E43AFAC003C002C00190DB
:10217900063AA3E0FAA3E0240FF9E43AFA900641FB
:10218900EBF0A3EAF0A3E9F0D001D002D0037F93EA
:10219900123AB18F21E521B401037F012212331ACA
:1021A9008F21E521B401037F012290063AE0FBA3C8
:1021B900E0FAA3E02407F9E43AFAC003C002C00137
:1021C90090063AA3E0FAA3E0240FF9E43AFA90065C
:1021D90041EBF0A3EAF0A3E9F0D001D002D0037FEC
:1021E90095123AB18F21E521B401037F01229006AE
:1021F9003AE0FBA3E0FAA3E0F9900002740812198F
:10220900A890063AE0FBA3E0FAA3E0F912195054AA
:10221900C064806003022342E92403F9E43AFA7FA7
:102229009312332C8F21E521B401037F01229006FB
:102239003AE0FBA3E0FAA3E02403F9E43AFAC00385
:10224900C002C00190063AA3E0FAA3E0240FF9E422
:102259003AFA900641EBF0A3EAF0A3E9F0D001D0F5
:1022690002D0037F93123AB18F21E521B401037F94
:10227900012212331A8F21E521B401037F01229033
:10228900063AE0FBA3E0FAA3E02407F9E43AFAC02E
:1022990003C002C00190063AA3E0FAA3E0240FF9B3
:1022A900E43AFA900641EBF0A3EAF0A3E9F0D00191
:1022B900D002D0037F95123AB18F21E521B40103F1
:1022C9007F012290063AE0FBA3E0FAA3E0240BF990
:1022D900E43AFA7F9712332C8F21E521B401037F69
:1022E900012290063AE0FBA3E0FAA3E0240BF9E40B
:1022F9003AFAC003C002C00190063AA3E0FAA3E08B
:10230900240FF9E43AFA900641EBF0A3EAF0A3E9C5
:10231900F0D001D002D0037F97123AB18F21E52185
:10232900B401037F012290063AE0FBA3E0FAA3E09F
:0B233900F9900002740C1219A8AF21EB
:012344002276
:0D4E4400E4F5CF75CDC075CED0F5A2FF22EC
:104AF300900653E004F07006900652E004F0D39061
:104B03000653E094C8900652E0940040037F0022CD
:074B1300E5CD5F60DB7F01CF
:014B1A002278
:104B1B00C292EF25E0F54F434F8075CDC0854FCF47
:104B2B007F80124AF375CDC0E4F5CF7F80124AF334
:074B3B0085CF4ED292AF4E70
:014B42002250
:0D47180090064FEBF0A3EAF0A3E9F0AE0726
:10472500EE6051C292AF05EF25E0F54C434C807524
:10473500CDC0854CCF7F80124AF3E4F54BE54BC3E2
:104745009E502F75CDC0EE14B54B05E4F5CF800313
:10475500854CCF7F80124AF390064FE0FBA3E0FA29
:10476500A3E0F9854B82758300E5CF1219A8054BA7
:0447750080CBD29291
:01477900221D
:104B9000C292EF25E0F54D534D7E75CDC0854DCFCA
:104BA0007F80124AF375CDC0AF058FCF7F80124A48
:034BB000F3D292AB
:014BB30022DF
:0D48DE0090064FEBF0A3EAF0A3E9F0AE075F
:1048EB00EE6044C292AF05EF25E0F54B534B7E755E
:1048FB00CDC0854BCF7F80124AF3E4F54CE54CC31A
:10490B009E502275CDC090064FE0FBA3E0FAA3E0CA
:10491B00F9854C82758300121969F5CF7F80124A95
:07492B00F3054C80D8D29285
:014932002262
:1038A200EF7003752160EFB40103752161ED25E02E
:1038B20025E0F522121950F523900001121969F53D
:1038C20024900002121969F525900003121969F576
:1038D20026900004121969F527900005121969F55E
:1038E2002890063FE0FBA3E0FAA3E0F9121950F595
:1038F20029900001121969F52A900002121969F53E
:103902002B900003121969F52C7F017E007D007C4B
:103912000012359C900648740CF0A3E4F0A37400E6
:10392200F0A3742DF0A3E4F0A37400F0A3742FF0BD
:103932007B007A0079217F0E1225468F2EE52E70AC
:103942000F7F08124E76EF30E3037F00227F0122C1
:023952007F01F3
:013954002250
:10477A00900003121969FEF521900002121969FDD1
:10478A00F522900001121969F523121950F524EE49
:10479A00F4F525EDF4F526900001121969FEF4F5F9
:1047AA0027121950FDF4F528900003121969F5290A
:1047BA00900002121969F52A8E2B8D2C8F2DEFF499
:1047CA00F52E8F2FF5307B007A0079211236638F10
:0147DA0031AD
:0147DB0022BB
:0E41620090063AEFF0A3EBF0A3EAF0A3E9F029
:104170007D807F12124E607D807F13124E60E4FDC1
:104180007F0D124E607F017E007D007C0012359C09
:1041900075213090063AE0F5229006487402F090BE
:1041A000063BE0F9A3E0FAA3E0900649C9F0A3EAD0
:1041B000F0A3E9F0A3E4F0A37400F0A37424F07B6F
:1041C000007A0079217F0C1225468F23E525648033
:1041D000452460047F0180027F00E52360047E01A6
:0D41E00080027E00EE4F60037F01227F0011
:0141ED0022AF
:0E366300900624EFF0A3EBF0A3EAF0A3E9F049
:103671007F057E007D007C0012359C7533A090068D
:1036810024E0F5349006487402F0A3E4F0A374003A
:10369100F0A37443F0A3E4F0A37400F0A37444F026
:1036A1007B007A0079337F0C1225468F32E5435433
:1036B1000F640A60047F0180027F00E53260047EAE
:1036C1000180027E00EE4F60037F01227F0A7E00AF
:1036D1007D007C0012359C9006487410F0A3E4F044
:1036E100A37400F0A37443F0A3E4F0A37400F0A367
:1036F1007444F0900625E0FBA3E0FAA3E0F97F0C07
:103701001225468F32E543540F640A60047F01801D
:10371100027F00E53260047E0180027E00EE4F6090
:06372100037F01227F007E
:01372700227F
:0E3B5500900624EFF0A3EBF0A3EAF0A3E9F052
:103B63007F057E007D007C0012359C7522C1900686
:103B730024E0F5239006487402F0A3E4F0A3740054
:103B8300F0A37424F0A3E4F0A37400F0A37425F06D
:103B93007B007A0079227F0C1225468F21E524547D
:103BA3000F640A60047F0180027F00E52160047EC8
:103BB3000180027E00EE4F60037F01227F057E00BD
:103BC3007D007C0012359C9006487404F0A3E4F059
:103BD300A37400F0A37424F0A3E4F0A37400F0A38F
:103BE3007425F0900625E0FBA3E0FAA3E0F97F0C2F
:053BF300122546AF2180
:013BF80022AA
:0E3BF900900624EFF0A3EBF0A3EAF0A3E9F0AE
:103C07007F057E007D007C0012359C7522C09006E2
:103C170024E0F5239006487402F0A3E4F0A37400AF
:103C2700F0A37424F0A3E4F0A37400F0A37425F0C8
:103C37007B007A0079227F0C1225468F21E52454D8
:103C47000F640A60047F0180027F00E52160047E23
:103C57000180027E00EE4F60037F01227F057E0018
:103C67007D007C0012359C9006487404F0A3E4F0B4
:103C7700A37400F0A37424F0A3E4F0A37400F0A3EA
:103C87007425F0900625E0FBA3E0FAA3E0F97F0C8A
:053C9700122546AF21DB
:013C9C002205
:0546B400900624EFF068
:1046B9007F057E007D007C0012359C7522B0900636
:1046C90024E0F5239006487402F0A3E4F0A37400F3
:1046D900F0A37424F0A3E4F0A37400F0A37425F00C
:1046E9007B007A0079227F0C1225468F21E524541C
:1046F9000F640A60047F0180027F00E52160047E67
:0E4709000180027E00EE4F60037F0122AF218F
:01471700227F
:053D4100900624EFF0E4
:103D46007F057E007D007C0012359C7522C29006A0
:103D560024E0F5239006487402F0A3E4F0A374006F
:103D6600F0A37426F0A3E4F0A37400F0A37427F084
:103D76007B007A0079227F0C1225468F21E5265496
:103D86000F640A60047F0180027F00E52160047EE3
:103D96000180027E00EE4F60037F01227F057E00D8
:103DA6007D007C0012359CE4F522F523F524F525EB
:103DB6009006487404F0A3E4F0A37400F0A37426FC
:103DC600F0A3E4F0A37400F0A37427F07B007A005C
:093DD60079227F0C122546AF2171
:013DDF0022C1
:042ABB004106BE0012
:054E7600124B1B8F4DE3
:014E7B002214
:0B4A4300900624EBF0A3EAF0A3E9F0DA
:104A4E00E4F521AF21124B1B900624E0FBA3E0FA04
:104A5E00A3E0F9852182758300EF1219A80521E5DF
:084A6E0021C3944040DD7F00EC
:014A7600221D
:044E5C00E4FD7F01F1
:064E6000124B907F0022BE
:064E7C007D091247182217
:104DBF00900648E0FF900645E0FBA3E0FAA3E0F978
:064DCF007D091248DE22FE
:104DFF007D807F0A124C237F0A124B1BEF7002FF3C
:044E0F00227F0122DB
:044C1F007D807F0D08
:0A4C2300900650EDF090064FEFF000
:104C2D00124E76900650E04FFD90064FE0FF124E6B
:034C3D00608F4C39
:014C40002251
:0A4CA400900650EDF090064FEFF07F
:104CAE00124E76900650E0F45FFD90064FE0FF1234
:044CBE004E608F4B6A
:014CC20022CF
:0544FB0090063AEFF00D
:104500007F14124E76EF5403FF90063AE0FEB50793
:10451000037F0022EE70097D037F14124CA48F21CB
:1045200090063AE0B401127D017F14124C238F21D2
:104530007D027F14124CA48F2190063AE0B402123F
:104540007D017F14124CA48F217D027F14124C2315
:104550008F2190063AE0B403097D037F14124C23A7
:0B4560008F217FE87E03124987AF2106
:01456B00222D
:0E254600900644EFF0A3EBF0A3EAF0A3E9F057
:10255400E4F547F548F549124DFF124E5C7D207FA6
:102564000B124E607D7F7F04124E60900644E0B4EF
:102574000E06124DBF124C1F7D807F2A124C2390F1
:102584000644E0FD7F01124E607F04124E768F4AAE
:10259400E54A30E0067546010226B8900644E0FF9D
:1025A400B40E08E54A30E4030226B5EF640470591A
:1025B400E54A30E244900648E0FFD39400403AEF05
:1025C4009420900645E0FBA3E0FAA3E0F9500A1238
:1025D4004DCFE4900648F080167F20124DCF900630
:1025E40048E024E0F0900646E475F0201219CA7D14
:1025F400047F04124E60124C1FE54A30E60B90062D
:1026040048E07005F5460226B8900644E0640C6084
:102614000302258DE54A30E245900648E0FFD39455
:1026240000403BEFD394204023900645E0FBA3E019
:10263400FAA3E0F97F20124DCF900648E024E0F0A1
:10264400900646E475F0201219CA8008124DBFE4C2
:10265400900648F0124C1F7D047F04124E60E54A38
:1026640030E33830E635900648E0702F7F0A124E8A
:1026740076EFD394204024900649E0FBA3E0FAA32C
:10268400E07E002548F9EE3AFA7F20124E7C742051
:102694002548F5487D087F04124E60E54A20E5038D
:1026A40002258D900648E0600302258D9006BE0445
:1026B400F0E4F546900644E0640C7071F5487F0A36
:1026C400124E768F47900649E0FBA3E0FAA3E07E22
:1026D400002548F9EE3AFA124E7CE5472548F548BC
:1026E4007F0C124E76EF5407F5496028E54824FF25
:1026F400FFE434FFFEEF7803C333CE33CED8F97C46
:10270400002549FFEC3EF990064CE0FBA3E0FAA358
:10271400E0C98014E54875F008A4FF90064CE0FB7E
:10272400A3E0FAA3E0F9E5F08FF01219F67D807FBB
:102734000C124C23124E5C7D807F0D124CA4AF46CC
:012744002272
:06359C00900644121B56CC
:1035A200E4F54AF54BF549F548F547F546E47FF869
:1035B2007E34FDFC900644E0F8A3E0F9A3E0FAA310
:1035C200E0FB121A15EF24FFFFEE34FFFEED34FF8D
:1035D200FDEC34FFFCC006C007E54B25E0FFE54AE1
:1035E20033FEEF2401FFE43EAB07FAE4F9F8D0071B
:1035F200D006121AA08F498E488D478C46E47FFF71
:103602007EFFFDFCAB49AA48A947A846C3121B325C
:103612004011054BE54B7002054AF47004E54A641B
:103622000F708AE549F549E548F548E4F547F5465E
:10363200E54AFD7F2A124C23E54BFD7F2B124E609B
:10364200AF49AE48AD47AC467808121B43AD077F81
:103652002C124E60E549FFAD077F2D124E607F00B0
:013662002245
:103E7C0090063AEFF0701C7D107F0C124C237D40A5
:103E8C007F15124C23E4FD7F12124E60E4FD7F136C
:103E9C00124E6090063AE06401702A7D107F0C127D
:103EAC004E607D837F12124E607D837F13124E60B5
:103EBC007DF47F27124E607DF47F23124E60E4FD6B
:103ECC007F15124E6090063AE0640270387D107FC8
:103EDC000C124E607D927F12124E607D967F1312F3
:103EEC004E607DF47F27124E607D207F28124E603D
:103EFC007D4F7F23124E607D207F29124E607D07FF
:083F0C007F15124E607F0022B8
:100026007D0F7F01124E607D107F0C124C237F0CDA
:0D003600124E76EF30E4037F00227F01229E
:104DEA00C2B27F017E00124987D2B27F017E0012D1
:054DFA0049877F002243
:104D1E007F01124E76EF30E40A7D107F01124CA413
:0D4D2E007F01227D107F01124C237F0022A7
:0B4E5100B2B230B2037F00227F0122CA
:0F4E2600EF2480FD7F0F124E607F0F124E762219
:104D3B00900624EDF0EF2440FD7F0F124E6090069D
:0D4D4B0024E024C0FD7F0F124E607F002287
:064E82000084000008009E
:102ADE00900624EFF0A3EDF0A3EBF0A3EAF0A3E948
:012AEE00F0F7
:102AEF007D807F12124E607D807F13124E60E4FD59
:102AFF007F0D124E607F647E007D007C0012359C3E
:102B0F007522E0900625E0F523540F90068EF09085
:102B1F000624E090068DF0124DFF9006487402F0E7
:102B2F00900629E0F9A3E0FAA3E0900649C9F0A3C3
:102B3F00EAF0A3E9F0A3E4F0A37400F0A37425F086
:102B4F007B007A0079227F0C1225468F21E52160C8
:102B5F0003022C2CF524E526AE257803CEC313CE25
:102B6F0013D8F9FF900626E0FBA3E0FAA3E0F9EFF4
:102B7F00121996900629E0FBA3E0FAA3E0F91219C7
:102B8F0050900690F0900001121969900691F05440
:102B9F000F900695F0900691E030E61E900629A35F
:102BAF00A3E02402F9E43AFA7E00E92524F9EE3A8B
:102BBF00FA121950900692F00524900691E030E534
:102BCF0031900629E0FBA3E0FAA3E02402F9E43AEE
:102BDF00FA7E00E92524F9EE3AFA1219509006937D
:102BEF00F0900696E4F0900693E0540F900697F05D
:102BFF000524900691E030E433900629E0FBA3E032
:102C0F00FAA3E02402F9E43AFA7E00E92524F9EE6A
:102C1F003AFA121950900694F00524800F90062668
:0E2C2F00E0FBA3E0FAA3E0F9E4121996AF214E
:012C3D002274
:103C9D00900624EFF0A3EDF0A3EBF0A3EAF0A3E977
:013CAD00F026
:103CAE007F327E007D007C0012359C90068EE044B3
:103CBE00D0F522900624E0F523124DFF900624E065
:103CCE0030E40BA3E0F524900648740380059006BB
:103CDE00487402F0900629E0F9A3E0FAA3E09006FA
:103CEE0049C9F0A3EAF0A3E9F0A3E4F0A37400F04D
:103CFE00A37425F07B007A0079227F0C1225468F63
:103D0E0021E521701CE526AE257803CEC313CE1314
:103D1E00D8F9FF900626E0FBA3E0FAA3E0F9EF80C6
:103D2E000C900626E0FBA3E0FAA3E0F9E412199644
:023D3E00AF21B3
:013D40002260
:0800030090068DE06401F0227B
:0B483200900624EBF0A3EAF0A3E9F0ED
:10483D0078227C007D007BFF7A4E79827E007F0599
:10484D0012192A900624E0F9A3E0FAA3E090062EAF
:10485D00C9F0A3EAF0A3E9F0900627E0F9A3E0FA86
:10486D00A3E0900631C9F0A3EAF0A3E9F07B007A4A
:0A487D000079227F05122D8F8F2194
:01488700220E
:0E430500900624EFF0A3EBF0A3EAF0A3E9F09A
:104313007F647E007D007C0012359C900624E09033
:104323000648F090062BE0F9A3E0FAA3E0900649D3
:10433300C9F0A3EAF0A3E9F0A3E4F0A37400F0A3A7
:104343007422F0900625E0FBA3E0FAA3E0F97F0CCA
:104353001225468F21E521701CE523AE227803CE7A
:10436300C313CE13D8F9FF900628E0FBA3E0FAA30A
:10437300E0F9EF800C900628E0FBA3E0FAA3E0F954
:06438300E4121996AF21BF
:014389002211
:0E2D8F0090062AEFF0A3EBF0A3EAF0A3E9F020
:102D9D007FF47E017D007C0012359C90068DE090C5
:102DAD00062A30E354E0FF7E00A3E0FBA3E0FAA384
:102DBD00E02402F9E43AA801FCAD0390062BA3A38D
:102DCD00E0F9121D0290068DE0FF90062BE0FBA3AB
:102DDD00E0FAA3E0F9EF12199690068EE0FF900647
:102DED002BE0FBA3E0FAA3E0F9900001EF1219A884
:102DFD0090062AE02402F0803AE0FF7E00A3E0FB7B
:102E0D00A3E0FAA3E02401F9E43AA801FCAD039094
:102E1D00062BA3A3E0F9121D0290068DE0FF90068C
:102E2D002BE0FBA3E0FAA3E0F9EF12199690062A26
:102E3D00E004F090062AE0900648F0900631E0F9A3
:102E4D00A3E0FAA3E0900649C9F0A3EAF0A3E9F0E4
:102E5D00A3E4F0A37400F0A37428F090062BE0FB1C
:102E6D00A3E0FAA3E0F97F0C1225468F27E5277022
:102E7D004A900631E0FBA3E0FAA3E0F91219509055
:102E8D00068DF054F0FFBFF013E030E30590000223
:102E9D00800390000112196990068FF0120003E56E
:102EAD0029AE287803CEC313CE13D8F9FF90062E82
:102EBD00E0FBA3E0FAA3E0F9EF800C90062EE0FB17
:0C2ECD00A3E0FAA3E0F9E4121996AF2785
:012ED90022D6
:0B34D100900624EBF0A3EAF0A3E9F062
:1034DC007F647E007D007C0012359C90068DE03070
:1034EC00E311540F44A0F521A3E0F5229006487493
:1034FC0002800F90068DE0540F44A0F521900648F1
:10350C007401F0900627E0F9A3E0FAA3E0900649D5
:10351C00C9F0A3EAF0A3E9F0A3E4F0A37400F0A3CC
:10352C007424F07B007A0079217F0C1225468F23BE
:10353C00E523704A900627E0FBA3E0FAA3E0F9121A
:10354C00195090068DF054F0FFBFF013E030E305F6
:10355C00900002800390000112196990068FF012FE
:10356C000003E525AE247803CEC313CE13D8F9FFA0
:10357C00900624E0FBA3E0FAA3E0F9EF800C9006A0
:0F358C0024E0FBA3E0FAA3E0F9E4121996AF23C1
:01359B00220D
:0E322800900624EFF0A3EBF0A3EAF0A3E9F088
:103236007FF47E017D007C0012359C900624E0FF21
:1032460044C0F52190068DE030E323EF54F064F09E
:10325600700FA3E0F522A3E0F523900648740380DF
:103266002590068EE0F52290064874028018900696
:1032760024E054F0FFBFF00690068FE08001E4F5ED
:10328600229006487402F0900628E0F9A3E0FAA31B
:10329600E0900649C9F0A3EAF0A3E9F0A3E4F0A39D
:1032A6007400F0A37425F07B007A0079217F0C125C
:1032B60025468F24E524704A900628E0FBA3E0FA11
:1032C600A3E0F912195090068DF054F0FFBFF013E9
:1032D600E030E30590000280039000011219699026
:1032E600068FF0120003E526AE257803CEC313CE73
:1032F60013D8F9FF900625E0FBA3E0FAA3E0F9EF67
:10330600800C900625E0FBA3E0FAA3E0F9E412198D
:0333160096AF244B
:013319002291
:10488800900624EFF07D707F12124CA47D707F1388
:10489800124CA4900624E014601514601D146025C1
:1048A8002403702FE4FD7F12124C23E4FD801F7D4A
:1048B800107F12124C237D1080147D207F12124C21
:1048C800237D2080097D307F12124C237D307F1399
:0648D800124C237F0022B8
:0E464900900624EFF0A3EBF0A3EAF0A3E9F053
:104657007D807F12124E607D807F13124E60E4FDD5
:104667007F0D124E60752230900624E0F5237F01FE
:104677007E007D007C0012359C9006487402F09005
:104687000625E0F9A3E0FAA3E0900649C9F0A3EAFA
:10469700F0A3E9F0A3E4F0A37400F0A37424F07B83
:0C46A700007A0079227F0C1225468F213A
:0146B30022E4
:104485007522A28F23121950F52490000112196983
:10449500F525900002121969F52690000312196995
:1044A500F5277F0A7E007D007C0012359C9006482A
:1044B5007406F0A3E4F0A37400F0A37428F0A3E459
:1044C500F0A37400F0A37429F07B007A0079227FB1
:1044D5000C1225468F21E528640A60047F018002BD
:1044E5007F00E52160047E0180027E00EE4F6003BF
:0544F5007F01227F00A1
:0144FA00229F
:0B3DE000900624EBF0A3EAF0A3E9F04A
:103DEB007F057E007D007C0012359C90062D745063
:103DFB00F0782E7C067D01900624E0FBA3E0FAA36D
:103E0B00E0F97E007F0412192A9006487405F090A1
:103E1B00062AE0F9A3E0FAA3E0900649C9F0A3EA69
:103E2B00F0A3E9F0A37401F0A37406F0A37432F0CD
:103E3B007B017A06792D7F0C122546AD07ED701F9D
:103E4B00900632E0FEA3E07803CEC313CE13D8F96D
:103E5B00FF900627E0FBA3E0FAA3E0F9EF800C90BC
:103E6B000627E0FBA3E0FAA3E0F9E4121996AF05ED
:013E7B002224
:0B2EDA00900624EBF0A3EAF0A3E9F05F
:102EE5007F057E007D007C0012359C90062E7405C2
:102EF500F0E4A3F0A37408F09006487403F090067C
:102F050027E0F9A3E0FAA3E0900649C9F0A3EAF0A7
:102F1500A3E9F0A37401F0A37406F0A37431F07B68
:102F2500017A06792E7F0C12254690062DEFF0606A
:102F350003022FF1900631E0FEA3E07803CEC31320
:102F4500CE13D8F9FF900624E0FBA3E0FAA3E0F93D
:102F5500EF121996900627E0FBA3E0FAA3E02401FF
:102F6500F9E43AFAC003C002A3E0FBA3E0FAA3E048
:102F7500F8AC02AD03D002D0037E007F0412192AFB
:102F8500900627E0FBA3E0FAA3E02406F9E43AFA69
:102F9500C003C002C001A3E0FBA3E0FAA3E0240440
:102FA500F9E43AA801FCAD03D001D002D0037E00BC
:102FB5007F0412192A900627E0FBA3E0FAA3E02478
:102FC5000AF9E43AFAC003C002C001A3E0FBA3E09A
:102FD500FAA3E02408F9E43AA801FCAD03D001D036
:102FE50002D0037E007F0312192A800F900624E089
:102FF500FBA3E0FAA3E0F9E412199690062DE0FF91
:0130050022A8
:0B300600900624EBF0A3EAF0A3E9F031
:103011007F057E007D007C0012359C90062E740594
:10302100F0E4A3F0A3F09006487403F0900627E0C3
:10303100F9A3E0FAA3E0900649C9F0A3EAF0A3E9F5
:10304100F0A37401F0A37406F0A37431F07B017A4C
:1030510006792E7F0C12254690062DEFF0600302B3
:10306100311B900631E0FEA3E07803CEC313CE13EB
:10307100D8F9FF900624E0FBA3E0FAA3E0F9EF12F0
:103081001996900627E0FBA3E0FAA3E02401F9E4F6
:103091003AFAC003C002A3E0FBA3E0FAA3E0F8AC54
:1030A10002AD03D002D0037E007F0412192A9006DC
:1030B10027E0FBA3E0FAA3E02406F9E43AFAC0030F
:1030C100C002C001A3E0FBA3E0FAA3E02404F9E4F9
:1030D1003AA801FCAD03D001D002D0037E007F04E9
:1030E10012192A900627E0FBA3E0FAA3E0240AF9CB
:1030F100E43AFAC003C002C001A3E0FBA3E0FAA3D3
:10310100E02408F9E43AA801FCAD03D001D002D0D3
:10311100037E007F0312192A800F900624E0FBA38F
:0E312100E0FAA3E0F9E412199690062DE0FF03
:01312F00227D
:0B3A0600900624EBF0A3EAF0A3E9F027
:103A11007F057E007D007C0012359C90062D741D73
:103A2100F0782E7C067D01900624E0FBA3E0FAA34A
:103A3100E0F97E007F0412192AE4900632F0A374A3
:103A410008F0A37401F0A3F09006487409F0900601
:103A51002AE0F9A3E0FAA3E0900649C9F0A3EAF04D
:103A6100A3E9F0A37401F0A37406F0A37436F07B0C
:103A7100017A06792D7F0C122546AD07ED701F9056
:103A81000636E0FEA3E07803CEC313CE13D8F9FFC8
:103A9100900627E0FBA3E0FAA3E0F9EF800C900683
:0F3AA10027E0FBA3E0FAA3E0F9E4121996AF05C2
:013AB00022F3
:0B40D200900624EBF0A3EAF0A3E9F055
:1040DD007F057E007D007C0012359CE490062AF061
:1040ED00A37436F0E4A3F0A3F0A37408F09006488F
:1040FD007405F0900627E0F9A3E0FAA3E0900649D5
:10410D00C9F0A3EAF0A3E9F0A37401F0A37406F0DB
:10411D00A3742FF07B017A06792A7F0C122546AD08
:10412D0007ED701F90062FE0FEA3E07803CEC313BA
:10413D00CE13D8F9FF900624E0FBA3E0FAA3E0F933
:10414D00EF800C900624E0FBA3E0FAA3E0F9E41263
:04415D001996AF05FB
:01416100223B
:064E88000600FFFF000020
:0E33F900900624EFF0A3EBF0A3EAF0A3E9F0B6
:10340700782D7C067D017BFF7A4E79887E007F06CA
:1034170012192A900624E0FF601664016012EF6417
:1034270003600DEF64076008EF640F60037F0122FC
:10343700900624E0900632F07F0A7E007D007C0033
:1034470012359C9006487406F0900628E0F9A3E030
:10345700FAA3E0900649C9F0A3EAF0A3E9F0A37440
:1034670001F0A37406F0A3742BF07B017A06792D83
:103477007F0C122546EF704090062BE0FEA3E07804
:1034870003CEC313CE13D8F9FF900625E0FBA3E0C4
:10349700FAA3E0F9EF121996900628E0FBA3E0FAE9
:1034A700A3E02402F9E43AFA78B67C067D017E00AF
:1034B7007F0812192A7F0022900625E0FBA3E0FA75
:0934C700A3E0F9E41219967F015B
:0134D00022D9
:102ABF005B0662010203040506070809010203040D
:0E2ACF000506070809010203040506070809A9
:10004600E50964016003020956E50A6003020956E0
:10005600F509900398E0FBA3E0FAA3E0F9E412198E
:1000660096900398E0FBA3E0FAA3E0F91219501268
:100076001B6209560000EE0100F40200FA03012398
:1000860004016D05019E0601F807024E0802540997
:10009600025A0A029C0B02E60C02EC1003941103AE
:1000A600C812040F13043A14045915048416049C48
:1000B6001704C01804DF20053321058722059F2376
:1000C60005DE2406192506662606C527070031071C
:1000D600513207913307D134080C35085D52089820
:1000E6005308CA60000009421200260208B4124DE5
:1000F600EA0208B490039DE0FBA3E0FAA3E0240122
:10010600F9E43AFA124A4390039DE0FBA3E0FAA30E
:10011600E0F9EF12199690039C7441F02290039D2A
:10012600E0FBA3E0FAA3E0F9E4121996900398E045
:10013600FBA3E0FAA3E0F9900001121969FF90030E
:100146009DE0FBA3E0FAA3E0F9900001EF1219A8E5
:10015600900398E0FBA3E0FAA3E0F99000011219DE
:1001660069FF124E768079900398E0FBA3E0FAA32C
:10017600E0F9900001121969FF900002121969FD59
:10018600124E6090039DE0FBA3E0FAA3E0F9E412AF
:10019600199690039C04F02290039DE0FBA3E0FADD
:1001A600A3E0F9E4121996900398E0FBA3E0FAA302
:1001B600E0F9900001121969FF90039DE0FBA3E0AE
:1001C600FAA3E0F9900001EF1219A8900398E0FB5A
:1001D600A3E0FAA3E0F9900001121969FF124E2676
:1001E60090039DE0FBA3E0FAA3E0F9900002EF0282
:1001F60002DC900398E0FBA3E0FAA3E0F99000018B
:10020600121969FF900002121969FD124D3B900305
:100216009DE0FBA3E0FAA3E0F9EF1219969003988C
:10022600E0FBA3E0FAA3E0F9900001121969FF9040
:10023600039DE0FBA3E0FAA3E0F9900001EF121999
:10024600A890039C7402F022124E510208B4124D7B
:100256001E0208B47F031244FBE4FF123E7C7B01BE
:100266007A06797D123F1490039DE0FBA3E0FAA382
:10027600E0F9EF12199690067DE0FF90039DE0FBF2
:10028600A3E0FAA3E0F9900001EF1219A890067E08
:10029600E090000280407F031244FBE4FF123E7CA4
:1002A6007B017A06797D123FAB90039DE0FBA3E0CC
:1002B600FAA3E0F9EF12199690067DE0FF90039DF0
:1002C600E0FBA3E0FAA3E0F9900001EF1219A89071
:1002D600067EE09000021219A890039C7403F02297
:1002E6001247DC0208B47F031244FBE4FF123E7C93
:1002F6007B017A06797D12209E90039DE0FBA3E0A8
:10030600FAA3E0F9EF12199690039DE0FBA3E0FA39
:10031600A3E02401F9E43AA801FCAD037B017A06C7
:10032600797D7E007F0212192A90039DE0FBA3E0EF
:10033600FAA3E02403F9E43AA801FCAD037B017AB1
:1003460006797F7E007F0112192A90039DE0FBA3A8
:10035600E0FAA3E02404F9E43AA801FCAD037B012A
:100366007A0679807E007F0C12192A90039DE0FBA5
:10037600A3E0FAA3E02410F9E43AA801FCAD037B5C
:10038600017A06798C7E007F0112192A8074900307
:1003960098E0FBA3E0FAA3E0F9900001121969FFC7
:1003A600900002121969FDE92403F9E43AFA90066D
:1003B6003F7401F0A37406F0A37480F01238A20211
:1003C60008B4900398E0FBA3E0FAA3E0F9900002DA
:1003D60012196925E025E0FF9000011219692FFF27
:1003E60090039DE0FBA3E0FAA3E02401F9E43AFAC6
:1003F60012416290039DE0FBA3E0FAA3E0F9EF123D
:10040600199690039C7411F022900398E0FBA3E0E8
:10041600FAA3E0F990000212196925E025E0FF90A1
:1004260000011219692FFFE92403F9E43AFA12369A
:10043600630208B4900398E0FBA3E0FAA3E0F99006
:100446000001121969FFE92402F9E43AFA123B5550
:100456000208B4900398E0FBA3E0FAA3E0F9900049
:100466000212196925E025E0FF9000011219692F93
:10047600FFE92403F9E43AFA123BF90208B49003BF
:1004860098E0FBA3E0FAA3E0F9900001121969FFD6
:100496001246B40208B4900398E0FBA3E0FAA3E086
:1004A600F990000212196925E025E0FF900001127B
:1004B60019692FFF123D410208B4900398E0FBA38F
:1004C600E0FAA3E0F9900001121969FFE92402F9A4
:1004D600E43AFA12477A0208B4900398E0FBA3E0E4
:1004E600FAA3E0F9900001121969FF9000021219AF
:1004F60069FD90039DE0FBA3E0FAA3E02401F9E483
:100506003AFAC003C002C00190039DA3E0FAA3E03B
:100516002402F9E43AFA900629EBF0A3EAF0A3E9FB
:10052600F0D001D002D003122ADE02091E900398F1
:10053600E0FBA3E0FAA3E0F9900001121969FF902D
:100546000002121969FD90039DE0FBA3E0FAA3E007
:100556002401F9E43AFAC003C002C00190039DA346
:10056600E0FAA3E02402F9E43AFA900629EBF0A3B4
:10057600EAF0A3E9F0D001D002D003123C9D0209B3
:100586001E900398E0FBA3E0FAA3E0F990000112A5
:100596001969FF1248880208B490039DE0FBA3E0A6
:1005A600FAA3E02401F9E43AFA900628EBF0A3EA6C
:1005B600F0A3E9F090039DA3E0FAA3E02402F9E496
:1005C6003AFA90062BEBF0A3EAF0A3E9F07B017A66
:1005D6000679627F1902430590039DE0FBA3E0FACA
:1005E600A3E02401F9E43AFAC003C002C001900373
:1005F6009DA3E0FAA3E02402F9E43AFA900627EB79
:10060600F0A3EAF0A3E9F0D001D002D0031234D16E
:1006160002091E900398E0FBA3E0FAA3E0F990001C
:1006260001121969FF90039DE0FBA3E0FAA3E02401
:1006360001F9E43AFAC003C002C00190039DA3E0A9
:10064600FAA3E02402F9E43AFA900628EBF0A3EACA
:10065600F0A3E9F0D001D002D00312322802091E1D
:10066600900398E0FBA3E0FAA3E0F99000011219C9
:1006760069FFE92402F9E43AFAC003C002C0019016
:10068600039DE0FBA3E0FAA3E02401F9E43AFA9023
:10069600062EEBF0A3EAF0A3E9F090039DA3E0FA9F
:1006A600A3E02402F9E43AFA900631EBF0A3EAF06B
:1006B600A3E9F0D001D002D003122D8F02091E90BB
:1006C600039DE0FBA3E0FAA3E02401F9E43AFAC0B3
:1006D60003C002C00190039DA3E0FAA3E02402F93F
:1006E600E43AFA900627EBF0A3EAF0A3E9F0D0018A
:1006F600D002D00312483202091E7F031244FB7F48
:1007060001123E7C90039DE0FBA3E0FAA3E02401E6
:10071600F9E43AFAC003C002C00190039DA3E0FACF
:10072600A3E02402F9E43AFA900627EBF0A3EAF0F4
:10073600A3E9F0A37401F0A37406F0A37498F0D0B3
:1007460001D002D00312300602091E90039DE0FB81
:10075600A3E0FAA3E02401F9E43AFA900627EBF0C5
:10076600A3EAF0A3E9F090039DA3E0FAA3E0240234
:10077600F9E43AFA90062AEBF0A3EAF0A3E9F07B53
:10078600017A067998123A0602091E90039DE0FB4B
:10079600A3E0FAA3E02401F9E43AFA900627EBF085
:1007A600A3EAF0A3E9F090039DA3E0FAA3E02402F4
:1007B600F9E43AFA90062AEBF0A3EAF0A3E9F07B13
:1007C600017A067998123DE002091E90039DE0FB2E
:1007D600A3E0FAA3E02401F9E43AFAC003C002C098
:1007E6000190039DA3E0FAA3E02402F9E43AFA900B
:1007F6000627EBF0A3EAF0A3E9F0D001D002D0037C
:100806001240D202091E7F031244FB7F01123E7C76
:1008160090039DE0FBA3E0FAA3E02401F9E43AFA91
:10082600C003C002C00190039DA3E0FAA3E0240226
:10083600F9E43AFA900627EBF0A3EAF0A3E9F0A36D
:100846007401F0A37406F0A37498F0D001D002D01E
:1008560003122EDA02091E900398E0FBA3E0FAA326
:10086600E0F9900001121969FF90039DE0FBA3E0F7
:10087600FAA3E02401F9E43AFA12464990039DE00E
:10088600FBA3E0FAA3E0F9EF12199690039C740516
:10089600F022900398E0FBA3E0FAA3E0F9900001B0
:1008A600121969FFE92402F9E43AFA124485900321
:1008B6009DE0FBA3E0FAA3E0F9EF12199690039CE2
:1008C6007401F0227F031244FB7F02123E7C9003E8
:1008D60098E0FBA3E0FAA3E0F9900001121969FF82
:1008E60090039DE0FBA3E0FAA3E02401F9E43AFAC1
:1008F600C003C002C00190039DA3E0FAA3E0240256
:10090600F9E43AFA900628EBF0A3EAF0A3E9F0D06E
:1009160001D002D0031233F990039DE0FBA3E0FA65
:10092600A3E0F9EF12199690039DE0FBA3E0FAA36A
:10093600E0F99000011219692402801090039DE0ED
:10094600FBA3E0FAA3E0F9740112199690039CF058
:01095600227E
:0C4AA100C2B6124AADC2B5124AADD2B680
:104AAD0000000000000000000000000000000000F9
:0E4ABD000000000000000000000000000022C9
:104C8400D2B5D2B6124AAD20B5037F0022C2B51206
:104C94004AAD30B5037F0022C2B5124AAD7F01226E
:084E6600124AA1D2B5024AADC7
:084E6E00124AA1C2B6024AADCE
:0F4E3500C2B6124AADD2B5124AA8C2B6024AADF1
:0D4BB400EAFF124BFC124BC1AF03124BFC89
:104BC100C2B6124AADD2B5124AA830B505C2B67FF7
:074BD1000022C2B67F0122A1
:104BFC007E08AD061EED6018C2B6124AADEF30E766
:104C0C0004D2B58002C2B5EF25E0FF124AA880E2BB
:024C1C00C2B61E
:014C1E002273
:104C41007F08E4FED2B5AD071FED6011EE25E0FE51
:104C5100C2B6124AA830B5EE4401FE80E9C2B6AF31
:014C6100064C
:014C6200222F
:104CC300E49002F0F09002F0E0D3943C500E124CCA
:0F4CD300847FAE124BFC124BC1EF60E9024E66BC
:1045DB00E0FF9006BFF09006A3E0FBA3E0FAA3E098
:0C45EB00F9A3E0FCA3E0FDEF90062EF029
:1045F70090062CECF0A3EDF0124C84EF7002FF2232
:104607007FAE124BFC124BC190062CE0FF124BFC05
:10461700124BC190062CA3E0FF124BFC124BC1902A
:10462700062EE0FF14F0EF6013121950FF124BFC37
:10463700124BC1740129F9E43AFA80E3124E667FFE
:0246470001224E
:102745009006A3EBF0A3EAF0A3E9F0A3ECF0A3ED68
:01275500F093
:10275600E49006AAF0A3F0A3F0ED540FFFC37410A3
:102766009FF09006A8E0FCA3E0FDECC4F854F0C886
:10277600EDC4540F48A3F0ED540FA3F0EF706F9023
:1027860006AAE0700CA31245DBEF7002FF220229B5
:102796001C9006AAE0FF14F0EF603E9006BF74108E
:1027A600F09006A3E0FBA3E0FAA3E0F9A3E0FCA304
:1027B600E0FD74101245F3EF7002FF22124CC39035
:1027C60006A7E02410F09006A6E03400F09006A4D8
:1027D600E475F0101219CA80B89006ABE0FF7003DA
:1027E60002291F1245DDEF7002FF2202291C900606
:1027F600AAE070739006ACE0FFFDD39006A9E09DB9
:102806009006A8E0940040519006BFEF1245E0EF15
:102816007002FF22124CC39006A8A3E0FF9006ACFC
:10282600E0FEC3EF9E9006BFF09006A3E0FBA3E098
:10283600FAA3E0F9EEFF7E00E92FF9EE3AFA9006E8
:10284600A7E02FFD9006A6E03EFC9006BFE01245ED
:10285600F3EF7002FF2202291C9006AB1245DBEF54
:102866007002FF2202291C9006ACE0FDFFC3900611
:10287600A9E09FF09006A8E09400F0E0FAA3E0FB40
:10288600EAC4F854F0C8EBC4540F48A3F0EB540F55
:10289600A3F0ED60261245DDEF7002FF22124CC355
:1028A6009006ACE0FF7E009006A7E02FF09006A60B
:1028B600E03EF09006A4EE8FF080479006AAE0FF77
:1028C60014F0EF60429006BF7410F09006A3E0FB90
:1028D600A3E0FAA3E0F9A3E0FCA3E0FD90062E74C2
:1028E60010F01245F7EF7002FF22124CC39006A7B4
:1028F600E02410F09006A6E03400F09006A4E475FB
:10290600F0101219CA80B49006ABE0FF600B1245B6
:0B291600DDEF7002FF22124CC37F01B6
:012921002293
:104C63007B017A067929AD07AC06900660E4F0A3D0
:104C730004F012438AEF6006900629E0FF227F00CA
:014C8300220E
:104B4300AB07AA06AC05124C84EF7002FF227FAEBE
:104B5300124BFC124BC1124BB4AF04124BFC124B61
:074B6300C1124E667F012222
:10438A0090065BEBF0A3EAF0A3E9F0AB05AA0412EE
:10439A004C84EF7002FF227FAE124BFC124BC1EF2E
:1043AA007005124E66FF22124BB4124C847FAF1274
:1043BA004BFC124BC1900660E07002A3E060401211
:1043CA004C4190065BE0FBA3E0FAA3E0F9EF121977
:1043DA0096900660E07004A3E064017005124E3501
:1043EA008003124E6E90065CE475F0011219CA90B1
:1043FA000661E024FFF0900660E034FFF080B61218
:05440A004E667F012257
:104DA700900660E4F0A3EFF07DF07CFF12438AEFFA
:084DB70060037F01227F00224E
:084D5800E0FBA3E0FAA3E0F97F
:104D600090062EEDF07DF07CFF1245F7EF60037F9B
:054D700001227F00227A
:104BD8007D447FFA7EFF124B437D077FFB7EFF12E9
:104BE8004B437D037FFD7EFF124B437DFF7FF17EAC
:044BF800FF024B432A
:10372800900624EEF0A3EFF0A3EBF0A3EAF0A3E9F0
:10373800F0D3EF9420EE9400900626E0FBA3E0FA85
:10374800A3E0F95013900624A3E0FD124D60E49025
:103758000624F0A3F00237DB7D20124D6090062589
:10376800E024E0F0900624E034FFF0900627E475AA
:10377800F0201219CA805CD3900625E094009006C8
:1037880024E0940040587FF27EFF124C63EF543FD0
:10379800D39408503E900624E0FEA3E0FF9418EE70
:1037A8009400500FA3AD07124D58E4900624F0A3DF
:1037B800F080209006267D18124D58900625E024AA
:1037C800E8F0900624E034FFF0900627E475F0183E
:0E37D8001219CA7D557FF47EFF124B43809973
:0137E60022C0
:104933000A41542B5645520A0041542B5645520AFC
:10494300000A41542B4E414D450A0041542B4E4120
:104953004D450A0052462D424C45342E30004F4BF4
:10496300000A41542B4D41430A0041542B4D41430E
:104973000A0041542B4E414D4552462D424C45347D
:044983002E300A00C8
:0B313000900636EBF0A3EAF0A3E9F0F4
:10313B001219507002FF22E490063EF0A3F0A3F0A8
:10314B00A3F090063CE0FEA3E0FFC390063FE09F98
:10315B0090063EE09E4003023225900636E0FBA32C
:10316B00E0FAA3E0F9900640E0FEA3E0F5828E833F
:10317B00121969FF900642F0900639E0FBA3E0FAC2
:10318B00A3E0F990063EE0FCA3E0F5828C831219D4
:10319B00696F707290063EE0FEA3E0FFD390063D90
:1031AB00E09F90063CE09E4056900636E0FBA3E085
:1031BB00FAA3E0F9900640E0FCA3E0F5828C8312C1
:1031CB001969900642F0700890063EA3E004FF22B6
:1031DB00900639E0FBA3E0FAA3E0F98F828E83120D
:1031EB001969FD900642E0B505150FBF00010E9061
:1031FB000641E004F070A5900640E004F0809DE4E9
:10320B00900640F0A3F090063FE004F0600302311B
:0C321B004D90063EE004F002314D7F00B3
:013227002284
:1023450078247C067D017BFF7A4979757E007F12B2
:1023550012192AC282E4900297F0900297E0C39482
:102365000540F7D282E4900297F0900297E0C3947B
:102375000540F7C284E4900297F0900297E0C39479
:102385000540F7E49002E1F09002DFF0900002F0E2
:10239500A3F07BFF7A497933FDFC1249CB7BFF7AA9
:1023A50049793CE4FDFC124A07E4900297F090025B
:1023B50097E0C3940540F7E49002E1F07B017A01D0
:1023C50079CD900002E0FCA3E0FD1249CBE490003A
:1023D50002F0A3F07F0D124A8B7F0A124A8BE4901C
:1023E50002E1F09002DFF0900002F0A3F07BFF7AAB
:1023F500497944FDFC1249CB7BFF7A49794EE4FDCE
:10240500FC124A07E4900297F09006397401F0A394
:102415007401F0A374CDF0900002E0FFA3E09006F4
:102425003CCFF0A3EFF07BFF7A497957123130EFBB
:102435007009900297E0D3940F40CEE49002E1F04A
:102445007B017A0179CD900002E0FCA3E0FD124901
:10245500CBE4900002F0A3F0900297E0D3940F50E4
:10246500030224EEE49002E1F09002DFF090000216
:10247500F0A3F07F0D124A8B7F0A124A8B7B017AFB
:10248500067924E4FDFC1249CB7B017A067924E424
:10249500FDFC124A07E4900297F09006397401F0AA
:1024A500A37401F0A374CDF0900002E0FFA3E090C7
:1024B500063CCFF0A3EFF07BFF7A4979611231300A
:1024C500EF7009900297E0D3940F40CEE49002E1BB
:1024D500F07B017A0179CD900002E0FCA3E0FD12CA
:1024E50049CBE4900002F0A3F0E49002E1F0900201
:1024F500DFF0900002F0A3F07BFF7A497964FDFCE0
:102505001249CB7BFF7A49796DE4FDFC124A07E459
:10251500900297F0900297E0C3940540F7E490028B
:10252500E1F07B017A0179CD900002E0FCA3E0FDAA
:102535001249CBE4900002F0A3F09002DFF0D284C0
:012545002273
:030000000241EECC
:0C41EE00787FE4F6D8FD75814F02423561
:10185A00E709F608DFFA8046E709F208DFFA803E70
:10186A0088828C83E709F0A3DFFA8032E309F6085D
:10187A00DFFA8078E309F208DFFA807088828C83C5
:10188A00E309F0A3DFFA806489828A83E0A3F60879
:10189A00DFFA805889828A83E0A3F208DFFA804C53
:1018AA0080D280FA80C680D4806980F2803380102A
:1018BA0080A680EA809A80A880DA80E280CA803393
:1018CA0089828A83ECFAE493A3C8C582C8CCC5830B
:1018DA00CCF0A3C8C582C8CCC583CCDFE9DEE780DB
:1018EA000D89828A83E493A3F608DFF9ECFAA9F05A
:1018FA00EDFB2289828A83ECFAE0A3C8C582C8CCB0
:10190A00C583CCF0A3C8C582C8CCC583CCDFEADEC8
:10191A00E880DB89828A83E493A3F208DFF980CC2A
:10192A0088F0EF60010E4E60C388F0ED2402B40423
:10193A000050B9F582EB2402B4040050AF232345CA
:06194A0082239018AA732D
:10195000BB010689828A83E0225002E722BBFE0295
:09196000E32289828A83E49322C8
:10196900BB010CE58229F582E5833AF583E0225033
:1019790006E92582F8E622BBFE06E92582F8E2227D
:0D198900E58229F582E5833AF583E4932297
:10199600BB010689828A83F0225002F722BBFE0130
:0219A600F3222A
:1019A800F8BB010DE58229F582E5833AF583E8F075
:1019B800225006E92582C8F622BBFE05E92582C821
:0219C800F22209
:1019CA00C5F0F8A3E028F0C5F0F8E58215827002A8
:0619DA001583E038F02245
:1019E000A3F8E0C5F025F0F0E582158270021583BA
:0619F000E0C838F0E82217
:1019F600BB010A89828A83F0E5F0A3F0225006F73C
:0F1A060009A7F01922BBFE06F3E5F009F3192238
:101A1500E88FF0A4CC8BF0A42CFCE98EF0A42CFC70
:101A25008AF0EDA42CFCEA8EF0A4CDA8F08BF0A4EE
:101A35002DCC3825F0FDE98FF0A42CCD35F0FCEB4D
:101A45008EF0A4FEA9F0EB8FF0A4CFC5F02ECD3912
:0F1A5500FEE43CFCEAA42DCE35F0FDE43CFC227F
:101A640075F008758200EF2FFFEE33FECD33CDCC39
:101A740033CCC58233C5829BED9AEC99E5829840BC
:101A84000CF582EE9BFEED9AFDEC99FC0FD5F0D699
:101A9400E4CEFBE4CDFAE4CCF9A88222B800C1B9C3
:101AA4000059BA002DEC8BF084CFCECDFCE5F0CB01
:101AB400F97818EF2FFFEE33FEED33FDEC33FCEB3A
:101AC40033FB10D703994004EB99FB0FD8E5E4F9F5
:101AD400FA227818EF2FFFEE33FEED33FDEC33FCE2
:101AE400C933C910D7059BE99A4007EC9BFCE99AD6
:101AF400F90FD8E0E4C9FAE4CCFB2275F010EF2F1B
:101B0400FFEE33FEED33FDCC33CCC833C810D7071A
:101B14009BEC9AE899400AED9BFDEC9AFCE899F855
:0E1B24000FD5F0DAE4CDFBE4CCFAE4C8F922E8
:101B3200EB9FF5F0EA9E42F0E99D42F0E89C45F009
:011B42002280
:101B4300E8600FECC313FCED13FDEE13FEEF13FF80
:031B5300D8F122A4
:0C1B5600ECF0A3EDF0A3EEF0A3EFF02202
:101B6200D083D082F8E4937012740193700DA3A312
:101B720093F8740193F5828883E473740293686026
:061B8200EFA3A3A380DF26
:101B8800E709F608DFFA807BE9D39850F3E92FF9E3
:101B9800E82FF819E718F6DFFA8068E709F208DF96
:101BA800FA806080E388828C83E709F0A3DFFA80FB
:101BB80052E309F608DFFA804AE9D398500EE92F74
:101BC800F9E82FF819E318F2DFFA8037E309F20889
:101BD800DFFA802F88828C83E309F0A3DFFA802361
:101BE80089828A83E0A3F608DFFA801789828A83CC
:101BF800E493A3F208DFF9800A89828A83E0A3F2DA
:101C080008DFFA021C9A80B180F980A580C680DCC2
:101C180080F180738010808380E98087808780D9F5
:101C280080E180BC8073D3E998EA9C5039E92FF5AC
:101C380082EA3BF583E82FF8EC3BFC0582D582026B
:101C480015831582E493C8C582C8CCC583CC0582A8
:101C5800D5820215831582F0C8C582C8CCC583CC4D
:101C6800DFD9DED7802E89828A83ECFAE493A3C871
:101C7800C582C8CCC583CCF0A3C8C582C8CCC583EF
:101C8800CCDFE9DEE7800D89828A83E493A3F60836
:101C9800DFF9ECFAA9F0EDFB22D3E998EA9C503879
:101CA800E92FF582EA3BF583E82FF8EC3BFC058247
:101CB800D5820215831582E0C8C582C8CCC583CCFD
:101CC8000582D5820215831582F0C8C582C8CCC5A5
:101CD80083CCDFDADED880BC89828A83ECFAE0A381
:101CE800C8C582C8CCC583CCF0A3C8C582C8CCC53A
:101CF80083CCDFEADEE8809C809888F08E83EF60F2
:101D0800010E4E608DED2402B404005085F582EB7F
:101D18002402B4040050E123234582AB8323901CA2
:021D28000E7338
:1041FA00020957E493A3F8E493A34003F68001F27B
:10420A0008DFF48029E493A3F85407240CC8C333C5
:10421A00C4540F4420C8834004F456800146F6DF94
:10422A00E4800B0102040810204080902922E47ED9
:10423A00019360BCA3FF543F30E509541FFEE49389
:10424A00A360010ECF54C025E060A840B8E493A350
:10425A00FAE493A3F8E493A3C8C582C8CAC583CA7B
:10426A00F0A3C8C582C8CAC583CADFE9DEE780BE33
:012ADD0000F8
:00000001FF
