:104EDC00759850E4F587438E40538EFE53890F75B9
:0E4EEC008BE8758DFFC2ABD28ED2ACD2AF2256
:104C340090061CE0FBA3E475F001121B7DA9F0FAB9
:044C4400121A98FFA9
:104C4800C2ACD297C299309F05EFA2D0929B8F99A0
:0A4C58003099FDC299C297D2AC2238
:104B880090061CEBF0A3EAF0A3E9F0ED4C701D9041
:104B9800061CE0FBA3E0FAA3E0F9121A98601CB423
:104BA8000A057F0D124C48124C3480E3ED1DAE040B
:0C4BB80070011C4E6005124C3480F1228C
:104C620090061CE0FBA3E475F001121B7DA9F0FA8B
:044C7200121A98FF7B
:104C760053AFFE539AFD8F9BE59A30E1FB539AFDA5
:044C860043AF012215
:104BC40090061CEBF0A3EAF0A3E9F0ED4C701D9005
:104BD400061CE0FBA3E0FAA3E0F9121A98601CB4E7
:104BE4000A057F0D124C76124C6280E3ED1DAE0473
:0C4BF40070011C4E6005124C6280F12222
:10000E0053BAFE759A5075D7E875D6FF438E1443D2
:05001E00AF01D2AF228A
:104E7F000AB1E0D2EBCAB1BCE432303138C4EA3106
:0F4E8F0030D4C237C8D50A00C0B6D1C0D6DC00B7
:102C33004102E7004102D000410295004102E80A47
:102C43004102F0004602A9FFFFFFFFFFFF61010001
:102C530004B2D9D7F7D4B13A200000000000000035
:102C63000000000000000000000000000000000061
:102C73000000000000000000000000000000000051
:102C83000000000000000000000000000000000041
:102C93000000000000000000000000000000000031
:102CA3000000000000000000000000000000000021
:102CB3000000000000000000000000000000000011
:102CC3000000000000000000000000000000000001
:102CD30000000000000000000000000000000000F1
:102CE30000000000000000000000000000000000E1
:102CF30000000000000000000000000000000000D1
:102D030000000000000000000000000000000000C0
:102D130000000000000000000000000000000000B0
:102D230000000000000000000000000000000000A0
:102D33000000000000000000000000000000000090
:102D43000000000000000000000000000000000080
:102D530000004602EAC8F0B7E5181341029600C125
:102D63000141029700C100510298303132333435AA
:0F2D730036373839414243444546004102E900B2
:104EFA00D3EF9400EE940040147D6E7C00ED1D709B
:0D4F0A00011CED4C70F7EF1F70E61E80E3F8
:014F17002277
:1041B800900693EFF0A3EBF0A3EAF0A3E9F07F03F6
:1041C800124671E4FF123FF27B017A0679631222EC
:1041D8003B90037CE0FBA3E0FAA3E0F9EF121ADEC0
:1041E80090037CE0FBA3E0FAA3E0F9121A98704868
:1041F800900693E0FF900698E0FD9006257401F084
:10420800A37406F0A37466F0900694E0FBA3E0FAAA
:10421800A3E0F9123A18EF701D900697E0FF900698
:1042280099E0FBA3E0FAA3E0F91237D9EF7009FF90
:104238001246717F01228000E4FF1246717F00223E
:103ACB00900617EFF0A3EBF0A3EAF0A3E9F0A3E065
:103ADB00D3648094835009A3E0FE6480948F4003E9
:103AEB007F0022EE25E025E0FF90061BE02FF07F04
:103AFB0003124671E4FF123FF27B017A06796312DF
:103B0B00223B90037CE0FBA3E0FAA3E0F9EF121A4F
:103B1B00DE90037CE0FBA3E0FAA3E0F9121A9870A5
:103B2B0048900617E0FF90061CE0FD9006257401F7
:103B3B00F0A37406F0A37466F0900618E0FBA3E004
:103B4B00FAA3E0F9123A18EF701D90061BE0FF90F4
:103B5B00061DE0FBA3E0FAA3E0F91242D8EF7009CF
:103B6B00FF1246717F01228000E4FF1246717F0035
:013B7B002227
:102ABF00E490060EF0A37402F07B01A314F0A3744C
:102ACF0000F0A37404F0A3E4F0A37430F07A027959
:032ADF00EA7F018A
:0E2AE20090060AEFF0A3EBF0A3EAF0A3E9F0F0
:102AF000E4900615F0A3F0900613E0C4F854F0C873
:102B000068FEA3E0C4540F48FFC3900616E09F90F0
:102B10000615E09E4003022B9C90060EE0FF3395C5
:102B2000E0FE900615E0FCA3E0FD2FFFEC3EFEEF7B
:102B3000540390061BF0EF7802CEC313CE13D8F9DE
:102B4000FF90060FE02F90061CF0EDC4F8540FC85C
:102B500068FFECC454F048FE900610E0FBA3E0FAD6
:102B6000A3E02FF9EA3EFA90061DEBF0A3EAF0A3EA
:102B7000E9F090060BE0FBA3E0FAA3E0F990060A67
:102B8000E0FF123ACBEF6014900616E004F0600309
:102B9000022AF7900615E004F0022AF7900613E0E7
:102BA000FCA3E0FDECC4F854F0C868FEEDC4540F7B
:102BB00048FFA3E06E7003A3E06F7074ED540F60E4
:102BC0006C90060EE0FF3395E0FE900615E0FCA346
:102BD000E0FD2FFFEC3EFEEF540390061BF0EF7874
:102BE00002CEC313CE13D8F9FF90060FE02F900644
:102BF0001CF0EDC4F8540FC868FFECC454F048FE54
:102C0000900610E0FBA3E0FAA3E02FF9EA3EFA9069
:102C1000061DEBF0A3EAF0A3E9F090060BE0FBA39E
:102C2000E0FAA3E0F990060AE0FF023ACB7F012226
:022C30007F0023
:012C3200227F
:0B1EC70090058CEBF0A3EAF0A3E9F01B
:101ED200900592E024FE602C04600302223A9005F1
:101EE20093E599F0900000E0FFA3E0900594CFF015
:101EF200A3EFF09002D1E0FFA3E0900596CFF0A30C
:101F0200EFF0807A900593E59BF0900002E0FFA34A
:101F1200E0900594CFF0A3EFF09002D3E0FFA3E0AE
:101F2200900596CFF0A3EFF0208453900593E0FF45
:101F320090058CE0FBA3E0FAA3E0F9900594E47528
:101F4200F001121B7D85F082F583EF121AF09005E5
:101F520094E0FFA3E0900002CFF0A3EFF090058F92
:101F6200E0FBA3E0FAA3E0F99000037401121AF077
:101F7200900002E4121AF0900001E4021AF09005B7
:101F820093E0FF90058CE0FBA3E0FAA3E0F9900553
:101F920094E0FCA3E0FDF5828C83EF121AF0900529
:101FA2008FE0FBA3E0FAA3E0F9C003C002C0011274
:101FB2001A98FF90058CE0FBA3E0FAA3E0F98D826A
:101FC2008C83121AB16FD001D002D003121ADE90A4
:101FD200058FE0FBA3E0FAA3E0F9900008121AB122
:101FE200702790058CE0FBA3E0FAA3E0F99005943A
:101FF200E0FEA3E0F5828E83121AB1FF900597E00E
:102002002FF0900596E03400F0900595E004F07012
:1020120006900594E004F0900594E07004A3E06457
:1020220001707A90058CE0FBA3E0FAA3E0F9121AA2
:1020320098FF90058FE0FBA3E0FAA3E0F9EF121AF4
:10204200DE90058CE0FBA3E0FAA3E0F9121A98FFF8
:10205200FD900596E4F0A3EDF090058FE0FBA3E080
:10206200FAA3E0F9900008E4121AF0900003740158
:10207200121AF0900002E4121AF0900001E4121A0F
:10208200F0EF24E27002803C90058FE0FBA3E0FABF
:10209200A3E0F9900003E4121AF00221C290059421
:1020A200E0FEA3E0FF64024E703790058CE0FBA3D4
:1020B200E0FAA3E0F9121A98B41E1C900001121A59
:1020C200B1B4601390058FE0FBA3E0FAA3E0F990AE
:1020D2000004741E0221BDE4900594F0A3F0021FD7
:1020E2008090058FE0FBA3E0FAA3E0F990000412D0
:1020F2001AB1641E60030221C2D3EF9409EE940068
:1021020050030221C990058CE0FBA3E0FAA3E0F999
:10211200900006121AB1FE900007121AB17C002438
:1021220000FFEC3EFE900595E024F6FD900594E05C
:1021320034FFFCEF6D7002EE6C707190058FE0FB66
:10214200A3E0FAA3E0F9121A98FFB41F0790000265
:102152007401803790058CE0FBA3E0FAA3E0F990CC
:102162000595E024FEFD900594E034FF8D82F58311
:10217200121AB1FEEF641F6EFF124C4890058FE0F9
:10218200FBA3E0FAA3E0F9900002E4121AF0900532
:102192008FE0FBA3E0FAA3E0F9900003E4121AF047
:1021A200E4900594F0A3F0900001800F90058FE079
:1021B200FBA3E0FAA3E0F9900002E4121AF0800710
:1021C200E4900594F0A3F0900592E024FE603404BC
:1021D200706690058FE0FBA3E0FAA3E0F99000029D
:1021E200121AB1B40102C2AC900594E0FFA3E090D0
:1021F2000000CFF0A3EFF0900596E0FFA3E090027D
:10220200D1803090058FE0FBA3E0FAA3E0F99000C3
:1022120002121AB1B4010353AFFE900594E0FFA37A
:10222200E0900002CFF0A3EFF0900596E0FFA3E06C
:082232009002D3CFF0A3EFF0FE
:01223A002281
:030023000246E2B0
:1046E200C0E0C0F0C083C082C0D075D000C000C09E
:1046F20001C002C003C004C005C006C00730990251
:10470200C29930982FC298C3900001E094C89000DB
:1047120000E094004004E4F0A3F090058F7401F0EF
:10472200A37402F0A374D5F0A37401F0FB7A0179AB
:1047320005121EC7D007D006D005D004D003D00280
:0F474200D001D000D0D0D082D083D0F0D0E032E0
:03004300024585EE
:10458500C0E0C0F0C083C082C0D075D000C000C0FC
:1045950001C002C003C004C005C006C007E59A30CB
:1045A500E031539AFEC3900003E094C8900002E006
:1045B50094004004E4F0A3F090058F7401F0A37417
:1045C50002F0A374DEF0A37402F07B017A0179CDC9
:1045D500121EC7E59A30E103539AFDD007D006D0E5
:1045E50005D004D003D002D001D000D0D0D082D0E5
:0645F50083D0F0D0E0329B
:074FDB00D201E4900297F0FF
:0C4FE200C2B47FD07E07124EFAD2B42277
:104F9D00538E7F5389F0E4F58A758C4CC28DD28C7B
:054FAD00D2A9D2AF22E1
:03000B0002395D5A
:10395D00C0E0C0F0C083C082C0D075D000C000C030
:10396D0001C002C003C004C005C006C00790029785
:10397D00E004F09002D8E060209002D6E004F0E080
:10398D00C394144014A3E4F0A3F0900000F0A3F04E
:10399D009002D6F07FE1124C489002E1E060209059
:1039AD0002DFE004F0E0C394144014A3E4F0A3F0AC
:1039BD00900002F0A3F09002DFF07FE2124C48304D
:1039CD008504D2008002C200900297E0FF75F00AD4
:1039DD0084E5F07002B2A5EFC394C840059002973C
:1039ED00E4F09002F0E004F0E0D394504002E4F0F3
:1039FD00D007D006D005D004D003D002D001D0001E
:0B3A0D00D0D0D082D083D0F0D0E032C7
:1043F00090059AE0FFFCA3E0FD900598E0FAA3E0A9
:10440000FBC39DFDEA9CFC749D2DF58274053CF573
:1044100083EFF090059AA3E0FF749E2DF58274055A
:104420003CF583EFF0EB24F8EA34FF9005A5F0EBC0
:1044300024F8A3F07B017A05799F900598E0FCA30E
:02444000E0FD9D
:10444200900615EBF0A3EAF0A3E9F0A3ECF0A3EDDC
:01445200F079
:10445300E4FF90061874FFF5F0121B7D45F060171A
:10446300900615E0FBA3E475F001121B7DA9F0FA99
:07447300121A986FFF80DBB5
:01447A00221F
:0B12DF0090060AEBF0A3EAF0A3E9F090
:1012EA00900002121AB1900614F0C2D5ED641E6085
:1012FA000302199F90060FF0A37408F090060AE003
:10130A00FBA3E0FAA3E0F9900004121AB124FB70DF
:10131A000302161914700302171F2405600302182A
:10132A000590060FE475F001121B7D85F082F583A6
:10133A007409121AF090060FE475F001121B7D85EC
:10134A00F082F583E4121AF090060FE475F00112A8
:10135A001B7D85F082F5837404121AF090060FE45F
:10136A0075F001121B7D85F082F5837456121AF00E
:10137A0090060FE475F001121B7D85F082F58374E7
:10138A0065121AF090060FE475F001121B7D85F0C4
:10139A0082F5837472121AF090060FE475F0011246
:1013AA001B7D85F082F5837410121AF09002E8E032
:1013BA00FF900614E06F600302147E90060AE0FBB9
:1013CA00A3E0FAA3E0F9900003121AB1F460030251
:1013DA00147E90060F75F001121B7D85F082F5834D
:1013EA00744D121AF090060FE475F001121B7D85F8
:1013FA00F082F5837443121AF090060FE475F00137
:10140A00121B7D85F082F5837455121AF090060F2F
:10141A00E475F001121B7D85F082F583745F121A60
:10142A00F090060FE475F001121B7D85F082F583BA
:10143A007449121AF090060FE475F001121B7D85AB
:10144A00F082F5837444121AF0E4FF740C2FF8E664
:10145A00FE90060AE0FBA3E0FAA3E0F990060FE487
:10146A0075F001121B7D85F082F583EE121AF00FDA
:10147A00EFB407D790060FA3E024F5FF90060AE021
:10148A00FBA3E0FAA3E0F990000AEF121AF0900623
:10149A000FE475F001121B7D85F082F583740A1240
:1014AA001AF090060FE475F001121B7D85F082F5A3
:1014BA0083E4121AF090060FE475F001121B7D8581
:1014CA00F082F5837405121AF090060FE475F001A4
:1014DA00121B7D85F082F5837420121AF090060F94
:1014EA00E475F001121B7D85F082F5837418121AD7
:1014FA00F090060FE475F001121B7D85F082F583EA
:10150A007409121AF090060FE475F001121B7D851A
:10151A00F082F5837413121AF090060FE475F00145
:10152A00121B7D85F082F5837415121AF090060E4F
:10153A00E024FE600804700D9002DC80039002E54E
:10154A007401F080037F0222900614E0F460030223
:10155A00185F90060AE0FBA3E0FAA3E0F990000303
:10156A00121AB1FF6401600302185F900002EF12C1
:10157A001AF09000037410121AF090000474051205
:10158A001AF0900006E4121AF090060FE0FCA3E0AD
:10159A00FD24F8900007121AF012444290060AE05D
:1015AA00FBA3E0FAA3E0F990060FE475F001121B21
:1015BA007D85F082F583EF121AF090060FE475F03C
:1015CA0001121B7D85F082F583741F121AF09006B2
:1015DA000EE024FE601B04703090060AE0FBA3E0D4
:1015EA00FAA3E0F990060FE0FCA3E0FD124B888015
:1015FA001B90060AE0FBA3E0FAA3E0F990060FE0CD
:10160A00FCA3E0FD124BC480037F02227F012290DB
:10161A00060AE0FBA3E0FAA3E0F9900006121AB169
:10162A00FE900007121AB17C002400FFEC3ECF2482
:10163A000AFDE43FFC90060AA3A3E0124B88900639
:10164A000AE0FBA3E0FAA3E0F9900002121AB1FF44
:10165A009002E7E06F600302171C900003121AB1B0
:10166A00FF9002D0E06F600302171C900005121A67
:10167A00B1FF900295E06F600302171C90000612FA
:10168A001AB1FF7008900007121AB16065EF70393D
:10169A0090060AE0FBA3E0FAA3E0F9900007121A09
:1016AA00B164047024900008121AB1B40C1B9000A3
:1016BA0009121AB1701390000A121AB1B4010A90F1
:1016CA00000B121AB16401602990060AE0FBA3E03C
:1016DA00FAA3E0F9900008121AB164097034900074
:1016EA000A121AB1240BF582E433F583121AB1B443
:1016FA000A2090060EE024FE600B0470129002DBB2
:10170A007401F0800D9002E47401F0C20180037F3D
:10171A0002227F012290060AE0FBA3E0FAA3E0F985
:10172A00900008121AB1FF7039900005121AB1FE22
:10173A009002E8E06E7026900006121AB1701E90B0
:10174A000007121AB1B40315900009121AB1700DEC
:10175A0090000A121AB17005D2D502185FC2D502DA
:10176A00185FEF646F600302185FFDFC7F03124D80
:10177A0027E4900611F0A3F090060AE0FBA3E0FA32
:10178A00A3E0F9900009121AB1FE90000A121AB1E8
:10179A007C002400FFEC3EFE7D21121B12C3900642
:1017AA0012E09D900611E09C503F900611E0FEA3C6
:1017BA00E0FF240BF582E43EF583121AB1FDF5C26F
:1017CA0074552FF58274033EF583EDF0900611E00F
:1017DA00FCA3E0FD7F02124D27900612E004F07090
:1017EA0097900611E004F0808FE4F5C2900611E0AC
:1017FA00FCA3E0FD7F02124D27805A90060AE0FB07
:10180A00A3E0FAA3E0F990060FE475F001121B7D3C
:10181A0085F082F583740C121AF090060FE475F0C5
:10182A0001121B7D85F082F583E4121AF090060FEF
:10183A00E475F001121B7D85F082F5837401121A9A
:10184A00F090060FE475F001121B7D85F082F58396
:10185A007403121AF090060AE0FBA3E0FAA3E0F977
:10186A00900002121AB1FF9002E8E06F601790062A
:10187A0014E0F47003021972900003121AB16401A1
:10188A00600302197290060AE0FBA3E0FAA3E0F9EA
:10189A00900003121AB1900002121AF0900614E096
:1018AA00900003121AF09000047405121AF09000C6
:1018BA0006E4121AF090060FE0FCA3E0FD24F8906B
:1018CA000007121AF012444290060AE0FBA3E0FA5B
:1018DA00A3E0F990060FE475F001121B7D85F082F2
:1018EA00F583EF121AF090060FE475F001121B7DD2
:1018FA0085F082F583741F121AF090060EE024FE1A
:10190A00601B04703090060AE0FBA3E0FAA3E0F93A
:10191A0090060FE0FCA3E0FD124B88801B90060A9C
:10192A00E0FBA3E0FAA3E0F990060FE0FCA3E0FDD8
:10193A00124BC480037F022230D511E4900297F043
:10194A00900297E0C3940A40F775C76090060AE0D0
:10195A00FBA3E0FAA3E0F9900610E024FEFF90064C
:10196A000FE034FF8F82802390060FE0FEA3E0FF92
:10197A00D39408EE9400401A90060AE0FBA3E0FA1A
:10198A00A3E0F974FF2FF58274FF3EF583121AB1B2
:07199A00FF227F01227F0004
:0119A1002223
:1000460090059C74F1F0A374BFF0A374F9F0C2029A
:10005600C20378037C067D017BFF7A4E79977E008A
:100066007F07121A72124E60124D0112500C124E78
:10007600DC12000E124F9D124D941224E27BFF7A81
:100086004E797FE4FDFC124B887BFF7A4E797FE444
:10009600FDFC124BC4E4900598F0A3F0900598E09F
:1000A600FEA3E0FFC39407EE9400505F90059CE02A
:1000B6002FF8E6C4540F7E00540F2498F582EE34D0
:1000C60002F583E0FF124C48900598A3E0FF9005E7
:1000D6009CE02FF8E67E00540F2498F582EE340259
:1000E600F583E0FF124C48900598A3E0FF90059C2D
:1000F600E02FF8E6FE740C2FF8A606900599E004AA
:10010600F07099900598E004F080917F0D124C48AC
:100116007F0A124C48E4900598F0A3F0900598E009
:10012600FEA3E0FFC39407EE9400505F90059DE0A8
:10013600FCA3E02FF582EC3EF583E493C4540F7ED6
:1001460000540F2498F582EE3402F583E0FF124C3A
:1001560048900598E0FEA3E0FF90059DE0FCA3E033
:100166002FF582EC3EF583E4937E00540F2498F538
:1001760082EE3402F583E0FF124C48900599E004C4
:10018600F07099900598E004F080917F0D124C482C
:100196007F0A124C48E4900598F0A3F0900598E089
:1001A600FCA3E0FDC39420EC9400507B7F01124D2C
:1001B60027E5C270028070E5C2B4FF47E490059857
:1001C600F0A3F0900598E0FEA3E0FFC39420EE9420
:1001D60000505474032FF58274063EF583E0FF60E9
:1001E60046900598E0FCA3E02455F58274033CF59F
:1001F60083EFF0900599E004F070C8900598E0044C
:10020600F080C0900598E0FEA3E02455F5827403C3
:100216003EF583E5C2F0900599E004F0700690057E
:1002260098E004F00201A27B017A037955E4FDFC13
:10023600124B887B017A037955E4FDFC124BC47F8F
:100246000D124C487F0A124C48124FE27FD07E07AF
:10025600124EFA7FF77EFF124E1F124FE27FF47E98
:1002660001124EFA122ABF124FE21209CEC2B77F0E
:10027600F77EFF124E1FEF20E4030205CCD2B77BB8
:10028600017A0279AF7F20124F6F9002AFE0B4017E
:10029600107B017A0379557F207E0012389E020575
:1002A600999002AFE064036003020599D2039005BA
:1002B60098F0A3F090059875F001121B7DFE749FCF
:1002C60025F0F58274053EF583741EF0900598E4DA
:1002D60075F001121B7DFE749F25F0F58274053EB4
:1002E600F5837460F0900598E475F001121B7DFEAD
:1002F600749F25F0F58274053EF5837401F0900530
:1003060098E475F001121B7DFE749F25F0F582744A
:10031600053EF583740AF0900598E475F001121B0A
:100326007DFE749F25F0F58274053EF5837408F012
:10033600900296E004FFF0900598E475F001121B18
:100346007DFC749F25F0F58274053CF583EFF090F3
:1003560002E7740AF09002D07401F0900296E090E1
:100366000295F0900599E02402F0900598E034009B
:10037600F0E475F001121B7DFE749F25F0F5827482
:10038600053EF5837428F0900599E02402F0900567
:1003960098E03400F0E490059AF0A3F090059AE016
:1003A600FEA3E0FFC39409EE9400503674B02FF517
:1003B6008274023EF583E0FF6028900598E475F0AC
:1003C60001121B7DFC749F25F0F58274053CF583B4
:1003D600EFF090059BE004F070C290059AE004F0FF
:1003E60080BA90059AE0FFFCA3E0FDC3900599E072
:1003F6009DFD900598E09CFC749D2DF58274053C4E
:10040600F583EFF090059AA3E0FF749E2DF58274B4
:10041600053CF583EFF0900598E475F001121B7D1D
:10042600FE749F25F0F58274053EF583743CF090CA
:100436000599E02402F0900598E03400F0E4900578
:100446009AF0A3F090059AE0FEA3E0FFC39407EEAE
:100456009400503474B92FF58274023EF583E0FFA0
:10046600900598E475F001121B7DFC749F25F0F54C
:100476008274053CF583EFF090059BE004F070C4B0
:1004860090059AE004F080BC90059AE0FFFCA3E09A
:10049600FDC3900599E09DFD900598E09CFC749D38
:1004A6002DF58274053CF583EFF090059AA3E0FFE5
:1004B600749E2DF58274053CF583EFF0900598E463
:1004C60075F001121B7DFE749F25F0F58274053EC2
:1004D600F5837420F0900599E02402F0900598E0E9
:1004E6003400F0E490059AF0A3F090059AE0FEA39C
:1004F600E0FFC39408EE9400503674C02FF5827462
:10050600023EF583E0FF6028900598E475F001123D
:100516001B7DFC749F25F0F58274053CF583EFF096
:1005260090059BE004F070C290059AE004F080BA52
:100536001243F0900598E475F001121B7DFC749F40
:1005460025F0F58274053CF583EFF0900598E47587
:10055600F001121B7DFE749F25F0F58274053EF5B1
:1005660083741FF07B017A05799F900598E0FCA3C0
:10057600E0FD124B887B017A05799F900598E0FC97
:10058600A3E0FD124BC4124FDB7F147E00124EFA1D
:10059600124FE2E4900598F0A3F0900598E0FEA3D0
:1005A600E0FFC39420EE9400501C74AF2FF58274C4
:1005B600023EF583E4F0900599E004F070DC9005C6
:1005C60098E004F080D4122ABFEF640160030208A9
:1005D600CA3002030208CE3003030208CED20290CC
:1005E6000598F0A3F090059875F001121B7DFE7436
:1005F6009F25F0F58274053EF583741EF0900598EC
:10060600E475F001121B7DFE749F25F0F5827405DA
:100616003EF5837460F0900598E475F001121B7D39
:10062600FE749F25F0F58274053EF5837401F09003
:100636000598E475F001121B7DFE749F25F0F58286
:1006460074053EF583740AF0900598E475F001127E
:100656001B7DFE749F25F0F58274053EF5837408B4
:10066600F0900296E004FFF0900598E475F0011210
:100676001B7DFC749F25F0F58274053CF583EFF035
:100686009002E7740AF09002D07401F0900296E0AE
:10069600900295F0900599E02402F0900598E034D8
:1006A60000F0E475F001121B7DFE749F25F0F582C3
:1006B60074053EF5837428F0900599E02402F090C5
:1006C6000598E03400F0E490059AF0A3F090059ABE
:1006D600E0FEA3E0FFC39409EE9400503674042FA5
:1006E600F58274003EF583E0FF6028900598E47576
:1006F600F001121B7DFC749F25F0F58274053CF514
:1007060083EFF090059BE004F070C290059AE00438
:10071600F080BA90059AE0FFFCA3E0FDC39005992E
:10072600E09DFD900598E09CFC749D2DF582740576
:100736003CF583EFF090059AA3E0FF749E2DF582B9
:1007460074053CF583EFF0E4900004F0900598758D
:10075600F001121B7DFE749F25F0F58274053EF5AF
:1007660083743CF0900599E02402F0900598E034FB
:1007760000F0E490059AF0A3F090059AE0FEA3E05D
:10078600FFC39407EE9400503474242FF58274004E
:100796003EF583E0FF900598E475F001121B7DFCA1
:1007A600749F25F0F58274053CF583EFF090059B68
:1007B600E004F070C490059AE004F080BC90059ABD
:1007C600E0FFFCA3E0FDC3900599E09DFD90059830
:1007D600E09CFC749D2DF58274053CF583EFF0904A
:1007E600059AA3E0FF749E2DF58274053CF583EF10
:1007F600F0E4900004F090059875F001121B7DFE60
:10080600749F25F0F58274053EF5837420F09005FB
:1008160099E02402F0900598E03400F0E490059AFF
:10082600F0A3F090059AE0FEA3E0FFC39408EE94CF
:1008360000503674142FF58274003EF583E0FF6095
:1008460028900598E475F001121B7DFC749F25F035
:10085600F58274053CF583EFF090059BE004F0709B
:10086600C290059AE004F080BA1243F0900598E42D
:1008760075F001121B7DFC749F25F0F58274053C12
:10088600F583EFF0900598E475F001121B7DFE7478
:100896009F25F0F58274053EF583741FF07B017A7F
:1008A60005799F900598E0FCA3E0FD124B887B013B
:1008B6007A05799F900598E0FCA3E0FD124BC412DF
:1008C6004FDB8004C202C203E4FF1246712001031B
:1008D600020979900297E0D39464500302097920C3
:1008E6000003020979900296E004F09005A4F090C6
:1008F6000296E0900295F07B017A05799F9005A516
:10090600E0FEA3E07C002400FFEC3ECF2408FDE4DB
:100916003FFC124442AD079005A5E0FEA3E07A0035
:100926002400FFEA3EFE74A72FF58274053EF58388
:10093600EDF07B017A05799F9005A5E0FEA3E07CAA
:10094600002400FFEC3ECF240AFDE43FFC124B8856
:100956007B017A05799F9005A5E0FEA3E07C002443
:1009660000FFEC3ECF240AFDE43FFC124BC4E490AA
:100976000297F09002D7E060217B017A0179059019
:1009860002D9E0FD90060E7401F01212DFD2ACE43B
:100996009002D7F0900000F0A3F09002E0E0700320
:1009A6000202737B017A0179CD9002E2E0FD9006A6
:1009B6000E7402F01212DF43AF01E49002E0F090F1
:0809C6000002F0A3F00202732D
:104E6000E4F591F592F595F596F5B1F5B2F5B375D2
:0F4E7000B402D2B2C2A5439620C29743928022C9
:104B4400E4FDFCC3ED9FEC9E503900000000000022
:104B54000000000000000000000000000000000051
:104B64000000000000000000000000000000000041
:104B74000000000000000000000000000DBD000166
:034B84000C80C0E2
:014B8700220B
:104D010090037C7401F0A37403F0A37480F090030A
:104D1100777401F0A37404F0A37480F0E4F509F54D
:064D210008F50AF50B2263
:0B408A00900623EBF0A3EAF0A3E9F09E
:104095007D807F12124E9E7D807F13124E9E7D087D
:1040A5007F13124DDF7D087F08124E9E7D077F0D21
:1040B5001250287523267F017E007D007C00123773
:1040C5001290062E7401F07B00A314F0A37400F087
:1040D500A37424F0A3EBF0A37400F0A37426F07A84
:1040E5000079237F0C1226E38F22E522702BE5272A
:1040F500641045267023900623E0FBA3E0FAA3E0B5
:10410500F9E524121ADE900623E0FBA3E0FAA3E00A
:0B411500F9900001E525121AF0AF221E
:01412000227C
:0B41210090060AEBF0A3EAF0A3E9F01F
:10412C007D807F12124E9E7D807F13124E9E7D08E5
:10413C007F13124DDF7D087F08124E9E7D077F0D89
:10414C001250287522527F017E007D007C001237B0
:10415C001290062E7401F07B00A314F0A37400F0EF
:10416C00A37423F0A3EBF0A37400F0A37425F07AEE
:10417C000079227F0C1226E38F21E521702BE52696
:10418C0064104525702390060AE0FBA3E0FAA3E037
:10419C00F9E523121ADE90060AE0FBA3E0FAA3E08D
:0B41AC00F9900001E524121AF0AF2189
:0141B70022E5
:10349000900620E0FBA3E0FAA3E02407F9E43AFA5F
:0234A0007F9516
:0E34A200900623EFF0A3EBF0A3EAF0A3E9F00D
:1034B0007D807F12124E9E7D807F13124E9E7D086E
:1034C0007F08124E9EE4FD7F0D1250287D807F0EF6
:1034D000124E9E900623E0F5247525207F017E0084
:1034E0007D007C0012371290062E7402F0A3E4F0E7
:1034F000A37400F0A37426F0A3E4F0A37400F0A377
:10350000742BF07B007A0079247F0C1226E38F2243
:10351000E5227058F52374262523F8E6FF9006244B
:10352000E0FBA3E0FAA3E0F9852382758300EF12A4
:103530001AF00523E523B405DD900624E0FBA3E0A3
:10354000FAA3E0F9900001121AB1FF121A986FFF66
:10355000900002121AB16FFF900003121AB16FFFB0
:0E356000900004121AB16F6003752201AF22B1
:01356E00223A
:0E3C2700900623EFF0A3EBF0A3EAF0A3E9F080
:103C3500E4FD7F0D1250287D807F12124DDF7D80BF
:103C45007F13124DDF7D087F08124E9E900623E0FC
:103C5500F524752570E4F523900624E0FBA3E0FA2E
:103C6500A3E0F9852382758300121AB1FF74262516
:103C750023F8A6070523E523B405DD7F017E007D36
:103C8500007C0012371290062E7407F0A3E4F0A30F
:103C95007400F0A3742BF0A3E4F0A37400F0A374F4
:103CA50030F07B007A0079247F0C1226E38F22E521
:103CB500227010900627E0FBA3E0FAA3E0F9E52BBC
:053CC500121ADEAF221F
:013CCA0022D7
:10495200752250E4F523FD7F0D1250287D807F12D1
:10496200124DDF7D807F13124DDF7D087F08124ECE
:104972009E7F017E007D007C0012371290062E740D
:1049820002F0A3E4F0A37400F0A37424F0A3E4F013
:10499200A37400F0A37425F07B007A0079227F04CF
:0549A2001226E38F2145
:0149A70022ED
:0B223B00900620EBF0A3EAF0A3E9F00E
:1022460012408A8F21E521B401037F0122900620E6
:10225600E0FBA3E0FAA3E0F9121A9854C0706DE906
:102266002403F9E43AFA7F931234A28F21E521B4CC
:1022760001037F0122900620E0FBA3E0FAA3E024FD
:1022860003F9E43AFAC003C002C001900620A3E0B5
:10229600FAA3E0240FF9E43AFA900627EBF0A3EA52
:1022A600F0A3E9F0D001D002D0037F93123C278F30
:1022B60021E521B401037F0122900620E0FBA3E083
:1022C600FAA3E0F99000027404121AF0900620E0D6
:1022D600FBA3E0FAA3E0F9121A9854C06440600325
:1022E6000223A7E92403F9E43AFA7F931234A28F72
:1022F60021E521B401037F0122900620E0FBA3E043
:10230600FAA3E02403F9E43AFAC003C002C001903C
:102316000620A3E0FAA3E0240FF9E43AFA90062790
:10232600EBF0A3EAF0A3E9F0D001D002D0037F934B
:10233600123C278F21E521B401037F01221234903C
:102346008F21E521B401037F0122900620E0FBA343
:10235600E0FAA3E02407F9E43AFAC003C002C00198
:10236600900620A3E0FAA3E0240FF9E43AFA9006D7
:1023760027EBF0A3EAF0A3E9F0D001D002D0037F67
:1023860095123C278F21E521B401037F0122900697
:1023960020E0FBA3E0FAA3E0F99000027408121A09
:1023A600F0900620E0FBA3E0FAA3E0F9121A985495
:1023B600C0648060030224DFE92403F9E43AFA7F6B
:1023C600931234A28F21E521B401037F01229006E6
:1023D60020E0FBA3E0FAA3E02403F9E43AFAC00301
:1023E600C002C001900620A3E0FAA3E0240FF9E49E
:1023F6003AFA900627EBF0A3EAF0A3E9F0D001D071
:1024060002D0037F93123C278F21E521B401037F7D
:1024160001221234908F21E521B401037F0122901D
:102426000620E0FBA3E0FAA3E02407F9E43AFAC0A9
:1024360003C002C001900620A3E0FAA3E0240FF92E
:10244600E43AFA900627EBF0A3EAF0A3E9F0D0010C
:10245600D002D0037F95123C278F21E521B40103DA
:102466007F0122900620E0FBA3E0FAA3E0240BF90B
:10247600E43AFA7F971234A28F21E521B401037F53
:102486000122900620E0FBA3E0FAA3E0240BF9E486
:102496003AFAC003C002C001900620A3E0FAA3E006
:1024A600240FF9E43AFA900627EBF0A3EAF0A3E941
:1024B600F0D001D002D0037F97123C278F21E5216F
:1024C600B401037F0122900620E0FBA3E0FAA3E01B
:0B24D600F9900002740C121AF0AF2104
:0124E10022D8
:0D500C00E4F5CF75CDC075CED0F5A2FF2222
:104C8A00900639E004F07006900638E004F0D390FC
:104C9A000639E094C8900638E0940040037F002269
:074CAA00E5CD5F60DB7F0137
:014CB10022E0
:104CB200C292EF25E0F54F434F8075CDC0854FCFAF
:104CC2007F80124C8A75CDC0E4F5CF7F80124C8A6A
:074CD20085CF4ED292AF4ED8
:014CD90022B8
:0D488E00900635EBF0A3EAF0A3E9F0AE07C9
:10489B00EE6051C292AF05EF25E0F54C434C8075AD
:1048AB00CDC0854CCF7F80124C8AE4F54BE54BC3D2
:1048BB009E502F75CDC0EE14B54B05E4F5CF80039C
:1048CB00854CCF7F80124C8A900635E0FBA3E0FA33
:1048DB00A3E0F9854B82758300E5CF121AF0054BE7
:0448EB0080CBD2921A
:0148EF0022A6
:104D4C00C292EF25E0F54D534D7E75CDC0854DCF0C
:104D5C007F80124C8A75CDC0AF058FCF7F80124CEF
:034D6C008AD29256
:014D6F002221
:0D4A5400900635EBF0A3EAF0A3E9F0AE0701
:104A6100EE6044C292AF05EF25E0F54B534B7E75E6
:104A7100CDC0854BCF7F80124C8AE4F54CE54CC309
:104A81009E502275CDC0900635E0FBA3E0FAA3E06D
:104A9100F9854C82758300121AB1F5CF7F80124CD3
:074AA1008A054C80D8D29277
:014AA80022EB
:103A1800EF7003752160EFB40103752161ED25E0B6
:103A280025E0F522121A98F523900001121AB1F533
:103A380024900002121AB1F525900003121AB1F56C
:103A480026900004121AB1F527900005121AB1F554
:103A580028900625E0FBA3E0FAA3E0F9121A98F5EE
:103A680029900001121AB1F52A900002121AB1F534
:103A78002B900003121AB1F52C7F017E007D007C8B
:103A88000012371290062E740CF0A3E4F0A3740011
:103A9800F0A3742DF0A3E4F0A37400F0A3742FF046
:103AA8007B007A0079217F0E1226E38F2EE52E7097
:103AB8000F7F0812503EEF30E3037F00227F012280
:023AC8007F017C
:013ACA0022D9
:1048F000900003121AB1FEF521900002121AB1FDC8
:10490000F522900001121AB1F523121A98F524EE3F
:10491000F4F525EDF4F526900001121AB1FEF4F538
:1049200027121A98FDF4F528900003121AB1F52900
:10493000900002121AB1F52A8E2B8D2C8F2DEFF4D8
:10494000F52E8F2FF5307B007A0079211237D98F21
:014950003135
:014951002243
:0E42D800900620EFF0A3EBF0A3EAF0A3E9F0CC
:1042E6007D807F121250287D807F13125028E4FDB6
:1042F6007F0D1250287F017E007D007C0012371250
:10430600752130900620E0F52290062E7402F0907A
:104316000621E0F9A3E0FAA3E090062FC9F0A3EA8C
:10432600F0A3E9F0A3E4F0A37400F0A37424F07BF7
:10433600007A0079217F0C1226E38F23E52564801D
:10434600452460047F0180027F00E52360047E012E
:0D43560080027E00EE4F60037F01227F0099
:014363002237
:0E37D90090060AEFF0A3EBF0A3EAF0A3E9F0EC
:1037E7007F057E007D007C001237127533A090069E
:1037F7000AE0F53490062E7402F0A3E4F0A37400F7
:10380700F0A37443F0A3E4F0A37400F0A37444F0AE
:103817007B007A0079337F0C1226E38F32E543541D
:103827000F640A60047F0180027F00E53260047E36
:103837000180027E00EE4F60037F01227F0A7E0037
:103847007D007C0012371290062E7410F0A3E4F06E
:10385700A37400F0A37443F0A3E4F0A37400F0A3EF
:103867007444F090060BE0FBA3E0FAA3E0F97F0CA9
:103877001226E38F32E543540F640A60047F018008
:10388700027F00E53260047E0180027E00EE4F6019
:06389700037F01227F0007
:01389D002208
:0E3CCB0090060AEFF0A3EBF0A3EAF0A3E9F0F5
:103CD9007F057E007D007C001237127522C1900697
:103CE9000AE0F52390062E7402F0A3E4F0A3740011
:103CF900F0A37424F0A3E4F0A37400F0A37425F0F6
:103D09007B007A0079227F0C1226E38F21E5245467
:103D19000F640A60047F0180027F00E52160047E50
:103D29000180027E00EE4F60037F01227F057E0045
:103D39007D007C0012371290062E7404F0A3E4F083
:103D4900A37400F0A37424F0A3E4F0A37400F0A317
:103D59007425F090060BE0FBA3E0FAA3E0F97F0CD1
:053D69001226E3AF216A
:013D6E002232
:0E3D6F0090060AEFF0A3EBF0A3EAF0A3E9F050
:103D7D007F057E007D007C001237127522C09006F3
:103D8D000AE0F52390062E7402F0A3E4F0A374006C
:103D9D00F0A37424F0A3E4F0A37400F0A37425F051
:103DAD007B007A0079227F0C1226E38F21E52454C3
:103DBD000F640A60047F0180027F00E52160047EAC
:103DCD000180027E00EE4F60037F01227F057E00A1
:103DDD007D007C0012371290062E7404F0A3E4F0DF
:103DED00A37400F0A37424F0A3E4F0A37400F0A373
:103DFD007425F090060BE0FBA3E0FAA3E0F97F0C2D
:053E0D001226E3AF21C5
:013E1200228D
:05482A0090060AEFF00A
:10482F007F057E007D007C001237127522B0900646
:10483F000AE0F52390062E7402F0A3E4F0A37400AF
:10484F00F0A37424F0A3E4F0A37400F0A37425F094
:10485F007B007A0079227F0C1226E38F21E5245406
:10486F000F640A60047F0180027F00E52160047EEF
:0E487F000180027E00EE4F60037F0122AF2118
:01488D002208
:053EB70090060AEFF087
:103EBC007F057E007D007C001237127522C29006B1
:103ECC000AE0F52390062E7402F0A3E4F0A374002C
:103EDC00F0A37426F0A3E4F0A37400F0A37427F00D
:103EEC007B007A0079227F0C1226E38F21E5265481
:103EFC000F640A60047F0180027F00E52160047E6C
:103F0C000180027E00EE4F60037F01227F057E0060
:103F1C007D007C00123712E4F522F523F524F525FB
:103F2C0090062E7404F0A3E4F0A37400F0A374269E
:103F3C00F0A3E4F0A37400F0A37427F07B007A00E4
:093F4C0079227F0C1226E3AF215B
:013F55002249
:042D82004106A40062
:05503E00124CB28F4D81
:01504300224A
:0B4C000090060AEBF0A3EAF0A3E9F035
:104C0B00E4F521AF21124CB290060AE0FBA3E0FAC7
:104C1B00A3E0F9852182758300EF121AF00521E5D7
:084C2B0021C3944040DD7F002D
:014C3300225E
:04502400E4FD7F0127
:06502800124D4C7F002236
:065044007D0912488E22D6
:104F870090062EE0FF90062BE0FBA3E0FAA3E0F9E2
:064F97007D09124A5422BC
:104FC7007D807F0A124DDF7F0A124CB2EF7002FF1D
:044FD700227F012212
:044DDB007D807F0D4B
:0A4DDF00900636EDF0900635EFF077
:104DE90012503E900636E04FFD900635E0FF125016
:034DF900288F4CB4
:014DFC002294
:0A4E9E00900636EDF0900635EFF0B7
:104EA80012503E900636E0F45FFD900635E0FF12A2
:044EB80050288F4BA4
:014EBC0022D3
:05467100900620EFF0AF
:104676007F1412503EEF5403FF900620E0FEB5076C
:10468600037F0022EE70097D037F14124E9E8F2158
:10469600900620E0B401127D017F14124DDF8F21B8
:1046A6007D027F14124E9E8F21900620E0B40212E6
:1046B6007D017F14124E9E8F217D027F14124DDFE5
:1046C6008F21900620E0B403097D037F14124DDF8D
:0B46D6008F217FE87E03124B44AF21D0
:0146E10022B6
:0E26E30090062AEFF0A3EBF0A3EAF0A3E9F0D3
:1026F100E4F547F548F549124FC71250247D207F74
:102701000B1250287D7F7F0412502890062AE0B4D6
:102711000E06124F87124DDB7D807F2A124DDF900E
:10272100062AE0FD7F011250287F0412503E8F4A95
:10273100E54A30E00675460102285590062AE0FF79
:10274100B40E08E54A30E403022852EF64047059DC
:10275100E54A30E24490062EE0FFD39400403AEF80
:10276100942090062BE0FBA3E0FAA3E0F9500A12B3
:102771004F97E490062EF080167F20124F97900617
:102781002EE024E0F090062CE475F020121B677D0A
:10279100047F04125028124DDBE54A30E60B900607
:1027A1002EE07005F54602285590062AE0640C607B
:1027B1000302272AE54A30E24590062EE0FFD39432
:1027C10000403BEFD39420402390062BE0FBA3E095
:1027D100FAA3E0F97F20124F9790062EE024E0F053
:1027E10090062CE475F020121B678008124F87E4D5
:1027F10090062EF0124DDB7D047F04125028E54A2D
:1028010030E33830E63590062EE0702F7F0A125003
:102811003EEFD39420402490062FE0FBA3E0FAA3DF
:10282100E07E002548F9EE3AFA7F201250447420E8
:102831002548F5487D087F04125028E54A20E50324
:1028410002272A90062EE0600302272A9006A4049C
:10285100F0E4F54690062AE0640C7071F5487F0AB1
:1028610012503E8F4790062FE0FBA3E0FAA3E07ED3
:10287100002548F9EE3AFA125044E5472548F54853
:102881007F0C12503EEF5407F5496028E54824FFBC
:10289100FFE434FFFEEF7803C333CE33CED8F97CA7
:1028A100002549FFEC3EF9900632E0FBA3E0FAA3D4
:1028B100E0C98014E54875F008A4FF900632E0FBFA
:1028C100A3E0FAA3E0F9E5F08FF0121B937D807F7E
:1028D1000C124DDF1250247D807F0D124E9EAF46AB
:0128E10022D4
:0637120090062A121CF3D0
:10371800E4F54AF54BF549F548F547F546E47FF8F1
:103728007E34FDFC90062AE0F8A3E0F9A3E0FAA3B2
:10373800E0FB121BB2EF24FFFFEE34FFFEED34FF77
:10374800FDEC34FFFCC006C007E54B25E0FFE54A69
:1037580033FEEF2401FFE43EAB07FAE4F9F8D007A3
:10376800D006121C3D8F498E488D478C46E47FFF5A
:103778007EFFFDFCAB49AA48A947A846C3121CCF47
:103788004011054BE54B7002054AF47004E54A64A4
:103798000F708AE549F549E548F548E4F547F546E7
:1037A800E54AFD7F2A124DDFE54BFD7F2B1250289D
:1037B800AF49AE48AD47AC467808121CE0AD077F6C
:1037C8002C125028E549FFAD077F2D1250287F00A5
:0137D80022CE
:103FF200900620EFF0701C7D107F0C124DDF7D408B
:104002007F15124DDFE4FD7F12125028E4FD7F136D
:10401200125028900620E06401702A7D107F0C1255
:1040220050287D837F121250287D837F13125028DF
:104032007DF47F271250287DF47F23125028E4FD5F
:104042007F15125028900620E0640270387D107FA0
:104052000C1250287D927F121250287D967F1312E7
:1040620050287DF47F271250287D207F2812502867
:104072007D4F7F231250287D207F291250287D07F3
:084082007F151250287F002277
:100026007D0F7F011250287D107F0C124DDF7F0C53
:0D00360012503EEF30E4037F00227F0122D4
:104FB200C2B27F017E00124B44D2B27F017E001248
:054FC2004B447F0022BA
:104F18007F0112503EEF30E40A7D107F01124E9E51
:0D4F28007F01227D107F01124DDF7F0022EE
:0B501900B2B230B2037F00227F012200
:0F4FEE00EF2480FD7F0F1250287F0F12503E22BC
:104F350090060AEDF0EF2440FD7F0F1250289006F1
:0D4F45000AE024C0FD7F0F1250287F0022DB
:06504A00008400000800D4
:102DA50090060AEFF0A3EDF0A3EBF0A3EAF0A3E998
:012DB500F02D
:102DB6007D807F121250287D807F13125028E4FDFB
:102DC6007F0D1250287F647E007D007C0012371232
:102DD6007522E090060BE0F523540F900674F090F0
:102DE600060AE0900673F0124FC790062E7402F0A2
:102DF60090060FE0F9A3E0FAA3E090062FC9F0A32E
:102E0600EAF0A3E9F0A3E4F0A37400F0A37425F0BC
:102E16007B007A0079227F0C1226E38F21E5216060
:102E260003022EF3F524E526AE257803CEC313CE92
:102E360013D8F9FF90060CE0FBA3E0FAA3E0F9EF44
:102E4600121ADE90060FE0FBA3E0FAA3E0F9121ACD
:102E560098900676F0900001121AB1900677F05419
:102E66000F90067BF0900677E030E61E90060FA3E3
:102E7600A3E02402F9E43AFA7E00E92524F9EE3AC1
:102E8600FA121A98900678F00524900677E030E555
:102E96003190060FE0FBA3E0FAA3E02402F9E43A3E
:102EA600FA7E00E92524F9EE3AFA121A9890067984
:102EB600F090067CE4F0900679E0540F90067DF0E1
:102EC6000524900677E030E43390060FE0FBA3E09C
:102ED600FAA3E02402F9E43AFA7E00E92524F9EEA1
:102EE6003AFA121A9890067AF00524800F90060C8A
:0E2EF600E0FBA3E0FAA3E0F9E4121ADEAF213C
:012F040022AA
:103E130090060AEFF0A3EDF0A3EBF0A3EAF0A3E919
:013E2300F0AE
:103E24007F327E007D007C00123712900674E044DD
:103E3400D0F52290060AE0F523124FC790060AE057
:103E440030E40BA3E0F52490062E7403800590065D
:103E54002E7402F090060FE0F9A3E0FAA3E09006B6
:103E64002FC9F0A3EAF0A3E9F0A3E4F0A37400F0EF
:103E7400A37425F07B007A0079227F0C1226E38F4D
:103E840021E521701CE526AE257803CEC313CE139D
:103E9400D8F9FF90060CE0FBA3E0FAA3E0F9EF8069
:103EA4000C90060CE0FBA3E0FAA3E0F9E4121ADE9E
:023EB400AF213C
:013EB60022E9
:08000300900673E06401F02295
:0B49A80090060AEBF0A3EAF0A3E9F090
:1049B30078227C007D007BFF7A50794A7E007F0558
:1049C300121A7290060AE0F9A3E0FAA3E090061423
:1049D300C9F0A3EAF0A3E9F090060DE0F9A3E0FA29
:1049E300A3E0900617C9F0A3EAF0A3E9F07B007AED
:0A49F3000079227F05122F058F21A5
:0149FD002297
:0E447B0090060AEFF0A3EBF0A3EAF0A3E9F03D
:104489007F647E007D007C0012371290060AE0905E
:10449900062EF0900611E0F9A3E0FAA3E090062FAA
:1044A900C9F0A3EAF0A3E9F0A3E4F0A37400F0A330
:1044B9007422F090060BE0FBA3E0FAA3E0F97F0C6D
:1044C9001226E38F21E521701CE523AE227803CE65
:1044D900C313CE13D8F9FF90060EE0FBA3E0FAA3AD
:1044E900E0F9EF800C90060EE0FBA3E0FAA3E0F9F7
:0644F900E4121ADEAF21FF
:0144FF00229A
:0E2F0500900610EFF0A3EBF0A3EAF0A3E9F0C2
:102F13007FF47E017D007C00123712900673E090EF
:102F2300061030E354E0FF7E00A3E0FBA3E0FAA326
:102F3300E02402F9E43AA801FCAD03900611A3A32F
:102F4300E0F9121E9F900673E0FF900611E0FBA3C9
:102F5300E0FAA3E0F9EF121ADE900674E0FF9006A0
:102F630011E0FBA3E0FAA3E0F9900001EF121AF0DD
:102F7300900610E02402F0803AE0FF7E00A3E0FB1D
:102F8300A3E0FAA3E02401F9E43AA801FCAD03901D
:102F93000611A3A3E0F9121E9F900673E0FF9006AB
:102FA30011E0FBA3E0FAA3E0F9EF121ADE9006109A
:102FB300E004F0900610E090062EF0900617E0F97A
:102FC300A3E0FAA3E090062FC9F0A3EAF0A3E9F087
:102FD300A3E4F0A37400F0A37428F0900611E0FBBF
:102FE300A3E0FAA3E0F97F0C1226E38F27E527700D
:102FF3004A900617E0FBA3E0FAA3E0F9121A9890AF
:103003000673F054F0FFBFF013E030E305900002C5
:103013008003900001121AB1900675F0120003E5C7
:1030230029AE287803CEC313CE13D8F9FF90061424
:10303300E0FBA3E0FAA3E0F9EF800C900614E0FBB9
:0C304300A3E0FAA3E0F9E4121ADEAF27C4
:01304F00225E
:0B36470090060AEBF0A3EAF0A3E9F004
:103652007F647E007D007C00123712900673E0309A
:10366200E311540F44A0F521A3E0F52290062E7435
:1036720002800F900673E0540F44A0F52190062EAD
:103682007401F090060DE0F9A3E0FAA3E090062F92
:10369200C9F0A3EAF0A3E9F0A3E4F0A37400F0A355
:1036A2007424F07B007A0079217F0C1226E38F23A9
:1036B200E523704A90060DE0FBA3E0FAA3E0F912BD
:1036C2001A98900673F054F0FFBFF013E030E30550
:1036D2009000028003900001121AB1900675F01258
:1036E2000003E525AE247803CEC313CE13D8F9FF29
:1036F20090060AE0FBA3E0FAA3E0F9EF800C900643
:0F3702000AE0FBA3E0FAA3E0F9E4121ADEAF231A
:013711002295
:0E339E0090060AEFF0A3EBF0A3EAF0A3E9F02B
:1033AC007FF47E017D007C0012371290060AE0FF4C
:1033BC0044C0F521900673E030E323EF54F064F041
:1033CC00700FA3E0F522A3E0F52390062E74038082
:1033DC0025900674E0F52290062E74028018900653
:1033EC000AE054F0FFBFF006900675E08001E4F5AA
:1033FC002290062E7402F090060EE0F9A3E0FAA3D8
:10340C00E090062FC9F0A3EAF0A3E9F0A3E4F0A33F
:10341C007400F0A37425F07B007A0079217F0C12E4
:10342C0026E38F24E524704A90060EE0FBA3E0FA15
:10343C00A3E0F9121A98900673F054F0FFBFF01342
:10344C00E030E3059000028003900001121AB19065
:10345C000675F0120003E526AE257803CEC313CE15
:10346C0013D8F9FF90060BE0FBA3E0FAA3E0F9EF09
:10347C00800C90060BE0FBA3E0FAA3E0F9E4121A2F
:03348C00DEAF248C
:01348F00221A
:1049FE0090060AEFF07D707F12124E9E7D707F132F
:104A0E00124E9E90060AE014601514601D14602567
:104A1E002403702FE4FD7F12124DDFE4FD801F7D15
:104A2E00107F12124DDF7D1080147D207F12124DEB
:104A3E00DF7D2080097D307F12124DDF7D307F13A8
:064A4E00124DDF7F002283
:0E47BF0090060AEFF0A3EBF0A3EAF0A3E9F0F6
:1047CD007D807F121250287D807F13125028E4FDCA
:1047DD007F0D12502875223090060AE0F5237F01D7
:1047ED007E007D007C0012371290062E7402F09030
:1047FD00060BE0F9A3E0FAA3E090062FC9F0A3EAB7
:10480D00F0A3E9F0A3E4F0A37400F0A37424F07B0B
:0C481D00007A0079227F0C1226E38F2124
:01482900226C
:1045FB007522A28F23121A98F524900001121AB17A
:10460B00F525900002121AB1F526900003121AB18B
:10461B00F5277F0A7E007D007C0012371290062E54
:10462B007406F0A3E4F0A37400F0A37428F0A3E4E1
:10463B00F0A37400F0A37429F07B007A0079227F39
:10464B000C1226E38F21E528640A60047F018002A7
:10465B007F00E52160047E0180027E00EE4F600347
:05466B007F01227F0029
:014670002227
:0B3F560090060AEBF0A3EAF0A3E9F0EC
:103F61007F057E007D007C0012371290061374508D
:103F7100F078147C067D0190060AE0FBA3E0FAA329
:103F8100E0F97E007F04121A7290062E7405F090FB
:103F91000610E0F9A3E0FAA3E090062FC9F0A3EA26
:103FA100F0A3E9F0A37401F0A37406F0A37418F070
:103FB1007B017A0679137F0C1226E3AD07ED701FA2
:103FC100900618E0FEA3E07803CEC313CE13D8F910
:103FD100FF90060DE0FBA3E0FAA3E0F9EF800C905F
:103FE100060DE0FBA3E0FAA3E0F9E4121ADEAF0547
:013FF10022AD
:0B30500090060AEBF0A3EAF0A3E9F001
:10305B007F057E007D007C001237129006147405EC
:10306B00F0E4A3F0A37408F090062E7403F090061E
:10307B000DE0F9A3E0FAA3E090062FC9F0A3EAF064
:10308B00A3E9F0A37401F0A37406F0A37417F07B0B
:10309B00017A0679147F0C1226E3900613EFF06089
:1030AB0003023167900617E0FEA3E07803CEC3134B
:1030BB00CE13D8F9FF90060AE0FBA3E0FAA3E0F9E0
:1030CB00EF121ADE90060DE0FBA3E0FAA3E0240159
:1030DB00F9E43AFAC003C002A3E0FBA3E0FAA3E0D1
:1030EB00F8AC02AD03D002D0037E007F04121A723B
:1030FB0090060DE0FBA3E0FAA3E02406F9E43AFA0C
:10310B00C003C002C001A3E0FBA3E0FAA3E02404C8
:10311B00F9E43AA801FCAD03D001D002D0037E0044
:10312B007F04121A7290060DE0FBA3E0FAA3E024D1
:10313B000AF9E43AFAC003C002C001A3E0FBA3E022
:10314B00FAA3E02408F9E43AA801FCAD03D001D0BE
:10315B0002D0037E007F03121A72800F90060AE0E2
:10316B00FBA3E0FAA3E0F9E4121ADE900613E0FFEA
:01317B002231
:0B317C0090060AEBF0A3EAF0A3E9F0D4
:103187007F057E007D007C001237129006147405BF
:10319700F0E4A3F0A3F090062E7403F090060DE080
:1031A700F9A3E0FAA3E090062FC9F0A3EAF0A3E998
:1031B700F0A37401F0A37406F0A37417F07B017AEF
:1031C7000679147F0C1226E3900613EFF0600302D2
:1031D7003291900617E0FEA3E07803CEC313CE1317
:1031E700D8F9FF90060AE0FBA3E0FAA3E0F9EF1293
:1031F7001ADE90060DE0FBA3E0FAA3E02401F9E450
:103207003AFAC003C002A3E0FBA3E0FAA3E0F8ACDC
:1032170002AD03D002D0037E007F04121A7290061B
:103227000DE0FBA3E0FAA3E02406F9E43AFAC003B1
:10323700C002C001A3E0FBA3E0FAA3E02404F9E481
:103247003AA801FCAD03D001D002D0037E007F0471
:10325700121A7290060DE0FBA3E0FAA3E0240AF924
:10326700E43AFAC003C002C001A3E0FBA3E0FAA35B
:10327700E02408F9E43AA801FCAD03D001D002D05C
:10328700037E007F03121A72800F90060AE0FBA3E9
:0E329700E0FAA3E0F9E4121ADE900613E0FF5D
:0132A5002206
:0B3B7C0090060AEBF0A3EAF0A3E9F0CA
:103B87007F057E007D007C00123712900613741D9E
:103B9700F078147C067D0190060AE0FBA3E0FAA307
:103BA700E0F97E007F04121A72E4900618F0A374FD
:103BB70008F0A37401F0A3F090062E7409F09006A4
:103BC70010E0F9A3E0FAA3E090062FC9F0A3EAF00A
:103BD700A3E9F0A37401F0A37406F0A3741CF07BAF
:103BE700017A0679137F0C1226E3AD07ED701F905B
:103BF700061CE0FEA3E07803CEC313CE13D8F9FF6B
:103C070090060DE0FBA3E0FAA3E0F9EF800C900625
:0F3C17000DE0FBA3E0FAA3E0F9E4121ADEAF051B
:013C2600227B
:0B42480090060AEBF0A3EAF0A3E9F0F7
:104253007F057E007D007C00123712E4900610F08B
:10426300A37436F0E4A3F0A3F0A37408F090062E31
:104273007405F090060DE0F9A3E0FAA3E090062F91
:10428300C9F0A3EAF0A3E9F0A37401F0A37406F064
:10429300A37415F07B017A0679107F0C1226E3AD27
:1042A30007ED701F900615E0FEA3E07803CEC3135D
:1042B300CE13D8F9FF90060AE0FBA3E0FAA3E0F9D6
:1042C300EF800C90060AE0FBA3E0FAA3E0F9E41206
:0442D3001ADEAF053B
:0142D70022C4
:065050000600FFFF000056
:0E356F0090060AEFF0A3EBF0A3EAF0A3E9F058
:10357D0078137C067D017BFF7A5079507E007F06A3
:10358D00121A7290060AE0FF601664016012EF6471
:10359D0003600DEF64076008EF640F60037F012285
:1035AD0090060AE0900618F07F0A7E007D007C00F0
:1035BD0012371290062E7406F090060EE0F9A3E075
:1035CD00FAA3E090062FC9F0A3EAF0A3E9F0A374E3
:1035DD0001F0A37406F0A37411F07B017A06791340
:1035ED007F0C1226E3EF7040900611E0FEA3E07809
:1035FD0003CEC313CE13D8F9FF90060BE0FBA3E067
:10360D00FAA3E0F9EF121ADE90060EE0FBA3E0FA42
:10361D00A3E02402F9E43AFA789C7C067D017E0051
:10362D007F08121A727F002290060BE0FBA3E0FACE
:09363D00A3E0F9E4121ADE7F019A
:013646002261
:102D86005B0648010203040506070809010203045D
:0E2D96000506070809010203040506070809DF
:1009CE00E509640160030212DEE50A60030212DE2D
:1009DE00F509900377E0FBA3E0FAA3E0F9E4121A1D
:1009EE00DE900377E0FBA3E0FAA3E0F9121A981267
:1009FE001CFF12DE000A76010A7C020A82030AAB91
:100A0E00040AF5050B26060B80070BD6080BDC092E
:100A1E000BE20A0C240B0C6E0C0C74100D1C110D39
:100A2E0050120D97130DC2140DE1150E0C160E2457
:100A3E00170E48180E67200EBB210F0F220F27230B
:100A4E000F66240FA1250FEE26104D2710883110AA
:100A5E00D93211193311593411943511E55212202E
:100A6E0053125260000012CA12002602123C124F9C
:100A7E00B202123C90037CE0FBA3E0FAA3E0240157
:100A8E00F9E43AFA124C0090037CE0FBA3E0FAA3DF
:100A9E00E0F9EF121ADE90037B7441F02290037C92
:100AAE00E0FBA3E0FAA3E0F9E4121ADE900377E08C
:100ABE00FBA3E0FAA3E0F9900001121AB1FF900334
:100ACE007CE0FBA3E0FAA3E0F9900001EF121AF02C
:100ADE00900377E0FBA3E0FAA3E0F9900001121A6D
:100AEE00B1FF12503E8079900377E0FBA3E0FAA3AA
:100AFE00E0F9900001121AB1FF900002121AB1FD36
:100B0E0012502890037CE0FBA3E0FAA3E0F9E41274
:100B1E001ADE90037B04F02290037CE0FBA3E0FA44
:100B2E00A3E0F9E4121ADE900377E0FBA3E0FAA348
:100B3E00E0F9900001121AB1FF90037CE0FBA3E0F4
:100B4E00FAA3E0F9900001EF121AF0900377E0FBA0
:100B5E00A3E0FAA3E0F9900001121AB1FF124FEED2
:100B6E0090037CE0FBA3E0FAA3E0F9900002EF0211
:100B7E000C64900377E0FBA3E0FAA3E0F990000188
:100B8E00121AB1FF900002121AB1FD124F359003E6
:100B9E007CE0FBA3E0FAA3E0F9EF121ADE900377F4
:100BAE00E0FBA3E0FAA3E0F9900001121AB1FF9066
:100BBE00037CE0FBA3E0FAA3E0F9900001EF121A28
:100BCE00F090037B7402F02212501902123C124F65
:100BDE001802123C7F03124671E4FF123FF27B01B2
:100BEE007A06796312408A90037CE0FBA3E0FAA3B5
:100BFE00E0F9EF121ADE900663E0FF90037CE0FB53
:100C0E00A3E0FAA3E0F9900001EF121AF090066447
:100C1E00E090000280407F03124671E4FF123FF223
:100C2E007B017A06796312412190037CE0FBA3E0FD
:100C3E00FAA3E0F9EF121ADE900663E0FF90037C50
:100C4E00E0FBA3E0FAA3E0F9900001EF121AF09096
:100C5E000664E0900002121AF090037B7403F022F7
:100C6E0012495202123C7F03124671E4FF123FF208
:100C7E007B017A06796312223B90037CE0FBA3E0B2
:100C8E00FAA3E0F9EF121ADE90037CE0FBA3E0FA80
:100C9E00A3E02401F9E43AA801FCAD037B017A0636
:100CAE0079637E007F02121A7290037CE0FBA3E050
:100CBE00FAA3E02403F9E43AA801FCAD037B017A20
:100CCE000679657E007F01121A7290037CE0FBA309
:100CDE00E0FAA3E02404F9E43AA801FCAD037B0199
:100CEE007A0679667E007F0C121A7290037CE0FB06
:100CFE00A3E0FAA3E02410F9E43AA801FCAD037BCB
:100D0E00017A0679727E007F01121A728074900346
:100D1E0077E0FBA3E0FAA3E0F9900001121AB1FF0D
:100D2E00900002121AB1FDE92403F9E43AFA900692
:100D3E00257401F0A37406F0A37466F0123A18023B
:100D4E00123C900377E0FBA3E0FAA3E0F9900002D7
:100D5E00121AB125E025E0FF900001121AB12FFF03
:100D6E0090037CE0FBA3E0FAA3E02401F9E43AFA55
:100D7E001242D890037CE0FBA3E0FAA3E0F9EF1255
:100D8E001ADE90037B7411F022900377E0FBA3E050
:100D9E00FAA3E0F9900002121AB125E025E0FF90C7
:100DAE000001121AB12FFFE92403F9E43AFA1237BF
:100DBE00D902123C900377E0FBA3E0FAA3E0F9908E
:100DCE000001121AB1FFE92402F9E43AFA123CCBFF
:100DDE0002123C900377E0FBA3E0FAA3E0F9900047
:100DEE0002121AB125E025E0FF900001121AB12F70
:100DFE00FFE92403F9E43AFA123D6F02123C900324
:100E0E0077E0FBA3E0FAA3E0F9900001121AB1FF1C
:100E1E0012482A02123C900377E0FBA3E0FAA3E00B
:100E2E00F9900002121AB125E025E0FF90000112A0
:100E3E001AB12FFF123EB702123C900377E0FBA3CC
:100E4E00E0FAA3E0F9900001121AB1FFE92402F9C9
:100E5E00E43AFA1248F002123C900377E0FBA3E06A
:100E6E00FAA3E0F9900001121AB1FF900002121AD3
:100E7E00B1FD90037CE0FBA3E0FAA3E02401F9E4CA
:100E8E003AFAC003C002C00190037CA3E0FAA3E0CB
:100E9E002402F9E43AFA90060FEBF0A3EAF0A3E984
:100EAE00F0D001D002D003122DA50212A690037726
:100EBE00E0FBA3E0FAA3E0F9900001121AB1FF9053
:100ECE000002121AB1FD90037CE0FBA3E0FAA3E04E
:100EDE002401F9E43AFAC003C002C00190037CA3D6
:100EEE00E0FAA3E02402F9E43AFA90060FEBF0A33D
:100EFE00EAF0A3E9F0D001D002D003123E130212A1
:100F0E00A6900377E0FBA3E0FAA3E0F990000112AC
:100F1E001AB1FF1249FE02123C90037CE0FBA3E0E3
:100F2E00FAA3E02401F9E43AFA90060EEBF0A3EAF4
:100F3E00F0A3E9F090037CA3E0FAA3E02402F9E425
:100F4E003AFA900611EBF0A3EAF0A3E9F07B017AEE
:100F5E000679487F1902447B90037CE0FBA3E0FAFC
:100F6E00A3E02401F9E43AFAC003C002C0019003E1
:100F7E007CA3E0FAA3E02402F9E43AFA90060DEB22
:100F8E00F0A3EAF0A3E9F0D001D002D00312364765
:100F9E000212A6900377E0FBA3E0FAA3E0F990001B
:100FAE0001121AB1FF90037CE0FBA3E0FAA3E02448
:100FBE0001F9E43AFAC003C002C00190037CA3E039
:100FCE00FAA3E02402F9E43AFA90060EEBF0A3EA53
:100FDE00F0A3E9F0D001D002D00312339E0212A684
:100FEE00900377E0FBA3E0FAA3E0F9900001121A58
:100FFE00B1FFE92402F9E43AFAC003C002C001903D
:10100E00037CE0FBA3E0FAA3E02401F9E43AFA90B2
:10101E000614EBF0A3EAF0A3E9F090037CA3E0FA48
:10102E00A3E02402F9E43AFA900617EBF0A3EAF0F3
:10103E00A3E9F0D001D002D003122F050212A69020
:10104E00037CE0FBA3E0FAA3E02401F9E43AFAC042
:10105E0003C002C00190037CA3E0FAA3E02402F9CE
:10106E00E43AFA90060DEBF0A3EAF0A3E9F0D00112
:10107E00D002D0031249A80212A67F031246717F36
:10108E0001123FF290037CE0FBA3E0FAA3E02401FF
:10109E00F9E43AFAC003C002C00190037CA3E0FA5F
:1010AE00A3E02402F9E43AFA90060DEBF0A3EAF07D
:1010BE00A3E9F0A37401F0A37406F0A3747EF0D03C
:1010CE0001D002D00312317C0212A690037CE0FB09
:1010DE00A3E0FAA3E02401F9E43AFA90060DEBF04E
:1010EE00A3EAF0A3E9F090037CA3E0FAA3E02402C4
:1010FE00F9E43AFA900610EBF0A3EAF0A3E9F07BDC
:10110E00017A06797E123B7C0212A690037CE0FBEC
:10111E00A3E0FAA3E02401F9E43AFA90060DEBF00D
:10112E00A3EAF0A3E9F090037CA3E0FAA3E0240283
:10113E00F9E43AFA900610EBF0A3EAF0A3E9F07B9B
:10114E00017A06797E123F560212A690037CE0FBCE
:10115E00A3E0FAA3E02401F9E43AFAC003C002C006
:10116E000190037CA3E0FAA3E02402F9E43AFA909A
:10117E00060DEBF0A3EAF0A3E9F0D001D002D00304
:10118E001242480212A67F031246717F01123FF2ED
:10119E0090037CE0FBA3E0FAA3E02401F9E43AFA21
:1011AE00C003C002C00190037CA3E0FAA3E02402B6
:1011BE00F9E43AFA90060DEBF0A3EAF0A3E9F0A3F6
:1011CE007401F0A37406F0A3747EF0D001D002D0A7
:1011DE00031230500212A6900377E0FBA3E0FAA3AD
:1011EE00E0F9900001121AB1FF90037CE0FBA3E03E
:1011FE00FAA3E02401F9E43AFA1247BF90037CE027
:10120E00FBA3E0FAA3E0F9EF121ADE90037B74055C
:10121E00F022900377E0FBA3E0FAA3E0F99000013F
:10122E00121AB1FFE92402F9E43AFA1245FB9003CF
:10123E007CE0FBA3E0FAA3E0F9EF121ADE90037B49
:10124E007401F0227F031246717F02123FF2900367
:10125E0077E0FBA3E0FAA3E0F9900001121AB1FFC8
:10126E0090037CE0FBA3E0FAA3E02401F9E43AFA50
:10127E00C003C002C00190037CA3E0FAA3E02402E5
:10128E00F9E43AFA90060EEBF0A3EAF0A3E9F0D0F7
:10129E0001D002D00312356F90037CE0FBA3E0FA7D
:1012AE00A3E0F9EF121ADE90037CE0FBA3E0FAA3B1
:1012BE00E0F9900001121AB12402801090037CE034
:1012CE00FBA3E0FAA3E0F97401121ADE90037BF09F
:0112DE0022ED
:0C4AFD00C2B6124B09C2B5124B09D2B66A
:104B0900000000000000000000000000000000009C
:104B1900000000000000000000000000000000008C
:104B2900000000000000000000000000000000007C
:0B4B390000000000000000000000224F
:104E4000D2B5D2B6124B0920B5037F0022C2B512EB
:104E50004B0930B5037F0022C2B5124B097F0122F6
:08502E00124AFDD2B5024B0944
:08503600124AFDC2B6024B094B
:0F4FFD00C2B6124B09D2B5124B04C2B6024B0911
:0D4D7000EAFF124DB8124D7DAF03124DB891
:104D7D00C2B6124B09D2B5124B0430B505C2B67F7F
:074D8D000022C2B67F0122E3
:104DB8007E08AD061EED6018C2B6124B09EF30E74B
:104DC80004D2B58002C2B5EF25E0FF124B0480E2A1
:024DD800C2B661
:014DDA0022B6
:104DFD007F08E4FED2B5AD071FED6011EE25E0FE94
:104E0D00C2B6124B0430B5EE4401FE80E9C2B6AF16
:014E1D00068E
:014E1E002271
:104EBD00E49002F0F09002F0E0D3943C500E124ECC
:0F4ECD00407FAE124DB8124D7DEF60E902502EBE
:10475100E0FF9006A5F0900689E0FBA3E0FAA3E054
:0C476100F9A3E0FCA3E0FDEF900614F0CB
:10476D00900612ECF0A3EDF0124E40EF7002FF2216
:10477D007FAE124DB8124D7D900612E0FF124DB86E
:10478D00124D7D900612A3E0FF124DB8124D7D9093
:10479D000614E0FF14F0EF6013121A98FF124DB8D3
:1047AD00124D7D740129F9E43AFA80E312502E7FFF
:0247BD000122D7
:1028E200900689EBF0A3EAF0A3E9F0A3ECF0A3EDE4
:0128F200F0F5
:1028F300E4900690F0A3F0A3F0ED540FFFC374101F
:102903009FF090068EE0FCA3E0FDECC4F854F0C801
:10291300EDC4540F48A3F0ED540FA3F0EF706F9084
:102923000690E0700CA3124751EF7002FF22022AB7
:10293300B9900690E0FF14F0EF603E9006A5741086
:10294300F0900689E0FBA3E0FAA3E0F9A3E0FCA37F
:10295300E0FD7410124769EF7002FF22124EBD9022
:10296300068DE02410F090068CE03400F090068A87
:10297300E475F010121B6780B8900691E0FF7003B6
:10298300022ABC124753EF7002FF22022AB99006B3
:1029930090E07073900692E0FFFDD390068FE09D68
:1029A30090068EE0940040519006A5EF124756EF33
:1029B3007002FF22124EBD90068EA3E0FF90069296
:1029C300E0FEC3EF9E9006A5F0900689E0FBA3E02E
:1029D300FAA3E0F9EEFF7E00E92FF9EE3AFA90064A
:1029E3008DE02FFD90068CE03EFC9006A5E012479B
:1029F30069EF7002FF22022AB9900691124751EF44
:102A03007002FF22022AB9900692E0FDFFC39006EE
:102A13008FE09FF090068EE09400F0E0FAA3E0FBD5
:102A2300EAC4F854F0C8EBC4540F48A3F0EB540FB6
:102A3300A3F0ED6026124753EF7002FF22124EBD42
:102A4300900692E0FF7E0090068DE02FF090068CBA
:102A5300E03EF090068AEE8FF08047900690E0FF0C
:102A630014F0EF60429006A57410F0900689E0FB25
:102A7300A3E0FAA3E0F9A3E0FCA3E0FD900614743D
:102A830010F012476DEF7002FF22124EBD90068DBB
:102A9300E02410F090068CE03400F090068AE47590
:102AA300F010121B6780B4900691E0FF600B124791
:0B2AB30053EF7002FF22124EBD7F01A6
:012ABE0022F5
:104E1F007B017A06790FAD07AC06900646E4F0A346
:104E2F0004F0124500EF600690060FE0FF227F00AE
:014E3F002250
:104CDA00AB07AA06AC05124E40EF7002FF227FAE68
:104CEA00124DB8124D7D124D70AF04124DB8124DCF
:074CFA007D12502E7F012204
:10450000900641EBF0A3EAF0A3E9F0AB05AA041290
:104510004E40EF7002FF227FAE124DB8124D7DEF7C
:10452000700512502EFF22124D70124E407FAF12B6
:104530004DB8124D7D900646E07002A3E060401237
:104540004DFD900641E0FBA3E0FAA3E0F9EF121A5B
:10455000DE900646E07004A3E064017005124FFD92
:104560008003125036900642E475F001121B6790EA
:104570000647E024FFF0900646E034FFF080B612D4
:05458000502E7F012216
:104F6F00900646E4F0A3EFF07DF07CFF124500EFD2
:084F7F0060037F01227F002284
:084F5200E0FBA3E0FAA3E0F983
:104F5A00900614EDF07DF07CFF12476DEF60037F41
:054F6A0001227F00227E
:104D94007D447FFA7EFF124CDA7D077FFB7EFF1293
:104DA4004CDA7D037FFD7EFF124CDA7DFF7FF17EBE
:044DB400FF024CDAD4
:10389E0090060AEEF0A3EFF0A3EBF0A3EAF0A3E993
:1038AE00F0D3EF9420EE940090060CE0FBA3E0FA28
:1038BE00A3E0F9501390060AA3E0FD124F5AE490CC
:1038CE00060AF0A3F00239517D20124F5A90060BD2
:1038DE00E024E0F090060AE034FFF090060DE47567
:1038EE00F020121B67805CD390060BE094009006CC
:1038FE000AE0940040587FF27EFF124E1FEF543FB5
:10390E00D39408503E90060AE0FEA3E0FF9418EE12
:10391E009400500FA3AD07124F52E490060AF0A385
:10392E00F0802090060C7D18124F5290060BE0246A
:10393E00E8F090060AE034FFF090060DE475F018FA
:0E394E00121B677D557FF47EFF124CDA8099C4
:01395C002248
:104AA9000A41542B5645520A0041542B5645520A85
:104AB900000A41542B4E414D450A0041542B4E41A9
:104AC9004D450A0052462D424C45342E30004F4B7D
:104AD900000A41542B4D41430A0041542B4D414397
:104AE9000A0041542B4E414D4552462D424C453406
:044AF9002E300A0051
:0B32A60090061CEBF0A3EAF0A3E9F097
:1032B100121A987002FF22E4900624F0A3F0A3F002
:1032C100A3F0900622E0FEA3E0FFC3900625E09F55
:1032D100900624E09E400302339B90061CE0FBA372
:1032E100E0FAA3E0F9900626E0FEA3E0F5828E83E2
:1032F100121AB1FF900628F090061FE0FBA3E0FA36
:10330100A3E0F9900624E0FCA3E0F5828C83121A75
:10331100B16F7072900624E0FEA3E0FFD390062304
:10332100E09F900622E09E405690061CE0FBA3E041
:10333100FAA3E0F9900626E0FCA3E0F5828C831263
:103341001AB1900628F07008900624A3E004FF2229
:1033510090061FE0FBA3E0FAA3E0F98F828E8312AF
:103361001AB1FD900628E0B505150FBF00010E90BA
:103371000627E004F070A5900626E004F0809DE4A5
:10338100900626F0A3F0900625E004F060030232D7
:0C339100C3900624E004F00232C37F0069
:01339D00220D
:1024E200780A7C067D017BFF7A4A79EB7E007F12B7
:1024F200121A72C282E4900297F0900297E0C3949B
:102502000540F7D282E4900297F0900297E0C394DC
:102512000540F7C284E4900297F0900297E0C394DA
:102522000540F7E49002E1F09002DFF0900002F043
:10253200A3F07BFF7A4A79A9FDFC124B887BFF7AD4
:102542004A79B2E4FDFC124BC4E4900297F0900287
:1025520097E0C3940540F7E49002E1F07B017A0131
:1025620079CD900002E0FCA3E0FD124B88E49000DC
:1025720002F0A3F07F0D124C487F0A124C48E490FF
:1025820002E1F09002DFF0900002F0A3F07BFF7A0C
:102592004A79BAFDFC124B887BFF7A4A79C4E4FD82
:1025A200FC124BC4E4900297F090061F7401F0A352
:1025B2007401F0A374CDF0900002E0FFA3E0900656
:1025C20022CFF0A3EFF07BFF7A4A79CD1232A6EF49
:1025D2007009900297E0D3940F40CEE49002E1F0AC
:1025E2007B017A0179CD900002E0FCA3E0FD124B61
:1025F20088E4900002F0A3F0900297E0D3940F5089
:102602000302268BE49002E1F09002DFF0900002D8
:10261200F0A3F07F0D124C487F0A124C487B017ADE
:1026220006790AE4FDFC124B887B017A06790AE4FA
:10263200FDFC124BC4E4900297F090061F7401F067
:10264200A37401F0A374CDF0900002E0FFA3E09028
:102652000622CFF0A3EFF07BFF7A4A79D71232A697
:10266200EF7009900297E0D3940F40CEE49002E11C
:10267200F07B017A0179CD900002E0FCA3E0FD122B
:102682004B88E4900002F0A3F0E49002E1F09002A3
:10269200DFF0900002F0A3F07BFF7A4A79DAFDFCCA
:1026A200124B887BFF7A4A79E3E4FDFC124BC4E4C7
:1026B200900297F0900297E0C3940540F7E49002ED
:1026C200E1F07B017A0179CD900002E0FCA3E0FD0C
:1026D200124B88E4900002F0A3F09002DFF0D28463
:0126E20022D5
:104D2700AB07ECF5C3AF058FC475C783AF038FC55A
:104D370075C65A75C6A500E4F5C5F5C6F5C775C4A9
:054D4700FF75C3FF220F
:0300000002436454
:0C436400787FE4F6D8FD75814F0243AB72
:1019A200E709F608DFFA8046E709F208DFFA803E27
:1019B20088828C83E709F0A3DFFA8032E309F60814
:1019C200DFFA8078E309F208DFFA807088828C837C
:1019D200E309F0A3DFFA806489828A83E0A3F60830
:1019E200DFFA805889828A83E0A3F208DFFA804C0A
:1019F20080D280FA80C680D4806980F280338010E1
:101A020080A680EA809A80A880DA80E280CA803349
:101A120089828A83ECFAE493A3C8C582C8CCC583C1
:101A2200CCF0A3C8C582C8CCC583CCDFE9DEE78091
:101A32000D89828A83E493A3F608DFF9ECFAA9F010
:101A4200EDFB2289828A83ECFAE0A3C8C582C8CC66
:101A5200C583CCF0A3C8C582C8CCC583CCDFEADE7F
:101A6200E880DB89828A83E493A3F208DFF980CCE1
:101A720088F0EF60010E4E60C388F0ED2402B404DA
:101A82000050B9F582EB2402B4040050AF23234581
:061A920082239019F2739B
:101A9800BB010689828A83E0225002E722BBFE024C
:091AA800E32289828A83E493227F
:101AB100BB010CE58229F582E5833AF583E02250EA
:101AC10006E92582F8E622BBFE06E92582F8E22234
:0D1AD100E58229F582E5833AF583E493224E
:101ADE00BB010689828A83F0225002F722BBFE01E7
:021AEE00F322E1
:101AF000F8BB010DE58229F582E5833AF583E8F02C
:101B0000225006E92582C8F622BBFE05E92582C8D7
:021B1000F222BF
:101B1200BC000BBE0029EF8DF084FFADF022E4CCB7
:101B2200F875F008EF2FFFEE33FEEC33FCEE9DEC80
:101B3200984005FCEE9DFE0FD5F0E9E4CEFD22EDC6
:101B4200F8F5F0EE8420D21CFEADF075F008EF2F10
:101B5200FFED33FD4007985006D5F0F222C398FD01
:051B62000FD5F0EA229E
:101B6700C5F0F8A3E028F0C5F0F8E5821582700209
:061B77001583E038F022A6
:101B7D00A3F8E0C5F025F0F0E5821582700215831B
:061B8D00E0C838F0E82278
:101B9300BB010A89828A83F0E5F0A3F0225006F79D
:0F1BA30009A7F01922BBFE06F3E5F009F319229A
:101BB200E88FF0A4CC8BF0A42CFCE98EF0A42CFCD2
:101BC2008AF0EDA42CFCEA8EF0A4CDA8F08BF0A450
:101BD2002DCC3825F0FDE98FF0A42CCD35F0FCEBAF
:101BE2008EF0A4FEA9F0EB8FF0A4CFC5F02ECD3974
:0F1BF200FEE43CFCEAA42DCE35F0FDE43CFC22E1
:101C010075F008758200EF2FFFEE33FECD33CDCC9A
:101C110033CCC58233C5829BED9AEC99E58298401D
:101C21000CF582EE9BFEED9AFDEC99FC0FD5F0D6FA
:101C3100E4CEFBE4CDFAE4CCF9A88222B800C1B924
:101C41000059BA002DEC8BF084CFCECDFCE5F0CB62
:101C5100F97818EF2FFFEE33FEED33FDEC33FCEB9B
:101C610033FB10D703994004EB99FB0FD8E5E4F956
:101C7100FA227818EF2FFFEE33FEED33FDEC33FC43
:101C8100C933C910D7059BE99A4007EC9BFCE99A37
:101C9100F90FD8E0E4C9FAE4CCFB2275F010EF2F7C
:101CA100FFEE33FEED33FDCC33CCC833C810D7077C
:101CB1009BEC9AE899400AED9BFDEC9AFCE899F8B7
:0E1CC1000FD5F0DAE4CDFBE4CCFAE4C8F9224A
:101CCF00EB9FF5F0EA9E42F0E99D42F0E89C45F06B
:011CDF0022E2
:101CE000E8600FECC313FCED13FDEE13FEEF13FFE2
:031CF000D8F12206
:0C1CF300ECF0A3EDF0A3EEF0A3EFF02264
:101CFF00D083D082F8E4937012740193700DA3A374
:101D0F0093F8740193F5828883E473740293686087
:061D1F00EFA3A3A380DF87
:101D2500E709F608DFFA807BE9D39850F3E92FF944
:101D3500E82FF819E718F6DFFA8068E709F208DFF7
:101D4500FA806080E388828C83E709F0A3DFFA805C
:101D550052E309F608DFFA804AE9D398500EE92FD5
:101D6500F9E82FF819E318F2DFFA8037E309F208EA
:101D7500DFFA802F88828C83E309F0A3DFFA8023C2
:101D850089828A83E0A3F608DFFA801789828A832D
:101D9500E493A3F208DFF9800A89828A83E0A3F23B
:101DA50008DFFA021E3780B180F980A580C680DC85
:101DB50080F180738010808380E98087808780D957
:101DC50080E180BC8073D3E998EA9C5039E92FF50E
:101DD50082EA3BF583E82FF8EC3BFC0582D58202CD
:101DE50015831582E493C8C582C8CCC583CC05820A
:101DF500D5820215831582F0C8C582C8CCC583CCAF
:101E0500DFD9DED7802E89828A83ECFAE493A3C8D2
:101E1500C582C8CCC583CCF0A3C8C582C8CCC58350
:101E2500CCDFE9DEE7800D89828A83E493A3F60897
:101E3500DFF9ECFAA9F0EDFB22D3E998EA9C5038DA
:101E4500E92FF582EA3BF583E82FF8EC3BFC0582A8
:101E5500D5820215831582E0C8C582C8CCC583CC5E
:101E65000582D5820215831582F0C8C582C8CCC506
:101E750083CCDFDADED880BC89828A83ECFAE0A3E2
:101E8500C8C582C8CCC583CCF0A3C8C582C8CCC59B
:101E950083CCDFEADEE8809C809888F08E83EF6053
:101EA500010E4E608DED2402B404005085F582EBE1
:101EB5002402B4040050E123234582AB8323901D03
:021EC500AB73FD
:10437000020046E493A3F8E493A34003F68001F21D
:1043800008DFF48029E493A3F85407240CC8C3334E
:10439000C4540F4420C8834004F456800146F6DF1D
:1043A000E4800B0102040810204080902C33E47E4E
:1043B000019360BCA3FF543F30E509541FFEE49312
:1043C000A360010ECF54C025E060A840B8E493A3D9
:1043D000FAE493A3F8E493A3C8C582C8CAC583CA04
:1043E000F0A3C8C582C8CAC583CADFE9DEE780BEBC
:012DA400002E
:00000001FF
