:105B4200759850E4F587438E40538EFE53890F7546
:0E5B52008BE8758DFFC2ABD28ED2ACD2AF22E3
:105BB700900663E0FBA3E475F00112250EA9F0FA45
:045BC700122429FF7C
:065BCB00900666EFF022D7
:1057C100900663EBF0A3EAF0A3E9F0ED4C701D90B5
:1057D1000663E0FBA3E0FAA3E0F9122429601CB4FC
:1057E1000A057F0D125BCB125BB780E3ED1DAE04A2
:0C57F10070011C4E6005125BB780F122B5
:1058D800900645E0FBA3E475F00112250EA9F0FA45
:0458E800122429FF5E
:1058EC00C2ACD297C299309F05EFA2D0929B8F99F0
:0A58FC003099FDC299C297D2AC2288
:1057FD00900645EBF0A3EAF0A3E9F0ED4C701D9097
:10580D000645E0FBA3E0FAA3E0F9122429601CB4DD
:10581D000A057F0D1258EC1258D880E3ED1DAE0429
:0C582D0070011C4E60051258D880F1225A
:10590600900645E0FBA3E475F00112250EA9F0FA16
:04591600122429FF2F
:10591A0053AFFE539AFD8F9BE59A30E1FB539AFDF4
:04592A0043AF012264
:10583900900645EBF0A3EAF0A3E9F0ED4C701D905A
:105849000645E0FBA3E0FAA3E0F9122429601CB4A1
:105859000A057F0D12591A12590680E3ED1DAE048F
:0C58690070011C4E600512590680F122EF
:10000E0053BAFE759A5075D7E875D6FF438E1443D2
:05001E00AF01D2AF228A
:104B89000AB5E3B3AED4B10A000AB8B4BACFD4B106
:104B99000A000AB1E0D2EBCAB1BCE432303138C400
:104BA900EA3132D4C238C8D50A004943435F74791F
:104BB90070653D307800464D31315F4F4B0A00B387
:104BC900B5C5C6CABEDDB4EDCEF30A00D0D5C3FB68
:104BD900CABEDDB4EDCEF30A00786F723D00637290
:104BE900633D0A00BFA8C4DAC8DDBFD50A00464D37
:104BF90031375F4F4B0A00D6B1BDD3BAD0000000A0
:104C0900000000000000000000000000000000009B
:074C19000000000000000094
:10347C004102E9004102D200410295004102EB0AEF
:10348C004102F3004602AAFFFFFFFFFFFF610100AC
:10349C0004B2D9D7F7D4B13A2000000000000000E4
:1034AC000000000000000000000000000000000010
:1034BC000000000000000000000000000000000000
:1034CC0000000000000000000000000000000000F0
:1034DC0000000000000000000000000000000000E0
:1034EC0000000000000000000000000000000000D0
:1034FC0000000000000000000000000000000000C0
:10350C0000000000000000000000000000000000AF
:10351C00000000000000000000000000000000009F
:10352C00000000000000000000000000000000008F
:10353C00000000000000000000000000000000007F
:10354C00000000000000000000000000000000006F
:10355C00000000000000000000000000000000005F
:10356C00000000000000000000000000000000004F
:10357C00000000000000000000000000000000003F
:10358C00000000000000000000000000000000002F
:10359C0000004602EDC8F0B7E51813410296004151
:1035AC00035A004102B0004102980041029700C149
:1035BC00024102F5004102F40041035B004102EAC2
:1035CC000051029930313233343536373839414273
:0935DC0043444546004102EC00A5
:045CF20075C1352221
:104F8A009005A4E0FFFCA3E0FD9005A2E0FAA3E0EF
:104F9A00FBC39DFDEA9CFC74AB2DF58274053CF5C0
:104FAA0083EFF09005A4A3E0FF74AC2DF58274059D
:104FBA003CF583EFF0EB24F8EA34FF9005B3F0EB0D
:104FCA0024F8A3F07B017A0579AD9005A2E0FCA351
:024FDA00E0FDF8
:104FDC0090063EEBF0A3EAF0A3E9F0A3ECF0A3ED0E
:014FEC00F0D4
:104FED00E4FF90064174FFF5F012250E45F06017B1
:104FFD0090063EE0FBA3E475F00112250EA9F0FA30
:07500D001224296FFF80DB74
:015014002279
:0856FC0090063CEEF0A3EFF074
:10570400E4FBFAFCED6AFEEE30E71CEBAE02780136
:10571400088005C333CE33CED8F9FF90063CE06E43
:10572400FAA3E06FFB8007EB25E0FBEA33FAED25F3
:0B573400E0FD0CECB408CDAE02AF03AA
:01573F002247
:10511F009002B1F07A0279B17B01900638E4F0A3E6
:07512F00741EF07F057E8075
:10513600900633EEF0A3EFF0A3EBF0A3EAF0A3E9B9
:01514600F078
:10514700E490063AF0A3F090063874FFF5F01225C4
:105157000E45F0603A90063AE0FF900635E0FBA373
:10516700E475F00112250EA9F0FA1224296FFD90BB
:105177000633E0FEA3E0FF1256FCAC06AD0790062F
:105187003BE06CFFED90063ACFF0A3EFF080B890CC
:07519700063AE0FEA3E0FF71
:01519E0022EE
:1058A900125CAF7F327E001258BA125CAF7F327E33
:0158B90000EE
:1058BA00D3EF9400EE940040147D6E7C00ED1D70D1
:0D58CA00011CED4C70F7EF1F70E61E80E32F
:0158D70022AE
:10411A00E4900637F0A37402F07B01A314F0A374B1
:0C412A0002F0A374F6F07A0279EDE4FFD5
:10413600900633EFF0A3EBF0A3EAF0A3E9F0A3E0D7
:10414600D3648094835009A3E0FE6480948F400377
:104156007F0022EE25E025E0FF900637E02FF07F76
:104166000312528BE4FF124AF17B017A06798C1214
:104176002BCC900383E0FBA3E0FAA3E0F9EF122433
:104186006F900383E0FBA3E0FAA3E0F91224297001
:1041960048900633E0FF900638E0FD90064E740125
:1041A600F0A37406F0A3748FF0900634E0FBA3E04E
:1041B600FAA3E0F91245C8EF701D900637E0FF90AC
:1041C6000639E0FBA3E0FAA3E0F9124444EF7009D4
:1041D600FF12528B7F01228000E4FF12528B7F0078
:0141E60022B6
:1041E700E4900644F0A304F0A3F0A37400F0A374D2
:0A41F70004F07B017A0279EDE4FF89
:10420100900640EFF0A3EBF0A3EAF0A3E9F0A3E0FE
:10421100D3648094835009A3E0FE6480948F4003AB
:104221007F0022EE25E025E0FF900644E02FF07F9D
:104231000312528BE4FF124AF17B017A06798C1248
:104241002BCC900383E0FBA3E0FAA3E0F9EF122467
:104251006F900383E0FBA3E0FAA3E0F91224297035
:1042610048900640E0FF900645E0FD90064E74013F
:10427100F0A37406F0A3748FF0900641E0FBA3E075
:10428100FAA3E0F91245C8EF701D900644E0FF90D3
:104291000646E0FBA3E0FAA3E0F9124E72EF7009C3
:1042A100FF12528B7F01228000E4FF12528B7F00AC
:0142B10022EA
:0E376800900633EFF0A3EBF0A3EAF0A3E9F034
:10377600E490063EF0A3F090063CE0C4F854F0C88E
:1037860068FEA3E0C4540F48FFC390063FE09F9035
:10379600063EE09E4003023822900637E0FF33954E
:1037A600E0FE90063EE0FCA3E0FD2FFFEC3EFEEFC0
:1037B6005403900644F0EF7802CEC313CE13D8F923
:1037C600FF900638E02F900645F0EDC4F8540FC878
:1037D60068FFECC454F048FE900639E0FBA3E0FA1B
:1037E600A3E02FF9EA3EFA900646EBF0A3EAF0A32F
:1037F600E9F0900634E0FBA3E0FAA3E0F990063383
:10380600E0FF124201EF601490063FE004F060030F
:1038160002377D90063EE004F002377D90063CE0DC
:10382600FCA3E0FDECC4F854F0C868FEEDC4540FE8
:1038360048FFA3E06E7003A3E06F7074ED540F6051
:103846006C900637E0FF3395E0FE90063EE0FCA361
:10385600E0FD2FFFEC3EFEEF5403900644F0EF78B8
:1038660002CEC313CE13D8F9FF900638E02F900688
:1038760045F0EDC4F8540FC868FFECC454F048FE98
:10388600900639E0FBA3E0FAA3E02FF9EA3EFA90AE
:103896000646EBF0A3EAF0A3E9F0900634E0FBA3BA
:1038A600E0FAA3E0F9900633E0FF0242017F01222D
:0238B6007F0091
:0138B80022ED
:0B285800900593EBF0A3EAF0A3E9F079
:10286300900599E024FE602C046003022BCB9005B5
:102873009AE599F0900000E0FFA3E090059BCFF06C
:10288300A3EFF09002D3E0FFA3E090059DCFF0A368
:10289300EFF0807A90059AE59BF0900002E0FFA3A9
:1028A300E090059BCFF0A3EFF09002D5E0FFA3E00B
:1028B30090059DCFF0A3EFF020845390059AE0FF9D
:1028C300900593E0FBA3E0FAA3E0F990059BE47580
:1028D300F00112250E85F082F583EF122481900515
:1028E3009BE0FFA3E0900002CFF0A3EFF0900596EA
:1028F300E0FBA3E0FAA3E0F9900003740112248142
:10290300900002E4122481900001E40224819005E6
:102913009AE0FF900593E0FBA3E0FAA3E0F99005AA
:102923009BE0FCA3E0FDF5828C83EF1224819005EC
:1029330096E0FBA3E0FAA3E0F9C003C002C00112D2
:102943002429FF900593E0FBA3E0FAA3E0F98D822D
:102953008C831224426FD001D002D00312246F90D3
:102963000596E0FBA3E0FAA3E0F9900008122442E5
:102973007027900593E0FBA3E0FAA3E0F990059B91
:10298300E0FEA3E0F5828E83122442FF90059EE0D1
:102993002FF090059DE03400F090059CE004F0706A
:1029A3000690059BE004F090059BE07004A3E064AF
:1029B30001707A900593E0FBA3E0FAA3E0F91224F7
:1029C30029FF900596E0FBA3E0FAA3E0F9EF1224B8
:1029D3006F900593E0FBA3E0FAA3E0F9122429FF2B
:1029E300FD90059DE4F0A3EDF0900596E0FBA3E0D8
:1029F300FAA3E0F9900008E4122481900003740123
:102A0300122481900002E4122481900001E4122434
:102A130081EF24E27002803C900596E0FBA3E0FA8C
:102A2300A3E0F9900003E4122481022B5390059B49
:102A3300E0FEA3E0FF64024E7037900593E0FBA332
:102A4300E0FAA3E0F9122429B41E1C900001122419
:102A530042B46013900596E0FBA3E0FAA3E0F9907B
:102A63000004741E022B4EE490059BF0A3F0022990
:102A730011900596E0FBA3E0FAA3E0F9900004129D
:102A83002442641E6003022B53D3EF9409EE940097
:102A93005003022B5A900593E0FBA3E0FAA3E0F95D
:102AA300900006122442FE9000071224427C002468
:102AB30000FFEC3EFE90059CE024F6FD90059BE0B4
:102AC30034FFFCEF6D7002EE6C7071900596E0FBC5
:102AD300A3E0FAA3E0F9122429FFB41F0790000230
:102AE30074018037900593E0FBA3E0FAA3E0F9902B
:102AF300059CE024FEFD90059BE034FF8D82F58369
:102B0300122442FEEF641F6EFF1258EC900596E00C
:102B1300FBA3E0FAA3E0F9900002E41224819005FC
:102B230096E0FBA3E0FAA3E0F9900003E41224810A
:102B3300E490059BF0A3F0900001800F900596E0D0
:102B4300FBA3E0FAA3E0F9900002E41224818007DA
:102B5300E490059BF0A3F0900599E024FE60340413
:102B63007066900596E0FBA3E0FAA3E0F9900002FB
:102B7300122442B40102C2AC90059BE0FFA3E09093
:102B83000000CFF0A3EFF090059DE0FFA3E09002DB
:102B9300D38030900596E0FBA3E0FAA3E0F9900020
:102BA30002122442B4010353AFFE90059BE0FFA33E
:102BB300E0900002CFF0A3EFF090059DE0FFA3E0CB
:082BC3009002D5CFF0A3EFF062
:012BCB0022E7
:030023000252FC8A
:1052FC00C0E0C0F0C083C082C0D075D000C000C078
:10530C0001C002C003C004C005C006C0073099022A
:10531C00C29930982FC298C3900001E094C89000B5
:10532C0000E094004004E4F0A3F09005967401F0C2
:10533C00A37402F0A374D7F0A37401F0FB7A017983
:10534C0005122858D007D006D005D004D003D002BF
:0F535C00D001D000D0D0D082D083D0F0D0E032BA
:0300430002519FC8
:10519F00C0E0C0F0C083C082C0D075D000C000C0D6
:1051AF0001C002C003C004C005C006C007E59A30A5
:1051BF00E031539AFEC3900003E094C8900002E0E0
:1051CF0094004004E4F0A3F09005967401F0A374EA
:1051DF0002F0A374E0F0A37402F07B017A0179CDA1
:1051EF00122858E59A30E103539AFDD007D006D024
:1051FF0005D004D003D002D001D000D0D0D082D0BF
:06520F0083D0F0D0E03274
:0C5CAF00C2B47FD07E071258BAD2B422D3
:105C4400538E7F5389F0E4F58A758C4CC28DD28CC7
:055C5400D2A9D2AF222D
:03000B00023C5A5A
:103C5A00C0E0C0F0C083C082C0D075D000C000C030
:103C6A0001C002C003C004C005C006C00790029785
:103C7A00E004F09002DAE060449002D8E004F0E058
:103C8A00C394144038900000E0FF1258EC900000F2
:103C9A00A3E0FF1258EC7B017A017905900000E05D
:103CAA00FCA3E0FD1257FD9002D9E4F0A3F09000C6
:103CBA0000F0A3F09002D8F07FE11258EC9002E3F2
:103CCA00E060449002E1E004F0E0C39414403890CC
:103CDA000002E0FF1258EC900002A3E0FF1258EC39
:103CEA007B017A0179CD900002E0FCA3E0FD125736
:103CFA00FD9002E2E4F0A3F0900002F0A3F090023B
:103D0A00E1F07FE21258EC308504D2028014C2023C
:103D1A009002F5E0B40102E4F09002F4E0B401028A
:103D2A00E4F09002F57401F09002F4F0900297E04A
:103D3A00FF75F00A84E5F07002B2A5EFC394C8409B
:103D4A0005900297E4F09002F3E004F0E0D3945077
:103D5A004002E4F0D007D006D005D004D003D00248
:0F3D6A00D001D000D0D0D082D083D0F0D0E032C2
:0B1B6800900633EBF0A3EAF0A3E9F0D5
:101B730090000212244290063DF0C2D5ED641E602F
:101B830003022330900638F0A37408F0900637E080
:101B93006402702F900633E0FBA3E0FAA3E0F99010
:101BA3000006122442FE9000071224427C00240007
:101BB300FFEC3ECF240AFDE43FFC900633A3A3E0F1
:101BC3001257FD900633E0FBA3E0FAA3E0F990007F
:101BD3000412244224FB7003021EE0147003021F4C
:101BE300BA24FE70030220A124076003022180901F
:101BF3000638E475F00112250E85F082F583740929
:101C0300122481900638E475F00112250E85F082C6
:101C1300F583E4122481900638E475F00112250E51
:101C230085F082F5837404122481900638E475F0FC
:101C33000112250E85F082F58374561224819006D5
:101C430038E475F00112250E85F082F58374651270
:101C53002481900638E475F00112250E85F082F593
:101C6300837472122481900638E475F00112250EF4
:101C730085F082F58374111224819002EBE0FF90CA
:101C8300063DE06F6003021D45900633E0FBA3E0D1
:101C9300FAA3E0F9900003122442F46003021D4505
:101CA30090063875F00112250E85F082F583744D88
:101CB300122481900638E475F00112250E85F08216
:101CC300F5837443122481900638E475F0011225DC
:101CD3000E85F082F5837455122481900638E475DD
:101CE300F00112250E85F082F583745F1224819032
:101CF3000638E475F00112250E85F082F5837449E8
:101D0300122481900638E475F00112250E85F082C5
:101D1300F5837444122481E4FF740C2FF8E6FE90DB
:101D23000633E0FBA3E0FAA3E0F9900638E475F08C
:101D33000112250E85F082F583EE1224810FEFB494
:101D430007D7900638A3E024F5FF900633E0FBA302
:101D5300E0FAA3E0F990000AEF122481900638E438
:101D630075F00112250E85F082F583740A12248121
:101D7300900638E475F00112250E85F082F583E4B0
:101D8300122481900638E475F00112250E85F08245
:101D9300F5837405122481900638E475F001122549
:101DA3000E85F082F5837420122481900638E47541
:101DB300F00112250E85F082F583741812248190A8
:101DC3000638E475F00112250E85F082F58374124E
:101DD300122481900638E475F00112250E85F082F5
:101DE300F5837408122481900638E475F0011225F6
:101DF3000E85F082F5837408122481900637E0245F
:101E0300FE600804700D9002DE80039002E7740107
:101E1300F080037F022290063DE0F460030221DAA2
:101E2300900633E0FBA3E0FAA3E0F9900003122449
:101E330042FF640160030221DA900002EF12248161
:101E430090000374101224819000047405122481FD
:101E5300900006E4122481900638E0FCA3E0FD2400
:101E6300F8900007122481124FDC900633E0FBA3A5
:101E7300E0FAA3E0F9900638E475F00112250E8527
:101E8300F082F583EF122481900638E475F0011295
:101E9300250E85F082F583741F122481900637E0A6
:101EA30024FE601B047030900633E0FBA3E0FAA32A
:101EB300E0F9900638E0FCA3E0FD1257FD801B908B
:101EC3000633E0FBA3E0FAA3E0F9900638E0FCA3B5
:101ED300E0FD12583980037F02227F0122900633EE
:101EE300E0FBA3E0FAA3E0F9900002122442FF9082
:101EF30002E9E06F6003021FB7900003122442FF60
:101F03009002D2E06F6003021FB7900005122442D3
:101F1300FF900295E06F6003021FB7900006122442
:101F230042FF70089000071224426065EF703990F9
:101F33000633E0FBA3E0FAA3E0F990000712244282
:101F430064047024900008122442B40C1B9000090E
:101F5300122442701390000A122442B4010A900022
:101F63000B12244264016029900633E0FBA3E0FADC
:101F7300A3E0F99000081224426409703790000A24
:101F8300122442240BF582E433F583122442B40A6B
:101F930023900637E024FE600B0470159002DD7475
:101FA30001F080109002E67401F0E490035AF0808F
:101FB300037F02227F0122900633E0FBA3E0FAA312
:101FC300E0F9900008122442FF70399000051224B2
:101FD30042FE9002EBE06E702690000612244270DF
:101FE3001E900007122442B40315900009122442E4
:101FF300700D90000A1224427005D2D50221DAC274
:10200300D50221DAEF646F60030221DAFDFC7F035E
:102013001259CBE490063AF0A3F0900633E0FBA309
:10202300E0FAA3E0F9900009122442FE90000A129C
:1020330024427C002400FFEC3EFE7D211224A3C336
:1020430090063BE09D90063AE09C503F90063AE0B4
:10205300FEA3E0FF240BF582E43EF583122442FD48
:10206300F5C2745C2FF58274033EF583EDF09006A0
:102073003AE0FCA3E0FD7F021259CB90063BE0045B
:10208300F0709790063AE004F0808FE4F5C2900672
:102093003AE0FCA3E0FD7F021259CB0221DA90065D
:1020A30033E0FBA3E0FAA3E0F9900008122442FF17
:1020B300643D600302213F1258EC900633E0FBA31A
:1020C300E0FAA3E0F990000B122442FF1258EC90BF
:1020D30002B0E0FF1258EC900298E0FF1258EC9027
:1020E3000633E0FBA3E0FAA3E0F990000B122442CD
:1020F300FF702D9002B0E0B40107E4F09002F5EF19
:10210300F0900298E0640160030221DAF090063354
:10211300E0FBA3E0FAA3E0F990000B122442801540
:10212300900633E0FBA3E0FAA3E0F990000B12243E
:10213300429002F5F09002F4F00221DA900633E0C7
:10214300FBA3E0FAA3E0F9900008122442643F6085
:10215300030221DA90000B1224429002EAF0700885
:102163007BFF7A4B7989800E9002EAE06401706705
:102173007BFF7A4B7992FDFC1257FD805A90063310
:10218300E0FBA3E0FAA3E0F9900638E475F001124E
:10219300250E85F082F583740C122481900638E4B1
:1021A30075F00112250E85F082F583E412248190E7
:1021B3000638E475F00112250E85F082F58374016B
:1021C300122481900638E475F00112250E85F08201
:1021D300F5837403122481900633E0FBA3E0FAA392
:1021E300E0F9900002122442FF9002EBE06F6017C7
:1021F30090063DE0F470030223039000031224428F
:1022030064016003022303900633E0FBA3E0FAA317
:10221300E0F99000031224429000021224819006F8
:102223003DE0900003122481900004740512248180
:10223300900006E4122481900638E0FCA3E0FD241C
:10224300F8900007122481124FDC900633E0FBA3C1
:10225300E0FAA3E0F9900638E475F00112250E8543
:10226300F082F583EF122481900638E475F00112B1
:10227300250E85F082F583741F122481900637E0C2
:1022830024FE601B047046900633E0FBA3E0FAA330
:10229300E0F9900638E0FCA3E0FD1257FD80319091
:1022A3000633E0FBA3E0FAA3E0F9900638E0FCA3D1
:1022B300E0FD1257FD900633E0FBA3E0FAA3E0F93B
:1022C300900638E0FCA3E0FD12583980037F022218
:1022D30030D511E4900297F0900297E0C3940A403E
:1022E300F775C760900633E0FBA3E0FAA3E0F9902B
:1022F3000639E024FEFF900638E034FF8F82802306
:10230300900638E0FEA3E0FFD39408EE9400401A51
:10231300900633E0FBA3E0FAA3E0F974FF2FF58204
:0F23230074FF3EF583122442FF227F01227F00C8
:012332002288
:105C1800C2B3C2967F647E001258BAD2B3D2967FBE
:065C2800647E000258BA80
:100046009005A674F1F0A374BFF0A374F9F0C20092
:10005600C201E4A3F0A3F0A3F0A3F078117C067D1F
:10006600017BFF7A4C7900FE7F201224031257840D
:100076001259A5125C82125B4212000E125C4412E7
:100086005A3812309E125CF27BFF7A4B799BE4FD64
:10009600FC1257FD7BFF7A4B799BE4FDFC12583925
:1000A600E49005A2F0A3F09005A2E0FEA3E0FFC352
:1000B6009407EE9400505F9005A6E02FF8E6C4542E
:1000C6000F7E00540F2499F582EE3402F583E0FF8B
:1000D6001258EC9005A2A3E0FF9005A6E02FF8E6E3
:1000E6007E00540F2499F582EE3402F583E0FF1268
:1000F60058EC9005A2A3E0FF9005A6E02FF8E6FED7
:10010600740C2FF8A6069005A3E004F070999005EC
:10011600A2E004F080917F0D1258EC7F0A1258EC91
:10012600E49005A2F0A3F09005A2E0FEA3E0FFC3D1
:100136009407EE9400505F9005A7E0FCA3E02FF52E
:1001460082EC3EF583E493C4540F7E00540F249949
:10015600F582EE3402F583E0FF1258EC9005A2E03A
:10016600FEA3E0FF9005A7E0FCA3E02FF582EC3E9E
:10017600F583E4937E00540F2499F582EE3402F55C
:1001860083E0FF1258EC9005A3E004F07099900507
:10019600A2E004F080917F0D1258EC7F0A1258EC11
:1001A600E49005A2F0A3F09005A2E0FCA3E0FDC355
:1001B6009420EC9400507B7F011259CBE5C270026B
:1001C6008070E5C2B4FF47E49005A2F0A3F0900565
:1001D600A2E0FEA3E0FFC39420EE940050547411F5
:1001E6002FF58274063EF583E0FF60469005A2E097
:1001F600FCA3E0245CF58274033CF583EFF09005E4
:10020600A3E004F070C89005A2E004F080C0900559
:10021600A2E0FEA3E0245CF58274033EF583E5C20A
:10022600F09005A3E004F070069005A2E004F00249
:1002360001AD7B017A03795CE4FDFC1257FD7B017D
:100246007A03795CE4FDFC1258397F0D1258EC7F75
:100256000A1258EC7A03795C125127900631EEF0B7
:10026600A3EFF0900631E0FCA3E0FDEC90037AF0FA
:10027600EDA3F0125CAF7FE87E031258BA125C1849
:100286001259A5125C827F647E001258BA1241E7A9
:10029600125CAF7FF47E011258BA7FF77EFF125AC6
:1002A600C3125CAF121257125CF21241E7EF7003F1
:1002B6000206F7E49005AAF090035BE060030207EC
:1002C60009900014F07B017A007904FDFC1257FDB9
:1002D600900004E064C4705FA3E064CF7059A3E0AB
:1002E60064B27053A3E064FD704DA3E064C8704728
:1002F600A3E064F07041A3E064B7703BA3E064E55B
:100306007035A3E064B9702FA3E064AB7029A3E055
:1003160064CB7023A3E064BE701DA3E064D670179F
:10032600A3E0B4F712A3E0B4BF0DA3E0B4A808900D
:10033600035B74010203E3900004E064CD7046A3FE
:10034600E064B67040A3E064B1703AA3E064D27092
:1003560034A3E064BB702EA3E064FA7028A3E064C3
:10036600C67022A3E064D5701CA3E064CD7016A30A
:10037600E0B4A811A3E0B4BF0CA3E0B4A8079003AF
:100386005B74028058900004E064D67054A3E06465
:10039600B8704EA3E064CE7048A3E064C67042A372
:1003A600E064CD703CA3E064B67036A3E064B1703F
:1003B60030A3E064D2702AA3E064BB7024A3E06497
:1003C600FA701EA3E064B87018A3E0B4B113A3E0FA
:1003D600B4BF0EA3E0B4A80990035B7403F0020651
:1003E600A3900004E064D67047A3E064DC7041A3E8
:1003F600E064D7703BA3E064AA7035A3E064B170F3
:100406002FA3E064EA7029A3E064C77023A3E06425
:10041600A9701DA3E064BF7017A3E064A8701190D3
:10042600035B7404F09002EAE060030206B0804FBA
:10043600900004E064B17050A3E064D2704AA3E077
:1004460064B57044A3E064A8703EA3E064B170385C
:10045600A3E064B87032A3E064D3702CA3E064C355
:100466007026A3E064BF7020A3E064A8701A90030E
:100476005B7405F09002EAE0640160030206B012C4
:1004860058A91258B30206AD900004E064B56003A3
:100496000206A8A3E064E360030206A8A3E064B32F
:1004A60060030206A8A3E064AE60030206A8A3E008
:1004B60064BE60030206A8A3E064AD60030206A85A
:1004C600A3E064C060030206A8A3E064ED60030233
:1004D60006A8A3E064CA60030206A8A3E064DA6083
:1004E600030206A8A3E064C860030206A8A3E064AA
:1004F600A860030206A8A3E064BF60030206A8A3DF
:10050600E064A860030206A890035B7406F0E4901A
:1005160005A2F0A3F09005A275F00112250EFE7457
:10052600AD25F0F58274053EF583741EF09005A2A4
:10053600E475F00112250EFE74AD25F0F582740502
:100546003EF5837460F09005A2E475F00112250E65
:10055600FE74AD25F0F58274053EF5837401F090C6
:1005660005A2E475F00112250EFE74AD25F0F582A4
:1005760074053EF583740AF09005A2E475F0011245
:10058600250EFE74AD25F0F58274053EF5837408DC
:10059600F0900296E004FFF09005A2E475F00112D7
:1005A600250EFC74AD25F0F58274053CF583EFF05D
:1005B6009002E9740AF09002D27401F0900296E07B
:1005C600900295F09005A3E02402F09005A2E03495
:1005D60000F0E475F00112250EFE74AD25F0F582EB
:1005E60074053EF583743EF09005A3E02402F09076
:1005F60005A2E03400F0E49005A4F0A3F09005A273
:10060600E475F00112250EFE74AD25F0F582740531
:100616003EF5837401F09005A5E004F070069005A0
:10062600A4E004F09005A4E07004A3E0640170CD9A
:10063600124F8A9005A2E475F00112250EFC74ADE6
:1006460025F0F58274053CF583EFF09005A2E4757C
:10065600F00112250EFE74AD25F0F58274053EF507
:1006660083741FF07B017A0579AD9005A2E0FCA3A7
:10067600E0FD1257FD7B017A0579AD9005A2E0FCFD
:10068600A3E0FD12583990035A7401F0E4900297E2
:10069600F09002F504F09002F4F01258B31258B339
:1006A6008008E490035BF0125CAF7BFF7A4B79B372
:1006B600E4FDFC1257FD90035BE0C4540F7E00542A
:1006C6000F2499F582EE3402F583E0FF1258EC9080
:1006D600035BE07E00540F2499F582EE3402F58325
:1006E600E0FF1258EC7F0D1258EC7F0A1258EC808E
:1006F600129005AAE004F0E0D394054006E4F090D9
:10070600035BF0E4FF12528BD2B77FF77EFF125ADB
:10071600C3EF20E403020C959002EAE06003020CAA
:10072600959005ABF0A3E0700204F07B017A0279A4
:10073600B17F20125BE99005A2E4F0A3EF125122EB
:10074600900631EEF0A3EFF0D2B79005A2E0700468
:10075600A3E064016003020C42900631E0FCA3E0D2
:10076600FDECFF9002CFE0FBEF6B7001E46003024B
:100776000C42AF05A3E0FDEF6D7001E46003020CCF
:10078600429002B1E0FF1258EC9002F4E0FF1258DA
:10079600EC900298E0FF1258EC9002B1E064017010
:1007A600389002F4E064016003020C5F7B017A0377
:1007B600795C90063812512D900631EEF0A3EFF0D9
:1007C600900631E0FCA3E0FDEC90037AF0EDA3F097
:1007D6007B017A03795C0208E49002B1E06404606C
:1007E600030208EE900298E0640260030208C174F6
:1007F6007E12511F900631EEF0A3EFF0900631E025
:10080600FCA3E0FDEC9002CFF0EDA3F07B017A02B1
:1008160079B17F207E001245097B017A0579AD907A
:1008260005B3E0FEA3E07C002400FFEC3ECF240AE3
:10083600FDE43FFC1257FD7B017A0579AD9005B3C7
:10084600E0FEA3E07C002400FFEC3ECF240AFDE49A
:100856003FFC125839E49005ACF090029804F090F1
:10086600035AF0E4900297F090035BE06405703B56
:100876009005A2F0A3F09005A2E0FEA3E0FFC394CA
:1008860009EE9400501C74F62FF58274023EF5832F
:10089600E4F09005A3E004F070DC9005A2E004F01B
:1008A60080D412411AEF6003125CAF125CAF7F1462
:1008B6007E001258BA125CAF020C5F74FF12511F11
:1008C600900631EEF0A3EFF0900631E0FCA3E0FDD8
:1008D600EC9002CFF0EDA3F07B017A0279B17F2094
:1008E6007E00124509020C5F9002B1E064036003CA
:1008F600020C5FD2017BFF7A4B79BFFDFC1257FDDC
:100906009002F4E064016003020C5F7B017A0279D5
:10091600B17D1CFC124FDC9002CEE06F6003020C2E
:10092600279005A2F0A3F09005A275F00112250EFE
:10093600FE74AD25F0F58274053EF583741EF090C5
:1009460005A2E475F00112250EFE74AD25F0F582C0
:1009560074053EF5837460F09005A2E475F001120B
:10096600250EFE74AD25F0F58274053EF5837401FF
:10097600F09005A2E475F00112250EFE74AD25F087
:10098600F58274053EF583740AF09005A2E475F0CD
:100996000112250EFE74AD25F0F58274053EF58331
:1009A6007408F0900296E004FFF09005A2E475F05A
:1009B6000112250EFC74AD25F0F58274053CF58315
:1009C600EFF09002E9740AF09002D27401F09002FE
:1009D60096E0900295F09005A3E02402F09005A21F
:1009E600E03400F0E475F00112250EFE74AD25F03A
:1009F600F58274053EF5837428F09005A3E0240281
:100A0600F09005A2E03400F0E49005A4F0A3F09085
:100A160005A4E0FEA3E0FFC39409EE9400505474CD
:100A2600B22FF58274023EF583E0F960469005A286
:100A3600E475F00112250EFC74AD25F0F5827405FF
:100A46003CF583E9F074B22FF58274023EF583E03B
:100A5600FFC394204004EFB4FF097BFF7A4B79C8AB
:100A6600020BD29005A5E004F070A49005A4E00462
:100A7600F0809C9005A4E0FFFCA3E0FDC39005A3D5
:100A8600E09DFD9005A2E09CFC74AB2DF5827405FB
:100A96003CF583EFF09005A4A3E0FF74AC2DF5823E
:100AA60074053CF583EFF09005A2E475F00112257C
:100AB6000EFE74AD25F0F58274053EF583743CF0A8
:100AC6009005A3E02402F09005A2E03400F0E49043
:100AD60005A4F0A3F09005A4E0FEA3E0FFC39407ED
:100AE600EE9400503474BB2FF58274023EF583E019
:100AF600FF9005A2E475F00112250EFC74AD25F0F9
:100B0600F58274053CF583EFF09005A5E004F070DE
:100B1600C49005A4E004F080BC9005A4E0FFFCA30B
:100B2600E0FDC39005A3E09DFD9005A2E09CFC744A
:100B3600AB2DF58274053CF583EFF09005A4A3E098
:100B4600FF74AC2DF58274053CF583EFF09005A299
:100B5600E475F00112250EFE74AD25F0F5827405DC
:100B66003EF5837420F09005A3E02402F09005A2E0
:100B7600E03400F0E49005A4F0A3F09005A4E0FEB4
:100B8600A3E0FFC39408EE9400505A74C22FF58276
:100B960074023EF583E0F9604C9005A2E475F0011D
:100BA60012250EFC74AD25F0F58274053CF583E93B
:100BB600F074C22FF58274023EF583E0FFC39420E1
:100BC6004004EFB4FF0F7BFF7A4B79D5E4FDFC12AE
:100BD60057FD0211529005A5E004F0709E9005A401
:100BE600E004F08096124F8A9005A2E475F0011297
:100BF600250EFC74AD25F0F58274053CF583EFF007
:100C06009005A2E475F00112250EFE74AD25F0F5EF
:100C16008274053EF583741FF09002987402F0808A
:100C2600387BFF7A4B79E2E4FDFC1257FD7B017AB3
:100C36000279B17D1C7C00124FDC801A7BFF7A4B57
:100C460079E7E4FDFC1257FD900631E0FF1258ECFF
:100C5600900631A3E0FF1258ECE49005A2F0A3F051
:100C66009005A2E0FEA3E0FFC39420EE94004003AB
:100C760002115274B12FF58274023EF583E4F090AE
:100C860005A3E004F070D99005A2E004F080D190AD
:100C960005ABE004F0E0D3940A5003021152E4F0ED
:100CA600C20190035BE0FFB404089002EAE064012D
:100CB6006011EF640560030211429002EAE06003EE
:100CC600021142E4900637F0A37402F07B01A314EC
:100CD600F0A37400F0A37404F0A3E4F0A37430F05E
:100CE6007A0279EDE4FF123768EF640160030211BE
:100CF600429005A9F09005A2F0A3F09005A2E0FEAF
:100D0600A3E0FFC39408EE9400504774042FF582C5
:100D160074003EF583E0C3942040129005A2A3E040
:100D26002404F58274003EF583E0B4FF157BFF7A58
:100D36004B79EDE4FDFC1257FD125CAF125CAF027D
:100D4600113D9005A3E004F070B19005A2E004F017
:100D560080A9300003021152300103021152D20061
:100D66007BFF7A4B79F7E4FDFC1257FD9002F5E024
:100D76006401600302113A9005A2F0A3F09005A267
:100D860075F00112250EFE74AD25F0F58274053E50
:100D9600F583741EF09005A2E475F00112250EFE8F
:100DA60074AD25F0F58274053EF5837460F0900508
:100DB600A2E475F00112250EFE74AD25F0F58274DD
:100DC600053EF5837401F09005A2E475F001122545
:100DD6000EFE74AD25F0F58274053EF583740AF0B7
:100DE6009005A2E475F00112250EFE74AD25F0F50E
:100DF6008274053EF5837408F0900296E004FFF0D5
:100E06009005A2E475F00112250EFC74AD25F0F5EF
:100E16008274053CF583EFF09002E9740AF09002C3
:100E2600D27401F0900296E0900295F09005A3E04E
:100E36002402F09005A2E03400F0E475F0011225DA
:100E46000EFE74AD25F0F58274053EF5837428F028
:100E56009005A3E02402F09005A2E03400F0E490AF
:100E660005A4F0A3F09005A4E0FEA3E0FFC3940957
:100E7600EE9400507374042FF58274003EF583E0FF
:100E860060669005A4A3E02404F58274003EF58311
:100E9600E0FD9005A2E475F00112250EFA74AD2569
:100EA600F0F58274053AF583EDF074042FF582743B
:100EB600003EF583E0C3942040149005A4E0FEA311
:100EC600E02404F58274003EF583E0B4FF097BFF5D
:100ED6007A4B79C802106D9005A5E004F070069073
:100EE60005A4E004F0020E6B9005A4E0FFFCA3E06D
:100EF600FDC39005A3E09DFD9005A2E09CFC74ABAC
:100F06002DF58274053CF583EFF09005A4A3E0FF70
:100F160074AC2DF58274053CF583EFF0E490000483
:100F2600F09005A275F00112250EFE74AD25F0F5C0
:100F36008274053EF583743CF09005A3E02402F02C
:100F46009005A2E03400F0E49005A4F0A3F090052B
:100F5600A4E0FEA3E0FFC39407EE9400503474248B
:100F66002FF58274003EF583E0FF9005A2E475F04C
:100F76000112250EFC74AD25F0F58274053CF5834F
:100F8600EFF09005A5E004F070C49005A4E004F02D
:100F960080BC9005A4E0FFFCA3E0FDC39005A3E0A0
:100FA6009DFD9005A2E09CFC74AB2DF58274053C7A
:100FB600F583EFF09005A4A3E0FF74AC2DF58274E1
:100FC600053CF583EFF0E4900004F09005A275F07F
:100FD6000112250EFE74AD25F0F58274053EF583EB
:100FE6007420F09005A3E02402F09005A2E03400FE
:100FF600F0E49005A4F0A3F09005A4E0FEA3E0FFC2
:10100600C39408EE9400507B74142FF58274003E4E
:10101600F583E0606E9005A4A3E02414F5827400C5
:101026003EF583E0FD9005A2E475F00112250EFA67
:1010360074AD25F0F58274053AF583EDF074142F3E
:10104600F58274003EF583E0C3942040149005A415
:10105600E0FEA3E02414F58274003EF583E0B4FFBD
:10106600117BFF7A4B79D5E4FDFC1257FDC20002D5
:1010760011529005A5E004F070069005A4E004F076
:10108600020FFE124F8A9005A2E475F00112250E9A
:10109600FC74AD25F0F58274053CF583EFF0900500
:1010A600A2E475F00112250EFE74AD25F0F58274EA
:1010B600053EF583741FF07B017A0579AD9005A294
:1010C600E0FCA3E0FD1257FD7B017A0579AD9005A2
:1010D600A2E0FCA3E0FD125839E49005ACF09002C2
:1010E600B004F090035AF0E4900297F090035BE0AE
:1010F6006405703E9005A2F0A3F09005A2E0FEA361
:10110600E0FFC39409EE9400501C74F62FF5827428
:10111600023EF583E4F09005A3E004F070DC900550
:10112600A2E004F080D412411AEF60028009C200E6
:10113600801A80031258A9125CAF80109005A9E0AE
:1011460004F0E0D394054004E4F0C200E4FF125238
:101156008B90035AE064016003021202900297E04A
:10116600D394645003021202200203021202900278
:1011760096E004F09005B2F0900296E0900295F0A9
:101186007B017A0579AD9005B3E0FEA3E07C0024EF
:1011960000FFEC3ECF2408FDE43FFC124FDCAD0718
:1011A6009005B3E0FEA3E07A002400FFEA3EFE7459
:1011B600B52FF58274053EF583EDF07B017A05794E
:1011C600AD9005B3E0FEA3E07C002400FFEC3ECF2B
:1011D600240AFDE43FFC1257FD7B017A0579AD90A8
:1011E60005B3E0FEA3E07C002400FFEC3ECF240A1A
:1011F600FDE43FFC125839E4900297F09002D9E0E2
:1012060060217B017A0179059002DBE0FD900637CB
:101216007401F0121B68D2ACE49002D9F090000081
:10122600F0A3F09002E2E070030202AD7B017A01C6
:1012360079CD9002E4E0FD9006377402F0121B6847
:1012460043AF01E49002E2F0900002F0A3F0020244
:01125600ADEA
:10578400E4F593F594F591F592F595F596F5B1F563
:10579400B2F5B3F5B4439404C282439410C2844373
:1057A4009204D29243920843921043922043B20847
:0D57B400D2B3C2A5439620C2974392802233
:10574000E4FDFCC3ED9FEC9E50390000000000001A
:105750000000000000000000000000000000000049
:105760000000000000000000000000000000000039
:105770000000000000000000000000000DBD00015E
:035780000C80C0DA
:015783002203
:1059A5009003837401F0A37403F0A37487F090034C
:1059B5007E7401F0A37404F0A37487F0E4F509F58F
:0659C50008F50AF50B22B3
:0B4C200090064CEBF0A3EAF0A3E9F0D3
:104C2B007D807F12125B047D807F13125B047D08F5
:104C3B007F13125A837D087F08125B047D077F0D5B
:104C4B00125CCA7523267F017E007D007C00124317
:104C5B007D9006577401F07B00A314F0A37400F051
:104C6B00A37424F0A3EBF0A37400F0A37426F07AE2
:104C7B000079237F0C122E738F22E522702BE527F0
:104C8B0064104526702390064CE0FBA3E0FAA3E0EA
:104C9B00F9E52412246F90064CE0FBA3E0FAA3E0A5
:0B4CAB00F9900001E525122481AF22E2
:014CB60022DB
:0B4CB700900633EBF0A3EAF0A3E9F055
:104CC2007D807F12125B047D807F13125B047D085E
:104CD2007F13125A837D087F08125B047D077F0DC4
:104CE200125CCA7522527F017E007D007C00124355
:104CF2007D9006577401F07B00A314F0A37400F0BA
:104D0200A37423F0A3EBF0A37400F0A37425F07A4C
:104D12000079227F0C122E738F21E521702BE5265C
:104D2200641045257023900633E0FBA3E0FAA3E06C
:104D3200F9E52312246F900633E0FBA3E0FAA3E027
:0B4D4200F9900001E524122481AF214C
:014D4D002243
:103F6300900649E0FBA3E0FAA3E02407F9E43AFA58
:023F73007F9538
:0E3F750090064CEFF0A3EBF0A3EAF0A3E9F006
:103F83007D807F12125B047D807F13125B047D08AA
:103F93007F08125B04E4FD7F0D125CCA7D807F0EF7
:103FA300125B0490064CE0F5247525207F017E000A
:103FB3007D007C0012437D9006577402F0A3E4F069
:103FC300A37400F0A37426F0A3E4F0A37400F0A399
:103FD300742BF07B007A0079247F0C122E738F22CE
:103FE300E5227058F52374262523F8E6FF90064D45
:103FF300E0FBA3E0FAA3E0F9852382758300EF12C7
:1040030024810523E523B405DD90064DE0FBA3E001
:10401300FAA3E0F9900001122442FF1224296FFF52
:104023009000021224426FFF9000031224426FFF9C
:0E4033009000041224426F6003752201AF2238
:01404100225C
:0E47260090064CEFF0A3EBF0A3EAF0A3E9F04D
:10473400E4FD7F0D125CCA7D807F12125A837D8056
:104744007F13125A837D087F08125B0490064CE0A5
:10475400F524752570E4F52390064DE0FBA3E0FAFB
:10476400A3E0F9852382758300122442FF74262571
:1047740023F8A6070523E523B405DD7F017E007D2C
:10478400007C0012437D9006577407F0A3E4F0A365
:104794007400F0A3742BF0A3E4F0A37400F0A374EA
:1047A40030F07B007A0079247F0C122E738F22E57F
:1047B400227010900650E0FBA3E0FAA3E0F9E52B89
:0547C40012246FAF227A
:0147C90022CD
:10550A00752250E4F523FD7F0D125CCA7D807F125F
:10551A00125A837D807F13125A837D087F08125B9B
:10552A00047F017E007D007C0012437D9006577443
:10553A0002F0A3E4F0A37400F0A37424F0A3E4F04F
:10554A00A37400F0A37425F07B007A0079227F040B
:05555A00122E738F21E9
:01555F002229
:0B2BCC00900649EBF0A3EAF0A3E9F04B
:102BD700124C208F21E521B401037F012290064981
:102BE700E0FBA3E0FAA3E0F912242954C0706DE9D1
:102BF7002403F9E43AFA7F93123F758F21E521B454
:102C070001037F0122900649E0FBA3E0FAA3E02439
:102C170003F9E43AFAC003C002C001900649A3E0F1
:102C2700FAA3E0240FF9E43AFA900650EBF0A3EA8E
:102C3700F0A3E9F0D001D002D0037F931247268F8B
:102C470021E521B401037F0122900649E0FBA3E0BF
:102C5700FAA3E0F99000027404122481900649E077
:102C6700FBA3E0FAA3E0F912242954C064406003EF
:102C7700022D38E92403F9E43AFA7F93123F758F5E
:102C870021E521B401037F0122900649E0FBA3E07F
:102C9700FAA3E02403F9E43AFAC003C002C00190A2
:102CA7000649A3E0FAA3E0240FF9E43AFA900650A4
:102CB700EBF0A3EAF0A3E9F0D001D002D0037F93B1
:102CC7001247268F21E521B401037F0122123F63BA
:102CD7008F21E521B401037F0122900649E0FBA380
:102CE700E0FAA3E02407F9E43AFAC003C002C001FE
:102CF700900649A3E0FAA3E0240FF9E43AFA900614
:102D070050EBF0A3EAF0A3E9F0D001D002D0037FA3
:102D1700951247268F21E521B401037F01229006F2
:102D270049E0FBA3E0FAA3E0F9900002740812243B
:102D370081900649E0FBA3E0FAA3E0F912242954A5
:102D4700C064806003022E70E92403F9E43AFA7F35
:102D570093123F758F21E521B401037F012290066D
:102D670049E0FBA3E0FAA3E02403F9E43AFAC0033D
:102D7700C002C001900649A3E0FAA3E0240FF9E4DA
:102D87003AFA900650EBF0A3EAF0A3E9F0D001D0AD
:102D970002D0037F931247268F21E521B401037FD9
:102DA7000122123F638F21E521B401037F012290A5
:102DB7000649E0FBA3E0FAA3E02407F9E43AFAC0E6
:102DC70003C002C001900649A3E0FAA3E0240FF96B
:102DD700E43AFA900650EBF0A3EAF0A3E9F0D00149
:102DE700D002D0037F951247268F21E521B4010336
:102DF7007F0122900649E0FBA3E0FAA3E0240BF948
:102E0700E43AFA7F97123F758F21E521B401037FDA
:102E17000122900649E0FBA3E0FAA3E0240BF9E4C2
:102E27003AFAC003C002C001900649A3E0FAA3E042
:102E3700240FF9E43AFA900650EBF0A3EAF0A3E97D
:102E4700F0D001D002D0037F971247268F21E521CA
:102E5700B401037F0122900649E0FBA3E0FAA3E057
:0B2E6700F9900002740C122481AF21CE
:012E7200223D
:105C0100535049526561645F53657175656E636593
:075C11000A00656E640A0041
:0F5C8200E4F5CF75CDC0D29275CED0F5A2FF223A
:10592E00900664E004F07006900663E004F0D390F5
:10593E000664E094C8900663E0940040037F002262
:07594E00E5CD5F60DB7F0186
:01595500222F
:10595600C292EF25E0F54F434F8075CDC0854FCFFE
:105966007F8012592E75CDC0E4F5CF7F8012592E57
:0759760085CF4ED292AF4E27
:01597D002207
:104D4E0090065EEFF0A3EDF0A3EBF0A3EAF0A3E97B
:014D5E00F064
:104D5F007BFF7A5C7901E4FDFC1257C190065EE09F
:104D6F006070C29290065FE025E0F54C434C807571
:104D7F00CDC0854CCF7F8012592E7F30125BCB90E8
:104D8F00065EE0FF125BCBE4F54B90065EE0FFE5BD
:104D9F004BC39F502F75CDC0EF14B54B05E4F5CF26
:104DAF008003854CCF7F8012592E900660E0FBA3C5
:104DBF00E0FAA3E0F9854B82758300E5CF122481D9
:104DCF00054B80C6D2927BFF7A5C7913E4FDFC120F
:024DDF0057C1BA
:014DE10022AF
:1059F000C292EF25E0F54D534D7E75CDC0854DCF5C
:105A00007F8012592E75CDC0AF058FCF7F80125980
:035A10002ED29201
:015A13002270
:0D560C0090065EEBF0A3EAF0A3E9F0AE0714
:10561900EE6044C292AF05EF25E0F54B534B7E7522
:10562900CDC0854BCF7F8012592EE4F54CE54CC394
:105639009E502275CDC090065EE0FBA3E0FAA3E080
:10564900F9854C82758300122442F5CF7F80125967
:075659002E054C80D8D2920F
:015660002227
:1045C800EF7003752160EFB40103752161ED25E0FB
:1045D80025E0F522122429F523900001122442F542
:1045E80024900002122442F525900003122442F57B
:1045F80026900004122442F527900005122442F563
:104608002890064EE0FBA3E0FAA3E0F9122429F56E
:1046180029900001122442F52A900002122442F542
:104628002B900003122442F52C7F017E007D007C34
:104638000012437D900657740CF0A3E4F0A37400B5
:10464800F0A3742DF0A3E4F0A37400F0A3742FF08A
:104658007B007A0079217F0E122E738F2EE52E7043
:104668000F7F08125CE0EF30E3037F00227F012216
:024678007F01C0
:01467A00221D
:1054A800900003122442FEF521900002122442FDCE
:1054B800F522900001122442F523122429F524EE46
:1054C800F4F525EDF4F526900001122442FEF4F5DA
:1054D80027122429FDF4F528900003122442F52907
:1054E800900002122442F52A8E2B8D2C8F2DEFF47A
:1054F800F52E8F2FF5307B007A0079211244448FE6
:015508003171
:01550900227F
:0E4E7200900649EFF0A3EBF0A3EAF0A3E9F0FD
:104E80007D807F12125CCA7D807F13125CCAE4FDB4
:104E90007F0D125CCA7F017E007D007C0012437D85
:104EA000752130900649E0F5229006577402F09083
:104EB000064AE0F9A3E0FAA3E0900658C9F0A3EA95
:104EC000F0A3E9F0A3E4F0A37400F0A37424F07B52
:104ED000007A0079217F0C122E738F23E5256480E0
:104EE000452460047F0180027F00E52360047E0189
:0D4EF00080027E00EE4F60037F01227F00F4
:014EFD002292
:0E44440090063CEFF0A3EBF0A3EAF0A3E9F042
:104452007F057E007D007C0012437D7533A09006AF
:104462003CE0F5349006577402F0A3E4F0A3740024
:10447200F0A37443F0A3E4F0A37400F0A37444F037
:104482007B007A0079337F0C122E738F32E543540E
:104492000F640A60047F0180027F00E53260047EBF
:1044A2000180027E00EE4F60037F01227F0A7E00C0
:1044B2007D007C0012437D9006577410F0A3E4F057
:1044C200A37400F0A37443F0A3E4F0A37400F0A378
:1044D2007444F090063DE0FBA3E0FAA3E0F97F0C00
:1044E200122E738F32E543540F640A60047F0180F9
:1044F200027F00E53260047E0180027E00EE4F60A2
:06450200037F01227F008F
:014508002290
:0E47CA00900633EFF0A3EBF0A3EAF0A3E9F0C2
:1047D8007F057E007D007C0012437D7522C1900616
:1047E80033E0F5239006577402F0A3E4F0A37400B5
:1047F800F0A37424F0A3E4F0A37400F0A37425F0EC
:104808007B007A0079227F0C122E738F21E52454C5
:104818000F640A60047F0180027F00E52160047E46
:104828000180027E00EE4F60037F01227F057E003B
:104838007D007C0012437D9006577404F0A3E4F0D9
:10484800A37400F0A37424F0A3E4F0A37400F0A30D
:104858007425F0900634E0FBA3E0FAA3E0F97F0C9E
:05486800122E73AF21C8
:01486D002228
:0E486E00900633EFF0A3EBF0A3EAF0A3E9F01D
:10487C007F057E007D007C0012437D7522C0900672
:10488C0033E0F5239006577402F0A3E4F0A3740010
:10489C00F0A37424F0A3E4F0A37400F0A37425F047
:1048AC007B007A0079227F0C122E738F21E5245421
:1048BC000F640A60047F0180027F00E52160047EA2
:1048CC000180027E00EE4F60037F01227F057E0097
:1048DC007D007C0012437D9006577404F0A3E4F035
:1048EC00A37400F0A37424F0A3E4F0A37400F0A369
:1048FC007425F0900634E0FBA3E0FAA3E0F97F0CFA
:05490C00122E73AF2123
:014911002283
:05544400900633EFF0BB
:105449007F057E007D007C0012437D7522B09006A9
:1054590033E0F5239006577402F0A3E4F0A3740037
:10546900F0A37424F0A3E4F0A37400F0A37425F06E
:105479007B007A0079227F0C122E738F21E5245448
:105489000F640A60047F0180027F00E52160047EC9
:0E5499000180027E00EE4F60037F0122AF21F2
:0154A70022E2
:0549B600900633EFF054
:1049BB007F057E007D007C0012437D7522C2900630
:1049CB0033E0F5239006577402F0A3E4F0A37400D0
:1049DB00F0A37426F0A3E4F0A37400F0A37427F003
:1049EB007B007A0079227F0C122E738F21E52654DF
:1049FB000F640A60047F0180027F00E52160047E62
:104A0B000180027E00EE4F60037F01227F057E0056
:104A1B007D007C0012437DE4F522F523F524F5257A
:104A2B009006577404F0A3E4F0A37400F0A374266B
:104A3B00F0A3E4F0A37400F0A37427F07B007A00DA
:094A4B0079227F0C122E73AF21B9
:014A5400223F
:0435E5004106C400D7
:055CE0001259568F4D22
:015CE500229C
:0B587500900633EBF0A3EAF0A3E9F08B
:10588000E4F521AF21125956900633E0FBA3E0FA6C
:10589000A3E0F9852182758300EF1224810521E5BB
:0858A00021C3944040DD7F00AC
:0158A80022DD
:045CC600E4FD7F0179
:065CCA001259F07F0022D8
:105BD100900658E0FBA3E0FAA3E07E002548F9EE29
:025BE1003AFA8E
:065BE3007D09124D4E2267
:105C2E00900657E0FF900654E0FBA3E0FAA3E0F9DC
:065C3E007D0912560C2244
:105C6E007D807F0A125A837F0A125956EF7002FF07
:045C7E00227F01225E
:045A7F007D807F0D9A
:0A5A830090065FEDF090065EEFF074
:105A8D00125CE090065FE04FFD90065EE0FF125C59
:035A9D00CA8F4C61
:015AA00022E3
:0A5B040090065FEDF090065EEFF0F2
:105B0E00125CE090065FE0F45FFD90065EE0FF122F
:045B1E005CCA8F4B83
:015B22002260
:05528B00900649EFF060
:105290007F14125CE0EF5403FF900649E0FEB5076F
:1052A000037F0022EE70097D037F14125B048F21BF
:1052B000900649E0B401127D017F14125A838F21B8
:1052C0007D027F14125B048F21900649E0B4021224
:1052D0007D017F14125B048F217D027F14125A839B
:1052E0008F21900649E0B403097D037F14125A838D
:0B52F0008F217FE87E03125740AF21A2
:0152FB002290
:0E2E7300900653EFF0A3EBF0A3EAF0A3E9F012
:102E8100E4F547F548F5497F5C125BCB900653E0CA
:102E9100FF125BCB125C6E125CC67D207F0B125C55
:102EA100CA7D7F7F04125CCA900653E0B40E0612FD
:102EB1005C2E125A7F7D807F2A125A83900653E03E
:102EC100FD7F01125CCA7F5C125BCB900653E0FF71
:102ED100125BCB7F30125BCB7F04125CE08F4A1216
:102EE1005BCBE54A30E0137546017F33125BCB9033
:102EF1000653E0FF125BCB023002900653E0FFB4B1
:102F01000E08E54A30E403022FFFEF64047059E52F
:102F11004A30E244900657E0FFD39400403AEF94E0
:102F210020900654E0FBA3E0FAA3E0F9500A125CFA
:102F31003EE4900657F080167F20125C3E900657C3
:102F4100E024E0F0900655E475F0201224F87D04A9
:102F51007F04125CCA125A7FE54A30E60B9006578D
:102F6100E07005F546023002900653E0640C600300
:102F7100022ED4E54A30E245900657E0FFD3940093
:102F8100403BEFD394204023900654E0FBA3E0FAAA
:102F9100A3E0F97F20125C3E900657E024E0F09018
:102FA1000655E475F0201224F88008125C2EE49096
:102FB1000657F0125A7F7D047F04125CCAE54A303D
:102FC100E32630E623900657E0701D7F0A125CE08D
:102FD100EFD3942040127F20125BD174202548F555
:102FE100487D087F04125CCAE54A20E503022ED41D
:102FF100900657E06003022ED49006C404F0E4F575
:10300100467F32125BCB900653E0640C70767F34BE
:10301100125BCBE4F5487F0A125CE08F477F3512E3
:103021005BCBAF47125BCBAF47125BD17F36125BF5
:10303100CBE5472548F5487F0C125CE0EF5407F5D6
:10304100496028E54824FFFFE434FFFEEF7803C31D
:1030510033CE33CED8F97C002549FFEC3EF99006FA
:103061005BE0FBA3E0FAA3E0C98014E54875F00832
:10307100A4FF90065BE0FBA3E0FAA3E0F9E5F08F83
:10308100F01225247F31125BCB7D807F0C125A8395
:0C309100125CC67D807F0D125B04AF4610
:01309D002210
:06437D0090065312268495
:10438300E4F54AF54BF549F548F547F546E47FF87A
:104393007E34FDFC900653E0F8A3E0F9A3E0FAA312
:1043A300E0FB122543EF24FFFFEE34FFFEED34FF65
:1043B300FDEC34FFFCC006C007E54B25E0FFE54AF2
:1043C30033FEEF2401FFE43EAB07FAE4F9F8D0072C
:1043D300D0061225CE8F498E488D478C46E47FFF49
:1043E3007EFFFDFCAB49AA48A947A846C312266035
:1043F3004011054BE54B7002054AF47004E54A642D
:104403000F708AE549F549E548F548E4F547F5466F
:10441300E54AFD7F2A125A83E54BFD7F2B125CCAC6
:10442300AF49AE48AD47AC467808122671AD077F59
:104433002C125CCAE549FFAD077F2D125CCA7F00D1
:014443002256
:104AF100900649EFF0701C7D107F0C125A837D40A7
:104B01007F15125A83E4FD7F12125CCAE4FD7F1304
:104B1100125CCA900649E06401702A7D107F0C1274
:104B21005CCA7D837F12125CCA7D837F13125CCACB
:104B31007DF47F27125CCA7DF47F23125CCAE4FDF9
:104B41007F15125CCA900649E0640270387D107FBF
:104B51000C125CCA7D927F12125CCA7D967F131281
:104B61005CCA7DF47F27125CCA7D207F28125CCA53
:104B71007D4F7F23125CCA7D207F29125CCA7D078D
:084B81007F15125CCA7F0022BF
:100026007D0F7F01125CCA7D107F0C125A837F0CF4
:0D003600125CE0EF30E4037F00227F012226
:105C5900C2B37F017E00125740D2B37F017E00128A
:055C690057407F0022FE
:105B60007F01125CE0EF30E40A7D107F01125B04DC
:0D5B70007F01227D107F01125A837F0022E9
:0B5CBB00B2B330B3037F00227F012250
:0F5C9100EF2480FD7F0F125CCA7F0F125CE022B0
:105B7D00900633EDF0EF2440FD7F0F125CCA9006C6
:0D5B8D0033E024C0FD7F0F125CCA7F0022B0
:065CE6000084000008002C
:10360800900633EFF0A3EDF0A3EBF0A3EAF0A3E903
:01361800F0C1
:103619007D807F12125CCA7D807F13125CCAE4FD33
:103629007F0D125CCA7F647E007D007C0012437DA1
:103639007522E0900634E0F523540F90069DF09032
:103649000633E090069CF0125C6E9006577402F007
:10365900900638E0F9A3E0FAA3E0900658C9F0A370
:10366900EAF0A3E9F0A3E4F0A37400F0A37425F051
:103679007B007A0079227F0C122E738F21E521605D
:1036890003023756F524E526AE257803CEC313CEBB
:1036990013D8F9FF900635E0FBA3E0FAA3E0F9EFB0
:1036A90012246F900638E0FBA3E0FAA3E0F9122494
:1036B9002990069FF09000011224429006A0F05430
:1036C9000F9006A4F09006A0E030E61E900638A3FD
:1036D900A3E02402F9E43AFA7E00E92524F9EE3A56
:1036E900FA1224299006A1F005249006A0E030E5FD
:1036F90031900638E0FBA3E0FAA3E02402F9E43AAA
:10370900FA7E00E92524F9EE3AFA1224299006A254
:10371900F09006A5E4F09006A2E0540F9006A6F0FA
:1037290005249006A0E030E433900638E0FBA3E0DE
:10373900FAA3E02402F9E43AFA7E00E92524F9EE35
:103749003AFA1224299006A3F00524800F90063531
:0E375900E0FBA3E0FAA3E0F9E412246FAF2135
:01376700223F
:10491200900633EFF0A3EDF0A3EBF0A3EAF0A3E9E6
:01492200F0A4
:104923007F327E007D007C0012437D90069DE04433
:10493300D0F522900633E0F523125C6E900633E047
:1049430030E40BA3E0F5249006577403800590062A
:10495300577402F0900638E0F9A3E0FAA3E090065A
:1049630058C9F0A3EAF0A3E9F0A3E4F0A37400F0BC
:10497300A37425F07B007A0079227F0C122E738FAB
:1049830021E521701CE526AE257803CEC313CE1393
:10499300D8F9FF900635E0FBA3E0FAA3E0F9EF8036
:1049A3000C900635E0FBA3E0FAA3E0F9E412246FD0
:0249B300AF2132
:0149B50022DF
:0800030090069CE06401F0226C
:0B556000900633EBF0A3EAF0A3E9F0A3
:10556B0078227C007D007BFF7A5C79E67E007F05EC
:10557B00122403900633E0F9A3E0FAA3E090063D72
:10558B00C9F0A3EAF0A3E9F0900636E0F9A3E0FA3C
:10559B00A3E0900640C9F0A3EAF0A3E9F07B007A00
:0A55AB000079227F051238B98F2124
:0155B50022D3
:0E501500900633EFF0A3EBF0A3EAF0A3E9F06E
:105023007F647E007D007C0012437D900633E09018
:105033000657F090063AE0F9A3E0FAA3E090065889
:10504300C9F0A3EAF0A3E9F0A3E4F0A37400F0A38A
:105053007422F0900634E0FBA3E0FAA3E0F97F0C9E
:10506300122E738F21E521701CE523AE227803CE27
:10507300C313CE13D8F9FF900637E0FBA3E0FAA3DE
:10508300E0F9EF800C900637E0FBA3E0FAA3E0F928
:06509300E412246FAF21BE
:0150990022F4
:0E38B900900639EFF0A3EBF0A3EAF0A3E9F0DC
:1038C7007FF47E017D007C0012437D90069CE09092
:1038D700063930E354E0FF7E00A3E0FBA3E0FAA340
:1038E700E02402F9E43AA801FCAD0390063AA3A349
:1038F700E0F912283090069CE0FF90063AE0FBA31F
:10390700E0FAA3E0F9EF12246F90069DE0FF90061E
:103917003AE0FBA3E0FAA3E0F9900001EF1224815B
:10392700900639E02402F0803AE0FF7E00A3E0FB36
:10393700A3E0FAA3E02401F9E43AA801FCAD03905F
:10394700063AA3A3E0F912283090069CE0FF900600
:103957003AE0FBA3E0FAA3E0F9EF12246F900639EF
:10396700E004F0900639E0900657F0900640E0F941
:10397700A3E0FAA3E0900658C9F0A3EAF0A3E9F0A0
:10398700A3E4F0A37400F0A37428F090063AE0FBD8
:10399700A3E0FAA3E0F97F0C122E738F27E52770B7
:1039A7004A900640E0FBA3E0FAA3E0F9122429902D
:1039B700069CF054F0FFBFF013E030E305900002DF
:1039C700800390000112244290069EF0120003E546
:1039D70029AE287803CEC313CE13D8F9FF90063D3E
:1039E700E0FBA3E0FAA3E0F9EF800C90063DE0FBD3
:0C39F700A3E0FAA3E0F9E412246FAF276C
:013A030022A0
:0B42B200900633EBF0A3EAF0A3E9F064
:1042BD007F647E007D007C0012437D90069CE03083
:1042CD00E311540F44A0F521A3E0F5229006577495
:1042DD0002800F90069CE0540F44A0F521900657E4
:1042ED007401F0900636E0F9A3E0FAA3E0900658C9
:1042FD00C9F0A3EAF0A3E9F0A3E4F0A37400F0A3DE
:10430D007424F07B007A0079217F0C122E738F2399
:10431D00E523704A900636E0FBA3E0FAA3E0F9121C
:10432D00242990069CF054F0FFBFF013E030E30514
:10433D00900002800390000112244290069EF0121C
:10434D000003E525AE247803CEC313CE13D8F9FFB1
:10435D00900633E0FBA3E0FAA3E0F9EF800C9006A2
:0F436D0033E0FBA3E0FAA3E0F9E412246FAF23DF
:01437C00221E
:0E3E7100900633EFF0A3EBF0A3EAF0A3E9F024
:103E7F007FF47E017D007C0012437D900633E0FFCE
:103E8F0044C0F52190069CE030E323EF54F064F03A
:103E9F00700FA3E0F522A3E0F5239006577403807B
:103EAF002590069DE0F52290065774028018900623
:103EBF0033E054F0FFBFF00690069EE08001E4F57A
:103ECF00229006577402F0900637E0F9A3E0FAA3A8
:103EDF00E0900658C9F0A3EAF0A3E9F0A3E4F0A339
:103EEF007400F0A37425F07B007A0079217F0C1207
:103EFF002E738F24E524704A900637E0FBA3E0FA77
:103F0F00A3E0F912242990069CF054F0FFBFF013A0
:103F1F00E030E305900002800390000112244290EC
:103F2F00069EF0120003E526AE257803CEC313CE0E
:103F3F0013D8F9FF900634E0FBA3E0FAA3E0F9EF02
:103F4F00800C900634E0FBA3E0FAA3E0F9E412241E
:033F5F006FAF241D
:013F6200223C
:1055B600900633EFF07D707F12125B047D707F13CF
:1055C600125B04900633E014601514601D14602508
:1055D6002403702FE4FD7F12125A83E4FD801F7DA1
:1055E600107F12125A837D1080147D207F12125A6A
:1055F600837D2080097D307F12125A837D307F1390
:06560600125A837F00220E
:0E53D900900633EFF0A3EBF0A3EAF0A3E9F0A7
:1053E7007D807F12125CCA7D807F13125CCAE4FD48
:1053F7007F0D125CCA752230900633E0F5237F01DA
:105407007E007D007C0012437D9006577402F09069
:105417000634E0F9A3E0FAA3E0900658C9F0A3EA3E
:10542700F0A3E9F0A3E4F0A37400F0A37424F07BE5
:0C543700007A0079227F0C122E738F2166
:015443002246
:105215007522A28F23122429F5249000011224421D
:10522500F525900002122442F5269000031224422F
:10523500F5277F0A7E007D007C0012437D9006578E
:105245007406F0A3E4F0A37400F0A37428F0A3E4BB
:10525500F0A37400F0A37429F07B007A0079227F13
:105265000C122E738F21E528640A60047F018002E9
:105275007F00E52160047E0180027E00EE4F600321
:055285007F01227F0003
:01528A002201
:0B4A5500900633EBF0A3EAF0A3E9F0B9
:104A60007F057E007D007C0012437D90063C7450E3
:104A7000F0783D7C067D01900633E0FBA3E0FAA3CD
:104A8000E0F97E007F041224039006577405F0902D
:104A90000639E0F9A3E0FAA3E0900658C9F0A3EACA
:104AA000F0A3E9F0A37401F0A37406F0A37441F03D
:104AB0007B017A06793C7F0C122E73AD07ED701FD7
:104AC000900641E0FEA3E07803CEC313CE13D8F9DD
:104AD000FF900636E0FBA3E0FAA3E0F9EF800C902C
:104AE0000636E0FBA3E0FAA3E0F9E412246FAF0579
:014AF00022A3
:0B3A0400900633EBF0A3EAF0A3E9F01A
:103A0F007F057E007D007C0012437D90063D74058E
:103A1F00F0E4A3F0A37408F09006577403F0900637
:103A2F0036E0F9A3E0FAA3E0900658C9F0A3EAF054
:103A3F00A3E9F0A37401F0A37406F0A37440F07B24
:103A4F00017A06793D7F0C122E7390063CEFF060E1
:103A5F0003023B1B900640E0FEA3E07803CEC313A6
:103A6F00CE13D8F9FF900633E0FBA3E0FAA3E0F9F9
:103A7F00EF12246F900636E0FBA3E0FAA3E02401D7
:103A8F00F9E43AFAC003C002A3E0FBA3E0FAA3E013
:103A9F00F8AC02AD03D002D0037E007F04122403E2
:103AAF00900636E0FBA3E0FAA3E02406F9E43AFA25
:103ABF00C003C002C001A3E0FBA3E0FAA3E024040B
:103ACF00F9E43AA801FCAD03D001D002D0037E0087
:103ADF007F04122403900636E0FBA3E0FAA3E02450
:103AEF000AF9E43AFAC003C002C001A3E0FBA3E065
:103AFF00FAA3E02408F9E43AA801FCAD03D001D001
:103B0F0002D0037E007F03122403800F900633E060
:103B1F00FBA3E0FAA3E0F9E412246F90063CE0FF68
:013B2F002273
:0B3B3000900633EBF0A3EAF0A3E9F0ED
:103B3B007F057E007D007C0012437D90063D740561
:103B4B00F0E4A3F0A3F09006577403F0900636E070
:103B5B00F9A3E0FAA3E0900658C9F0A3EAF0A3E9B1
:103B6B00F0A37401F0A37406F0A37440F07B017A08
:103B7B0006793D7F0C122E7390063CEFF06003022A
:103B8B003C45900640E0FEA3E07803CEC313CE1372
:103B9B00D8F9FF900633E0FBA3E0FAA3E0F9EF12AC
:103BAB00246F900636E0FBA3E0FAA3E02401F9E4CE
:103BBB003AFAC003C002A3E0FBA3E0FAA3E0F8AC1F
:103BCB0002AD03D002D0037E007F041224039006C3
:103BDB0036E0FBA3E0FAA3E02406F9E43AFAC003CB
:103BEB00C002C001A3E0FBA3E0FAA3E02404F9E4C4
:103BFB003AA801FCAD03D001D002D0037E007F04B4
:103C0B00122403900636E0FBA3E0FAA3E0240AF9A2
:103C1B00E43AFAC003C002C001A3E0FBA3E0FAA39D
:103C2B00E02408F9E43AA801FCAD03D001D002D09E
:103C3B00037E007F03122403800F900633E0FBA367
:0E3C4B00E0FAA3E0F9E412246F90063CE0FFDB
:013C59002248
:0B467B00900633EBF0A3EAF0A3E9F097
:104686007F057E007D007C0012437D90063C741DF4
:10469600F0783D7C067D01900633E0FBA3E0FAA3AB
:1046A600E0F97E007F04122403E4900641F0A3742F
:1046B60008F0A37401F0A3F09006577409F0900671
:1046C60039E0F9A3E0FAA3E0900658C9F0A3EAF0AE
:1046D600A3E9F0A37401F0A37406F0A37445F07B7C
:1046E600017A06793C7F0C122E73AD07ED701F9090
:1046F6000645E0FEA3E07803CEC313CE13D8F9FF38
:10470600900636E0FBA3E0FAA3E0F9EF800C9006F2
:0F47160036E0FBA3E0FAA3E0F9E412246FAF054D
:014725002271
:0B4DE200900633EBF0A3EAF0A3E9F029
:104DED007F057E007D007C0012437DE4900639F046
:104DFD00A37436F0E4A3F0A3F0A37408F090065763
:104E0D007405F0900636E0F9A3E0FAA3E090065899
:104E1D00C9F0A3EAF0A3E9F0A37401F0A37406F0BE
:104E2D00A3743EF07B017A0679397F0C122E73AD97
:104E3D0007ED701F90063EE0FEA3E07803CEC3138E
:104E4D00CE13D8F9FF900633E0FBA3E0FAA3E0F907
:104E5D00EF800C900633E0FBA3E0FAA3E0F9E41237
:044E6D00246FAF05FA
:014E7100221E
:065CEC000600FFFF0000AE
:0E404200900633EFF0A3EBF0A3EAF0A3E9F051
:10405000783C7C067D017BFF7A5C79EC7E007F06F4
:10406000122403900633E0FF601664016012EF64CF
:1040700003600DEF64076008EF640F60037F0122A7
:10408000900633E0900641F07F0A7E007D007C00C0
:1040900012437D9006577406F0900637E0F9A3E0CE
:1040A000FAA3E0900658C9F0A3EAF0A3E9F0A374DC
:1040B00001F0A37406F0A3743AF07B017A06793C10
:1040C0007F0C122E73EF704090063AE0FEA3E0786A
:1040D00003CEC313CE13D8F9FF900634E0FBA3E060
:1040E000FAA3E0F9EF12246F900637E0FBA3E0FAA1
:1040F000A3E02402F9E43AFA78BC7C067D017E0054
:104100007F081224037F0022900634E0FBA3E0FA2C
:09411000A3E0F9E412246F7F0121
:014119002283
:1035E9005B067101020304050607080901020304C9
:0E35F900050607080901020304050607080974
:10125700E50964016003021B67E50A6003021B6777
:10126700F50990037EE0FBA3E0FAA3E0F9E412247A
:101277006F90037EE0FBA3E0FAA3E0F912242912A2
:1012870026901B670012FF01130502130B0313348B
:1012970004137E0513AF06140907145F08146509C4
:1012A700146B0A14AD0B14F70C14FD1015A51115CA
:1012B700D912162013164B14166A1516951616AD65
:1012C7001716D11816F02017442117982217B023A4
:1012D70017EF24182A2518772618D6271911311938
:1012E700623219A23319E2341A1D351A6E521AA93D
:1012F700531ADB6000001B53120026021AC5125C4A
:1013070059021AC5900383E0FBA3E0FAA3E0240186
:10131700F9E43AFA125875900383E0FBA3E0FAA3C5
:10132700E0F9EF12246F9003827441F02290038357
:10133700E0FBA3E0FAA3E0F9E412246F90037EE058
:10134700FBA3E0FAA3E0F9900001122442FF900307
:1013570083E0FBA3E0FAA3E0F9900001EF122481F8
:1013670090037EE0FBA3E0FAA3E0F99000011224CA
:1013770042FF125CE0807990037EE0FBA3E0FAA3D2
:10138700E0F9900001122442FF900002122442FD6E
:10139700125CCA900383E0FBA3E0FAA3E0F9E4122E
:1013A700246F90038204F022900383E0FBA3E0FA0A
:1013B700A3E0F9E412246F90037EE0FBA3E0FAA315
:1013C700E0F9900001122442FF900383E0FBA3E0C1
:1013D700FAA3E0F9900001EF12248190037EE0FB6D
:1013E700A3E0FAA3E0F9900001122442FF125C91F6
:1013F700900383E0FBA3E0FAA3E0F9900002EF0279
:1014070014ED90037EE0FBA3E0FAA3E0F99000015E
:10141700122442FF900002122442FD125B7D9003CA
:1014270083E0FBA3E0FAA3E0F9EF12246F90037EB9
:10143700E0FBA3E0FAA3E0F9900001122442FF9039
:101447000383E0FBA3E0FAA3E0F9900001EF122485
:10145700819003827402F022125CBB021AC5125BF0
:1014670060021AC57F0312528BE4FF124AF17B0117
:101477007A06798C124C20900383E0FBA3E0FAA351
:10148700E0F9EF12246F90068CE0FF900383E0FBF6
:10149700A3E0FAA3E0F9900001EF12248190068DF2
:1014A700E090000280407F0312528BE4FF124AF162
:1014B7007B017A06798C124CB7900383E0FBA3E09B
:1014C700FAA3E0F9EF12246F90068CE0FF900383F4
:1014D700E0FBA3E0FAA3E0F9900001EF122481906A
:1014E700068DE09000021224819003827403F0229B
:1014F70012550A021AC57F0312528BE4FF124AF1F2
:101507007B017A06798C122BCC900383E0FBA3E056
:10151700FAA3E0F9EF12246F900383E0FBA3E0FA4C
:10152700A3E02401F9E43AA801FCAD037B017A06A4
:10153700798C7E007F02122403900383E0FBA3E0F3
:10154700FAA3E02403F9E43AA801FCAD037B017A8E
:1015570006798E7E007F01122403900383E0FBA3AC
:10156700E0FAA3E02404F9E43AA801FCAD037B0107
:101577007A06798F7E007F0C122403900383E0FBA9
:10158700A3E0FAA3E02410F9E43AA801FCAD037B39
:10159700017A06799B7E007F0112240380749003F1
:1015A7007EE0FBA3E0FAA3E0F9900001122442FFDA
:1015B700900002122442FDE92403F9E43AFA900666
:1015C7004E7401F0A37406F0A3748FF01245C8029D
:1015D7001AC590037EE0FBA3E0FAA3E0F9900002AE
:1015E70012244225E025E0FF9000011224422FFF3C
:1015F700900383E0FBA3E0FAA3E02401F9E43AFABD
:10160700124E72900383E0FBA3E0FAA3E0F9EF1216
:10161700246F9003827411F02290037EE0FBA3E015
:10162700FAA3E0F990000212244225E025E0FF909A
:1016370000011224422FFFE92403F9E43AFA124485
:1016470044021AC590037EE0FBA3E0FAA3E0F990F9
:101657000001122442FFE92402F9E43AFA1247CAC8
:10166700021AC590037EE0FBA3E0FAA3E0F990001D
:101677000212244225E025E0FF9000011224422FA8
:10168700FFE92403F9E43AFA12486E021AC59003F7
:101697007EE0FBA3E0FAA3E0F9900001122442FFE9
:1016A700125444021AC590037EE0FBA3E0FAA3E0BC
:1016B700F990000212244225E025E0FF9000011274
:1016C70024422FFF1249B6021AC590037EE0FBA3FE
:1016D700E0FAA3E0F9900001122442FFE92402F99D
:1016E700E43AFA1254A8021AC590037EE0FBA3E07D
:1016F700FAA3E0F9900001122442FF90000212249D
:1017070042FD900383E0FBA3E0FAA3E02401F9E4A0
:101717003AFAC003C002C001900383A3E0FAA3E032
:101727002402F9E43AFA900638EBF0A3EAF0A3E9C9
:10173700F0D001D002D003123608021B2F90037E8F
:10174700E0FBA3E0FAA3E0F9900001122442FF9026
:101757000002122442FD900383E0FBA3E0FAA3E01A
:101767002401F9E43AFAC003C002C001900383A33D
:10177700E0FAA3E02402F9E43AFA900638EBF0A382
:10178700EAF0A3E9F0D001D002D003124912021BFC
:101797002F90037EE0FBA3E0FAA3E0F9900001128B
:1017A7002442FF1255B6021AC5900383E0FBA3E05B
:1017B700FAA3E02401F9E43AFA900637EBF0A3EA3A
:1017C700F0A3E9F0900383A3E0FAA3E02402F9E48D
:1017D7003AFA90063AEBF0A3EAF0A3E9F07B017A34
:1017E7000679717F19025015900383E0FBA3E0FA95
:1017F700A3E02401F9E43AFAC003C002C001900350
:1018070083A3E0FAA3E02402F9E43AFA900636EB60
:10181700F0A3EAF0A3E9F0D001D002D0031242B25C
:10182700021B2F90037EE0FBA3E0FAA3E0F99000F0
:1018370001122442FF900383E0FBA3E0FAA3E02414
:1018470001F9E43AFAC003C002C001900383A3E0A0
:10185700FAA3E02402F9E43AFA900637EBF0A3EA98
:10186700F0A3E9F0D001D002D003123E71021B2F82
:1018770090037EE0FBA3E0FAA3E0F99000011224B5
:1018870042FFE92402F9E43AFAC003C002C001901A
:101897000383E0FBA3E0FAA3E02401F9E43AFA901A
:1018A700063DEBF0A3EAF0A3E9F0900383A3E0FA87
:1018B700A3E02402F9E43AFA900640EBF0A3EAF039
:1018C700A3E9F0D001D002D0031238B9021B2F9040
:1018D7000383E0FBA3E0FAA3E02401F9E43AFAC0AA
:1018E70003C002C001900383A3E0FAA3E02402F936
:1018F700E43AFA900636EBF0A3EAF0A3E9F0D00158
:10190700D002D003125560021B2F7F0312528B7F28
:1019170001124AF1900383E0FBA3E0FAA3E024015C
:10192700F9E43AFAC003C002C001900383A3E0FAC6
:10193700A3E02402F9E43AFA900636EBF0A3EAF0C2
:10194700A3E9F0A37401F0A37406F0A374A7F0D081
:1019570001D002D003123B30021B2F900383E0FB20
:10196700A3E0FAA3E02401F9E43AFA900636EBF093
:10197700A3EAF0A3E9F0900383A3E0FAA3E024022B
:10198700F9E43AFA900639EBF0A3EAF0A3E9F07B21
:10199700017A0679A712467B021B2F900383E0FB8F
:1019A700A3E0FAA3E02401F9E43AFA900636EBF053
:1019B700A3EAF0A3E9F0900383A3E0FAA3E02402EB
:1019C700F9E43AFA900639EBF0A3EAF0A3E9F07BE1
:1019D700017A0679A7124A55021B2F900383E0FB71
:1019E700A3E0FAA3E02401F9E43AFAC003C002C075
:1019F70001900383A3E0FAA3E02402F9E43AFA9002
:101A07000636EBF0A3EAF0A3E9F0D001D002D00349
:101A1700124DE2021B2F7F0312528B7F01124AF1F4
:101A2700900383E0FBA3E0FAA3E02401F9E43AFA88
:101A3700C003C002C001900383A3E0FAA3E024021D
:101A4700F9E43AFA900636EBF0A3EAF0A3E9F0A33B
:101A57007401F0A37406F0A374A7F0D001D002D0EC
:101A670003123A04021B2F90037EE0FBA3E0FAA3C4
:101A7700E0F9900001122442FF900383E0FBA3E00A
:101A8700FAA3E02401F9E43AFA1253D9900383E068
:101A9700FBA3E0FAA3E0F9EF12246F900382740529
:101AA700F02290037EE0FBA3E0FAA3E0F9900001A7
:101AB700122442FFE92402F9E43AFA12521590037C
:101AC70083E0FBA3E0FAA3E0F9EF12246F9003820F
:101AD7007401F0227F0312528B7F02124AF19003A6
:101AE7007EE0FBA3E0FAA3E0F9900001122442FF95
:101AF700900383E0FBA3E0FAA3E02401F9E43AFAB8
:101B0700C003C002C001900383A3E0FAA3E024024C
:101B1700F9E43AFA900637EBF0A3EAF0A3E9F0D03C
:101B270001D002D003124042900383E0FBA3E0FA06
:101B3700A3E0F9EF12246F900383E0FBA3E0FAA37D
:101B4700E0F990000112244224028010900383E000
:101B5700FBA3E0FAA3E0F9740112246F900382F06B
:011B6700225B
:0C56B500C2B61256C1C2B51256C1D2B620
:1056C10000000000000000000000000000000000D9
:1056D10000000000000000000000000000000000C9
:1056E10000000000000000000000000000000000B9
:0B56F10000000000000000000000228C
:105AE400D2B5D2B61256C120B5037F0022C2B51278
:105AF40056C130B5037F0022C2B51256C17F0122C0
:085CD0001256B5D2B50256C10F
:085CD8001256B5C2B60256C116
:0F5CA000C2B61256C1D2B51256BCC2B60256C118
:0D5A1400EAFF125A5C125A21AF03125A5CCD
:105A2100C2B61256C1D2B51256BC30B505C2B67F48
:075A31000022C2B67F012232
:105A5C007E08AD061EED6018C2B61256C1EF30E7D7
:105A6C0004D2B58002C2B5EF25E0FF1256BC80E22D
:025A7C00C2B6B0
:015A7E002205
:105AA1007F08E4FED2B5AD071FED6011EE25E0FEE3
:105AB100C2B61256BC30B5EE4401FE80E9C2B6AFA3
:015AC10006DE
:015AC20022C1
:105B2300E49002F3F09002F3E0D3943C500E125A47
:0F5B3300E47FAE125A5C125A21EF60E9025CD097
:10536B00E0FF9006C5F09006B2E0FBA3E0FAA3E0E5
:0C537B00F9A3E0FCA3E0FDEF90063DF07C
:1053870090063BECF0A3EDF0125AE4EF7002FF2217
:105397007FAE125A5C125A2190063BE0FF125A5C0C
:1053A700125A2190063BA3E0FF125A5C125A219031
:1053B700063DE0FF14F0EF6013122429FF125A5C38
:1053C700125A21740129F9E43AFA80E3125CD07F7A
:0253D7000122B1
:10329F009006B2EBF0A3EAF0A3E9F0A3ECF0A3EDF4
:0132AF00F02E
:1032B000E49006B9F0A3F0A3F0ED540FFFC374102F
:1032C0009FF09006B7E0FCA3E0FDECC4F854F0C812
:1032D000EDC4540F48A3F0ED540FA3F0EF706F90BE
:1032E00006B9E0700CA312536BEF7002FF22023498
:1032F000769006B9E0FF14F0EF603E9006C57410BA
:10330000F09006B2E0FBA3E0FAA3E0F9A3E0FCA38F
:10331000E0FD7410125383EF7002FF22125B2390C2
:1033200006B6E02410F09006B5E03400F09006B345
:10333000E475F0101224F880B89006BAE0FF70032C
:1033400002347912536DEF7002FF22023476900638
:10335000B9E070739006BBE0FFFDD39006B8E09D26
:103360009006B7E0940040519006C5EF125370EFFD
:103370007002FF22125B239006B7A3E0FF9006BB0A
:10338000E0FEC3EF9E9006C5F09006B2E0FBA3E01E
:10339000FAA3E0F9EEFF7E00E92FF9EE3AFA900683
:1033A000B6E02FFD9006B5E03EFC9006C5E0125356
:1033B00083EF7002FF220234769006BA12536BEF4D
:1033C0007002FF220234769006BBE0FDFFC3900638
:1033D000B8E09FF09006B7E09400F0E0FAA3E0FBBD
:1033E000EAC4F854F0C8EBC4540F48A3F0EB540FF0
:1033F000A3F0ED602612536DEF7002FF22125B23E3
:103400009006BBE0FF7E009006B6E02FF09006B578
:10341000E03EF09006B3EE8FF080479006B9E0FFF3
:1034200014F0EF60429006C57410F09006B2E0FB15
:10343000A3E0FAA3E0F9A3E0FCA3E0FD90063D744D
:1034400010F0125387EF7002FF22125B239006B632
:10345000E02410F09006B5E03400F09006B3E47577
:10346000F0101224F880B49006BAE0FF600B1253FB
:0B3470006DEF7002FF22125B237F0152
:01347B00222E
:105AC3007B017A067938AD07AC0690066FE4F0A344
:105AD30004F012509AEF6006900638E0FF227F0030
:015AE30022A0
:10597E00AB07AA06AC05125AE4EF7002FF227FAE07
:10598E00125A5C125A21125A14AF04125A5C125A4D
:07599E0021125CD07F012201
:10509A0090066AEBF0A3EAF0A3E9F0AB05AA0412C2
:1050AA005AE4EF7002FF227FAE125A5C125A21EFC5
:1050BA007005125CD0FF22125A14125AE47FAF1202
:1050CA005A5C125A2190066FE07002A3E060401207
:1050DA005AA190066AE0FBA3E0FAA3E0F9EF1224D2
:1050EA006F90066FE07004A3E064017005125CA083
:1050FA008003125CD890066BE475F0011224F890D4
:10510A000670E024FFF090066FE034FFF080B612DC
:05511A005CD07F0122C2
:105BE90090066FE4F0A3EFF07DF07CFF12509AEF7E
:085BF90060037F01227F0022FE
:085B9A00E0FBA3E0FAA3E0F92F
:105BA20090063DEDF07DF07CFF125387EF60037F9E
:055BB20001227F00222A
:105A38007D447FFA7EFF12597E7D077FFB7EFF1231
:105A4800597E7D037FFD7EFF12597E7DFF7FF17EAB
:045A5800FF02597E72
:10450900900633EEF0A3EFF0A3EBF0A3EAF0A3E9F2
:10451900F0D3EF9420EE9400900635E0FBA3E0FA87
:10452900A3E0F95013900633A3E0FD125BA2E490D7
:104539000633F0A3F00245BC7D20125BA29006343D
:10454900E024E0F0900633E034FFF0900636E4759D
:10455900F0201224F8805CD3900634E09400900691
:1045690033E0940040587FF27EFF125AC3EF543F64
:10457900D39408503E900633E0FEA3E0FF9418EE72
:104589009400500FA3AD07125B9AE4900633F0A391
:10459900F080209006357D18125B9A900634E0244D
:1045A900E8F0900633E034FFF0900636E475F01831
:0E45B9001224F87D557FF47EFF12597E809902
:0145C70022D1
:105661000A41542B5645520A0041542B5645520AC1
:10567100000A41542B4E414D450A0041542B4E41E5
:105681004D450A0052462D424C45342E30004F4BB9
:10569100000A41542B4D41430A0041542B4D4143D3
:1056A1000A0041542B4E414D4552462D424C453442
:0456B1002E300A008D
:0B3D7900900645EBF0A3EAF0A3E9F090
:103D84001224297002FF22E490064DF0A3F0A3F060
:103D9400A3F090064BE0FEA3E0FFC390064EE09F25
:103DA40090064DE09E4003023E6E900645E0FBA364
:103DB400E0FAA3E0F990064FE0FEA3E0F5828E83DB
:103DC400122442FF900651F0900648E0FBA3E0FA6B
:103DD400A3E0F990064DE0FCA3E0F5828C83122465
:103DE400426F707290064DE0FEA3E0FFD390064C44
:103DF400E09F90064BE09E4056900645E0FBA3E012
:103E0400FAA3E0F990064FE0FCA3E0F5828C83125C
:103E14002442900651F0700890064DA3E004FF225E
:103E2400900648E0FBA3E0FAA3E0F98F828E8312A8
:103E34002442FD900651E0B505150FBF00010E9018
:103E44000650E004F070A590064FE004F0809DE475
:103E540090064FF0A3F090064EE004F06003023D9C
:0C3E64009690064DE004F0023D967F00B1
:013E7000222F
:10309E0078337C067D017BFF7A5679A37E007F1202
:1030AE00122403C282E4900297F0900297E0C39438
:1030BE000540F7D282E4900297F0900297E0C39415
:1030CE000540F7C284E4900297F0900297E0C39413
:1030DE000540F7E49002E3F09002E1F0900002F078
:1030EE00A3F07BFF7A567961FDFC1257FD7BFF7AC8
:1030FE0056796AE4FDFC125839E4900297F090027A
:10310E0097E0C3940540F7E49002E3F07B017A0167
:10311E0079CD900002E0FCA3E0FD1257FDE4900093
:10312E0002F0A3F07F0D1258EC7F0A1258ECE490D7
:10313E0002E3F09002E1F0900002F0A3F07BFF7A40
:10314E00567972FDFC1257FD7BFF7A56797CE4FDB1
:10315E00FC125839E4900297F09006487401F0A3DF
:10316E007401F0A374CDF0900002E0FFA3E090068E
:10317E004BCFF0A3EFF07BFF7A567985123D79EFB6
:10318E007009900297E0D3940F40CEE49002E3F0E2
:10319E007B017A0179CD900002E0FCA3E0FD12578D
:1031AE00FDE4900002F0A3F0900297E0D3940F504C
:1031BE0003023247E49002E3F09002E1F090000245
:1031CE00F0A3F07F0D1258EC7F0A1258EC7B017AB7
:1031DE00067933E4FDFC1257FD7B017A067933E460
:1031EE00FDFC125839E4900297F09006487401F0F5
:1031FE00A37401F0A374CDF0900002E0FFA3E09061
:10320E00064BCFF0A3EFF07BFF7A56798F123D7904
:10321E00EF7009900297E0D3940F40CEE49002E352
:10322E00F07B017A0179CD900002E0FCA3E0FD1263
:10323E0057FDE4900002F0A3F0E49002E3F0900258
:10324E00E1F0900002F0A3F07BFF7A567992FDFC3C
:10325E001257FD7BFF7A56799BE4FDFC125839E438
:10326E00900297F0900297E0C3940540F7E4900225
:10327E00E3F07B017A0179CD900002E0FCA3E0FD42
:10328E001257FDE4900002F0A3F09002E1F0D28418
:01329E00220D
:1059CB00AB07ECF5C3AF058FC475C783AF038FC5AA
:1059DB0075C65A75C6A500E4F5C5F5C6F5C775C4F9
:0559EB00FF75C3FF225F
:03000000024EFEAF
:0C4EFE00787FE4F6D8FD75814F024F4527
:10233300E709F608DFFA8046E709F208DFFA803E8C
:1023430088828C83E709F0A3DFFA8032E309F60879
:10235300DFFA8078E309F208DFFA807088828C83E1
:10236300E309F0A3DFFA806489828A83E0A3F60895
:10237300DFFA805889828A83E0A3F208DFFA804C6F
:1023830080D280FA80C680D4806980F28033801046
:1023930080A680EA809A80A880DA80E280CA8033AF
:1023A30089828A83ECFAE493A3C8C582C8CCC58327
:1023B300CCF0A3C8C582C8CCC583CCDFE9DEE780F7
:1023C3000D89828A83E493A3F608DFF9ECFAA9F076
:1023D300EDFB2289828A83ECFAE0A3C8C582C8CCCC
:1023E300C583CCF0A3C8C582C8CCC583CCDFEADEE5
:1023F300E880DB89828A83E493A3F208DFF980CC47
:1024030088F0EF60010E4E60C388F0ED2402B4043F
:102413000050B9F582EB2402B4040050AF232345E6
:0624230082239023837365
:10242900BB010689828A83E0225002E722BBFE02B1
:09243900E32289828A83E49322E4
:10244200BB010CE58229F582E5833AF583E022504F
:1024520006E92582F8E622BBFE06E92582F8E22299
:0D246200E58229F582E5833AF583E49322B3
