:105B0900759850E4F587438E40538EFE53890F757F
:0E5B19008BE8758DFFC2ABD28ED2ACD2AF221C
:105B7E00900663E0FBA3E475F00112250EA9F0FA7E
:045B8E00122429FFB5
:065B9200900666EFF02210
:10575900900663EBF0A3EAF0A3E9F0ED4C701D901D
:105769000663E0FBA3E0FAA3E0F9122429601CB464
:105779000A057F0D125B92125B7E80E3ED1DAE047C
:0C57890070011C4E6005125B7E80F12256
:10589F00900645E0FBA3E475F00112250EA9F0FA7E
:0458AF00122429FF97
:1058B300C2ACD297C299309F05EFA2D0929B8F9929
:0A58C3003099FDC299C297D2AC22C1
:10579500900645EBF0A3EAF0A3E9F0ED4C701D90FF
:1057A5000645E0FBA3E0FAA3E0F9122429601CB446
:1057B5000A057F0D1258B312589F80E3ED1DAE0404
:0C57C50070011C4E600512589F80F122FC
:1058CD00900645E0FBA3E475F00112250EA9F0FA50
:0458DD00122429FF69
:1058E10053AFFE539AFD8F9BE59A30E1FB539AFD2E
:0458F10043AF01229E
:1057D100900645EBF0A3EAF0A3E9F0ED4C701D90C3
:1057E1000645E0FBA3E0FAA3E0F9122429601CB40A
:1057F1000A057F0D1258E11258CD80E3ED1DAE046C
:0C58010070011C4E60051258CD80F12291
:10000E0053BAFE759A5075D7E875D6FF438E1443D2
:05001E00AF01D2AF228A
:104AC5000AB5E3B3AED4B10A000AB8B4BACFD4B1CB
:104AD5000A000AB1E0D2EBCAB1BCE432303138C4C5
:104AE500EA3131D4C23237C8D50A004943435F742D
:104AF5007970653D307800464D31315F4F4B0A0086
:104B0500B3B5C5C6CABEDDB4EDCEF30A00D0D5C374
:104B1500FBCABEDDB4EDCEF30A00786F723D0063CB
:104B250072633D0A00BFA8C4DAC8DDBFD50A0046D6
:104B35004D31375F4F4B0A00C0B6D1C0D6DC0000FF
:104B45000000000000000000000000000000000060
:084B5500000000000000000058
:10347C004102E9004102D200410295004102EB0AEF
:10348C004102F3004602AAFFFFFFFFFFFF610100AC
:10349C0004B2D9D7F7D4B13A2000000000000000E4
:1034AC000000000000000000000000000000000010
:1034BC000000000000000000000000000000000000
:1034CC0000000000000000000000000000000000F0
:1034DC0000000000000000000000000000000000E0
:1034EC0000000000000000000000000000000000D0
:1034FC0000000000000000000000000000000000C0
:10350C0000000000000000000000000000000000AF
:10351C00000000000000000000000000000000009F
:10352C00000000000000000000000000000000008F
:10353C00000000000000000000000000000000007F
:10354C00000000000000000000000000000000006F
:10355C00000000000000000000000000000000005F
:10356C00000000000000000000000000000000004F
:10357C00000000000000000000000000000000003F
:10358C00000000000000000000000000000000002F
:10359C0000004602EDC8F0B7E51813410296004151
:1035AC00035A004102B0004102980041029700C149
:1035BC00024102F5004102F40041035B004102EAC2
:1035CC000051029930313233343536373839414273
:0935DC0043444546004102EC00A5
:045CB50075C135225E
:104F5F009005A4E0FFFCA3E0FD9005A2E0FAA3E01A
:104F6F00FBC39DFDEA9CFC74AB2DF58274053CF5EB
:104F7F0083EFF09005A4A3E0FF74AC2DF5827405C8
:104F8F003CF583EFF0EB24F8EA34FF9005B3F0EB38
:104F9F0024F8A3F07B017A0579AD9005A2E0FCA37C
:024FAF00E0FD23
:104FB10090063EEBF0A3EAF0A3E9F0A3ECF0A3ED39
:014FC100F0FF
:104FC200E4FF90064174FFF5F012250E45F06017DC
:104FD20090063EE0FBA3E475F00112250EA9F0FA5B
:074FE2001224296FFF80DBA0
:014FE90022A5
:0856D10090063CEEF0A3EFF09F
:1056D900E4FBFAFCED6AFEEE30E71CEBAE02780162
:1056E900088005C333CE33CED8F9FF90063CE06E6F
:1056F900FAA3E06FFB8007EB25E0FBEA33FAED251F
:0B570900E0FD0CECB408CDAE02AF03D5
:015714002272
:1050F4009002B1F07A0279B17B01900638E4F0A312
:07510400741EF07F057E80A0
:10510B00900633EEF0A3EFF0A3EBF0A3EAF0A3E9E4
:01511B00F0A3
:10511C00E490063AF0A3F090063874FFF5F01225EF
:10512C000E45F0603A90063AE0FF900635E0FBA39E
:10513C00E475F00112250EA9F0FA1224296FFD90E6
:10514C000633E0FEA3E0FF1256D1AC06AD07900685
:10515C003BE06CFFED90063ACFF0A3EFF080B890F7
:07516C00063AE0FEA3E0FF9C
:015173002219
:10584100125C727F327E00125852125C727F327E7D
:015851000056
:10585200D3EF9400EE940040147D6E7C00ED1D7039
:0D586200011CED4C70F7EF1F70E61E80E397
:01586F002216
:1040EE00E4900637F0A37402F07B01A314F0A374DE
:0C40FE0002F0A374F6F07A0279EDE4FF02
:10410A00900633EFF0A3EBF0A3EAF0A3E9F0A3E003
:10411A00D3648094835009A3E0FE6480948F4003A3
:10412A007F0022EE25E025E0FF900637E02FF07FA2
:10413A0003125260E4FF124B5D7B017A06798C12FE
:10414A002BCC900383E0FBA3E0FAA3E0F9EF12245F
:10415A006F900383E0FBA3E0FAA3E0F9122429702D
:10416A0048900633E0FF900638E0FD90064E740151
:10417A00F0A37406F0A3748FF0900634E0FBA3E07A
:10418A00FAA3E0F912459CEF701D900637E0FF9004
:10419A000639E0FBA3E0FAA3E0F9124418EF70092C
:1041AA00FF1252607F01228000E4FF1252607F00FA
:0141BA0022E2
:1041BB00E4900644F0A304F0A3F0A37400F0A374FE
:0A41CB0004F07B017A0279EDE4FFB5
:1041D500900640EFF0A3EBF0A3EAF0A3E9F0A3E02B
:1041E500D3648094835009A3E0FE6480948F4003D8
:1041F5007F0022EE25E025E0FF900644E02FF07FCA
:1042050003125260E4FF124B5D7B017A06798C1232
:104215002BCC900383E0FBA3E0FAA3E0F9EF122493
:104225006F900383E0FBA3E0FAA3E0F91224297061
:1042350048900640E0FF900645E0FD90064E74016B
:10424500F0A37406F0A3748FF0900641E0FBA3E0A1
:10425500FAA3E0F912459CEF701D900644E0FF902B
:104265000646E0FBA3E0FAA3E0F9124E47EF70091A
:10427500FF1252607F01228000E4FF1252607F002E
:014285002216
:0E376800900633EFF0A3EBF0A3EAF0A3E9F034
:10377600E490063EF0A3F090063CE0C4F854F0C88E
:1037860068FEA3E0C4540F48FFC390063FE09F9035
:10379600063EE09E4003023822900637E0FF33954E
:1037A600E0FE90063EE0FCA3E0FD2FFFEC3EFEEFC0
:1037B6005403900644F0EF7802CEC313CE13D8F923
:1037C600FF900638E02F900645F0EDC4F8540FC878
:1037D60068FFECC454F048FE900639E0FBA3E0FA1B
:1037E600A3E02FF9EA3EFA900646EBF0A3EAF0A32F
:1037F600E9F0900634E0FBA3E0FAA3E0F990063383
:10380600E0FF1241D5EF601490063FE004F060033C
:1038160002377D90063EE004F002377D90063CE0DC
:10382600FCA3E0FDECC4F854F0C868FEEDC4540FE8
:1038360048FFA3E06E7003A3E06F7074ED540F6051
:103846006C900637E0FF3395E0FE90063EE0FCA361
:10385600E0FD2FFFEC3EFEEF5403900644F0EF78B8
:1038660002CEC313CE13D8F9FF900638E02F900688
:1038760045F0EDC4F8540FC868FFECC454F048FE98
:10388600900639E0FBA3E0FAA3E02FF9EA3EFA90AE
:103896000646EBF0A3EAF0A3E9F0900634E0FBA3BA
:1038A600E0FAA3E0F9900633E0FF0241D57F01225A
:0238B6007F0091
:0138B80022ED
:0B285800900593EBF0A3EAF0A3E9F079
:10286300900599E024FE602C046003022BCB9005B5
:102873009AE599F0900000E0FFA3E090059BCFF06C
:10288300A3EFF09002D3E0FFA3E090059DCFF0A368
:10289300EFF0807A90059AE59BF0900002E0FFA3A9
:1028A300E090059BCFF0A3EFF09002D5E0FFA3E00B
:1028B30090059DCFF0A3EFF020845390059AE0FF9D
:1028C300900593E0FBA3E0FAA3E0F990059BE47580
:1028D300F00112250E85F082F583EF122481900515
:1028E3009BE0FFA3E0900002CFF0A3EFF0900596EA
:1028F300E0FBA3E0FAA3E0F9900003740112248142
:10290300900002E4122481900001E40224819005E6
:102913009AE0FF900593E0FBA3E0FAA3E0F99005AA
:102923009BE0FCA3E0FDF5828C83EF1224819005EC
:1029330096E0FBA3E0FAA3E0F9C003C002C00112D2
:102943002429FF900593E0FBA3E0FAA3E0F98D822D
:102953008C831224426FD001D002D00312246F90D3
:102963000596E0FBA3E0FAA3E0F9900008122442E5
:102973007027900593E0FBA3E0FAA3E0F990059B91
:10298300E0FEA3E0F5828E83122442FF90059EE0D1
:102993002FF090059DE03400F090059CE004F0706A
:1029A3000690059BE004F090059BE07004A3E064AF
:1029B30001707A900593E0FBA3E0FAA3E0F91224F7
:1029C30029FF900596E0FBA3E0FAA3E0F9EF1224B8
:1029D3006F900593E0FBA3E0FAA3E0F9122429FF2B
:1029E300FD90059DE4F0A3EDF0900596E0FBA3E0D8
:1029F300FAA3E0F9900008E4122481900003740123
:102A0300122481900002E4122481900001E4122434
:102A130081EF24E27002803C900596E0FBA3E0FA8C
:102A2300A3E0F9900003E4122481022B5390059B49
:102A3300E0FEA3E0FF64024E7037900593E0FBA332
:102A4300E0FAA3E0F9122429B41E1C900001122419
:102A530042B46013900596E0FBA3E0FAA3E0F9907B
:102A63000004741E022B4EE490059BF0A3F0022990
:102A730011900596E0FBA3E0FAA3E0F9900004129D
:102A83002442641E6003022B53D3EF9409EE940097
:102A93005003022B5A900593E0FBA3E0FAA3E0F95D
:102AA300900006122442FE9000071224427C002468
:102AB30000FFEC3EFE90059CE024F6FD90059BE0B4
:102AC30034FFFCEF6D7002EE6C7071900596E0FBC5
:102AD300A3E0FAA3E0F9122429FFB41F0790000230
:102AE30074018037900593E0FBA3E0FAA3E0F9902B
:102AF300059CE024FEFD90059BE034FF8D82F58369
:102B0300122442FEEF641F6EFF1258B3900596E045
:102B1300FBA3E0FAA3E0F9900002E41224819005FC
:102B230096E0FBA3E0FAA3E0F9900003E41224810A
:102B3300E490059BF0A3F0900001800F900596E0D0
:102B4300FBA3E0FAA3E0F9900002E41224818007DA
:102B5300E490059BF0A3F0900599E024FE60340413
:102B63007066900596E0FBA3E0FAA3E0F9900002FB
:102B7300122442B40102C2AC90059BE0FFA3E09093
:102B83000000CFF0A3EFF090059DE0FFA3E09002DB
:102B9300D38030900596E0FBA3E0FAA3E0F9900020
:102BA30002122442B4010353AFFE90059BE0FFA33E
:102BB300E0900002CFF0A3EFF090059DE0FFA3E0CB
:082BC3009002D5CFF0A3EFF062
:012BCB0022E7
:030023000252D1B5
:1052D100C0E0C0F0C083C082C0D075D000C000C0A3
:1052E10001C002C003C004C005C006C00730990256
:1052F100C29930982FC298C3900001E094C89000E1
:1053010000E094004004E4F0A3F09005967401F0ED
:10531100A37402F0A374D7F0A37401F0FB7A0179AE
:1053210005122858D007D006D005D004D003D002EA
:0F533100D001D000D0D0D082D083D0F0D0E032E5
:03004300025174F3
:10517400C0E0C0F0C083C082C0D075D000C000C001
:1051840001C002C003C004C005C006C007E59A30D0
:10519400E031539AFEC3900003E094C8900002E00B
:1051A40094004004E4F0A3F09005967401F0A37415
:1051B40002F0A374E0F0A37402F07B017A0179CDCC
:1051C400122858E59A30E103539AFDD007D006D04F
:1051D40005D004D003D002D001D000D0D0D082D0EA
:0651E40083D0F0D0E032A0
:0C5C7200C2B47FD07E07125852D2B42278
:105BF500538E7F5389F0E4F58A758C4CC28DD28C17
:055C0500D2A9D2AF227C
:03000B00023D5261
:103D5200C0E0C0F0C083C082C0D075D000C000C037
:103D620001C002C003C004C005C006C0079002978C
:103D7200E004F09002DAE060339002D8E004F0E070
:103D8200C3941440277B017A017905900000E0FC7E
:103D9200A3E0FD1257959002D9E4F0A3F090000041
:103DA200F0A3F09002D8F07FE11258B39002E3E062
:103DB20060339002E1E004F0E0C3941440277B01F9
:103DC2007A0179CD900002E0FCA3E0FD12579590B4
:103DD20002E2E4F0A3F0900002F0A3F09002E1F01E
:103DE2007FE21258B3308504D2028014C2029002DC
:103DF200F5E0B40102E4F09002F4E0B40102E4F070
:103E0200900297E0FF75F00A84E5F07002B2A5EF28
:103E1200C394C84005900297E4F09002F3E004F0E6
:103E2200E0D394504002E4F0D007D006D005D0048D
:103E3200D003D002D001D000D0D0D082D083D0F035
:033E4200D0E0329B
:0B1B6800900633EBF0A3EAF0A3E9F0D5
:101B730090000212244290063DF0C2D5ED641E602F
:101B830003022330900638F0A37408F0900637E080
:101B93006402702F900633E0FBA3E0FAA3E0F99010
:101BA3000006122442FE9000071224427C00240007
:101BB300FFEC3ECF240AFDE43FFC900633A3A3E0F1
:101BC300125795900633E0FBA3E0FAA3E0F99000E7
:101BD3000412244224FB7003021EE0147003021F4C
:101BE300BA24FE70030220A124076003022180901F
:101BF3000638E475F00112250E85F082F583740929
:101C0300122481900638E475F00112250E85F082C6
:101C1300F583E4122481900638E475F00112250E51
:101C230085F082F5837404122481900638E475F0FC
:101C33000112250E85F082F58374561224819006D5
:101C430038E475F00112250E85F082F58374651270
:101C53002481900638E475F00112250E85F082F593
:101C6300837472122481900638E475F00112250EF4
:101C730085F082F58374111224819002EBE0FF90CA
:101C8300063DE06F6003021D45900633E0FBA3E0D1
:101C9300FAA3E0F9900003122442F46003021D4505
:101CA30090063875F00112250E85F082F583744D88
:101CB300122481900638E475F00112250E85F08216
:101CC300F5837443122481900638E475F0011225DC
:101CD3000E85F082F5837455122481900638E475DD
:101CE300F00112250E85F082F583745F1224819032
:101CF3000638E475F00112250E85F082F5837449E8
:101D0300122481900638E475F00112250E85F082C5
:101D1300F5837444122481E4FF740C2FF8E6FE90DB
:101D23000633E0FBA3E0FAA3E0F9900638E475F08C
:101D33000112250E85F082F583EE1224810FEFB494
:101D430007D7900638A3E024F5FF900633E0FBA302
:101D5300E0FAA3E0F990000AEF122481900638E438
:101D630075F00112250E85F082F583740A12248121
:101D7300900638E475F00112250E85F082F583E4B0
:101D8300122481900638E475F00112250E85F08245
:101D9300F5837405122481900638E475F001122549
:101DA3000E85F082F5837420122481900638E47541
:101DB300F00112250E85F082F583741812248190A8
:101DC3000638E475F00112250E85F082F58374114F
:101DD300122481900638E475F00112250E85F082F5
:101DE300F5837421122481900638E475F0011225DD
:101DF3000E85F082F5837415122481900637E02452
:101E0300FE600804700D9002DE80039002E7740107
:101E1300F080037F022290063DE0F460030221DAA2
:101E2300900633E0FBA3E0FAA3E0F9900003122449
:101E330042FF640160030221DA900002EF12248161
:101E430090000374101224819000047405122481FD
:101E5300900006E4122481900638E0FCA3E0FD2400
:101E6300F8900007122481124FB1900633E0FBA3D0
:101E7300E0FAA3E0F9900638E475F00112250E8527
:101E8300F082F583EF122481900638E475F0011295
:101E9300250E85F082F583741F122481900637E0A6
:101EA30024FE601B047030900633E0FBA3E0FAA32A
:101EB300E0F9900638E0FCA3E0FD125795801B90F3
:101EC3000633E0FBA3E0FAA3E0F9900638E0FCA3B5
:101ED300E0FD1257D180037F02227F012290063357
:101EE300E0FBA3E0FAA3E0F9900002122442FF9082
:101EF30002E9E06F6003021FB7900003122442FF60
:101F03009002D2E06F6003021FB7900005122442D3
:101F1300FF900295E06F6003021FB7900006122442
:101F230042FF70089000071224426065EF703990F9
:101F33000633E0FBA3E0FAA3E0F990000712244282
:101F430064047024900008122442B40C1B9000090E
:101F5300122442701390000A122442B4010A900022
:101F63000B12244264016029900633E0FBA3E0FADC
:101F7300A3E0F99000081224426409703790000A24
:101F8300122442240BF582E433F583122442B40A6B
:101F930023900637E024FE600B0470159002DD7475
:101FA30001F080109002E67401F0E490035AF0808F
:101FB300037F02227F0122900633E0FBA3E0FAA312
:101FC300E0F9900008122442FF70399000051224B2
:101FD30042FE9002EBE06E702690000612244270DF
:101FE3001E900007122442B40315900009122442E4
:101FF300700D90000A1224427005D2D50221DAC274
:10200300D50221DAEF646F60030221DAFDFC7F035E
:10201300125992E490063AF0A3F0900633E0FBA342
:10202300E0FAA3E0F9900009122442FE90000A129C
:1020330024427C002400FFEC3EFE7D211224A3C336
:1020430090063BE09D90063AE09C503F90063AE0B4
:10205300FEA3E0FF240BF582E43EF583122442FD48
:10206300F5C2745C2FF58274033EF583EDF09006A0
:102073003AE0FCA3E0FD7F0212599290063BE00494
:10208300F0709790063AE004F0808FE4F5C2900672
:102093003AE0FCA3E0FD7F021259920221DA900696
:1020A30033E0FBA3E0FAA3E0F9900008122442FF17
:1020B300643D600302213F1258B3900633E0FBA353
:1020C300E0FAA3E0F990000B122442FF1258B390F8
:1020D30002B0E0FF1258B3900298E0FF1258B39099
:1020E3000633E0FBA3E0FAA3E0F990000B122442CD
:1020F300FF702D9002B0E0B40107E4F09002F5EF19
:10210300F0900298E0640160030221DAF090063354
:10211300E0FBA3E0FAA3E0F990000B122442801540
:10212300900633E0FBA3E0FAA3E0F990000B12243E
:10213300429002F5F09002F4F00221DA900633E0C7
:10214300FBA3E0FAA3E0F9900008122442643F6085
:10215300030221DA90000B1224429002EAF0700885
:102163007BFF7A4A79C5800E9002EAE064017067CA
:102173007BFF7A4A79CEFDFC125795805A9006333D
:10218300E0FBA3E0FAA3E0F9900638E475F001124E
:10219300250E85F082F583740C122481900638E4B1
:1021A30075F00112250E85F082F583E412248190E7
:1021B3000638E475F00112250E85F082F58374016B
:1021C300122481900638E475F00112250E85F08201
:1021D300F5837403122481900633E0FBA3E0FAA392
:1021E300E0F9900002122442FF9002EBE06F6017C7
:1021F30090063DE0F470030223039000031224428F
:1022030064016003022303900633E0FBA3E0FAA317
:10221300E0F99000031224429000021224819006F8
:102223003DE0900003122481900004740512248180
:10223300900006E4122481900638E0FCA3E0FD241C
:10224300F8900007122481124FB1900633E0FBA3EC
:10225300E0FAA3E0F9900638E475F00112250E8543
:10226300F082F583EF122481900638E475F00112B1
:10227300250E85F082F583741F122481900637E0C2
:1022830024FE601B047046900633E0FBA3E0FAA330
:10229300E0F9900638E0FCA3E0FD125795803190F9
:1022A3000633E0FBA3E0FAA3E0F9900638E0FCA3D1
:1022B300E0FD125795900633E0FBA3E0FAA3E0F9A3
:1022C300900638E0FCA3E0FD1257D180037F022281
:1022D30030D511E4900297F0900297E0C3940A403E
:1022E300F775C760900633E0FBA3E0FAA3E0F9902B
:1022F3000639E024FEFF900638E034FF8F82802306
:10230300900638E0FEA3E0FFD39408EE9400401A51
:10231300900633E0FBA3E0FAA3E0F974FF2FF58204
:0F23230074FF3EF583122442FF227F01227F00C8
:012332002288
:105C3300C2B37F647E00125852D2B37F647E0002E7
:025C43005852B5
:100046009005A674F1F0A374BFF0A374F9F0C20092
:10005600C201E4A3F0A3F0A3F0A3F078117C067D1F
:10006600017BFF7A4B793DFE7F20122403125870E4
:1000760012596C125C45125B0912000E125BF512E6
:1000860059FF12309E125CB57BFF7A4A79D7E4FDA0
:10009600FC1257957BFF7A4A79D7E4FDFC1257D1BB
:1000A600E49005A2F0A3F09005A2E0FEA3E0FFC352
:1000B6009407EE9400505F9005A6E02FF8E6C4542E
:1000C6000F7E00540F2499F582EE3402F583E0FF8B
:1000D6001258B39005A2A3E0FF9005A6E02FF8E61C
:1000E6007E00540F2499F582EE3402F583E0FF1268
:1000F60058B39005A2A3E0FF9005A6E02FF8E6FE10
:10010600740C2FF8A6069005A3E004F070999005EC
:10011600A2E004F080917F0D1258B37F0A1258B303
:10012600E49005A2F0A3F09005A2E0FEA3E0FFC3D1
:100136009407EE9400505F9005A7E0FCA3E02FF52E
:1001460082EC3EF583E493C4540F7E00540F249949
:10015600F582EE3402F583E0FF1258B39005A2E073
:10016600FEA3E0FF9005A7E0FCA3E02FF582EC3E9E
:10017600F583E4937E00540F2499F582EE3402F55C
:1001860083E0FF1258B39005A3E004F07099900540
:10019600A2E004F080917F0D1258B37F0A1258B383
:1001A600E49005A2F0A3F09005A2E0FCA3E0FDC355
:1001B6009420EC9400507B7F01125992E5C27002A4
:1001C6008070E5C2B4FF47E49005A2F0A3F0900565
:1001D600A2E0FEA3E0FFC39420EE940050547411F5
:1001E6002FF58274063EF583E0FF60469005A2E097
:1001F600FCA3E0245CF58274033CF583EFF09005E4
:10020600A3E004F070C89005A2E004F080C0900559
:10021600A2E0FEA3E0245CF58274033EF583E5C20A
:10022600F09005A3E004F070069005A2E004F00249
:1002360001AD7B017A03795CE4FDFC1257957B01E5
:100246007A03795CE4FDFC1257D17F0D1258B37F17
:100256000A1258B37A03795C1250FC900631EEF01C
:10026600A3EFF0900631E0FCA3E0FDEC90037AF0FA
:10027600EDA3F0125C727FE87E03125852125C33D3
:1002860012596C125C457F647E001258521241BBB3
:10029600125C727FF47E011258527FF77EFF125A6B
:1002A6008A125C72121257125CB51241BBEF7003D0
:1002B6000206F7E49005AAF090035BE060030207EC
:1002C60009900014F07B017A007904FDFC12579521
:1002D600900004E064C4705FA3E064CF7059A3E0AB
:1002E60064B27053A3E064FD704DA3E064C8704728
:1002F600A3E064F07041A3E064B7703BA3E064E55B
:100306007035A3E064B9702FA3E064AB7029A3E055
:1003160064CB7023A3E064BE701DA3E064D670179F
:10032600A3E0B4F712A3E0B4BF0DA3E0B4A808900D
:10033600035B74010203E3900004E064CD7046A3FE
:10034600E064B67040A3E064B1703AA3E064D27092
:1003560034A3E064BB702EA3E064FA7028A3E064C3
:10036600C67022A3E064D5701CA3E064CD7016A30A
:10037600E0B4A811A3E0B4BF0CA3E0B4A8079003AF
:100386005B74028058900004E064D67054A3E06465
:10039600B8704EA3E064CE7048A3E064C67042A372
:1003A600E064CD703CA3E064B67036A3E064B1703F
:1003B60030A3E064D2702AA3E064BB7024A3E06497
:1003C600FA701EA3E064B87018A3E0B4B113A3E0FA
:1003D600B4BF0EA3E0B4A80990035B7403F0020651
:1003E600A3900004E064D67047A3E064DC7041A3E8
:1003F600E064D7703BA3E064AA7035A3E064B170F3
:100406002FA3E064EA7029A3E064C77023A3E06425
:10041600A9701DA3E064BF7017A3E064A8701190D3
:10042600035B7404F09002EAE060030206B0804FBA
:10043600900004E064B17050A3E064D2704AA3E077
:1004460064B57044A3E064A8703EA3E064B170385C
:10045600A3E064B87032A3E064D3702CA3E064C355
:100466007026A3E064BF7020A3E064A8701A90030E
:100476005B7405F09002EAE0640160030206B012C4
:10048600584112584B0206AD900004E064B5600373
:100496000206A8A3E064E360030206A8A3E064B32F
:1004A60060030206A8A3E064AE60030206A8A3E008
:1004B60064BE60030206A8A3E064AD60030206A85A
:1004C600A3E064C060030206A8A3E064ED60030233
:1004D60006A8A3E064CA60030206A8A3E064DA6083
:1004E600030206A8A3E064C860030206A8A3E064AA
:1004F600A860030206A8A3E064BF60030206A8A3DF
:10050600E064A860030206A890035B7406F0E4901A
:1005160005A2F0A3F09005A275F00112250EFE7457
:10052600AD25F0F58274053EF583741EF09005A2A4
:10053600E475F00112250EFE74AD25F0F582740502
:100546003EF5837460F09005A2E475F00112250E65
:10055600FE74AD25F0F58274053EF5837401F090C6
:1005660005A2E475F00112250EFE74AD25F0F582A4
:1005760074053EF583740AF09005A2E475F0011245
:10058600250EFE74AD25F0F58274053EF5837408DC
:10059600F0900296E004FFF09005A2E475F00112D7
:1005A600250EFC74AD25F0F58274053CF583EFF05D
:1005B6009002E9740AF09002D27401F0900296E07B
:1005C600900295F09005A3E02402F09005A2E03495
:1005D60000F0E475F00112250EFE74AD25F0F582EB
:1005E60074053EF583743EF09005A3E02402F09076
:1005F60005A2E03400F0E49005A4F0A3F09005A273
:10060600E475F00112250EFE74AD25F0F582740531
:100616003EF5837401F09005A5E004F070069005A0
:10062600A4E004F09005A4E07004A3E0640170CD9A
:10063600124F5F9005A2E475F00112250EFC74AD11
:1006460025F0F58274053CF583EFF09005A2E4757C
:10065600F00112250EFE74AD25F0F58274053EF507
:1006660083741FF07B017A0579AD9005A2E0FCA3A7
:10067600E0FD1257957B017A0579AD9005A2E0FC65
:10068600A3E0FD1257D190035A7401F0E49002974B
:10069600F09002F504F09002F4F012584B12584B09
:1006A6008008E490035BF0125C727BFF7A4A79F073
:1006B600E4FDFC12579590035BE0C4540F7E005492
:1006C6000F2499F582EE3402F583E0FF1258B390B9
:1006D600035BE07E00540F2499F582EE3402F58325
:1006E600E0FF1258B37F0D1258B37F0A1258B38039
:1006F600129005AAE004F0E0D394054006E4F090D9
:10070600035BF0E4FF125260D2B77FF77EFF125A06
:100716008AEF20E403020C959002EAE06003020CE3
:10072600959005ABF0A3E0700204F07B017A0279A4
:10073600B17F20125BB09005A2E4F0A3EF1250F750
:10074600900631EEF0A3EFF0D2B79005A2E0700468
:10075600A3E064016003020C42900631E0FCA3E0D2
:10076600FDECFF9002CFE0FBEF6B7001E46003024B
:100776000C42AF05A3E0FDEF6D7001E46003020CCF
:10078600429002B1E0FF1258B39002F4E0FF125813
:10079600B3900298E0FF1258B39002B1E064017082
:1007A600389002F4E064016003020C5F7B017A0377
:1007B600795C900638125102900631EEF0A3EFF004
:1007C600900631E0FCA3E0FDEC90037AF0EDA3F097
:1007D6007B017A03795C0208E49002B1E06404606C
:1007E600030208EE900298E0640260030208C174F6
:1007F6007E1250F4900631EEF0A3EFF0900631E051
:10080600FCA3E0FDEC9002CFF0EDA3F07B017A02B1
:1008160079B17F207E001244DD7B017A0579AD90A7
:1008260005B3E0FEA3E07C002400FFEC3ECF240AE3
:10083600FDE43FFC1257957B017A0579AD9005B32F
:10084600E0FEA3E07C002400FFEC3ECF240AFDE49A
:100856003FFC1257D1E49005ACF090029804F0905A
:10086600035AF0E4900297F090035BE06405703B56
:100876009005A2F0A3F09005A2E0FEA3E0FFC394CA
:1008860009EE9400501C74F62FF58274023EF5832F
:10089600E4F09005A3E004F070DC9005A2E004F01B
:1008A60080D41240EEEF6003125C72125C727F1409
:1008B6007E00125852125C72020C5F74FF1250F4E2
:1008C600900631EEF0A3EFF0900631E0FCA3E0FDD8
:1008D600EC9002CFF0EDA3F07B017A0279B17F2094
:1008E6007E001244DD020C5F9002B1E064036003F7
:1008F600020C5FD2017BFF7A4A79FCFDFC12579508
:100906009002F4E064016003020C5F7B017A0279D5
:10091600B17D1CFC124FB19002CEE06F6003020C59
:10092600279005A2F0A3F09005A275F00112250EFE
:10093600FE74AD25F0F58274053EF583741EF090C5
:1009460005A2E475F00112250EFE74AD25F0F582C0
:1009560074053EF5837460F09005A2E475F001120B
:10096600250EFE74AD25F0F58274053EF5837401FF
:10097600F09005A2E475F00112250EFE74AD25F087
:10098600F58274053EF583740AF09005A2E475F0CD
:100996000112250EFE74AD25F0F58274053EF58331
:1009A6007408F0900296E004FFF09005A2E475F05A
:1009B6000112250EFC74AD25F0F58274053CF58315
:1009C600EFF09002E9740AF09002D27401F09002FE
:1009D60096E0900295F09005A3E02402F09005A21F
:1009E600E03400F0E475F00112250EFE74AD25F03A
:1009F600F58274053EF5837428F09005A3E0240281
:100A0600F09005A2E03400F0E49005A4F0A3F09085
:100A160005A4E0FEA3E0FFC39409EE9400505474CD
:100A2600B22FF58274023EF583E0F960469005A286
:100A3600E475F00112250EFC74AD25F0F5827405FF
:100A46003CF583E9F074B22FF58274023EF583E03B
:100A5600FFC394204004EFB4FF097BFF7A4B79056E
:100A6600020BD29005A5E004F070A49005A4E00462
:100A7600F0809C9005A4E0FFFCA3E0FDC39005A3D5
:100A8600E09DFD9005A2E09CFC74AB2DF5827405FB
:100A96003CF583EFF09005A4A3E0FF74AC2DF5823E
:100AA60074053CF583EFF09005A2E475F00112257C
:100AB6000EFE74AD25F0F58274053EF583743CF0A8
:100AC6009005A3E02402F09005A2E03400F0E49043
:100AD60005A4F0A3F09005A4E0FEA3E0FFC39407ED
:100AE600EE9400503474BB2FF58274023EF583E019
:100AF600FF9005A2E475F00112250EFC74AD25F0F9
:100B0600F58274053CF583EFF09005A5E004F070DE
:100B1600C49005A4E004F080BC9005A4E0FFFCA30B
:100B2600E0FDC39005A3E09DFD9005A2E09CFC744A
:100B3600AB2DF58274053CF583EFF09005A4A3E098
:100B4600FF74AC2DF58274053CF583EFF09005A299
:100B5600E475F00112250EFE74AD25F0F5827405DC
:100B66003EF5837420F09005A3E02402F09005A2E0
:100B7600E03400F0E49005A4F0A3F09005A4E0FEB4
:100B8600A3E0FFC39408EE9400505A74C22FF58276
:100B960074023EF583E0F9604C9005A2E475F0011D
:100BA60012250EFC74AD25F0F58274053CF583E93B
:100BB600F074C22FF58274023EF583E0FFC39420E1
:100BC6004004EFB4FF0F7BFF7A4B7912E4FDFC1271
:100BD60057950211529005A5E004F0709E9005A469
:100BE600E004F08096124F5F9005A2E475F00112C2
:100BF600250EFC74AD25F0F58274053CF583EFF007
:100C06009005A2E475F00112250EFE74AD25F0F5EF
:100C16008274053EF583741FF09002987402F0808A
:100C2600387BFF7A4B791FE4FDFC1257957B017ADE
:100C36000279B17D1C7C00124FB1801A7BFF7A4B82
:100C46007924E4FDFC125795900631E0FF1258B363
:100C5600900631A3E0FF1258B3E49005A2F0A3F08A
:100C66009005A2E0FEA3E0FFC39420EE94004003AB
:100C760002115274B12FF58274023EF583E4F090AE
:100C860005A3E004F070D99005A2E004F080D190AD
:100C960005ABE004F0E0D3940A5003021152E4F0ED
:100CA600C20190035BE0FFB404089002EAE064012D
:100CB6006011EF640560030211429002EAE06003EE
:100CC600021142E4900637F0A37402F07B01A314EC
:100CD600F0A37400F0A37404F0A3E4F0A37430F05E
:100CE6007A0279EDE4FF123768EF640160030211BE
:100CF600429005A9F09005A2F0A3F09005A2E0FEAF
:100D0600A3E0FFC39408EE9400504774042FF582C5
:100D160074003EF583E0C3942040129005A2A3E040
:100D26002404F58274003EF583E0B4FF157BFF7A58
:100D36004B792AE4FDFC125795125C72125C720222
:100D4600113D9005A3E004F070B19005A2E004F017
:100D560080A9300003021152300103021152D20061
:100D66007BFF7A4B7934E4FDFC1257959002F5E04F
:100D76006401600302113A9005A2F0A3F09005A267
:100D860075F00112250EFE74AD25F0F58274053E50
:100D9600F583741EF09005A2E475F00112250EFE8F
:100DA60074AD25F0F58274053EF5837460F0900508
:100DB600A2E475F00112250EFE74AD25F0F58274DD
:100DC600053EF5837401F09005A2E475F001122545
:100DD6000EFE74AD25F0F58274053EF583740AF0B7
:100DE6009005A2E475F00112250EFE74AD25F0F50E
:100DF6008274053EF5837408F0900296E004FFF0D5
:100E06009005A2E475F00112250EFC74AD25F0F5EF
:100E16008274053CF583EFF09002E9740AF09002C3
:100E2600D27401F0900296E0900295F09005A3E04E
:100E36002402F09005A2E03400F0E475F0011225DA
:100E46000EFE74AD25F0F58274053EF5837428F028
:100E56009005A3E02402F09005A2E03400F0E490AF
:100E660005A4F0A3F09005A4E0FEA3E0FFC3940957
:100E7600EE9400507374042FF58274003EF583E0FF
:100E860060669005A4A3E02404F58274003EF58311
:100E9600E0FD9005A2E475F00112250EFA74AD2569
:100EA600F0F58274053AF583EDF074042FF582743B
:100EB600003EF583E0C3942040149005A4E0FEA311
:100EC600E02404F58274003EF583E0B4FF097BFF5D
:100ED6007A4B790502106D9005A5E004F070069036
:100EE60005A4E004F0020E6B9005A4E0FFFCA3E06D
:100EF600FDC39005A3E09DFD9005A2E09CFC74ABAC
:100F06002DF58274053CF583EFF09005A4A3E0FF70
:100F160074AC2DF58274053CF583EFF0E490000483
:100F2600F09005A275F00112250EFE74AD25F0F5C0
:100F36008274053EF583743CF09005A3E02402F02C
:100F46009005A2E03400F0E49005A4F0A3F090052B
:100F5600A4E0FEA3E0FFC39407EE9400503474248B
:100F66002FF58274003EF583E0FF9005A2E475F04C
:100F76000112250EFC74AD25F0F58274053CF5834F
:100F8600EFF09005A5E004F070C49005A4E004F02D
:100F960080BC9005A4E0FFFCA3E0FDC39005A3E0A0
:100FA6009DFD9005A2E09CFC74AB2DF58274053C7A
:100FB600F583EFF09005A4A3E0FF74AC2DF58274E1
:100FC600053CF583EFF0E4900004F09005A275F07F
:100FD6000112250EFE74AD25F0F58274053EF583EB
:100FE6007420F09005A3E02402F09005A2E03400FE
:100FF600F0E49005A4F0A3F09005A4E0FEA3E0FFC2
:10100600C39408EE9400507B74142FF58274003E4E
:10101600F583E0606E9005A4A3E02414F5827400C5
:101026003EF583E0FD9005A2E475F00112250EFA67
:1010360074AD25F0F58274053AF583EDF074142F3E
:10104600F58274003EF583E0C3942040149005A415
:10105600E0FEA3E02414F58274003EF583E0B4FFBD
:10106600117BFF7A4B7912E4FDFC125795C2000200
:1010760011529005A5E004F070069005A4E004F076
:10108600020FFE124F5F9005A2E475F00112250EC5
:10109600FC74AD25F0F58274053CF583EFF0900500
:1010A600A2E475F00112250EFE74AD25F0F58274EA
:1010B600053EF583741FF07B017A0579AD9005A294
:1010C600E0FCA3E0FD1257957B017A0579AD90050A
:1010D600A2E0FCA3E0FD1257D1E49005ACF090022B
:1010E600B004F090035AF0E4900297F090035BE0AE
:1010F6006405703E9005A2F0A3F09005A2E0FEA361
:10110600E0FFC39409EE9400501C74F62FF5827428
:10111600023EF583E4F09005A3E004F070DC900550
:10112600A2E004F080D41240EEEF60028009C20013
:10113600801A8003125841125C7280109005A9E053
:1011460004F0E0D394054004E4F0C200E4FF125238
:101156006090035AE064016003021202900297E075
:10116600D394645003021202200203021202900278
:1011760096E004F09005B2F0900296E0900295F0A9
:101186007B017A0579AD9005B3E0FEA3E07C0024EF
:1011960000FFEC3ECF2408FDE43FFC124FB1AD0743
:1011A6009005B3E0FEA3E07A002400FFEA3EFE7459
:1011B600B52FF58274053EF583EDF07B017A05794E
:1011C600AD9005B3E0FEA3E07C002400FFEC3ECF2B
:1011D600240AFDE43FFC1257957B017A0579AD9010
:1011E60005B3E0FEA3E07C002400FFEC3ECF240A1A
:1011F600FDE43FFC1257D1E4900297F09002D9E04B
:1012060060217B017A0179059002DBE0FD900637CB
:101216007401F0121B68D2ACE49002D9F090000081
:10122600F0A3F09002E2E070030202AD7B017A01C6
:1012360079CD9002E4E0FD9006377402F0121B6847
:1012460043AF01E49002E2F0900002F0A3F0020244
:01125600ADEA
:10587000E4F591F592F595F596F5B1F5B2F5B3F538
:10588000B4439204D292439208439210439220432D
:0F589000B208D2B3C2A5439620C297439280229A
:10571500E4FDFCC3ED9FEC9E503900000000000045
:105725000000000000000000000000000000000074
:105735000000000000000000000000000000000064
:105745000000000000000000000000000DBD000189
:035755000C80C005
:01575800222E
:10596C009003837401F0A37403F0A37487F0900385
:10597C007E7401F0A37404F0A37487F0E4F509F5C8
:06598C0008F50AF50B22EC
:0B4BF50090064CEBF0A3EAF0A3E9F0FF
:104C00007D807F12125ACB7D807F13125ACB7D0894
:104C10007F13125A4A7D087F08125ACB7D077F0DF9
:104C2000125C8D7523267F017E007D007C0012437F
:104C3000519006577401F07B00A314F0A37400F0A8
:104C4000A37424F0A3EBF0A37400F0A37426F07A0D
:104C50000079237F0C122E738F22E522702BE5271B
:104C600064104526702390064CE0FBA3E0FAA3E015
:104C7000F9E52412246F90064CE0FBA3E0FAA3E0D0
:0B4C8000F9900001E525122481AF220D
:014C8B002206
:0B4C8C00900633EBF0A3EAF0A3E9F080
:104C97007D807F12125ACB7D807F13125ACB7D08FD
:104CA7007F13125A4A7D087F08125ACB7D077F0D62
:104CB700125C8D7522527F017E007D007C001243BD
:104CC700519006577401F07B00A314F0A37400F011
:104CD700A37423F0A3EBF0A37400F0A37425F07A78
:104CE7000079227F0C122E738F21E521702BE52688
:104CF700641045257023900633E0FBA3E0FAA3E098
:104D0700F9E52312246F900633E0FBA3E0FAA3E052
:0B4D1700F9900001E524122481AF2177
:014D2200226E
:103F3700900649E0FBA3E0FAA3E02407F9E43AFA84
:023F47007F9564
:0E3F490090064CEFF0A3EBF0A3EAF0A3E9F032
:103F57007D807F12125ACB7D807F13125ACB7D084A
:103F67007F08125ACBE4FD7F0D125C8D7D807F0E9A
:103F7700125ACB90064CE0F5247525207F017E0070
:103F87007D007C001243519006577402F0A3E4F0C1
:103F9700A37400F0A37426F0A3E4F0A37400F0A3C5
:103FA700742BF07B007A0079247F0C122E738F22FA
:103FB700E5227058F52374262523F8E6FF90064D71
:103FC700E0FBA3E0FAA3E0F9852382758300EF12F3
:103FD70024810523E523B405DD90064DE0FBA3E02E
:103FE700FAA3E0F9900001122442FF1224296FFF7F
:103FF7009000021224426FFF9000031224426FFFC9
:0E4007009000041224426F6003752201AF2264
:014015002288
:0E46FA0090064CEFF0A3EBF0A3EAF0A3E9F07A
:10470800E4FD7F0D125C8D7D807F12125A4A7D80F8
:104718007F13125A4A7D087F08125ACB90064CE044
:10472800F524752570E4F52390064DE0FBA3E0FA27
:10473800A3E0F9852382758300122442FF7426259D
:1047480023F8A6070523E523B405DD7F017E007D58
:10475800007C001243519006577407F0A3E4F0A3BD
:104768007400F0A3742BF0A3E4F0A37400F0A37416
:1047780030F07B007A0079247F0C122E738F22E5AB
:10478800227010900650E0FBA3E0FAA3E0F9E52BB5
:0547980012246FAF22A6
:01479D0022F9
:1054DF00752250E4F523FD7F0D125C8D7D807F12C8
:1054EF00125A4A7D807F13125A4A7D087F08125A3A
:1054FF00CB7F017E007D007C0012435190065774D4
:10550F0002F0A3E4F0A37400F0A37424F0A3E4F07A
:10551F00A37400F0A37425F07B007A0079227F0436
:05552F00122E738F2114
:015534002254
:0B2BCC00900649EBF0A3EAF0A3E9F04B
:102BD700124BF58F21E521B401037F0122900649AD
:102BE700E0FBA3E0FAA3E0F912242954C0706DE9D1
:102BF7002403F9E43AFA7F93123F498F21E521B480
:102C070001037F0122900649E0FBA3E0FAA3E02439
:102C170003F9E43AFAC003C002C001900649A3E0F1
:102C2700FAA3E0240FF9E43AFA900650EBF0A3EA8E
:102C3700F0A3E9F0D001D002D0037F931246FA8FB8
:102C470021E521B401037F0122900649E0FBA3E0BF
:102C5700FAA3E0F99000027404122481900649E077
:102C6700FBA3E0FAA3E0F912242954C064406003EF
:102C7700022D38E92403F9E43AFA7F93123F498F8A
:102C870021E521B401037F0122900649E0FBA3E07F
:102C9700FAA3E02403F9E43AFAC003C002C00190A2
:102CA7000649A3E0FAA3E0240FF9E43AFA900650A4
:102CB700EBF0A3EAF0A3E9F0D001D002D0037F93B1
:102CC7001246FA8F21E521B401037F0122123F3713
:102CD7008F21E521B401037F0122900649E0FBA380
:102CE700E0FAA3E02407F9E43AFAC003C002C001FE
:102CF700900649A3E0FAA3E0240FF9E43AFA900614
:102D070050EBF0A3EAF0A3E9F0D001D002D0037FA3
:102D1700951246FA8F21E521B401037F012290061F
:102D270049E0FBA3E0FAA3E0F9900002740812243B
:102D370081900649E0FBA3E0FAA3E0F912242954A5
:102D4700C064806003022E70E92403F9E43AFA7F35
:102D570093123F498F21E521B401037F0122900699
:102D670049E0FBA3E0FAA3E02403F9E43AFAC0033D
:102D7700C002C001900649A3E0FAA3E0240FF9E4DA
:102D87003AFA900650EBF0A3EAF0A3E9F0D001D0AD
:102D970002D0037F931246FA8F21E521B401037F06
:102DA7000122123F378F21E521B401037F012290D1
:102DB7000649E0FBA3E0FAA3E02407F9E43AFAC0E6
:102DC70003C002C001900649A3E0FAA3E0240FF96B
:102DD700E43AFA900650EBF0A3EAF0A3E9F0D00149
:102DE700D002D0037F951246FA8F21E521B4010363
:102DF7007F0122900649E0FBA3E0FAA3E0240BF948
:102E0700E43AFA7F97123F498F21E521B401037F06
:102E17000122900649E0FBA3E0FAA3E0240BF9E4C2
:102E27003AFAC003C002C001900649A3E0FAA3E042
:102E3700240FF9E43AFA900650EBF0A3EAF0A3E97D
:102E4700F0D001D002D0037F971246FA8F21E521F7
:102E5700B401037F0122900649E0FBA3E0FAA3E057
:0B2E6700F9900002740C122481AF21CE
:012E7200223D
:105BC800535049526561645F53657175656E6365CD
:075BD8000A00656E640A007B
:0F5C4500E4F5CF75CDC0D29275CED0F5A2FF2277
:1058F500900664E004F07006900663E004F0D3902F
:105905000664E094C8900663E0940040037F00229B
:07591500E5CD5F60DB7F01BF
:01591C002268
:10591D00C292EF25E0F54F434F8075CDC0854FCF37
:10592D007F801258F575CDC0E4F5CF7F801258F504
:07593D0085CF4ED292AF4E60
:015944002240
:104D230090065EEFF0A3EDF0A3EBF0A3EAF0A3E9A6
:014D3300F08F
:104D34007BFF7A5B79C8E4FDFC12575990065EE06C
:104D44006070C29290065FE025E0F54C434C80759C
:104D5400CDC0854CCF7F801258F57F30125B929086
:104D6400065EE0FF125B92E4F54B90065EE0FFE521
:104D74004BC39F502F75CDC0EF14B54B05E4F5CF51
:104D84008003854CCF7F801258F5900660E0FBA32A
:104D9400E0FAA3E0F9854B82758300E5CF12248104
:104DA400054B80C6D2927BFF7A5B79DAE4FDFC1274
:024DB40057594D
:014DB60022DA
:1059B700C292EF25E0F54D534D7E75CDC0854DCF95
:1059C7007F801258F575CDC0AF058FCF7F801258F5
:0359D700F5D29274
:0159DA0022AA
:0D55E10090065EEBF0A3EAF0A3E9F0AE0740
:1055EE00EE6044C292AF05EF25E0F54B534B7E754E
:1055FE00CDC0854BCF7F801258F5E4F54CE54CC3FA
:10560E009E502275CDC090065EE0FBA3E0FAA3E0AB
:10561E00F9854C82758300122442F5CF7F80125893
:07562E00F5054C80D8D29273
:015635002252
:10459C00EF7003752160EFB40103752161ED25E027
:1045AC0025E0F522122429F523900001122442F56E
:1045BC0024900002122442F525900003122442F5A7
:1045CC0026900004122442F527900005122442F58F
:1045DC002890064EE0FBA3E0FAA3E0F9122429F59B
:1045EC0029900001122442F52A900002122442F56F
:1045FC002B900003122442F52C7F017E007D007C61
:10460C0000124351900657740CF0A3E4F0A374000D
:10461C00F0A3742DF0A3E4F0A37400F0A3742FF0B6
:10462C007B007A0079217F0E122E738F2EE52E706F
:10463C000F7F08125CA3EF30E3037F00227F01227F
:02464C007F01EC
:01464E002249
:10547D00900003122442FEF521900002122442FDF9
:10548D00F522900001122442F523122429F524EE71
:10549D00F4F525EDF4F526900001122442FEF4F505
:1054AD0027122429FDF4F528900003122442F52932
:1054BD00900002122442F52A8E2B8D2C8F2DEFF4A5
:1054CD00F52E8F2FF5307B007A0079211244188F3D
:0154DD00319D
:0154DE0022AB
:0E4E4700900649EFF0A3EBF0A3EAF0A3E9F028
:104E55007D807F12125C8D7D807F13125C8DE4FD59
:104E65007F0D125C8D7F017E007D007C0012435119
:104E7500752130900649E0F5229006577402F090AE
:104E8500064AE0F9A3E0FAA3E0900658C9F0A3EAC0
:104E9500F0A3E9F0A3E4F0A37400F0A37424F07B7D
:104EA500007A0079217F0C122E738F23E52564800B
:104EB500452460047F0180027F00E52360047E01B4
:0D4EC50080027E00EE4F60037F01227F001F
:014ED20022BD
:0E44180090063CEFF0A3EBF0A3EAF0A3E9F06E
:104426007F057E007D007C001243517533A0900607
:104436003CE0F5349006577402F0A3E4F0A3740050
:10444600F0A37443F0A3E4F0A37400F0A37444F063
:104456007B007A0079337F0C122E738F32E543543A
:104466000F640A60047F0180027F00E53260047EEB
:104476000180027E00EE4F60037F01227F0A7E00EC
:104486007D007C001243519006577410F0A3E4F0AF
:10449600A37400F0A37443F0A3E4F0A37400F0A3A4
:1044A6007444F090063DE0FBA3E0FAA3E0F97F0C2C
:1044B600122E738F32E543540F640A60047F018025
:1044C600027F00E53260047E0180027E00EE4F60CE
:0644D600037F01227F00BC
:0144DC0022BD
:0E479E00900633EFF0A3EBF0A3EAF0A3E9F0EE
:1047AC007F057E007D007C001243517522C190066E
:1047BC0033E0F5239006577402F0A3E4F0A37400E1
:1047CC00F0A37424F0A3E4F0A37400F0A37425F018
:1047DC007B007A0079227F0C122E738F21E52454F2
:1047EC000F640A60047F0180027F00E52160047E73
:1047FC000180027E00EE4F60037F01227F057E0068
:10480C007D007C001243519006577404F0A3E4F031
:10481C00A37400F0A37424F0A3E4F0A37400F0A339
:10482C007425F0900634E0FBA3E0FAA3E0F97F0CCA
:05483C00122E73AF21F4
:014841002254
:0E484200900633EFF0A3EBF0A3EAF0A3E9F049
:104850007F057E007D007C001243517522C09006CA
:1048600033E0F5239006577402F0A3E4F0A374003C
:10487000F0A37424F0A3E4F0A37400F0A37425F073
:104880007B007A0079227F0C122E738F21E524544D
:104890000F640A60047F0180027F00E52160047ECE
:1048A0000180027E00EE4F60037F01227F057E00C3
:1048B0007D007C001243519006577404F0A3E4F08D
:1048C000A37400F0A37424F0A3E4F0A37400F0A395
:1048D0007425F0900634E0FBA3E0FAA3E0F97F0C26
:0548E000122E73AF2150
:0148E50022B0
:05541900900633EFF0E6
:10541E007F057E007D007C001243517522B0900600
:10542E0033E0F5239006577402F0A3E4F0A3740062
:10543E00F0A37424F0A3E4F0A37400F0A37425F099
:10544E007B007A0079227F0C122E738F21E5245473
:10545E000F640A60047F0180027F00E52160047EF4
:0E546E000180027E00EE4F60037F0122AF211D
:01547C00220D
:05498A00900633EFF080
:10498F007F057E007D007C001243517522C2900688
:10499F0033E0F5239006577402F0A3E4F0A37400FC
:1049AF00F0A37426F0A3E4F0A37400F0A37427F02F
:1049BF007B007A0079227F0C122E738F21E526540B
:1049CF000F640A60047F0180027F00E52160047E8E
:1049DF000180027E00EE4F60037F01227F057E0083
:1049EF007D007C00124351E4F522F523F524F525D3
:1049FF009006577404F0A3E4F0A37400F0A3742698
:104A0F00F0A3E4F0A37400F0A37427F07B007A0006
:094A1F0079227F0C122E73AF21E5
:014A2800226B
:0435E5004106C400D7
:055CA30012591D8F4D98
:015CA80022D9
:0B580D00900633EBF0A3EAF0A3E9F0F3
:10581800E4F521AF2112591D900633E0FBA3E0FA0D
:10582800A3E0F9852182758300EF1224810521E523
:0858380021C3944040DD7F0014
:015840002245
:045C8900E4FD7F01B6
:065C8D001259B77F00224E
:105B9800900658E0FBA3E0FAA3E07E002548F9EE62
:025BA8003AFAC7
:065BAA007D09124D2322CB
:105BDF00900657E0FF900654E0FBA3E0FAA3E0F92C
:065BEF007D091255E122C0
:105C1F007D807F0A125A4A7F0A12591DEF7002FFC8
:045C2F00227F0122AD
:045A46007D807F0DD3
:0A5A4A0090065FEDF090065EEFF0AD
:105A5400125CA390065FE04FFD90065EE0FF125CCF
:035A64008D8F4CD7
:015A6700221C
:0A5ACB0090065FEDF090065EEFF02C
:105AD500125CA390065FE0F45FFD90065EE0FF12A6
:045AE5005C8D8F4BFA
:015AE900229A
:05526000900649EFF08B
:105265007F14125CA3EF5403FF900649E0FEB507D7
:10527500037F0022EE70097D037F14125ACB8F2124
:10528500900649E0B401127D017F14125A4A8F211C
:105295007D027F14125ACB8F21900649E0B4021289
:1052A5007D017F14125ACB8F217D027F14125A4A39
:1052B5008F21900649E0B403097D037F14125A4AF1
:0B52C5008F217FE87E03125715AF21F8
:0152D00022BB
:0E2E7300900653EFF0A3EBF0A3EAF0A3E9F012
:102E8100E4F547F548F5497F5C125B92900653E003
:102E9100FF125B92125C1F125C897D207F0B125C1A
:102EA1008D7D7F7F04125C8D900653E0B40E061277
:102EB1005BDF125A467D807F2A125A4A900653E000
:102EC100FD7F01125C8D7F5C125B92900653E0FFE7
:102ED100125B927F30125B927F04125CA38F4A12C5
:102EE1005B92E54A30E0137546017F33125B9290A5
:102EF1000653E0FF125B92023002900653E0FFB4EA
:102F01000E08E54A30E403022FFFEF64047059E52F
:102F11004A30E244900657E0FFD39400403AEF94E0
:102F210020900654E0FBA3E0FAA3E0F9500A125BFB
:102F3100EFE4900657F080167F20125BEF90065762
:102F4100E024E0F0900655E475F0201224F87D04A9
:102F51007F04125C8D125A46E54A30E60B90065703
:102F6100E07005F546023002900653E0640C600300
:102F7100022ED4E54A30E245900657E0FFD3940093
:102F8100403BEFD394204023900654E0FBA3E0FAAA
:102F9100A3E0F97F20125BEF900657E024E0F09068
:102FA1000655E475F0201224F88008125BDFE490E6
:102FB1000657F0125A467D047F04125C8DE54A30B3
:102FC100E32630E623900657E0701D7F0A125CA3CA
:102FD100EFD3942040127F20125B9874202548F58E
:102FE100487D087F04125C8DE54A20E503022ED45A
:102FF100900657E06003022ED49006C404F0E4F575
:10300100467F32125B92900653E0640C70767F34F7
:10301100125B92E4F5487F0A125CA38F477F351259
:103021005B92AF47125B92AF47125B987F36125BA0
:1030310092E5472548F5487F0C125CA3EF5407F54C
:10304100496028E54824FFFFE434FFFEEF7803C31D
:1030510033CE33CED8F97C002549FFEC3EF99006FA
:103061005BE0FBA3E0FAA3E0C98014E54875F00832
:10307100A4FF90065BE0FBA3E0FAA3E0F9E5F08F83
:10308100F01225247F31125B927D807F0C125A4A07
:0C309100125C897D807F0D125ACBAF4687
:01309D002210
:06435100900653122684C1
:10435700E4F54AF54BF549F548F547F546E47FF8A6
:104367007E34FDFC900653E0F8A3E0F9A3E0FAA33E
:10437700E0FB122543EF24FFFFEE34FFFEED34FF91
:10438700FDEC34FFFCC006C007E54B25E0FFE54A1E
:1043970033FEEF2401FFE43EAB07FAE4F9F8D00758
:1043A700D0061225CE8F498E488D478C46E47FFF75
:1043B7007EFFFDFCAB49AA48A947A846C312266061
:1043C7004011054BE54B7002054AF47004E54A6459
:1043D7000F708AE549F549E548F548E4F547F5469C
:1043E700E54AFD7F2A125A4AE54BFD7F2B125C8D69
:1043F700AF49AE48AD47AC467808122671AD077F86
:104407002C125C8DE549FFAD077F2D125C8D7F0077
:014417002282
:104B5D00900649EFF0701C7D107F0C125A4A7D4073
:104B6D007F15125A4AE4FD7F12125C8DE4FD7F130E
:104B7D00125C8D900649E06401702A7D107F0C1245
:104B8D005C8D7D837F12125C8D7D837F13125C8D16
:104B9D007DF47F27125C8D7DF47F23125C8DE4FD07
:104BAD007F15125C8D900649E0640270387D107F90
:104BBD000C125C8D7D927F12125C8D7D967F13128F
:104BCD005C8D7DF47F27125C8D7D207F28125C8D9E
:104BDD007D4F7F23125C8D7D207F29125C8D7D079B
:084BED007F15125C8D7F002290
:100026007D0F7F01125C8D7D107F0C125A4A7F0C6A
:0D003600125CA3EF30E4037F00227F012263
:105C0A00C2B37F017E00125715D2B37F017E001204
:055C1A0057157F002278
:105B27007F01125CA3EF30E40A7D107F01125ACB8C
:0D5B37007F01227D107F01125A4A7F00225B
:0B5C7E00B2B330B3037F00227F01228D
:0F5C5400EF2480FD7F0F125C8D7F0F125CA32267
:105B4400900633EDF0EF2440FD7F0F125C8D90063C
:0D5B540033E024C0FD7F0F125C8D7F002226
:065CA90000840000080069
:10360800900633EFF0A3EDF0A3EBF0A3EAF0A3E903
:01361800F0C1
:103619007D807F12125C8D7D807F13125C8DE4FDAD
:103629007F0D125C8D7F647E007D007C001243510A
:103639007522E0900634E0F523540F90069DF09032
:103649000633E090069CF0125C1F9006577402F056
:10365900900638E0F9A3E0FAA3E0900658C9F0A370
:10366900EAF0A3E9F0A3E4F0A37400F0A37425F051
:103679007B007A0079227F0C122E738F21E521605D
:1036890003023756F524E526AE257803CEC313CEBB
:1036990013D8F9FF900635E0FBA3E0FAA3E0F9EFB0
:1036A90012246F900638E0FBA3E0FAA3E0F9122494
:1036B9002990069FF09000011224429006A0F05430
:1036C9000F9006A4F09006A0E030E61E900638A3FD
:1036D900A3E02402F9E43AFA7E00E92524F9EE3A56
:1036E900FA1224299006A1F005249006A0E030E5FD
:1036F90031900638E0FBA3E0FAA3E02402F9E43AAA
:10370900FA7E00E92524F9EE3AFA1224299006A254
:10371900F09006A5E4F09006A2E0540F9006A6F0FA
:1037290005249006A0E030E433900638E0FBA3E0DE
:10373900FAA3E02402F9E43AFA7E00E92524F9EE35
:103749003AFA1224299006A3F00524800F90063531
:0E375900E0FBA3E0FAA3E0F9E412246FAF2135
:01376700223F
:1048E600900633EFF0A3EDF0A3EBF0A3EAF0A3E913
:0148F600F0D1
:1048F7007F327E007D007C0012435190069DE0448C
:10490700D0F522900633E0F523125C1F900633E0C2
:1049170030E40BA3E0F52490065774038005900656
:10492700577402F0900638E0F9A3E0FAA3E0900686
:1049370058C9F0A3EAF0A3E9F0A3E4F0A37400F0E8
:10494700A37425F07B007A0079227F0C122E738FD7
:1049570021E521701CE526AE257803CEC313CE13BF
:10496700D8F9FF900635E0FBA3E0FAA3E0F9EF8062
:104977000C900635E0FBA3E0FAA3E0F9E412246FFC
:02498700AF215E
:01498900220B
:0800030090069CE06401F0226C
:0B553500900633EBF0A3EAF0A3E9F0CE
:1055400078227C007D007BFF7A5C79A97E007F0554
:10555000122403900633E0F9A3E0FAA3E090063D9D
:10556000C9F0A3EAF0A3E9F0900636E0F9A3E0FA67
:10557000A3E0900640C9F0A3EAF0A3E9F07B007A2B
:0A5580000079227F051238B98F214F
:01558A0022FE
:0E4FEA00900633EFF0A3EBF0A3EAF0A3E9F09A
:104FF8007F647E007D007C00124351900633E09070
:105008000657F090063AE0F9A3E0FAA3E0900658B4
:10501800C9F0A3EAF0A3E9F0A3E4F0A37400F0A3B5
:105028007422F0900634E0FBA3E0FAA3E0F97F0CC9
:10503800122E738F21E521701CE523AE227803CE52
:10504800C313CE13D8F9FF900637E0FBA3E0FAA309
:10505800E0F9EF800C900637E0FBA3E0FAA3E0F953
:06506800E412246FAF21E9
:01506E00221F
:0E38B900900639EFF0A3EBF0A3EAF0A3E9F0DC
:1038C7007FF47E017D007C0012435190069CE090BE
:1038D700063930E354E0FF7E00A3E0FBA3E0FAA340
:1038E700E02402F9E43AA801FCAD0390063AA3A349
:1038F700E0F912283090069CE0FF90063AE0FBA31F
:10390700E0FAA3E0F9EF12246F90069DE0FF90061E
:103917003AE0FBA3E0FAA3E0F9900001EF1224815B
:10392700900639E02402F0803AE0FF7E00A3E0FB36
:10393700A3E0FAA3E02401F9E43AA801FCAD03905F
:10394700063AA3A3E0F912283090069CE0FF900600
:103957003AE0FBA3E0FAA3E0F9EF12246F900639EF
:10396700E004F0900639E0900657F0900640E0F941
:10397700A3E0FAA3E0900658C9F0A3EAF0A3E9F0A0
:10398700A3E4F0A37400F0A37428F090063AE0FBD8
:10399700A3E0FAA3E0F97F0C122E738F27E52770B7
:1039A7004A900640E0FBA3E0FAA3E0F9122429902D
:1039B700069CF054F0FFBFF013E030E305900002DF
:1039C700800390000112244290069EF0120003E546
:1039D70029AE287803CEC313CE13D8F9FF90063D3E
:1039E700E0FBA3E0FAA3E0F9EF800C90063DE0FBD3
:0C39F700A3E0FAA3E0F9E412246FAF276C
:013A030022A0
:0B428600900633EBF0A3EAF0A3E9F090
:104291007F647E007D007C0012435190069CE030DB
:1042A100E311540F44A0F521A3E0F52290065774C1
:1042B10002800F90069CE0540F44A0F52190065710
:1042C1007401F0900636E0F9A3E0FAA3E0900658F5
:1042D100C9F0A3EAF0A3E9F0A3E4F0A37400F0A30A
:1042E1007424F07B007A0079217F0C122E738F23C6
:1042F100E523704A900636E0FBA3E0FAA3E0F91249
:10430100242990069CF054F0FFBFF013E030E30540
:10431100900002800390000112244290069EF01248
:104321000003E525AE247803CEC313CE13D8F9FFDD
:10433100900633E0FBA3E0FAA3E0F9EF800C9006CE
:0F43410033E0FBA3E0FAA3E0F9E412246FAF230B
:01435000224A
:0E3E4500900633EFF0A3EBF0A3EAF0A3E9F050
:103E53007FF47E017D007C00124351900633E0FF26
:103E630044C0F52190069CE030E323EF54F064F066
:103E7300700FA3E0F522A3E0F523900657740380A7
:103E83002590069DE0F5229006577402801890064F
:103E930033E054F0FFBFF00690069EE08001E4F5A6
:103EA300229006577402F0900637E0F9A3E0FAA3D4
:103EB300E0900658C9F0A3EAF0A3E9F0A3E4F0A365
:103EC3007400F0A37425F07B007A0079217F0C1233
:103ED3002E738F24E524704A900637E0FBA3E0FAA3
:103EE300A3E0F912242990069CF054F0FFBFF013CD
:103EF300E030E30590000280039000011224429019
:103F0300069EF0120003E526AE257803CEC313CE3A
:103F130013D8F9FF900634E0FBA3E0FAA3E0F9EF2E
:103F2300800C900634E0FBA3E0FAA3E0F9E412244A
:033F33006FAF2449
:013F36002268
:10558B00900633EFF07D707F12125ACB7D707F1334
:10559B00125ACB900633E014601514601D1460256D
:1055AB002403702FE4FD7F12125A4AE4FD801F7D05
:1055BB00107F12125A4A7D1080147D207F12125ACE
:1055CB004A7D2080097D307F12125A4A7D307F132D
:0655DB00125A4A7F002273
:0E53AE00900633EFF0A3EBF0A3EAF0A3E9F0D2
:1053BC007D807F12125C8D7D807F13125C8DE4FDED
:1053CC007F0D125C8D752230900633E0F5237F0142
:1053DC007E007D007C001243519006577402F090C1
:1053EC000634E0F9A3E0FAA3E0900658C9F0A3EA6A
:1053FC00F0A3E9F0A3E4F0A37400F0A37424F07B11
:0C540C00007A0079227F0C122E738F2191
:015418002271
:1051EA007522A28F23122429F52490000112244249
:1051FA00F525900002122442F5269000031224425B
:10520A00F5277F0A7E007D007C00124351900657E5
:10521A007406F0A3E4F0A37400F0A37428F0A3E4E6
:10522A00F0A37400F0A37429F07B007A0079227F3E
:10523A000C122E738F21E528640A60047F01800214
:10524A007F00E52160047E0180027E00EE4F60034C
:05525A007F01227F002E
:01525F00222C
:0B4A2900900633EBF0A3EAF0A3E9F0E5
:104A34007F057E007D007C0012435190063C74503B
:104A4400F0783D7C067D01900633E0FBA3E0FAA3F9
:104A5400E0F97E007F041224039006577405F09059
:104A64000639E0F9A3E0FAA3E0900658C9F0A3EAF6
:104A7400F0A3E9F0A37401F0A37406F0A37441F069
:104A84007B017A06793C7F0C122E73AD07ED701F03
:104A9400900641E0FEA3E07803CEC313CE13D8F909
:104AA400FF900636E0FBA3E0FAA3E0F9EF800C9058
:104AB4000636E0FBA3E0FAA3E0F9E412246FAF05A5
:014AC40022CF
:0B3A0400900633EBF0A3EAF0A3E9F01A
:103A0F007F057E007D007C0012435190063D7405BA
:103A1F00F0E4A3F0A37408F09006577403F0900637
:103A2F0036E0F9A3E0FAA3E0900658C9F0A3EAF054
:103A3F00A3E9F0A37401F0A37406F0A37440F07B24
:103A4F00017A06793D7F0C122E7390063CEFF060E1
:103A5F0003023B1B900640E0FEA3E07803CEC313A6
:103A6F00CE13D8F9FF900633E0FBA3E0FAA3E0F9F9
:103A7F00EF12246F900636E0FBA3E0FAA3E02401D7
:103A8F00F9E43AFAC003C002A3E0FBA3E0FAA3E013
:103A9F00F8AC02AD03D002D0037E007F04122403E2
:103AAF00900636E0FBA3E0FAA3E02406F9E43AFA25
:103ABF00C003C002C001A3E0FBA3E0FAA3E024040B
:103ACF00F9E43AA801FCAD03D001D002D0037E0087
:103ADF007F04122403900636E0FBA3E0FAA3E02450
:103AEF000AF9E43AFAC003C002C001A3E0FBA3E065
:103AFF00FAA3E02408F9E43AA801FCAD03D001D001
:103B0F0002D0037E007F03122403800F900633E060
:103B1F00FBA3E0FAA3E0F9E412246F90063CE0FF68
:013B2F002273
:0B3B3000900633EBF0A3EAF0A3E9F0ED
:103B3B007F057E007D007C0012435190063D74058D
:103B4B00F0E4A3F0A3F09006577403F0900636E070
:103B5B00F9A3E0FAA3E0900658C9F0A3EAF0A3E9B1
:103B6B00F0A37401F0A37406F0A37440F07B017A08
:103B7B0006793D7F0C122E7390063CEFF06003022A
:103B8B003C45900640E0FEA3E07803CEC313CE1372
:103B9B00D8F9FF900633E0FBA3E0FAA3E0F9EF12AC
:103BAB00246F900636E0FBA3E0FAA3E02401F9E4CE
:103BBB003AFAC003C002A3E0FBA3E0FAA3E0F8AC1F
:103BCB0002AD03D002D0037E007F041224039006C3
:103BDB0036E0FBA3E0FAA3E02406F9E43AFAC003CB
:103BEB00C002C001A3E0FBA3E0FAA3E02404F9E4C4
:103BFB003AA801FCAD03D001D002D0037E007F04B4
:103C0B00122403900636E0FBA3E0FAA3E0240AF9A2
:103C1B00E43AFAC003C002C001A3E0FBA3E0FAA39D
:103C2B00E02408F9E43AA801FCAD03D001D002D09E
:103C3B00037E007F03122403800F900633E0FBA367
:0E3C4B00E0FAA3E0F9E412246F90063CE0FFDB
:013C59002248
:0B464F00900633EBF0A3EAF0A3E9F0C3
:10465A007F057E007D007C0012435190063C741D4C
:10466A00F0783D7C067D01900633E0FBA3E0FAA3D7
:10467A00E0F97E007F04122403E4900641F0A3745B
:10468A0008F0A37401F0A3F09006577409F090069D
:10469A0039E0F9A3E0FAA3E0900658C9F0A3EAF0DA
:1046AA00A3E9F0A37401F0A37406F0A37445F07BA8
:1046BA00017A06793C7F0C122E73AD07ED701F90BC
:1046CA000645E0FEA3E07803CEC313CE13D8F9FF64
:1046DA00900636E0FBA3E0FAA3E0F9EF800C90061F
:0F46EA0036E0FBA3E0FAA3E0F9E412246FAF057A
:0146F900229E
:0B4DB700900633EBF0A3EAF0A3E9F054
:104DC2007F057E007D007C00124351E4900639F09D
:104DD200A37436F0E4A3F0A3F0A37408F09006578E
:104DE2007405F0900636E0F9A3E0FAA3E0900658C5
:104DF200C9F0A3EAF0A3E9F0A37401F0A37406F0EA
:104E0200A3743EF07B017A0679397F0C122E73ADC2
:104E120007ED701F90063EE0FEA3E07803CEC313B9
:104E2200CE13D8F9FF900633E0FBA3E0FAA3E0F932
:104E3200EF800C900633E0FBA3E0FAA3E0F9E41262
:044E4200246FAF0525
:014E46002249
:065CAF000600FFFF0000EB
:0E401600900633EFF0A3EBF0A3EAF0A3E9F07D
:10402400783C7C067D017BFF7A5C79AF7E007F065D
:10403400122403900633E0FF601664016012EF64FB
:1040440003600DEF64076008EF640F60037F0122D3
:10405400900633E0900641F07F0A7E007D007C00EC
:104064001243519006577406F0900637E0F9A3E026
:10407400FAA3E0900658C9F0A3EAF0A3E9F0A37408
:1040840001F0A37406F0A3743AF07B017A06793C3C
:104094007F0C122E73EF704090063AE0FEA3E07896
:1040A40003CEC313CE13D8F9FF900634E0FBA3E08C
:1040B400FAA3E0F9EF12246F900637E0FBA3E0FACD
:1040C400A3E02402F9E43AFA78BC7C067D017E0080
:1040D4007F081224037F0022900634E0FBA3E0FA59
:0940E400A3E0F9E412246F7F014E
:0140ED0022B0
:1035E9005B067101020304050607080901020304C9
:0E35F900050607080901020304050607080974
:10125700E50964016003021B67E50A6003021B6777
:10126700F50990037EE0FBA3E0FAA3E0F9E412247A
:101277006F90037EE0FBA3E0FAA3E0F912242912A2
:1012870026901B670012FF01130502130B0313348B
:1012970004137E0513AF06140907145F08146509C4
:1012A700146B0A14AD0B14F70C14FD1015A51115CA
:1012B700D912162013164B14166A1516951616AD65
:1012C7001716D11816F02017442117982217B023A4
:1012D70017EF24182A2518772618D6271911311938
:1012E700623219A23319E2341A1D351A6E521AA93D
:1012F700531ADB6000001B53120026021AC5125C4A
:101307000A021AC5900383E0FBA3E0FAA3E02401D5
:10131700F9E43AFA12580D900383E0FBA3E0FAA32D
:10132700E0F9EF12246F9003827441F02290038357
:10133700E0FBA3E0FAA3E0F9E412246F90037EE058
:10134700FBA3E0FAA3E0F9900001122442FF900307
:1013570083E0FBA3E0FAA3E0F9900001EF122481F8
:1013670090037EE0FBA3E0FAA3E0F99000011224CA
:1013770042FF125CA3807990037EE0FBA3E0FAA30F
:10138700E0F9900001122442FF900002122442FD6E
:10139700125C8D900383E0FBA3E0FAA3E0F9E4126B
:1013A700246F90038204F022900383E0FBA3E0FA0A
:1013B700A3E0F9E412246F90037EE0FBA3E0FAA315
:1013C700E0F9900001122442FF900383E0FBA3E0C1
:1013D700FAA3E0F9900001EF12248190037EE0FB6D
:1013E700A3E0FAA3E0F9900001122442FF125C5433
:1013F700900383E0FBA3E0FAA3E0F9900002EF0279
:1014070014ED90037EE0FBA3E0FAA3E0F99000015E
:10141700122442FF900002122442FD125B44900303
:1014270083E0FBA3E0FAA3E0F9EF12246F90037EB9
:10143700E0FBA3E0FAA3E0F9900001122442FF9039
:101447000383E0FBA3E0FAA3E0F9900001EF122485
:10145700819003827402F022125C7E021AC5125B2D
:1014670027021AC57F03125260E4FF124B5D7B010E
:101477007A06798C124BF5900383E0FBA3E0FAA37D
:10148700E0F9EF12246F90068CE0FF900383E0FBF6
:10149700A3E0FAA3E0F9900001EF12248190068DF2
:1014A700E090000280407F03125260E4FF124B5D20
:1014B7007B017A06798C124C8C900383E0FBA3E0C6
:1014C700FAA3E0F9EF12246F90068CE0FF900383F4
:1014D700E0FBA3E0FAA3E0F9900001EF122481906A
:1014E700068DE09000021224819003827403F0229B
:1014F7001254DF021AC57F03125260E4FF124B5DDC
:101507007B017A06798C122BCC900383E0FBA3E056
:10151700FAA3E0F9EF12246F900383E0FBA3E0FA4C
:10152700A3E02401F9E43AA801FCAD037B017A06A4
:10153700798C7E007F02122403900383E0FBA3E0F3
:10154700FAA3E02403F9E43AA801FCAD037B017A8E
:1015570006798E7E007F01122403900383E0FBA3AC
:10156700E0FAA3E02404F9E43AA801FCAD037B0107
:101577007A06798F7E007F0C122403900383E0FBA9
:10158700A3E0FAA3E02410F9E43AA801FCAD037B39
:10159700017A06799B7E007F0112240380749003F1
:1015A7007EE0FBA3E0FAA3E0F9900001122442FFDA
:1015B700900002122442FDE92403F9E43AFA900666
:1015C7004E7401F0A37406F0A3748FF012459C02C9
:1015D7001AC590037EE0FBA3E0FAA3E0F9900002AE
:1015E70012244225E025E0FF9000011224422FFF3C
:1015F700900383E0FBA3E0FAA3E02401F9E43AFABD
:10160700124E47900383E0FBA3E0FAA3E0F9EF1241
:10161700246F9003827411F02290037EE0FBA3E015
:10162700FAA3E0F990000212244225E025E0FF909A
:1016370000011224422FFFE92403F9E43AFA124485
:1016470018021AC590037EE0FBA3E0FAA3E0F99025
:101657000001122442FFE92402F9E43AFA12479EF4
:10166700021AC590037EE0FBA3E0FAA3E0F990001D
:101677000212244225E025E0FF9000011224422FA8
:10168700FFE92403F9E43AFA124842021AC5900323
:101697007EE0FBA3E0FAA3E0F9900001122442FFE9
:1016A700125419021AC590037EE0FBA3E0FAA3E0E7
:1016B700F990000212244225E025E0FF9000011274
:1016C70024422FFF12498A021AC590037EE0FBA32A
:1016D700E0FAA3E0F9900001122442FFE92402F99D
:1016E700E43AFA12547D021AC590037EE0FBA3E0A8
:1016F700FAA3E0F9900001122442FF90000212249D
:1017070042FD900383E0FBA3E0FAA3E02401F9E4A0
:101717003AFAC003C002C001900383A3E0FAA3E032
:101727002402F9E43AFA900638EBF0A3EAF0A3E9C9
:10173700F0D001D002D003123608021B2F90037E8F
:10174700E0FBA3E0FAA3E0F9900001122442FF9026
:101757000002122442FD900383E0FBA3E0FAA3E01A
:101767002401F9E43AFAC003C002C001900383A33D
:10177700E0FAA3E02402F9E43AFA900638EBF0A382
:10178700EAF0A3E9F0D001D002D0031248E6021B29
:101797002F90037EE0FBA3E0FAA3E0F9900001128B
:1017A7002442FF12558B021AC5900383E0FBA3E086
:1017B700FAA3E02401F9E43AFA900637EBF0A3EA3A
:1017C700F0A3E9F0900383A3E0FAA3E02402F9E48D
:1017D7003AFA90063AEBF0A3EAF0A3E9F07B017A34
:1017E7000679717F19024FEA900383E0FBA3E0FAC1
:1017F700A3E02401F9E43AFAC003C002C001900350
:1018070083A3E0FAA3E02402F9E43AFA900636EB60
:10181700F0A3EAF0A3E9F0D001D002D00312428688
:10182700021B2F90037EE0FBA3E0FAA3E0F99000F0
:1018370001122442FF900383E0FBA3E0FAA3E02414
:1018470001F9E43AFAC003C002C001900383A3E0A0
:10185700FAA3E02402F9E43AFA900637EBF0A3EA98
:10186700F0A3E9F0D001D002D003123E45021B2FAE
:1018770090037EE0FBA3E0FAA3E0F99000011224B5
:1018870042FFE92402F9E43AFAC003C002C001901A
:101897000383E0FBA3E0FAA3E02401F9E43AFA901A
:1018A700063DEBF0A3EAF0A3E9F0900383A3E0FA87
:1018B700A3E02402F9E43AFA900640EBF0A3EAF039
:1018C700A3E9F0D001D002D0031238B9021B2F9040
:1018D7000383E0FBA3E0FAA3E02401F9E43AFAC0AA
:1018E70003C002C001900383A3E0FAA3E02402F936
:1018F700E43AFA900636EBF0A3EAF0A3E9F0D00158
:10190700D002D003125535021B2F7F031252607F7E
:1019170001124B5D900383E0FBA3E0FAA3E02401EF
:10192700F9E43AFAC003C002C001900383A3E0FAC6
:10193700A3E02402F9E43AFA900636EBF0A3EAF0C2
:10194700A3E9F0A37401F0A37406F0A374A7F0D081
:1019570001D002D003123B30021B2F900383E0FB20
:10196700A3E0FAA3E02401F9E43AFA900636EBF093
:10197700A3EAF0A3E9F0900383A3E0FAA3E024022B
:10198700F9E43AFA900639EBF0A3EAF0A3E9F07B21
:10199700017A0679A712464F021B2F900383E0FBBB
:1019A700A3E0FAA3E02401F9E43AFA900636EBF053
:1019B700A3EAF0A3E9F0900383A3E0FAA3E02402EB
:1019C700F9E43AFA900639EBF0A3EAF0A3E9F07BE1
:1019D700017A0679A7124A29021B2F900383E0FB9D
:1019E700A3E0FAA3E02401F9E43AFAC003C002C075
:1019F70001900383A3E0FAA3E02402F9E43AFA9002
:101A07000636EBF0A3EAF0A3E9F0D001D002D00349
:101A1700124DB7021B2F7F031252607F01124B5DDD
:101A2700900383E0FBA3E0FAA3E02401F9E43AFA88
:101A3700C003C002C001900383A3E0FAA3E024021D
:101A4700F9E43AFA900636EBF0A3EAF0A3E9F0A33B
:101A57007401F0A37406F0A374A7F0D001D002D0EC
:101A670003123A04021B2F90037EE0FBA3E0FAA3C4
:101A7700E0F9900001122442FF900383E0FBA3E00A
:101A8700FAA3E02401F9E43AFA1253AE900383E093
:101A9700FBA3E0FAA3E0F9EF12246F900382740529
:101AA700F02290037EE0FBA3E0FAA3E0F9900001A7
:101AB700122442FFE92402F9E43AFA1251EA9003A8
:101AC70083E0FBA3E0FAA3E0F9EF12246F9003820F
:101AD7007401F0227F031252607F02124B5D900364
:101AE7007EE0FBA3E0FAA3E0F9900001122442FF95
:101AF700900383E0FBA3E0FAA3E02401F9E43AFAB8
:101B0700C003C002C001900383A3E0FAA3E024024C
:101B1700F9E43AFA900637EBF0A3EAF0A3E9F0D03C
:101B270001D002D003124016900383E0FBA3E0FA32
:101B3700A3E0F9EF12246F900383E0FBA3E0FAA37D
:101B4700E0F990000112244224028010900383E000
:101B5700FBA3E0FAA3E0F9740112246F900382F06B
:011B6700225B
:0C568A00C2B6125696C2B5125696D2B6A1
:105696000000000000000000000000000000000004
:1056A60000000000000000000000000000000000F4
:1056B60000000000000000000000000000000000E4
:0B56C6000000000000000000000022B7
:105AAB00D2B5D2B612569620B5037F0022C2B512DC
:105ABB00569630B5037F0022C2B51256967F01224F
:085C930012568AD2B5025696A2
:085C9B0012568AC2B6025696A9
:0F5C6300C2B6125696D2B5125691C2B6025696D6
:0D59DB00EAFF125A231259E8AF03125A23B3
:1059E800C2B6125696D2B512569130B505C2B67FD8
:0759F8000022C2B67F01226C
:105A23007E08AD061EED6018C2B6125696EF30E73B
:105A330004D2B58002C2B5EF25E0FF12569180E291
:025A4300C2B6E9
:015A4500223E
:105A68007F08E4FED2B5AD071FED6011EE25E0FE1C
:105A7800C2B612569130B5EE4401FE80E9C2B6AF07
:015A88000617
:015A890022FA
:105AEA00E49002F3F09002F3E0D3943C500E125A81
:0F5AFA00AB7FAE125A231259E8EF60E9025C93BA
:10534000E0FF9006C5F09006B2E0FBA3E0FAA3E010
:0C535000F9A3E0FCA3E0FDEF90063DF0A7
:10535C0090063BECF0A3EDF0125AABEF7002FF227B
:10536C007FAE125A231259E890063BE0FF125A23E3
:10537C001259E890063BA3E0FF125A231259E89009
:10538C00063DE0FF14F0EF6013122429FF125A239C
:10539C001259E8740129F9E43AFA80E3125C937F1C
:0253AC000122DC
:10329F009006B2EBF0A3EAF0A3E9F0A3ECF0A3EDF4
:0132AF00F02E
:1032B000E49006B9F0A3F0A3F0ED540FFFC374102F
:1032C0009FF09006B7E0FCA3E0FDECC4F854F0C812
:1032D000EDC4540F48A3F0ED540FA3F0EF706F90BE
:1032E00006B9E0700CA3125340EF7002FF220234C3
:1032F000769006B9E0FF14F0EF603E9006C57410BA
:10330000F09006B2E0FBA3E0FAA3E0F9A3E0FCA38F
:10331000E0FD7410125358EF7002FF22125AEA9027
:1033200006B6E02410F09006B5E03400F09006B345
:10333000E475F0101224F880B89006BAE0FF70032C
:10334000023479125342EF7002FF22023476900663
:10335000B9E070739006BBE0FFFDD39006B8E09D26
:103360009006B7E0940040519006C5EF125345EF28
:103370007002FF22125AEA9006B7A3E0FF9006BB44
:10338000E0FEC3EF9E9006C5F09006B2E0FBA3E01E
:10339000FAA3E0F9EEFF7E00E92FF9EE3AFA900683
:1033A000B6E02FFD9006B5E03EFC9006C5E0125356
:1033B00058EF7002FF220234769006BA125340EFA3
:1033C0007002FF220234769006BBE0FDFFC3900638
:1033D000B8E09FF09006B7E09400F0E0FAA3E0FBBD
:1033E000EAC4F854F0C8EBC4540F48A3F0EB540FF0
:1033F000A3F0ED6026125342EF7002FF22125AEA48
:103400009006BBE0FF7E009006B6E02FF09006B578
:10341000E03EF09006B3EE8FF080479006B9E0FFF3
:1034200014F0EF60429006C57410F09006B2E0FB15
:10343000A3E0FAA3E0F9A3E0FCA3E0FD90063D744D
:1034400010F012535CEF7002FF22125AEA9006B697
:10345000E02410F09006B5E03400F09006B3E47577
:10346000F0101224F880B49006BAE0FF600B1253FB
:0B34700042EF7002FF22125AEA7F01B7
:01347B00222E
:105A8A007B017A067938AD07AC0690066FE4F0A37D
:105A9A0004F012506FEF6006900638E0FF227F0094
:015AAA0022D9
:10594500AB07AA06AC05125AABEF7002FF227FAE79
:10595500125A231259E81259DBAF04125A2312596D
:07596500E8125C937F0122B0
:10506F0090066AEBF0A3EAF0A3E9F0AB05AA0412ED
:10507F005AABEF7002FF227FAE125A231259E8EF9C
:10508F007005125C93FF221259DB125AAB7FAF12DD
:10509F005A231259E890066FE07002A3E0604012A5
:1050AF005A6890066AE0FBA3E0FAA3E0F9EF122436
:1050BF006F90066FE07004A3E064017005125C63EB
:1050CF008003125C9B90066BE475F0011224F8903C
:1050DF000670E024FFF090066FE034FFF080B61208
:0550EF005C937F01222B
:105BB00090066FE4F0A3EFF07DF07CFF12506FEFE2
:085BC00060037F01227F002237
:085B6100E0FBA3E0FAA3E0F968
:105B690090063DEDF07DF07CFF12535CEF60037F02
:055B790001227F002263
:1059FF007D447FFA7EFF1259457D077FFB7EFF12A4
:105A0F0059457D037FFD7EFF1259457DFF7FF17E56
:045A1F00FF025945E4
:1044DD00900633EEF0A3EFF0A3EBF0A3EAF0A3E91F
:1044ED00F0D3EF9420EE9400900635E0FBA3E0FAB4
:1044FD00A3E0F95013900633A3E0FD125B69E4903D
:10450D000633F0A3F00245907D20125B69900634CE
:10451D00E024E0F0900633E034FFF0900636E475C9
:10452D00F0201224F8805CD3900634E094009006BD
:10453D0033E0940040587FF27EFF125A8AEF543FC9
:10454D00D39408503E900633E0FEA3E0FF9418EE9E
:10455D009400500FA3AD07125B61E4900633F0A3F6
:10456D00F080209006357D18125B61900634E024B2
:10457D00E8F0900633E034FFF0900636E475F0185D
:0E458D001224F87D557FF47EFF125945809967
:01459B0022FD
:105636000A41542B5645520A0041542B5645520AEC
:10564600000A41542B4E414D450A0041542B4E4110
:105656004D450A0052462D424C45342E30004F4BE4
:10566600000A41542B4D41430A0041542B4D4143FE
:105676000A0041542B4E414D4552462D424C45346D
:045686002E300A00B8
:0B3C5A00900645EBF0A3EAF0A3E9F0B0
:103C65001224297002FF22E490064DF0A3F0A3F080
:103C7500A3F090064BE0FEA3E0FFC390064EE09F45
:103C850090064DE09E4003023D4F900645E0FBA3A4
:103C9500E0FAA3E0F990064FE0FEA3E0F5828E83FB
:103CA500122442FF900651F0900648E0FBA3E0FA8B
:103CB500A3E0F990064DE0FCA3E0F5828C83122485
:103CC500426F707290064DE0FEA3E0FFD390064C64
:103CD500E09F90064BE09E4056900645E0FBA3E032
:103CE500FAA3E0F990064FE0FCA3E0F5828C83127D
:103CF5002442900651F0700890064DA3E004FF227F
:103D0500900648E0FBA3E0FAA3E0F98F828E8312C8
:103D15002442FD900651E0B505150FBF00010E9038
:103D25000650E004F070A590064FE004F0809DE495
:103D350090064FF0A3F090064EE004F06003023CBD
:0C3D45007790064DE004F0023C777F0010
:013D5100224F
:10309E0078337C067D017BFF7A5679787E007F122D
:1030AE00122403C282E4900297F0900297E0C39438
:1030BE000540F7D282E4900297F0900297E0C39415
:1030CE000540F7C284E4900297F0900297E0C39413
:1030DE000540F7E49002E3F09002E1F0900002F078
:1030EE00A3F07BFF7A567936FDFC1257957BFF7A5B
:1030FE0056793FE4FDFC1257D1E4900297F090020E
:10310E0097E0C3940540F7E49002E3F07B017A0167
:10311E0079CD900002E0FCA3E0FD125795E49000FB
:10312E0002F0A3F07F0D1258B37F0A1258B3E49049
:10313E0002E3F09002E1F0900002F0A3F07BFF7A40
:10314E00567947FDFC1257957BFF7A567951E4FD6F
:10315E00FC1257D1E4900297F09006487401F0A348
:10316E007401F0A374CDF0900002E0FFA3E090068E
:10317E004BCFF0A3EFF07BFF7A56795A123C5AEF01
:10318E007009900297E0D3940F40CEE49002E3F0E2
:10319E007B017A0179CD900002E0FCA3E0FD12578D
:1031AE0095E4900002F0A3F0900297E0D3940F50B4
:1031BE0003023247E49002E3F09002E1F090000245
:1031CE00F0A3F07F0D1258B37F0A1258B37B017A29
:1031DE00067933E4FDFC1257957B017A067933E4C8
:1031EE00FDFC1257D1E4900297F09006487401F05E
:1031FE00A37401F0A374CDF0900002E0FFA3E09061
:10320E00064BCFF0A3EFF07BFF7A567964123C5A4F
:10321E00EF7009900297E0D3940F40CEE49002E352
:10322E00F07B017A0179CD900002E0FCA3E0FD1263
:10323E005795E4900002F0A3F0E49002E3F09002C0
:10324E00E1F0900002F0A3F07BFF7A567967FDFC67
:10325E001257957BFF7A567970E4FDFC1257D1E434
:10326E00900297F0900297E0C3940540F7E4900225
:10327E00E3F07B017A0179CD900002E0FCA3E0FD42
:10328E00125795E4900002F0A3F09002E1F0D28480
:01329E00220D
:10599200AB07ECF5C3AF058FC475C783AF038FC5E3
:1059A20075C65A75C6A500E4F5C5F5C6F5C775C432
:0559B200FF75C3FF2298
:03000000024ED3DA
:0C4ED300787FE4F6D8FD75814F024F1A7D
:10233300E709F608DFFA8046E709F208DFFA803E8C
:1023430088828C83E709F0A3DFFA8032E309F60879
:10235300DFFA8078E309F208DFFA807088828C83E1
:10236300E309F0A3DFFA806489828A83E0A3F60895
:10237300DFFA805889828A83E0A3F208DFFA804C6F
:1023830080D280FA80C680D4806980F28033801046
:1023930080A680EA809A80A880DA80E280CA8033AF
:1023A30089828A83ECFAE493A3C8C582C8CCC58327
:1023B300CCF0A3C8C582C8CCC583CCDFE9DEE780F7
:1023C3000D89828A83E493A3F608DFF9ECFAA9F076
:1023D300EDFB2289828A83ECFAE0A3C8C582C8CCCC
:1023E300C583CCF0A3C8C582C8CCC583CCDFEADEE5
:1023F300E880DB89828A83E493A3F208DFF980CC47
:1024030088F0EF60010E4E60C388F0ED2402B4043F
:102413000050B9F582EB2402B4040050AF232345E6
:0624230082239023837365
:10242900BB010689828A83E0225002E722BBFE02B1
:09243900E32289828A83E49322E4
:10244200BB010CE58229F582E5833AF583E022504F
:1024520006E92582F8E622BBFE06E92582F8E22299
:0D246200E58229F582E5833AF583E49322B3
:10246F00BB010689828A83F0225002F722BBFE014C
:02247F00F32246
:10248100F8BB010DE58229F582E5833AF583E8F091
:10249100225006E92582C8F622BBFE05E92582C83D
:0224A100F22225
