:10614B00759850E4F587438E40538EFE53890F7537
:0E615B008BE8758DFFC2ABD28ED2ACD2AF22D4
:1061C000900662E0FBA3E475F001122981A9F0FAC0
:0461D00012289CFFF6
:0661D400900665EFF022C9
:105DCA00900662EBF0A3EAF0A3E9F0ED4C701D90A7
:105DDA000662E0FBA3E0FAA3E0F912289C601CB477
:105DEA000A057F0D1261D41261C080E3ED1DAE0475
:0C5DFA0070011C4E60051261C080F12297
:105EE100900644E0FBA3E475F001122981A9F0FAC0
:045EF10012289CFFD8
:105EF500C2ACD297C299309F05EFA2D0929B8F99E1
:0A5F05003099FDC299C297D2AC2278
:105E0600900644EBF0A3EAF0A3E9F0ED4C701D9088
:105E16000644E0FBA3E0FAA3E0F912289C601CB458
:105E26000A057F0D125EF5125EE180E3ED1DAE04FC
:0C5E360070011C4E6005125EE180F1223C
:105F0F00900644E0FBA3E475F001122981A9F0FA91
:045F1F0012289CFFA9
:105F230053AFFE539AFD8F9BE59A30E1FB539AFDE5
:045F330043AF012255
:105E4200900644EBF0A3EAF0A3E9F0ED4C701D904C
:105E52000644E0FBA3E0FAA3E0F912289C601CB41C
:105E62000A057F0D125F23125F0F80E3ED1DAE0462
:0C5E720070011C4E6005125F0F80F122D1
:10000E0053BAFE759A5075D7E875D6FF438E1443D2
:05001E00AF01D2AF228A
:104D1B000AB5E3B3AED4B10A000AB8B4BACFD4B172
:104D2B000A000AB1E0D2EBCAB1BCE432303138C46C
:104D3B00EA3132D4C23138C8D50A00504943435FF7
:104D4B00412E5549443D3078004943435F74797097
:104D5B00653D307800464D31315F4F4B0A00B3B59E
:104D6B00C5C6CABEDDB4EDCEF30A00D0D5C3FBCAAF
:104D7B00BEDDB4EDCEF30A00786F723D0063726353
:104D8B003D0A00BFA8C4DAC8DDBFD50A00464D31C5
:104D9B00375F4F4B0A00C0B6D1C0D6DC0000000015
:104DAB0000000000000000000000000000000000F8
:064DBB00000000000000F2
:10303F0060C8010500000000000000000000000053
:10304F000000000000000000000000000000000071
:10305F000000000000000000000000000000000061
:10306F000000000000000000000000000000000051
:10307F000000000000000000000000000000000041
:10308F000000000000000000000000000000000031
:10309F000000000000000000000000000000000021
:1030AF000000000000000000000000000000000011
:1030BF000000000000000000000000000000000001
:1030CF0000000000000000000000000000000000F1
:1030DF0000000000000000000000000000000000E1
:1030EF0000000000000000000000000000000000D1
:1030FF00000000000000000000000000420000007F
:10310F000060C801CD0000000000000000000000BA
:10311F0000000000000000000000000000000000A0
:10312F000000000000000000000000000000000090
:10313F000000000000000000000000000000000080
:10314F000000000000000000000000000000000070
:10315F000000000000000000000000000000000060
:10316F000000000000000000000000000000000050
:10317F000000000000000000000000000000000040
:10318F000000000000000000000000000000000030
:10319F000000000000000000000000000000000020
:1031AF000000000000000000000000000000000010
:1031BF000000000000000000000000000000000000
:1031CF0000000000000000000000000000420002AC
:1031DF0000004102EA004102D30041029500410282
:1031EF00EC0A4102F4004602ABFFFFFFFFFFFF6155
:1031FF00010004B2D9D7F7D4B13A20000000000083
:10320F0000000000000000000000000000000000AF
:10321F00000000000000000000000000000000009F
:10322F00000000000000000000000000000000008F
:10323F00000000000000000000000000000000007F
:10324F00000000000000000000000000000000006F
:10325F00000000000000000000000000000000005F
:10326F00000000000000000000000000000000004F
:10327F00000000000000000000000000000000003F
:10328F00000000000000000000000000000000002F
:10329F00000000000000000000000000000000001F
:1032AF00000000000000000000000000000000000F
:1032BF0000000000000000000000000000000000FF
:1032CF0000000000000000000000000000000000EF
:1032DF0000000000000000000000000000000000DF
:1032EF0000000000000000000000000000000000CF
:1032FF00000000004602EEC8F0B7E5181341029730
:10330F000041035B00410296004102B10041029966
:10331F000041029800C1024102F6004102F500414E
:10332F00035C004102EB0051029A303132333435E5
:0F333F0036373839414243444546004102ED00DC
:0462FB0075C1352212
:10558E009005A2E0FFFCA3E0FD9005A0E0FAA3E0E9
:10559E00FBC39DFDEA9CFC74AA2DF58274053CF5B7
:1055AE0083EFF09005A2A3E0FF74AB2DF582740596
:1055BE003CF583EFF0EB24F8EA34FF9005B2F0EB04
:1055CE0024F8A3F07B017A0579AC9005A0E0FCA34A
:0255DE00E0FDEE
:1055E00090063DEBF0A3EAF0A3E9F0A3ECF0A3ED05
:0155F000F0CA
:1055F100E4FF90064074FFF5F012298145F0601731
:1056010090063DE0FBA3E475F001122981A9F0FAAF
:0756110012289C6FFF80DBF3
:01561800226F
:085D000090063BEEF0A3EFF06A
:105D0800E4FBFAFCED6AFEEE30E71CEBAE0278012C
:105D1800088005C333CE33CED8F9FF90063BE06E3A
:105D2800FAA3E06FFB8007EB25E0FBEA33FAED25E9
:0B5D3800E0FD0CECB408CDAE02AF03A0
:015D4300223D
:105723009002B2F07A0279B27B01900637E4F0A3DB
:07573300741EF07F057E806B
:10573A00900632EEF0A3EFF0A3EBF0A3EAF0A3E9B0
:01574A00F06E
:10574B00E4900639F0A3F090063774FFF5F01229B8
:10575B008145F0603A900639E0FF900634E0FBA3F8
:10576B00E475F001122981A9F0FA12289C6FFD90C3
:10577B000632E0FEA3E0FF125D00AC06AD0790061B
:10578B003AE06CFFED900639CFF0A3EFF080B890C4
:07579B000639E0FEA3E0FF68
:0157A20022E4
:105EB2001262B87F327E00125EC31262B87F327EF7
:015EC20000DF
:105EC300D3EF9400EE940040147D6E7C00ED1D70C2
:0D5ED300011CED4C70F7EF1F70E61E80E320
:015EE000229F
:10497400F07B01A314F0A37402F074FAA3F07A029A
:0449840079EEE4FFE5
:10498800900632EFF0A3EBF0A3EAF0A3E9F0A3E07E
:10499800D3648094835009A3E0FE6480948F40031D
:1049A8007F0022EE25E025E0FF900636E02FF07F1D
:1049B8000312588FE4FF12518C7B017A06798B120F
:1049C8003371900384E0FBA3E0FAA3E0F9EF122827
:1049D800E2900384E0FBA3E0FAA3E0F912289C70BC
:1049E80048900632E0FF900637E0FD90064D7401CE
:1049F800F0A37406F0A3748EF0900633E0FBA3E0F6
:104A0800FAA3E0F9124BBDEF701D900636E0FF9057
:104A18000638E0FBA3E0FAA3E0F9124A39EF70097F
:104A2800FF12588F7F01228000E4FF12588F7F0009
:014A3800225B
:10471700E4900643F0A304F0A3F0A37400F0A3749D
:0A47270004F07B017A0279EEE4FF52
:1047310090063FEFF0A3EBF0A3EAF0A3E9F0A3E0CA
:10474100D3648094835009A3E0FE6480948F400376
:104751007F0022EE25E025E0FF900643E02FF07F69
:104761000312588FE4FF12518C7B017A06798B1268
:104771003371900384E0FBA3E0FAA3E0F9EF122880
:10478100E2900384E0FBA3E0FAA3E0F912289C7015
:104791004890063FE0FF900644E0FD90064D74010D
:1047A100F0A37406F0A3748EF0900640E0FBA3E042
:1047B100FAA3E0F9124BBDEF701D900643E0FF90A4
:1047C1000645E0FBA3E0FAA3E0F9125476EF700985
:1047D100FF12588F7F01228000E4FF12588F7F0063
:0147E10022B5
:0E3D9100900632EFF0A3EBF0A3EAF0A3E9F006
:103D9F00E490063DF0A3F090063BE0C4F854F0C861
:103DAF0068FEA3E0C4540F48FFC390063EE09F9007
:103DBF00063DE09E4003023E4B900636E0FF3395F2
:103DCF00E0FE90063DE0FCA3E0FD2FFFEC3EFEEF92
:103DDF005403900643F0EF7802CEC313CE13D8F9F5
:103DEF00FF900637E02F900644F0EDC4F8540FC84B
:103DFF0068FFECC454F048FE900638E0FBA3E0FAED
:103E0F00A3E02FF9EA3EFA900645EBF0A3EAF0A300
:103E1F00E9F0900633E0FBA3E0FAA3E0F990063255
:103E2F00E0FF124731EF601490063EE004F06003AC
:103E3F00023DA690063DE004F0023DA690063BE051
:103E4F00FCA3E0FDECC4F854F0C868FEEDC4540FB9
:103E5F0048FFA3E06E7003A3E06F7074ED540F6022
:103E6F006C900636E0FF3395E0FE90063DE0FCA334
:103E7F00E0FD2FFFEC3EFEEF5403900643F0EF788A
:103E8F0002CEC313CE13D8F9FF900637E02F90065A
:103E9F0044F0EDC4F8540FC868FFECC454F048FE6A
:103EAF00900638E0FBA3E0FAA3E02FF9EA3EFA9080
:103EBF000645EBF0A3EAF0A3E9F0900633E0FBA38D
:103ECF00E0FAA3E0F9900632E0FF0247317F0122CA
:023EDF007F0062
:013EE10022BE
:0B2CCB00900594EBF0A3EAF0A3E9F001
:102CD60090059AE024FE602C04600302303E9005C5
:102CE6009BE599F0900000E0FFA3E090059CCFF0F3
:102CF600A3EFF09002D4E0FFA3E090059ECFF0A3EF
:102D0600EFF0807A90059BE59BF0900002E0FFA330
:102D1600E090059CCFF0A3EFF09002D6E0FFA3E091
:102D260090059ECFF0A3EFF020845390059BE0FF23
:102D3600900594E0FBA3E0FAA3E0F990059CE47506
:102D4600F00112298185F082F583EF1228F49005AF
:102D56009CE0FFA3E0900002CFF0A3EFF090059770
:102D6600E0FBA3E0FAA3E0F990000374011228F453
:102D7600900002E41228F4900001E40228F4900581
:102D86009BE0FF900594E0FBA3E0FAA3E0F9900531
:102D96009CE0FCA3E0FDF5828C83EF1228F49005FD
:102DA60097E0FBA3E0FAA3E0F9C003C002C001125A
:102DB600289CFF900594E0FBA3E0FAA3E0F98D823E
:102DC6008C831228B56FD001D002D0031228E2906E
:102DD6000597E0FBA3E0FAA3E0F99000081228B5F6
:102DE6007027900594E0FBA3E0FAA3E0F990059C18
:102DF600E0FEA3E0F5828E831228B5FF90059FE0E2
:102E06002FF090059EE03400F090059DE004F070F0
:102E16000690059CE004F090059CE07004A3E06435
:102E260001707A900594E0FBA3E0FAA3E0F912287A
:102E36009CFF900597E0FBA3E0FAA3E0F9EF1228C8
:102E4600E2900594E0FBA3E0FAA3E0F912289CFFC8
:102E5600FD90059EE4F0A3EDF0900597E0FBA3E05E
:102E6600FAA3E0F9900008E41228F4900003740134
:102E76001228F4900002E41228F4900001E41228CB
:102E8600F4EF24E27002803C900597E0FBA3E0FAA1
:102E9600A3E0F9900003E41228F4022FC690059CE3
:102EA600E0FEA3E0FF64024E7037900594E0FBA3BA
:102EB600E0FAA3E0F912289CB41E1C900001122827
:102EC600B5B46013900597E0FBA3E0FAA3E0F99090
:102ED6000004741E022FC1E490059CF0A3F0022D9D
:102EE60084900597E0FBA3E0FAA3E0F990000412B2
:102EF60028B5641E6003022FC6D3EF9409EE940032
:102F06005003022FCD900594E0FBA3E0FAA3E0F96D
:102F16009000061228B5FE9000071228B57C002402
:102F260000FFEC3EFE90059DE024F6FD90059CE03A
:102F360034FFFCEF6D7002EE6C7071900597E0FB4C
:102F4600A3E0FAA3E0F912289CFFB41F0790000241
:102F560074018037900594E0FBA3E0FAA3E0F990B2
:102F6600059DE024FEFD90059CE034FF8D82F583EF
:102F76001228B5FEEF641F6EFF125EF5900597E00E
:102F8600FBA3E0FAA3E0F9900002E41228F490050E
:102F960097E0FBA3E0FAA3E0F9900003E41228F41B
:102FA600E490059CF0A3F0900001800F900597E057
:102FB600FBA3E0FAA3E0F9900002E41228F48007EC
:102FC600E490059CF0A3F090059AE024FE6034049A
:102FD6007066900597E0FBA3E0FAA3E0F990000283
:102FE6001228B5B40102C2AC90059CE0FFA3E090A4
:102FF6000000CFF0A3EFF090059EE0FFA3E0900263
:10300600D48030900597E0FBA3E0FAA3E0F99000A6
:10301600021228B5B4010353AFFE90059CE0FFA34E
:10302600E0900002CFF0A3EFF090059EE0FFA3E052
:083036009002D6CFF0A3EFF0E9
:01303E00226F
:030023000259007F
:10590000C0E0C0F0C083C082C0D075D000C000C06D
:1059100001C002C003C004C005C006C00730990220
:10592000C29930982FC298C3900001E094C89000AB
:1059300000E094004004E4F0A3F09005977401F0B7
:10594000A37402F0A374D8F0A37401F0FB7A017978
:1059500005122CCBD007D006D005D004D003D0023E
:0F596000D001D000D0D0D082D083D0F0D0E032B0
:030043000257A3BE
:1057A300C0E0C0F0C083C082C0D075D000C000C0CC
:1057B30001C002C003C004C005C006C007E59A309B
:1057C300E031539AFEC3900003E094C8900002E0D6
:1057D30094004004E4F0A3F09005977401F0A374DF
:1057E30002F0A374E1F0A37402F07B017A0179CD96
:1057F300122CCBE59A30E103539AFDD007D006D0A3
:1058030005D004D003D002D001D000D0D0D082D0B4
:0658130083D0F0D0E0326A
:0C62B800C2B47FD07E07125EC3D2B422B5
:10624D00538E7F5389F0E4F58A758C4CC28DD28CB8
:05625D00D2A9D2AF221E
:03000B0002437B32
:10437B00C0E0C0F0C083C082C0D075D000C000C008
:10438B0001C002C003C004C005C006C0079002985C
:10439B00E004F09002DBE060339002D9E004F0E03F
:1043AB00C394144027900000E0FF125EF5900000CC
:1043BB00A3E0FF125EF59002DAE4F0A3F0900000A8
:1043CB00F0A3F09002D9F07FE1125EF59002E4E0E9
:1043DB0060339002E2E004F0E0C3941440279000B5
:1043EB0002E0FF125EF5900002A3E0FF125EF59073
:1043FB0002E3E4F0A3F0900002F0A3F09002E2F0ED
:10440B007FE2125EF5308504D2028014C202900264
:10441B00F6E0B40102E4F09002F5E0B40102E4F03E
:10442B00900298E0FF75F00A84E5F07002B2A5EFF8
:10443B00C394C84005900298E4F09002F4E004F0B5
:10444B00E0D394504002E4F0D007D006D005D0045E
:10445B00D003D002D001D000D0D0D082D083D0F006
:03446B00D0E0326C
:0B1FDB00900632EBF0A3EAF0A3E9F05F
:101FE6009000021228B590063CF0C2D5ED641E6042
:101FF600030227A3900637F0A37408F0900636E094
:102006006402702F900632E0FBA3E0FAA3E0F99099
:1020160000061228B5FE9000071228B57C002400A1
:10202600FFEC3ECF240AFDE43FFC900632A3A3E07A
:10203600125E06900632E0FBA3E0FAA3E0F99000F8
:10204600041228B524FB70030223531470030224E0
:102056002D24FE7003022514240760030225F39045
:102066000637E475F00112298185F082F58374093B
:102076001228F4900637E475F00112298185F08262
:10208600F583E41228F4900637E475F001122981ED
:1020960085F082F58374041228F4900637E475F00F
:1020A6000112298185F082F58374561228F4900670
:1020B60037E475F00112298185F082F58374651283
:1020C60028F4900637E475F00112298185F082F52F
:1020D6008374721228F4900637E475F00112298190
:1020E60085F082F58374111228F49002ECE0FF90DB
:1020F600063CE06F60030221B8900632E0FBA3E0E5
:10210600FAA3E0F99000031228B5F460030221B89F
:1021160090063775F00112298185F082F583744D9A
:102126001228F4900637E475F00112298185F082B1
:10213600F58374431228F4900637E475F0011229EA
:102146008185F082F58374551228F4900637E4757C
:10215600F00112298185F082F583745F1228F490CC
:102166000637E475F00112298185F082F5837449FA
:102176001228F4900637E475F00112298185F08261
:10218600F58374441228F4E4FF740C2FF8E6FE90ED
:102196000632E0FBA3E0FAA3E0F9900637E475F017
:1021A6000112298185F082F583EE1228F40FEFB42F
:1021B60007D7900637A3E024F5FF900632E0FBA38D
:1021C600E0FAA3E0F990000AEF1228F4900637E44B
:1021D60075F00112298185F082F583740A1228F4BC
:1021E600900637E475F00112298185F082F583E4C3
:1021F6001228F4900637E475F00112298185F082E1
:10220600F58374051228F4900637E475F001122957
:102216008185F082F58374201228F4900637E475E0
:10222600F00112298185F082F58374181228F49042
:102236000637E475F00112298185F082F583741260
:102246001228F4900637E475F00112298185F08290
:10225600F58374181228F4900637E475F0011229F4
:102266008185F082F58374191228F4900636E024ED
:10227600FE600804700D9002DF80039002E874018E
:10228600F080037F022290063CE0F4600302264DB4
:10229600900632E0FBA3E0FAA3E0F99000031228CF
:1022A600B5FF6401600302264D900002EF1228F488
:1022B60090000374101228F490000474051228F498
:1022C600900006E41228F4900637E0FCA3E0FD2413
:1022D600F89000071228F41255E0900632E0FBA3AE
:1022E600E0FAA3E0F9900637E475F001122981853A
:1022F600F082F583EF1228F4900637E475F00112A8
:10230600298185F082F583741F1228F4900636E041
:1023160024FE601B047030900632E0FBA3E0FAA3B3
:10232600E0F9900637E0FCA3E0FD125E06801B9004
:102336000632E0FBA3E0FAA3E0F9900637E0FCA33F
:10234600E0FD125E4280037F02227F012290063268
:10235600E0FBA3E0FAA3E0F99000021228B5FF9093
:1023660002EAE06F600302242A9000031228B5FFF8
:102376009002D3E06F600302242A9000051228B56C
:10238600FF900295E06F600302242A90000612284F
:10239600B5FF70089000071228B56065EF70399098
:1023A6000632E0FBA3E0FAA3E0F99000071228B595
:1023B600640470249000081228B5B40C1B90000920
:1023C6001228B5701390000A1228B5B4010A9000BD
:1023D6000B1228B564016029900632E0FBA3E0FAEF
:1023E600A3E0F99000081228B56409703790000A36
:1023F6001228B5240BF582E433F5831228B5B40A06
:1024060023900636E024FE600B0470159002DE74FD
:1024160001F080109002E77401F0E490035BF08015
:10242600037F02227F0122900632E0FBA3E0FAA39B
:10243600E0F99000081228B5FF70399000051228BF
:10244600B5FE9002ECE06E70269000061228B5707C
:102456001E9000071228B5B403159000091228B57E
:10246600700D90000A1228B57005D2D502264DC20D
:10247600D502264DEF646F600302264DFDFC7F03F7
:10248600125FD4E4900639F0A3F0900632E0FBA385
:10249600E0FAA3E0F99000091228B5FE90000A12AE
:1024A60028B57C002400FFEC3EFE7D21122916C3D0
:1024B60090063AE09D900639E09C503F900639E040
:1024C600FEA3E0FF240BF582E43EF5831228B5FD5A
:1024D600F5C2745D2FF58274033EF583EDF0900628
:1024E60039E0FCA3E0FD7F02125FD490063AE004D7
:1024F600F07097900639E004F0808FE4F5C29006FC
:1025060039E0FCA3E0FD7F02125FD402264D90065F
:1025160032E0FBA3E0FAA3E0F99000081228B5FF29
:10252600643D60030225B2125EF5900632E0FBA31D
:10253600E0FAA3E0F990000B1228B5FF125EF590C1
:1025460002B1E0FF125EF5900299E0FF125EF5908F
:102556000632E0FBA3E0FAA3E0F990000B1228B5DF
:10256600FF702D9002B1E0B40107E4F09002F6EF9F
:10257600F0900299E06401600302264DF090063265
:10258600E0FBA3E0FAA3E0F990000B1228B5801552
:10259600900632E0FBA3E0FAA3E0F990000B1228C4
:1025A600B59002F6F09002F5F002264D900632E064
:1025B600FBA3E0FAA3E0F99000081228B5643F6097
:1025C6000302264D90000B1228B59002EBF070081E
:1025D6007BFF7A4D791B800E9002EBE064017067F9
:1025E6007BFF7A4D7924FDFC125E06805A900632F6
:1025F600E0FBA3E0FAA3E0F9900637E475F00112D8
:10260600298185F082F583740C1228F4900637E44C
:1026160075F00112298185F082F583E41228F49081
:102626000637E475F00112298185F082F58374017D
:102636001228F4900637E475F00112298185F0829C
:10264600F58374031228F4900632E0FBA3E0FAA3A4
:10265600E0F99000021228B5FF9002ECE06F6017D7
:1026660090063CE0F470030227769000031228B52A
:1026760064016003022776900632E0FBA3E0FAA32A
:10268600E0F99000031228B59000021228F4900693
:102696003CE09000031228F490000474051228F41C
:1026A600900006E41228F4900637E0FCA3E0FD242F
:1026B600F89000071228F41255E0900632E0FBA3CA
:1026C600E0FAA3E0F9900637E475F0011229818556
:1026D600F082F583EF1228F4900637E475F00112C4
:1026E600298185F082F583741F1228F4900636E05E
:1026F60024FE601B047046900632E0FBA3E0FAA3BA
:10270600E0F9900637E0FCA3E0FD125E068031900A
:102716000632E0FBA3E0FAA3E0F9900637E0FCA35B
:10272600E0FD125E06900632E0FBA3E0FAA3E0F9B4
:10273600900637E0FCA3E0FD125E4280037F022292
:1027460030D511E4900298F0900298E0C3940A40C4
:10275600F775C760900632E0FBA3E0FAA3E0F990B4
:102766000638E024FEFF900637E034FF8F82802390
:10277600900637E0FEA3E0FFD39408EE9400401ADB
:10278600900632E0FBA3E0FAA3E0F974FF2FF5828E
:0F27960074FF3EF5831228B5FF227F01227F00DA
:0127A5002211
:10622100C2B3C2967F647E00125EC3D2B3D2967FA0
:06623100647E00025EC362
:100046009005A574F1F0A374BFF0A374F9F0C20093
:10005600C201E4A3F0A3F0A3F0A3F078107C067D20
:10006600017BFF7A4D79A1FE7F20122876125D88EA
:10007600125FAE12628B12614B12000E12624D12AB
:1000860060411238431262FB7BFF7A4D792DE4FD05
:10009600FC125E067BFF7A4D792DE4FDFC125E4272
:1000A600E49005A0F0A3F09005A0E0FEA3E0FFC356
:1000B6009407EE9400505F9005A5E02FF8E6C4542F
:1000C6000F7E00540F249AF582EE3402F583E0FF8A
:1000D600125EF59005A0A3E0FF9005A5E02FF8E6D7
:1000E6007E00540F249AF582EE3402F583E0FF1267
:1000F6005EF59005A0A3E0FF9005A5E02FF8E6FECB
:10010600740C2FF8A6069005A1E004F070999005EE
:10011600A0E004F080917F0D125EF57F0A125EF575
:10012600E49005A0F0A3F09005A0E0FEA3E0FFC3D5
:100136009407EE9400505F9005A6E0FCA3E02FF52F
:1001460082EC3EF583E493C4540F7E00540F249A48
:10015600F582EE3402F583E0FF125EF59005A0E02D
:10016600FEA3E0FF9005A6E0FCA3E02FF582EC3E9F
:10017600F583E4937E00540F249AF582EE3402F55B
:1001860083E0FF125EF59005A1E004F070999005FA
:10019600A0E004F080917F0D125EF57F0A125EF5F5
:1001A600E49005A0F0A3F09005A0E0FCA3E0FDC359
:1001B6009420EC9400507B7F01125FD4E5C270025C
:1001C6008070E5C2B4FF47E49005A0F0A3F0900567
:1001D600A0E0FEA3E0FFC39420EE940050547410F8
:1001E6002FF58274063EF583E0FF60469005A0E099
:1001F600FCA3E0245DF58274033CF583EFF09005E3
:10020600A1E004F070C89005A0E004F080C090055D
:10021600A0E0FEA3E0245DF58274033EF583E5C20B
:10022600F09005A1E004F070069005A0E004F0024D
:1002360001AD7B017A03795DE4FDFC125E067B016C
:100246007A03795DE4FDFC125E427F0D125EF57F56
:100256000A125EF57A03795D12572B900630EEF09E
:10026600A3EFF0900630E0FCA3E0FDEC90037BF0FA
:10027600EDA3F01262B87FE87E03125EC31262211C
:10028600125FAE12628B7F647E00125EC312471746
:100296001262B87FF47E01125EC37FF77EFF1260A2
:1002A600CC1262B81216CA1262FB124717EF70031D
:1002B600020780E49005A9F090035CE06003020762
:1002C60092900014F07B017A007904FDFC125E0620
:1002D600900004E064C4705FA3E064CF7059A3E0AB
:1002E60064B27053A3E064FD704DA3E064C8704728
:1002F600A3E064F07041A3E064B7703BA3E064E55B
:100306007035A3E064B9702FA3E064AB7029A3E055
:1003160064CB7023A3E064BE701DA3E064D670179F
:10032600A3E0B4F712A3E0B4BF0DA3E0B4A808900D
:10033600035C74010203E3900004E064CD7046A3FD
:10034600E064B67040A3E064B1703AA3E064D27092
:1003560034A3E064BB702EA3E064FA7028A3E064C3
:10036600C67022A3E064D5701CA3E064CD7016A30A
:10037600E0B4A811A3E0B4BF0CA3E0B4A8079003AF
:100386005C74028058900004E064D67054A3E06464
:10039600B8704EA3E064CE7048A3E064C67042A372
:1003A600E064CD703CA3E064B67036A3E064B1703F
:1003B60030A3E064D2702AA3E064BB7024A3E06497
:1003C600FA701EA3E064B87018A3E0B4B113A3E0FA
:1003D600B4BF0EA3E0B4A80990035C7403F0020650
:1003E600AC900004E064D67050A3E064DC704AA3CD
:1003F600E064D77044A3E064AA703EA3E064B170E1
:1004060038A3E064EA7032A3E064C7702CA3E0640A
:10041600A97026A3E064BF7020A3E064A8701A90B8
:10042600035C7404F09002EBE060030206B99002EC
:1004360096E060030206B9804F900004E064B17054
:1004460050A3E064D2704AA3E064B57044A3E064AC
:10045600A8703EA3E064B17038A3E064B87032A31C
:10046600E064D3702CA3E064C37026A3E064BF707D
:1004760020A3E064A8701A90035C7405F09002EB68
:10048600E0640160030206B9125EB2125EBC0206A7
:10049600B6900004E064B560030206B1A3E064E32D
:1004A60060030206B1A3E064B360030206B1A3E0F1
:1004B60064AE60030206B1A3E064BE60030206B147
:1004C600A3E064AD60030206B1A3E064C06003026A
:1004D60006B1A3E064ED60030206B1A3E064CA605E
:1004E600030206B1A3E064DA60030206B1A3E06486
:1004F600C860030206B1A3E064A860030206B1A3C4
:10050600E064BF60030206B1A3E064A860030206CC
:10051600B190035C7406F0E49005A0F0A3F090059A
:10052600A075F001122981FE74AC25F0F5827405E0
:100536003EF583741EF09005A0E475F00112298142
:10054600FE74AC25F0F58274053EF5837460F09078
:1005560005A0E475F001122981FE74AC25F0F58240
:1005660074053EF5837401F09005A0E475F0011260
:100576002981FE74AC25F0F58274053EF583740A74
:10058600F09005A0E475F001122981FE74AC25F007
:10059600F58274053EF5837408F0900297E004FF37
:1005A600F09005A0E475F001122981FC74AC25F0E9
:1005B600F58274053CF583EFF09002EA740AF09038
:1005C60002D37401F0900297E0900295F09005A195
:1005D600E02402F09005A0E03400F0E475F001128A
:1005E6002981FE74AC25F0F58274053EF583743ED0
:1005F600F09005A1E02402F09005A0E03400F0E4BC
:100606009005A2F0A3F09005A0E475F001122981EF
:10061600FE74AC25F0F58274053EF5837401F09006
:1006260005A3E004F070069005A2E004F09005A290
:10063600E07004A3E0640170CD12558E9005A0E42D
:1006460075F001122981FC74AC25F0F58274053C25
:10065600F583EFF09005A0E475F001122981FE7490
:10066600AC25F0F58274053EF583741FF07B017AA4
:100676000579AC9005A0E0FCA3E0FD125E067B01C7
:100686007A0579AC9005A0E0FCA3E0FD125E4290ED
:10069600035B7401F0E4900298F09002F604F09087
:1006A60002F5F0125EBC125EBC8008E490035CF0BA
:1006B6001262B87BFF7A4D7946E4FDFC125E06E4D1
:1006C6009005A0F0A3F09005A0E0FEA3E0FFC39480
:1006D60004EE94005053748E2FF58274063EF58313
:1006E600E0C4540F7E00540F249AF582EE3402F5CE
:1006F60083E0FF125EF59005A0E0FEA3E0248EF5F0
:100706008274063EF583E07E00540F249AF582EE4D
:100716003402F583E0FF125EF59005A1E004F07067
:10072600A59005A0E004F0809D7F0D125EF57F0A7E
:10073600125EF57BFF7A4D7954E4FDFC125E06905D
:10074600035CE0C4540F7E00540F249AF582EE3405
:1007560002F583E0FF125EF590035CE07E00540F25
:10076600249AF582EE3402F583E0FF125EF57F0DE2
:10077600125EF57F0A125EF580129005A9E004F07C
:10078600E0D394054006E4F090035CF0E4FF1258D1
:100796008FD2B77FF77EFF1260CCEF20E403020D05
:1007A600329002EBE06003020D329005AAF0A3E05E
:1007B600700204F07B017A0279B27F201261F29016
:1007C60005A0E4F0A3EF125726900630EEF0A3EF53
:1007D600F0D2B79005A0E07004A3E06401600302C4
:1007E6000CDF900630E0FCA3E0FDECFF9002D0E0C9
:1007F600FBEF6B7001E46003020CDFAF05A3E0FDC5
:10080600EF6D7001E46003020CDF9002B2E0FF12AC
:100816005EF59002F5E0FF125EF5900299E0FF1298
:100826005EF59002B2E0640170389002F5E0640172
:100836006003020CFC7B017A03795D900637125740
:1008460031900630EEF0A3EFF0900630E0FCA3E026
:10085600FDEC90037BF0EDA3F07B017A03795D025A
:1008660009819002B2E06404600302098B90029948
:10087600E06402600302095E747E1257239006301C
:10088600EEF0A3EFF0900630E0FCA3E0FDEC900262
:10089600D0F0EDA3F07B017A0279B27F207E0012C0
:1008A6004AFE7B017A0579AC9005B2E0FEA3E07CB6
:1008B600002400FFEC3ECF240AFDE43FFC125E0656
:1008C6007B017A0579AC9005B2E0FEA3E07C0024BA
:1008D60000FFEC3ECF240AFDE43FFC125E42E490AA
:1008E60005ABF090029904F090035BF0E490029857
:1008F600F090035CE06405704F9005A0F0A3F090C3
:1009060005A0E0FEA3E0FFC39409EE9400501C741A
:10091600F72FF58274023EF583E4F09005A1E0041A
:10092600F070DC9005A0E004F080D4E4900636F088
:10093600A37402F07B01A314F0A37402F074F712FF
:100946004980EF60031262B81262B87F147E00120B
:100956005EC31262B8020CFC74FF12572390063075
:10096600EEF0A3EFF0900630E0FCA3E0FDEC900281
:10097600D0F0EDA3F07B017A0279B27F207E0012DF
:100986004AFE020CFC9002B2E064036003020CFC17
:10099600D2017BFF7A4D7960FDFC125E069002F56E
:1009A600E064016003020CFC7B017A0279B27D1CD3
:1009B600FC1255E09002CFE06F6003020CC4900574
:1009C600A0F0A3F09005A075F001122981FE74AC89
:1009D60025F0F58274053EF583741EF09005A0E4BB
:1009E60075F001122981FE74AC25F0F58274053E7E
:1009F600F5837460F09005A0E475F001122981FE7C
:100A060074AC25F0F58274053EF5837401F090050B
:100A1600A0E475F001122981FE74AC25F0F582740C
:100A2600053EF583740AF09005A0E475F0011229DD
:100A360081FE74AC25F0F58274053EF5837408F0EA
:100A4600900297E004FFF09005A0E475F0011229EA
:100A560081FC74AC25F0F58274053CF583EFF090CB
:100A660002EA740AF09002D37401F0900297E090C3
:100A76000295F09005A1E02402F09005A0E0340074
:100A8600F0E475F001122981FE74AC25F0F582744C
:100A9600053EF5837428F09005A1E02402F0900548
:100AA600A0E03400F0E49005A2F0A3F09005A2E0E7
:100AB600FEA3E0FFC39409EE9400505474B32FF5DF
:100AC6008274023EF583E0F960469005A0E475F075
:100AD60001122981FC74AC25F0F58274053CF5837E
:100AE600E9F074B32FF58274023EF583E0FFC394F8
:100AF600204004EFB4FF097BFF7A4D7969020C6F41
:100B06009005A3E004F070A49005A2E004F0809C98
:100B16009005A2E0FFFCA3E0FDC39005A1E09DFDCA
:100B26009005A0E09CFC74AA2DF58274053CF58323
:100B3600EFF09005A2A3E0FF74AB2DF58274053C9F
:100B4600F583EFF09005A0E475F001122981FE749B
:100B5600AC25F0F58274053EF583743CF09005A152
:100B6600E02402F09005A0E03400F0E49005A2F045
:100B7600A3F09005A2E0FEA3E0FFC39407EE940065
:100B8600503474BC2FF58274023EF583E0FF900565
:100B9600A0E475F001122981FC74AC25F0F582748D
:100BA600053CF583EFF09005A3E004F070C49005D2
:100BB600A2E004F080BC9005A2E0FFFCA3E0FDC328
:100BC6009005A1E09DFD9005A0E09CFC74AA2DF582
:100BD6008274053CF583EFF09005A2A3E0FF74ABA9
:100BE6002DF58274053CF583EFF09005A0E475F0D1
:100BF60001122981FE74AC25F0F58274053EF58359
:100C06007420F09005A1E02402F09005A0E03400E5
:100C1600F0E49005A2F0A3F09005A2E0FEA3E0FFA9
:100C2600C39408EE9400505A74C32FF58274023EA2
:100C3600F583E0F9604C9005A0E475F00112298176
:100C4600FC74AC25F0F58274053CF583E9F074C3B9
:100C56002FF58274023EF583E0FFC394204004EF33
:100C6600B4FF0F7BFF7A4D7976E4FDFC125E060237
:100C760015C59005A3E004F0709E9005A2E004F06F
:100C8600809612558E9005A0E475F001122981FC1C
:100C960074AC25F0F58274053CF583EFF09005A061
:100CA600E475F001122981FE74AC25F0F582740515
:100CB6003EF583741FF09002997402F080387BFF32
:100CC6007A4D7983E4FDFC125E067B017A0279B2E5
:100CD6007D1C7C001255E0801A7BFF7A4D7988E4F2
:100CE600FDFC125E06900630E0FF125EF5900630BF
:100CF600A3E0FF125EF5E49005A0F0A3F09005A036
:100D0600E0FEA3E0FFC39420EE940040030215C565
:100D160074B22FF58274023EF583E4F09005A1E0EB
:100D260004F070D99005A0E004F080D19005AAE007
:100D360004F0E0D3940A50030215C5E4F0C2019012
:100D4600035CE0FFB404089002EBE064016011EF7D
:100D5600640560030212969002EBE06003021296AD
:100D6600E4900636F0A37402F07B01A314F0A3749A
:100D760000F0A37404F0A3E4F0A37430F07A0279CF
:100D8600EEE4FF123D91EF640160030212969005B6
:100D9600A8F09005A0F0A3F09005A0E0FEA3E0FF68
:100DA600C39408EE9400504774042FF58274003EF5
:100DB600F583E0C3942040129005A0A3E02404F537
:100DC6008274003EF583E0B4FF157BFF7A4D798E81
:100DD600E4FDFC125E061262B81262B80215C290F9
:100DE60005A1E004F070B19005A0E004F080A93000
:100DF60000030212A63001030212A6D2007BFF7A7C
:100E06004D7998E4FDFC125E069002F6E0640160FE
:100E16000302128E9005A0F0A3F09005A075F001D4
:100E2600122981FE74AC25F0F58274053EF58374B3
:100E36001EF09005A0E475F001122981FE74AC2520
:100E4600F0F58274053EF5837460F09005A0E475B4
:100E5600F001122981FE74AC25F0F58274053EF589
:100E6600837401F09005A0E475F001122981FE74E7
:100E7600AC25F0F58274053EF583740AF09005A062
:100E8600E475F001122981FE74AC25F0F582740533
:100E96003EF5837408F0900297E004FFF09005A0F9
:100EA600E475F001122981FC74AC25F0F582740515
:100EB6003CF583EFF09002EA740AF09002D37401D5
:100EC600F0900297E0900295F09005A1E02402F0E0
:100ED6009005A0E03400F0E475F001122981FE745B
:100EE600AC25F0F58274053EF5837428F09005A1D3
:100EF600E02402F09005A0E03400F0E49005A2F0B2
:100F0600A3F09005A2E0FEA3E0FFC39409EE9400CF
:100F1600507374042FF58274003EF583E06066908A
:100F260005A2A3E02404F58274003EF583E0FD905B
:100F360005A0E475F001122981FA74AC25F0F5825A
:100F460074053AF583EDF074042FF58274003EF5CE
:100F560083E0C3942040149005A2E0FEA3E024049D
:100F6600F58274003EF583E0B4FF097BFF7A4D7984
:100F76006902110A9005A3E004F070069005A2E04C
:100F860004F0020F089005A2E0FFFCA3E0FDC39069
:100F960005A1E09DFD9005A0E09CFC74AA2DF582BC
:100FA60074053CF583EFF09005A2A3E0FF74AB2D2A
:100FB600F58274053CF583EFF0E4900004F09005AB
:100FC600A075F001122981FE74AC25F0F582740536
:100FD6003EF583743CF09005A1E02402F09005A054
:100FE600E03400F0E49005A2F0A3F09005A2E0FE44
:100FF600A3E0FFC39407EE9400503474242FF582C7
:1010060074003EF583E0FF9005A0E475F001122917
:1010160081FC74AC25F0F58274053CF583EFF09005
:1010260005A3E004F070C49005A2E004F080BC9033
:1010360005A2E0FFFCA3E0FDC39005A1E09DFD90A5
:1010460005A0E09CFC74AA2DF58274053CF583EF9F
:10105600F09005A2A3E0FF74AB2DF58274053CF574
:1010660083EFF0E4900004F09005A075F0011229DA
:1010760081FE74AC25F0F58274053EF5837420F08C
:101086009005A1E02402F09005A0E03400F0E49081
:1010960005A2F0A3F09005A2E0FEA3E0FFC394082A
:1010A600EE9400507B74142FF58274003EF583E0B5
:1010B600606E9005A2A3E02414F58274003EF583C9
:1010C600E0FD9005A0E475F001122981FA74AC25C3
:1010D600F0F58274053AF583EDF074142FF58274F9
:1010E600003EF583E0C3942040149005A2E0FEA3E1
:1010F600E02414F58274003EF583E0B4FF117BFF13
:101106007A4D7976E4FDFC125E06C2000215C590A2
:1011160005A3E004F070069005A2E004F002109B1F
:1011260012558E9005A0E475F001122981FC74AC6D
:1011360025F0F58274053CF583EFF09005A0E47583
:10114600F001122981FE74AC25F0F58274053EF596
:1011560083741FF0E49005A2F0A3F09005A2E0FED0
:10116600A3E0FFC39404EE940050319005A2E0FC86
:10117600A3E0FD2424F58274003CF583E0FB748E25
:101186002DF58274063CF583E0B503109005A3E0C7
:1011960004F070C79005A2E004F080BFEF64044E2F
:1011A600702D9005A2E0FEA3E0FFC39407EE940025
:1011B600501D74242FF58274003EF583E070109064
:1011C60005A3E004F070DB9005A2E004F080D39064
:1011D60005A2E07004A3E0640760377B017A057915
:1011E600AC9005A0E0FCA3E0FD125E067B017A054B
:1011F60079AC9005A0E0FCA3E0FD125E429002B13E
:101206007401F090035BF0E4900296F0900298F07F
:10121600800EE49002B1F090035BF090029604F029
:10122600E49005ABF090035CE0640570599002967B
:10123600E070539005A0F0A3F09005A0E0FEA3E0B7
:10124600FFC39409EE9400501C74F72FF5827402C4
:101256003EF583E4F09005A1E004F070DC9005A073
:10126600E004F080D4E4900636F0A37402F07B012B
:10127600A314F0A37402F0A374F7124981EF60027D
:101286008009C200801A8003125EB21262B8801012
:101296009005A8E004F0E0D394054004E4F0C20011
:1012A600900296E0640160030215C590035CE06459
:1012B6000460030215C59002EBE060030215C590B9
:1012C60005A0F0A3F09005A4F09005B2E0FEA3E01F
:1012D6007C002400FFEC3EFED3EF9407EE94005012
:1012E6000302156BEF24F9FFEE34FFFEC39005A150
:1012F600E09F9005A0E09E400302156BE49005A2D6
:10130600F0A3F09005A2E0FEA3E0FF9005A1E02F78
:10131600FD9005A0E03EFC74B42DF58274053CF505
:1013260083E0FD74F72FF58274023EF583EDF090AD
:1013360005A3E004F070069005A2E004F09005A273
:10134600E07004A3E0640370BA9002F7E024E07052
:10135600030214A724E47003021408241460030291
:101366001547E49005A2F0A3F09002F9E0FFC390C0
:1013760005A3E09F9005A2E094005039E0FEA3E0AB
:10138600FF9005A1E02FFD9005A0E03EFC74B72D6F
:10139600F58274053CF583E0FD74FA2FF58274023C
:1013A6003EF583EDF09005A3E004F070BC9005A235
:1013B600E004F080B49005A2E0FEA3E0FFC3941021
:1013C600EE9400501C74FA2FF58274023EF583E405
:1013D600F09005A3E004F070DC9005A2E004F08034
:1013E600D47B017A0279F77D137C00125E06E490C5
:1013F6000636F0A37402124974EF70030215470211
:101406001541E49005A2F0A3F09002F9E0FFC39025
:1014160005A3E09F9005A2E094005039E0FEA3E00A
:10142600FF9005A1E02FFD9005A0E03EFC74B72DCE
:10143600F58274053CF583E0FD74FA2FF58274029B
:101446003EF583EDF09005A3E004F070BC9005A294
:10145600E004F080B49005A2E0FEA3E0FFC3941080
:10146600EE9400501C74FA2FF58274023EF583E464
:10147600F09005A3E004F070DC9005A2E004F08093
:10148600D47B017A0279F77D137C00125E06900602
:10149600367402F0A3124974EF7003021547021561
:1014A60041E49005A2F0A3F09002F9E0FFC3900595
:1014B600A3E09F9005A2E094005039E0FEA3E0FF70
:1014C6009005A1E02FFD9005A0E03EFC74B72DF538
:1014D6008274053CF583E0FD74FA2FF58274023EB2
:1014E600F583EDF09005A3E004F070BC9005A2E052
:1014F60004F080B49005A2E0FEA3E0FFC39410EED2
:101506009400501C74FA2FF58274023EF583E4F0C1
:101516009005A3E004F070DC9005A2E004F080D40E
:101526007B017A0279F77D137C00125E06900636FF
:101536007401F0A304124974EF60069005A4E00458
:10154600F09002F8E0FEA3E07C002400FFEC3ECF22
:101556002403CF3400FE9005A1E02FF09005A0E013
:101566003EF00212CF9005A4E0640370527B017A2C
:101576000579AC9005B2E0FEA3E07C002400FFEC08
:101586003ECF240AFDE43FFC125E067B017A057914
:10159600AC9005B2E0FEA3E07C002400FFEC3ECF59
:1015A600240AFDE43FFC125E429002B17401F09001
:1015B600035BF0E4900296F0900298F01262B8E4B1
:1015C600FF12588F90035BE064016003021675906A
:1015D6000298E0D3946450030216752002030216A3
:1015E60075900297E004F09005B1F0900297E090B4
:1015F6000295F07B017A0579AC9005B2E0FEA3E096
:101606007C002400FFEC3ECF2408FDE43FFC12558D
:10161600E0AD079005B2E0FEA3E07A002400FFEA01
:101626003EFE74B42FF58274053EF583EDF07B0122
:101636007A0579AC9005B2E0FEA3E07C002400FFB9
:10164600EC3ECF240AFDE43FFC125E067B017A05E0
:1016560079AC9005B2E0FEA3E07C002400FFEC3EEE
:10166600CF240AFDE43FFC125E42E4900298F0901B
:1016760002DAE060217B017A0179059002DCE0FD67
:101686009006367401F0121FDBD2ACE49002DAF059
:10169600900000F0A3F09002E3E070030202AD7B3D
:1016A600017A0179CD9002E5E0FD9006367402F0EC
:1016B600121FDB43AF01E49002E3F0900002F0A3B7
:0416C600F00202AD7F
:105D8800E4F593F594F591F592F595F596F5B1F559
:105D9800B2F5B3F5B4439404C282439410D2844359
:105DA8009204D29243920843921043922043924025
:105DB800D29643B208D2B3C2A5439620C297439263
:025DC800802237
:105D4400E4FDFCC3ED9FEC9E503900000000000010
:105D5400000000000000000000000000000000003F
:105D6400000000000000000000000000000000002F
:105D74000000000000000000000000000DBD000154
:035D84000C80C0D0
:015D870022F9
:105FAE009003847401F0A37403F0A37488F090033B
:105FBE007F7401F0A37404F0A37488F0E4F509F57E
:065FCE0008F50AF50B22A4
:0B52240090064BEBF0A3EAF0A3E9F0CA
:10522F007D807F1212610D7D807F1312610D7D08CD
:10523F007F1312608C7D087F0812610D7D077F0D33
:10524F001262D37523267F017E007D007C001248F9
:10525F00AD9006567401F07B00A314F0A37400F018
:10526F00A37424F0A3EBF0A37400F0A37426F07AD8
:10527F000079237F0C1236188F22E522702BE52739
:10528F0064104526702390064BE0FBA3E0FAA3E0E1
:10529F00F9E5241228E290064BE0FBA3E0FAA3E025
:0B52AF00F9900001E5251228F4AF2261
:0152BA0022D1
:0B52BB00900632EBF0A3EAF0A3E9F04C
:1052C6007D807F1212610D7D807F1312610D7D0836
:1052D6007F1312608C7D087F0812610D7D077F0D9C
:1052E6001262D37522527F017E007D007C00124837
:1052F600AD9006567401F07B00A314F0A37400F081
:10530600A37423F0A3EBF0A37400F0A37425F07A42
:105316000079227F0C1236188F21E521702BE526A5
:10532600641045257023900632E0FBA3E0FAA3E063
:10533600F9E5231228E2900632E0FBA3E0FAA3E0A7
:0B534600F9900001E5241228F4AF21CB
:015351002239
:10456000900648E0FBA3E0FAA3E02407F9E43AFA56
:024570007F9535
:0E45720090064BEFF0A3EBF0A3EAF0A3E9F004
:104580007D807F1212610D7D807F1312610D7D0889
:104590007F0812610DE4FD7F0D1262D37D807F0ED6
:1045A00012610D90064BE0F5247525207F017E00F9
:1045B0007D007C001248AD9006567402F0A3E4F032
:1045C000A37400F0A37426F0A3E4F0A37400F0A396
:1045D000742BF07B007A0079247F0C1236188F221E
:1045E000E5227058F52374262523F8E6FF90064C43
:1045F000E0FBA3E0FAA3E0F9852382758300EF12C4
:1046000028F40523E523B405DD90064CE0FBA3E088
:10461000FAA3E0F99000011228B5FF12289C6FFF61
:104620009000021228B56FFF9000031228B56FFFAB
:0E4630009000041228B56F6003752201AF22BE
:01463E002259
:0E4DC10090064BEFF0A3EBF0A3EAF0A3E9F0AD
:104DCF00E4FD7F0D1262D37D807F1212608C7D8097
:104DDF007F1312608C7D087F0812610D90064BE0E7
:104DEF00F524752570E4F52390064CE0FBA3E0FA5B
:104DFF00A3E0F98523827583001228B5FF74262559
:104E0F0023F8A6070523E523B405DD7F017E007D8A
:104E1F00007C001248AD9006567407F0A3E4F0A38F
:104E2F007400F0A3742BF0A3E4F0A37400F0A37448
:104E3F0030F07B007A0079247F0C1236188F22E530
:104E4F0022701090064FE0FBA3E0FAA3E0F9E52BE8
:054E5F001228E2AF2261
:014E6400222B
:105B0E00752250E4F523FD7F0D1262D37D807F1246
:105B1E0012608C7D807F1312608C7D087F0812616D
:105B2E000D7F017E007D007C001248AD90065674FC
:105B3E0002F0A3E4F0A37400F0A37424F0A3E4F045
:105B4E00A37400F0A37425F07B007A0079227F0401
:055B5E001236188F2132
:015B6300221F
:0B337100900648EBF0A3EAF0A3E9F09F
:10337C001252248F21E521B401037F0122900648CB
:10338C00E0FBA3E0FAA3E0F912289C54C0706DE9AD
:10339C002403F9E43AFA7F931245728F21E521B4A4
:1033AC0001037F0122900648E0FBA3E0FAA3E0248E
:1033BC0003F9E43AFAC003C002C001900648A3E046
:1033CC00FAA3E0240FF9E43AFA90064FEBF0A3EAE3
:1033DC00F0A3E9F0D001D002D0037F93124DC18F3E
:1033EC0021E521B401037F0122900648E0FBA3E014
:1033FC00FAA3E0F990000274041228F4900648E055
:10340C00FBA3E0FAA3E0F912289C54C064406003CB
:10341C000234DDE92403F9E43AFA7F931245728F02
:10342C0021E521B401037F0122900648E0FBA3E0D3
:10343C00FAA3E02403F9E43AFAC003C002C00190F5
:10344C000648A3E0FAA3E0240FF9E43AFA90064FF9
:10345C00EBF0A3EAF0A3E9F0D001D002D0037F9304
:10346C00124DC18F21E521B401037F012212456069
:10347C008F21E521B401037F0122900648E0FBA3D4
:10348C00E0FAA3E02407F9E43AFAC003C002C00151
:10349C00900648A3E0FAA3E0240FF9E43AFA900668
:1034AC004FEBF0A3EAF0A3E9F0D001D002D0037FF8
:1034BC0095124DC18F21E521B401037F01229006A5
:1034CC0048E0FBA3E0FAA3E0F9900002740812288C
:1034DC00F4900648E0FBA3E0FAA3E0F912289C5410
:1034EC00C064806003023615E92403F9E43AFA7FDC
:1034FC00931245728F21E521B401037F01229006BE
:10350C0048E0FBA3E0FAA3E02403F9E43AFAC00391
:10351C00C002C001900648A3E0FAA3E0240FF9E42E
:10352C003AFA90064FEBF0A3EAF0A3E9F0D001D001
:10353C0002D0037F93124DC18F21E521B401037F8B
:10354C0001221245608F21E521B401037F012290F5
:10355C000648E0FBA3E0FAA3E02407F9E43AFAC03A
:10356C0003C002C001900648A3E0FAA3E0240FF9BF
:10357C00E43AFA90064FEBF0A3EAF0A3E9F0D0019D
:10358C00D002D0037F95124DC18F21E521B40103E8
:10359C007F0122900648E0FBA3E0FAA3E0240BF99C
:1035AC00E43AFA7F971245728F21E521B401037F2B
:1035BC000122900648E0FBA3E0FAA3E0240BF9E417
:1035CC003AFAC003C002C001900648A3E0FAA3E097
:1035DC00240FF9E43AFA90064FEBF0A3EAF0A3E9D2
:1035EC00F0D001D002D0037F97124DC18F21E5217D
:1035FC00B401037F0122900648E0FBA3E0FAA3E0AC
:0B360C00F9900002740C1228F4AF21AA
:013617002290
:10620A00535049526561645F53657175656E636584
:07621A000A00656E640A0032
:0F628B00E4F5CF75CDC0D29275CED0F5A2FF222B
:105F3700900663E004F07006900662E004F0D390E8
:105F47000663E094C8900662E0940040037F002255
:075F5700E5CD5F60DB7F0177
:015F5E002220
:105F5F00C292EF25E0F54F434F8075CDC0854FCFEF
:105F6F007F80125F3775CDC0E4F5CF7F80125F372A
:075F7F0085CF4ED292AF4E18
:015F860022F8
:1053520090065DEFF0A3EDF0A3EBF0A3EAF0A3E972
:01536200F05A
:105363007BFF7A62790AE4FDFC125DCA90065DE078
:105373006070C29290065EE025E0F54C434C807568
:10538300CDC0854CCF7F80125F377F301261D490C0
:10539300065DE0FF1261D4E4F54B90065DE0FFE5A6
:1053A3004BC39F502F75CDC0EF14B54B05E4F5CF1C
:1053B3008003854CCF7F80125F3790065FE0FBA3AD
:1053C300E0FAA3E0F9854B82758300E5CF1228F458
:1053D300054B80C6D2927BFF7A62791CE4FDFC12F6
:0253E3005DCAA1
:0153E50022A5
:105FF900C292EF25E0F54D534D7E75CDC0854DCF4D
:106009007F80125F3775CDC0AF058FCF7F80125F5C
:0360190037D292E9
:01601C002261
:0D5C100090065DEBF0A3EAF0A3E9F0AE070B
:105C1D00EE6044C292AF05EF25E0F54B534B7E7518
:105C2D00CDC0854BCF7F80125F37E4F54CE54CC37B
:105C3D009E502275CDC090065DE0FBA3E0FAA3E077
:105C4D00F9854C827583001228B5F5CF7F80125FE0
:075C5D0037054C80D8D292FC
:015C6400221D
:104BBD00EF7003752160EFB40103752161ED25E000
:104BCD0025E0F52212289CF5239000011228B5F559
:104BDD00249000021228B5F5259000031228B5F592
:104BED00269000041228B5F5279000051228B5F57A
:104BFD002890064DE0FBA3E0FAA3E0F912289CF5FE
:104C0D00299000011228B5F52A9000021228B5F559
:104C1D002B9000031228B5F52C7F017E007D007CC2
:104C2D00001248AD900656740CF0A3E4F0A3740086
:104C3D00F0A3742DF0A3E4F0A37400F0A3742FF08F
:104C4D007B007A0079217F0E1236188F2EE52E709B
:104C5D000F7F081262E9EF30E3037F00227F01220C
:024C6D007F01C5
:014C6F002222
:105AAC009000031228B5FEF5219000021228B5FDD6
:105ABC00F5229000011228B5F52312289CF524EE4E
:105ACC00F4F525EDF4F5269000011228B5FEF4F559
:105ADC002712289CFDF4F5289000031228B5F5290F
:105AEC009000021228B5F52A8E2B8D2C8F2DEFF4F9
:105AFC00F52E8F2FF5307B007A007921124A398FE1
:015B0C003167
:015B0D002275
:0E547600900648EFF0A3EBF0A3EAF0A3E9F0F4
:105484007D807F121262D37D807F131262D3E4FD8C
:105494007F0D1262D37F017E007D007C001248AD37
:1054A400752130900648E0F5229006567402F0907B
:1054B4000649E0F9A3E0FAA3E0900657C9F0A3EA8D
:1054C400F0A3E9F0A3E4F0A37400F0A37424F07B48
:1054D400007A0079217F0C1236188F23E525648029
:1054E400452460047F0180027F00E52360047E017F
:0D54F40080027E00EE4F60037F01227F00EA
:015501002287
:0E4A390090063BEFF0A3EBF0A3EAF0A3E9F048
:104A47007F057E007D007C001248AD7533A090067F
:104A57003BE0F5349006567402F0A3E4F0A374002B
:104A6700F0A37443F0A3E4F0A37400F0A37444F03C
:104A77007B007A0079337F0C1236188F32E5435466
:104A87000F640A60047F0180027F00E53260047EC4
:104A97000180027E00EE4F60037F01227F0A7E00C5
:104AA7007D007C001248AD9006567410F0A3E4F028
:104AB700A37400F0A37443F0A3E4F0A37400F0A37D
:104AC7007444F090063CE0FBA3E0FAA3E0F97F0C06
:104AD7001236188F32E543540F640A60047F018051
:104AE700027F00E53260047E0180027E00EE4F60A7
:064AF700037F01227F0095
:014AFD002296
:0E4E6500900632EFF0A3EBF0A3EAF0A3E9F021
:104E73007F057E007D007C001248AD7522C190063F
:104E830032E0F5239006567402F0A3E4F0A3740015
:104E9300F0A37424F0A3E4F0A37400F0A37425F04A
:104EA3007B007A0079227F0C1236188F21E5245477
:104EB3000F640A60047F0180027F00E52160047EA5
:104EC3000180027E00EE4F60037F01227F057E009A
:104ED3007D007C001248AD9006567404F0A3E4F004
:104EE300A37400F0A37424F0A3E4F0A37400F0A36C
:104EF3007425F0900633E0FBA3E0FAA3E0F97F0CFE
:054F0300123618AF2179
:014F08002286
:0E4F0900900632EFF0A3EBF0A3EAF0A3E9F07C
:104F17007F057E007D007C001248AD7522C090069B
:104F270032E0F5239006567402F0A3E4F0A3740070
:104F3700F0A37424F0A3E4F0A37400F0A37425F0A5
:104F47007B007A0079227F0C1236188F21E52454D2
:104F57000F640A60047F0180027F00E52160047E00
:104F67000180027E00EE4F60037F01227F057E00F5
:104F77007D007C001248AD9006567404F0A3E4F05F
:104F8700A37400F0A37424F0A3E4F0A37400F0A3C7
:104F97007425F0900633E0FBA3E0FAA3E0F97F0C59
:054FA700123618AF21D5
:014FAC0022E2
:055A4800900632EFF0B2
:105A4D007F057E007D007C001248AD7522B090066A
:105A5D0032E0F5239006567402F0A3E4F0A374002F
:105A6D00F0A37424F0A3E4F0A37400F0A37425F064
:105A7D007B007A0079227F0C1236188F21E5245491
:105A8D000F640A60047F0180027F00E52160047EBF
:0E5A9D000180027E00EE4F60037F0122AF21E8
:015AAB0022D8
:05505100900632EFF0B3
:105056007F057E007D007C001248AD7522C2900659
:1050660032E0F5239006567402F0A3E4F0A3740030
:10507600F0A37426F0A3E4F0A37400F0A37427F061
:105086007B007A0079227F0C1236188F21E5265490
:105096000F640A60047F0180027F00E52160047EC0
:1050A6000180027E00EE4F60037F01227F057E00B5
:1050B6007D007C001248ADE4F522F523F524F525A4
:1050C6009006567404F0A3E4F0A37400F0A37426CB
:1050D600F0A3E4F0A37400F0A37427F07B007A0039
:0950E60079227F0C123618AF216B
:0150EF00229E
:04334E004106C30071
:0562E900125F5F8F4D04
:0162EE00228D
:0B5E7E00900632EBF0A3EAF0A3E9F07D
:105E8900E4F521AF21125F5F900632E0FBA3E0FA4F
:105E9900A3E0F9852182758300EF1228F40521E535
:085EA90021C3944040DD7F009D
:015EB10022CE
:0462CF00E4FD7F016A
:0662D300125FF97F0022BA
:1061DA00900657E0FBA3E0FAA3E07E002548F9EE1B
:0261EA003AFA7F
:0661EC007D09125352224E
:10623700900656E0FF900653E0FBA3E0FAA3E0F9CF
:066247007D09125C10222B
:106277007D807F0A12608C7F0A125F5FEF7002FFDA
:04628700227F01224F
:046088007D807F0D8B
:0A608C0090065EEDF090065DEFF067
:106096001262E990065EE04FFD90065DE0FF126237
:0360A600D38F4C49
:0160A90022D4
:0A610D0090065EEDF090065DEFF0E5
:106117001262E990065EE0F45FFD90065DE0FF1213
:0461270062D38F4B65
:01612B002251
:05588F00900648EFF057
:105894007F141262E9EF5403FF900648E0FEB50757
:1058A400037F0022EE70097D037F1412610D8F21A6
:1058B400900648E0B401127D017F1412608C8F21A0
:1058C4007D027F1412610D8F21900648E0B402120C
:1058D4007D017F1412610D8F217D027F1412608C73
:1058E4008F21900648E0B403097D037F1412608C75
:0B58F4008F217FE87E03125D44AF218E
:0158FF002286
:0E361800900652EFF0A3EBF0A3EAF0A3E9F066
:10362600E4F547F548F5497F5C1261D4900652E00F
:10363600FF1261D41262771262CF7D207F0B126275
:10364600D37D7F7F041262D3900652E0B40E061239
:1036560062371260887D807F2A12608C900652E065
:10366600FD7F011262D37F5C1261D4900652E0FFA7
:103676001261D47F301261D47F041262E98F4A123C
:1036860061D4E54A30E0137546017F331261D49068
:103696000652E0FF1261D40237A7900652E0FFB44B
:1036A6000E08E54A30E4030237A4EF64047059E5D6
:1036B6004A30E244900656E0FFD39400403AEF9435
:1036C60020900653E0FBA3E0FAA3E0F9500A126249
:1036D60047E4900656F080167F2012624790065601
:1036E600E024E0F0900654E475F02012296B7D0486
:1036F6007F041262D3126088E54A30E60B900656C4
:10370600E07005F5460237A7900652E0640C6003A8
:10371600023679E54A30E245900656E0FFD394003A
:10372600403BEFD394204023900653E0FBA3E0FAFE
:10373600A3E0F97F20126247900656E024E0F0905D
:103746000654E475F02012296B8008126237E49063
:103756000656F01260887D047F041262D3E54A3073
:10376600E32630E623900656E0701D7F0A1262E9D2
:10377600EFD3942040127F201261DA74202548F599
:10378600487D087F041262D3E54A20E503023679B4
:10379600900656E060030236799006C304F0E4F51D
:1037A600467F321261D4900652E0640C70767F3404
:1037B6001261D4E4F5487F0A1262E98F477F351219
:1037C60061D4AF471261D4AF471261DA7F36126116
:1037D600D4E5472548F5487F0C1262E9EF5407F512
:1037E600496028E54824FFFFE434FFFEEF7803C371
:1037F60033CE33CED8F97C002549FFEC3EF990064E
:103806005AE0FBA3E0FAA3E0C98014E54875F00886
:10381600A4FF90065AE0FBA3E0FAA3E0F9E5F08FD7
:10382600F01229977F311261D47D807F0C12608C53
:0C3836001262CF7D807F0D12610DAF4645
:013842002263
:0648AD00900652122AF7EA
:1048B300E4F54AF54BF549F548F547F546E47FF845
:1048C3007E34FDFC900652E0F8A3E0F9A3E0FAA3DE
:1048D300E0FB1229B6EF24FFFFEE34FFFEED34FFB9
:1048E300FDEC34FFFCC006C007E54B25E0FFE54ABD
:1048F30033FEEF2401FFE43EAB07FAE4F9F8D007F7
:10490300D006122A418F498E488D478C46E47FFF9B
:104913007EFFFDFCAB49AA48A947A846C3122AD388
:104923004011054BE54B7002054AF47004E54A64F7
:104933000F708AE549F549E548F548E4F547F5463A
:10494300E54AFD7F2A12608CE54BFD7F2B1262D373
:10495300AF49AE48AD47AC467808122AE4AD077FAD
:104963002C1262D3E549FFAD077F2D1262D37F007E
:014973002221
:10518C00900648EFF0701C7D107F0C12608C7D40F7
:10519C007F1512608CE4FD7F121262D3E4FD7F1345
:1051AC001262D3900648E06401702A7D107F0C12C5
:1051BC0062D37D837F121262D37D837F131262D3FD
:1051CC007DF47F271262D37DF47F231262D3E4FD3A
:1051DC007F151262D3900648E0640270387D107F10
:1051EC000C1262D37D927F121262D37D967F1312C2
:1051FC0062D37DF47F271262D37D207F281262D385
:10520C007D4F7F231262D37D207F291262D37D07CD
:08521C007F151262D37F00220E
:100026007D0F7F011262D37D107F0C12608C7F0CD6
:0D0036001262E9EF30E4037F00227F012217
:10626200C2B37F017E00125D44D2B37F017E001271
:056272005D447F0022E5
:106169007F011262E9EF30E40A7D107F0112610DAF
:0D6179007F01227D107F0112608C7F0022CB
:0B62C400B2B330B3037F00227F012241
:0F629A00EF2480FD7F0F1262D37F0F1262E92283
:10618600900632EDF0EF2440FD7F0F1262D39006A9
:0D61960032E024C0FD7F0F1262D37F002293
:0662EF000084000008001D
:103C3100900632EFF0A3EDF0A3EBF0A3EAF0A3E9D5
:013C4100F092
:103C42007D807F121262D37D807F131262D3E4FDE6
:103C52007F0D1262D37F647E007D007C001248AD2E
:103C62007522E0900633E0F523540F90069CF09005
:103C72000632E090069BF01262779006567402F0CC
:103C8200900637E0F9A3E0FAA3E0900657C9F0A343
:103C9200EAF0A3E9F0A3E4F0A37400F0A37425F022
:103CA2007B007A0079227F0C1236188F21E5216081
:103CB20003023D7FF524E526AE257803CEC313CE5D
:103CC20013D8F9FF900634E0FBA3E0FAA3E0F9EF82
:103CD2001228E2900637E0FBA3E0FAA3E0F91228EB
:103CE2009C90069EF09000011228B590069FF05419
:103CF2000F9006A3F090069FE030E61E900637A3D1
:103D0200A3E02402F9E43AFA7E00E92524F9EE3A26
:103D1200FA12289C9006A0F0052490069FE030E558
:103D220031900637E0FBA3E0FAA3E02402F9E43A7B
:103D3200FA7E00E92524F9EE3AFA12289C9006A1AF
:103D4200F09006A4E4F09006A1E0540F9006A5F0CE
:103D5200052490069FE030E433900637E0FBA3E0B1
:103D6200FAA3E02402F9E43AFA7E00E92524F9EE06
:103D72003AFA12289C9006A2F00524800F9006348D
:0E3D8200E0FBA3E0FAA3E0F9E41228E2AF218F
:013D90002210
:104FAD00900632EFF0A3EDF0A3EBF0A3EAF0A3E946
:014FBD00F003
:104FBE007F327E007D007C001248AD90069CE0445E
:104FCE00D0F522900632E0F523126277900632E099
:104FDE0030E40BA3E0F5249006567403800590068A
:104FEE00567402F0900637E0F9A3E0FAA3E09006BB
:104FFE0057C9F0A3EAF0A3E9F0A3E4F0A37400F01C
:10500E00A37425F07B007A0079227F0C1236188F5C
:10501E0021E521701CE526AE257803CEC313CE13F1
:10502E00D8F9FF900634E0FBA3E0FAA3E0F9EF8095
:10503E000C900634E0FBA3E0FAA3E0F9E41228E2B8
:02504E00AF2190
:01505000223D
:0800030090069BE06401F0226D
:0B5B6400900632EBF0A3EAF0A3E9F09A
:105B6F0078227C007D007BFF7A6279EF7E007F05D3
:105B7F00122876900632E0F9A3E0FAA3E090063CF3
:105B8F00C9F0A3EAF0A3E9F0900635E0F9A3E0FA33
:105B9F00A3E090063FC9F0A3EAF0A3E9F07B007AF7
:0A5BAF000079227F05123EE28F21EB
:015BB90022C9
:0E561900900632EFF0A3EBF0A3EAF0A3E9F065
:105627007F647E007D007C001248AD900632E090DA
:105637000656F0900639E0F9A3E0FAA3E090065782
:10564700C9F0A3EAF0A3E9F0A3E4F0A37400F0A380
:105657007422F0900633E0FBA3E0FAA3E0F97F0C95
:105667001236188F21E521701CE523AE227803CE70
:10567700C313CE13D8F9FF900636E0FBA3E0FAA3D5
:10568700E0F9EF800C900636E0FBA3E0FAA3E0F91F
:06569700E41228E2AF213D
:01569D0022EA
:0E3EE200900638EFF0A3EBF0A3EAF0A3E9F0AE
:103EF0007FF47E017D007C001248AD90069BE0902F
:103F0000063830E354E0FF7E00A3E0FBA3E0FAA311
:103F1000E02402F9E43AA801FCAD03900639A3A31A
:103F2000E0F9122CA390069BE0FF900639E0FBA37A
:103F3000E0FAA3E0F9EF1228E290069CE0FF900679
:103F400039E0FBA3E0FAA3E0F9900001EF1228F4B6
:103F5000900638E02402F0803AE0FF7E00A3E0FB08
:103F6000A3E0FAA3E02401F9E43AA801FCAD039030
:103F70000639A3A3E0F9122CA390069BE0FF90065C
:103F800039E0FBA3E0FAA3E0F9EF1228E29006384B
:103F9000E004F0900638E0900656F090063FE0F915
:103FA000A3E0FAA3E0900657C9F0A3EAF0A3E9F072
:103FB000A3E4F0A37400F0A37428F0900639E0FBAA
:103FC000A3E0FAA3E0F97F0C1236188F27E52770DB
:103FD0004A90063FE0FBA3E0FAA3E0F912289C9088
:103FE000069BF054F0FFBFF013E030E305900002B1
:103FF00080039000011228B590069DF0120003E5A1
:1040000029AE287803CEC313CE13D8F9FF90063C0F
:10401000E0FBA3E0FAA3E0F9EF800C90063CE0FBA4
:0C402000A3E0FAA3E0F9E41228E2AF27C5
:01402C002271
:0B47E200900632EBF0A3EAF0A3E9F030
:1047ED007F647E007D007C001248AD90069BE0301A
:1047FD00E311540F44A0F521A3E0F5229006567461
:10480D0002800F90069BE0540F44A0F521900656B0
:10481D007401F0900635E0F9A3E0FAA3E090065795
:10482D00C9F0A3EAF0A3E9F0A3E4F0A37400F0A3A8
:10483D007424F07B007A0079217F0C1236188F23B7
:10484D00E523704A900635E0FBA3E0FAA3E0F912E8
:10485D00289C90069BF054F0FFBFF013E030E30569
:10486D0090000280039000011228B590069DF01271
:10487D000003E525AE247803CEC313CE13D8F9FF7C
:10488D00900632E0FBA3E0FAA3E0F9EF800C90066E
:0F489D0032E0FBA3E0FAA3E0F9E41228E2AF2334
:0148AC0022E9
:0E446E00900632EFF0A3EBF0A3EAF0A3E9F022
:10447C007FF47E017D007C001248AD900632E0FF97
:10448C0044C0F52190069BE030E323EF54F064F038
:10449C00700FA3E0F522A3E0F52390065674038079
:1044AC002590069CE0F52290065674028018900622
:1044BC0032E054F0FFBFF00690069DE08001E4F579
:1044CC00229006567402F0900636E0F9A3E0FAA3A7
:1044DC00E0900657C9F0A3EAF0A3E9F0A3E4F0A337
:1044EC007400F0A37425F07B007A0079217F0C1204
:1044FC0036188F24E524704A900636E0FBA3E0FAC8
:10450C00A3E0F912289C90069BF054F0FFBFF01327
:10451C00E030E30590000280039000011228B59072
:10452C00069DF0120003E526AE257803CEC313CE0C
:10453C0013D8F9FF900633E0FBA3E0FAA3E0F9EF00
:10454C00800C900633E0FBA3E0FAA3E0F9E4122818
:03455C00E2AF24A7
:01455F002239
:105BBA00900632EFF07D707F1212610D7D707F13B7
:105BCA0012610D900632E014601514601D146025F0
:105BDA002403702FE4FD7F1212608CE4FD801F7D88
:105BEA00107F1212608C7D1080147D207F1212604B
:105BFA008C7D2080097D307F1212608C7D307F136E
:065C0A0012608C7F0022F5
:0E59DD00900632EFF0A3EBF0A3EAF0A3E9F09E
:1059EB007D807F121262D37D807F131262D3E4FD20
:1059FB007F0D1262D3752230900632E0F5237F01C2
:105A0B007E007D007C001248AD9006567402F0902B
:105A1B000633E0F9A3E0FAA3E0900657C9F0A3EA36
:105A2B00F0A3E9F0A3E4F0A37400F0A37424F07BDB
:0C5A3B00007A0079227F0C1236188F21AF
:015A4700223C
:105819007522A28F2312289CF5249000011228B525
:10582900F5259000021228B5F5269000031228B537
:10583900F5277F0A7E007D007C001248AD90065650
:105849007406F0A3E4F0A37400F0A37428F0A3E4B1
:10585900F0A37400F0A37429F07B007A0079227F09
:105869000C1236188F21E528640A60047F01800232
:105879007F00E52160047E0180027E00EE4F600317
:055889007F01227F00F9
:01588E0022F7
:0B50F000900632EBF0A3EAF0A3E9F019
:1050FB007F057E007D007C001248AD90063B74500E
:10510B00F0783C7C067D01900632E0FBA3E0FAA32D
:10511B00E0F97E007F041228769006567405F09015
:10512B000638E0F9A3E0FAA3E0900657C9F0A3EA2A
:10513B00F0A3E9F0A37401F0A37406F0A37440F09C
:10514B007B017A06793B7F0C123618AD07ED701F89
:10515B00900640E0FEA3E07803CEC313CE13D8F93C
:10516B00FF900635E0FBA3E0FAA3E0F9EF800C908B
:10517B000635E0FBA3E0FAA3E0F9E41228E2AF0561
:01518B002201
:0B402D00900632EBF0A3EAF0A3E9F0EC
:104038007F057E007D007C001248AD90063C74052B
:10404800F0E4A3F0A37408F09006567403F0900609
:1040580035E0F9A3E0FAA3E0900657C9F0A3EAF027
:10406800A3E9F0A37401F0A37406F0A3743FF07BF6
:10407800017A06793C7F0C12361890063BEFF06007
:104088000302414490063FE0FEA3E07803CEC31349
:10409800CE13D8F9FF900632E0FBA3E0FAA3E0F9CB
:1040A800EF1228E2900635E0FBA3E0FAA3E0240132
:1040B800F9E43AFAC003C002A3E0FBA3E0FAA3E0E4
:1040C800F8AC02AD03D002D0037E007F041228763C
:1040D800900635E0FBA3E0FAA3E02406F9E43AFAF7
:1040E800C003C002C001A3E0FBA3E0FAA3E02404DC
:1040F800F9E43AA801FCAD03D001D002D0037E0058
:104108007F04122876900635E0FBA3E0FAA3E024AA
:104118000AF9E43AFAC003C002C001A3E0FBA3E035
:10412800FAA3E02408F9E43AA801FCAD03D001D0D1
:1041380002D0037E007F03122876800F900632E0BB
:10414800FBA3E0FAA3E0F9E41228E290063BE0FFC3
:014158002244
:0B415900900632EBF0A3EAF0A3E9F0BF
:104164007F057E007D007C001248AD90063C7405FE
:10417400F0E4A3F0A3F09006567403F0900635E043
:10418400F9A3E0FAA3E0900657C9F0A3EAF0A3E983
:10419400F0A37401F0A37406F0A3743FF07B017ADA
:1041A40006793C7F0C12361890063BEFF060030250
:1041B400426E90063FE0FEA3E07803CEC313CE1315
:1041C400D8F9FF900632E0FBA3E0FAA3E0F9EF127E
:1041D40028E2900635E0FBA3E0FAA3E02401F9E429
:1041E4003AFAC003C002A3E0FBA3E0FAA3E0F8ACF0
:1041F40002AD03D002D0037E007F0412287690061D
:1042040035E0FBA3E0FAA3E02406F9E43AFAC0039C
:10421400C002C001A3E0FBA3E0FAA3E02404F9E494
:104224003AA801FCAD03D001D002D0037E007F0484
:10423400122876900635E0FBA3E0FAA3E0240AF9FD
:10424400E43AFAC003C002C001A3E0FBA3E0FAA36E
:10425400E02408F9E43AA801FCAD03D001D002D06F
:10426400037E007F03122876800F900632E0FBA3C2
:0E427400E0FAA3E0F9E41228E290063BE0FF36
:014282002219
:0B4C7000900632EBF0A3EAF0A3E9F09D
:104C7B007F057E007D007C001248AD90063B741DC5
:104C8B00F0783C7C067D01900632E0FBA3E0FAA3B2
:104C9B00E0F97E007F04122876E4900640F0A374BE
:104CAB0008F0A37401F0A3F09006567409F0900677
:104CBB0038E0F9A3E0FAA3E0900657C9F0A3EAF0B5
:104CCB00A3E9F0A37401F0A37406F0A37444F07B82
:104CDB00017A06793B7F0C123618AD07ED701F90E9
:104CEB000644E0FEA3E07803CEC313CE13D8F9FF3E
:104CFB00900635E0FBA3E0FAA3E0F9EF800C9006F9
:0F4D0B0035E0FBA3E0FAA3E0F9E41228E2AF05DC
:014D1A002276
:0B53E600900632EBF0A3EAF0A3E9F020
:1053F1007F057E007D007C001248ADE4900638F008
:10540100A37436F0E4A3F0A3F0A37408F090065659
:105411007405F0900635E0F9A3E0FAA3E090065791
:10542100C9F0A3EAF0A3E9F0A37401F0A37406F0B4
:10543100A3743DF07B017A0679387F0C123618ADE2
:1054410007ED701F90063DE0FEA3E07803CEC31385
:10545100CE13D8F9FF900632E0FBA3E0FAA3E0F9FE
:10546100EF800C900632E0FBA3E0FAA3E0F9E4122E
:0454710028E2AF0579
:015475002214
:0662F5000600FFFF00009F
:0E463F00900632EFF0A3EBF0A3EAF0A3E9F04F
:10464D00783B7C067D017BFF7A6279F57E007F06E3
:10465D00122876900632E0FF601664016012EF6456
:10466D0003600DEF64076008EF640F60037F0122A4
:10467D00900632E0900640F07F0A7E007D007C00BF
:10468D001248AD9006567406F0900636E0F9A3E098
:10469D00FAA3E0900657C9F0A3EAF0A3E9F0A374DA
:1046AD0001F0A37406F0A37439F07B017A06793B0F
:1046BD007F0C123618EF7040900639E0FEA3E078BB
:1046CD0003CEC313CE13D8F9FF900633E0FBA3E05E
:1046DD00FAA3E0F9EF1228E2900636E0FBA3E0FA28
:1046ED00A3E02402F9E43AFA78BB7C067D017E0052
:1046FD007F081228767F0022900633E0FBA3E0FAB4
:09470D00A3E0F9E41228E27F01A7
:014716002280
:103352005B06700102030405060708090102030463
:0E33620005060708090102030405060708090D
:1016CA00E50964016003021FDAE50A6003021FDA12
:1016DA00F50990037FE0FBA3E0FAA3E0F9E41228FE
:1016EA00E290037FE0FBA3E0FAA3E0F912289C1240
:1016FA002B031FDA00177201177802177E0317A748
:10170A000417F105182206187C0718D20818D809F8
:10171A0018DE0A19200B196A0C1970101A18111AF6
:10172A004C121A93131ABE141ADD151B08161B2025
:10173A00171B44181B63201BB7211C0B221C2323D5
:10174A001C62241C9D251CEA261D49271D84311D67
:10175A00D5321E15331E55341E90351EE1521F1CFC
:10176A00531F4E6000001FC6120026021F38126265
:10177A0062021F38900384E0FBA3E0FAA3E024018D
:10178A00F9E43AFA125E7E900384E0FBA3E0FAA33E
:10179A00E0F9EF1228E29003837441F02290038467
:1017AA00E0FBA3E0FAA3E0F9E41228E290037FE069
:1017BA00FBA3E0FAA3E0F99000011228B5FF900319
:1017CA0084E0FBA3E0FAA3E0F9900001EF1228F409
:1017DA0090037FE0FBA3E0FAA3E0F990000112284E
:1017EA00B5FF1262E9807990037FE0FBA3E0FAA3D8
:1017FA00E0F99000011228B5FF9000021228B5FD09
:10180A001262D3900384E0FBA3E0FAA3E0F9E412A6
:10181A0028E290038304F022900384E0FBA3E0FA19
:10182A00A3E0F9E41228E290037FE0FBA3E0FAA325
:10183A00E0F99000011228B5FF900384E0FBA3E0D1
:10184A00FAA3E0F9900001EF1228F490037FE0FB7D
:10185A00A3E0FAA3E0F99000011228B5FF12629AF8
:10186A00900384E0FBA3E0FAA3E0F9900002EF0200
:10187A00196090037FE0FBA3E0FAA3E0F99000016E
:10188A001228B5FF9000021228B5FD126186900356
:10189A0084E0FBA3E0FAA3E0F9EF1228E290037FC9
:1018AA00E0FBA3E0FAA3E0F99000011228B5FF904B
:1018BA000384E0FBA3E0FAA3E0F9900001EF122809
:1018CA00F49003837402F0221262C4021F38126178
:1018DA0069021F387F0312588FE4FF12518C7B0173
:1018EA007A06798B125224900384E0FBA3E0FAA3D0
:1018FA00E0F9EF1228E290068BE0FF900384E0FB08
:10190A00A3E0FAA3E0F9900001EF1228F490068C04
:10191A00E090000280407F0312588FE4FF12518C3E
:10192A007B017A06798B1252BB900384E0FBA3E019
:10193A00FAA3E0F9EF1228E290068BE0FF90038405
:10194A00E0FBA3E0FAA3E0F9900001EF1228F4907B
:10195A00068CE09000021228F49003837403F022AC
:10196A00125B0E021F387F0312588FE4FF12518C4C
:10197A007B017A06798B123371900384E0FBA3E032
:10198A00FAA3E0F9EF1228E2900384E0FBA3E0FA5D
:10199A00A3E02401F9E43AA801FCAD037B017A062D
:1019AA00798B7E007F02122876900384E0FBA3E005
:1019BA00FAA3E02403F9E43AA801FCAD037B017A17
:1019CA0006798D7E007F01122876900384E0FBA3BE
:1019DA00E0FAA3E02404F9E43AA801FCAD037B0190
:1019EA007A06798E7E007F0C122876900384E0FBBB
:1019FA00A3E0FAA3E02410F9E43AA801FCAD037BC2
:101A0A00017A06799A7E007F011228768074900303
:101A1A007FE0FBA3E0FAA3E0F99000011228B5FFEA
:101A2A009000021228B5FDE92403F9E43AFA900677
:101A3A004D7401F0A37406F0A3748EF0124BBD022C
:101A4A001F3890037FE0FBA3E0FAA3E0F9900002BD
:101A5A001228B525E025E0FF9000011228B52FFFD6
:101A6A00900384E0FBA3E0FAA3E02401F9E43AFA44
:101A7A00125476900384E0FBA3E0FAA3E0F9EF1294
:101A8A0028E29003837411F02290037FE0FBA3E025
:101A9A00FAA3E0F99000021228B525E025E0FF90AC
:101AAA0000011228B52FFFE92403F9E43AFA124A91
:101ABA0039021F3890037FE0FBA3E0FAA3E0F99014
:101ACA0000011228B5FFE92402F9E43AFA124E6538
:101ADA00021F3890037FE0FBA3E0FAA3E0F990002D
:101AEA00021228B525E025E0FF9000011228B52F43
:101AFA00FFE92403F9E43AFA124F09021F38900366
:101B0A007FE0FBA3E0FAA3E0F99000011228B5FFF9
:101B1A00125A48021F3890037FE0FBA3E0FAA3E0C1
:101B2A00F99000021228B525E025E0FF9000011285
:101B3A0028B52FFF125051021F3890037FE0FBA3F4
:101B4A00E0FAA3E0F99000011228B5FFE92402F9AE
:101B5A00E43AFA125AAC021F3890037FE0FBA3E082
:101B6A00FAA3E0F99000011228B5FF9000021228AA
:101B7A00B5FD900384E0FBA3E0FAA3E02401F9E4B5
:101B8A003AFAC003C002C001900384A3E0FAA3E0BA
:101B9A002402F9E43AFA900637EBF0A3EAF0A3E953
:101BAA00F0D001D002D003123C31021FA290037F71
:101BBA00E0FBA3E0FAA3E0F99000011228B5FF9038
:101BCA0000021228B5FD900384E0FBA3E0FAA3E02B
:101BDA002401F9E43AFAC003C002C001900384A3C5
:101BEA00E0FAA3E02402F9E43AFA900637EBF0A30C
:101BFA00EAF0A3E9F0D001D002D003124FAD021FE0
:101C0A00A290037FE0FBA3E0FAA3E0F9900001129F
:101C1A0028B5FF125BBA021F38900384E0FBA3E0E9
:101C2A00FAA3E02401F9E43AFA900636EBF0A3EAC3
:101C3A00F0A3E9F0900384A3E0FAA3E02402F9E414
:101C4A003AFA900639EBF0A3EAF0A3E9F07B017ABD
:101C5A000679707F19025619900384E0FBA3E0FA13
:101C6A00A3E02401F9E43AFAC003C002C0019003D8
:101C7A0084A3E0FAA3E02402F9E43AFA900635EBE9
:101C8A00F0A3EAF0A3E9F0D001D002D0031247E2B0
:101C9A00021FA290037FE0FBA3E0FAA3E0F9900001
:101CAA00011228B5FF900384E0FBA3E0FAA3E02425
:101CBA0001F9E43AFAC003C002C001900384A3E028
:101CCA00FAA3E02402F9E43AFA900636EBF0A3EA22
:101CDA00F0A3E9F0D001D002D00312446E021FA291
:101CEA0090037FE0FBA3E0FAA3E0F9900001122839
:101CFA00B5FFE92402F9E43AFAC003C002C0019030
:101D0A000384E0FBA3E0FAA3E02401F9E43AFA90A1
:101D1A00063CEBF0A3EAF0A3E9F0900384A3E0FA0F
:101D2A00A3E02402F9E43AFA90063FEBF0A3EAF0C2
:101D3A00A3E9F0D001D002D003123EE2021FA29022
:101D4A000384E0FBA3E0FAA3E02401F9E43AFAC031
:101D5A0003C002C001900384A3E0FAA3E02402F9BD
:101D6A00E43AFA900635EBF0A3EAF0A3E9F0D001E1
:101D7A00D002D003125B64021FA27F0312588F7F26
:101D8A000112518C900384E0FBA3E0FAA3E0240142
:101D9A00F9E43AFAC003C002C001900384A3E0FA4E
:101DAA00A3E02402F9E43AFA900635EBF0A3EAF04C
:101DBA00A3E9F0A37401F0A37406F0A374A6F0D00B
:101DCA0001D002D003124159021FA2900384E0FB02
:101DDA00A3E0FAA3E02401F9E43AFA900635EBF01D
:101DEA00A3EAF0A3E9F0900384A3E0FAA3E02402B3
:101DFA00F9E43AFA900638EBF0A3EAF0A3E9F07BAB
:101E0A00017A0679A6124C70021FA2900384E0FBA5
:101E1A00A3E0FAA3E02401F9E43AFA900635EBF0DC
:101E2A00A3EAF0A3E9F0900384A3E0FAA3E0240272
:101E3A00F9E43AFA900638EBF0A3EAF0A3E9F07B6A
:101E4A00017A0679A61250F0021FA2900384E0FBE1
:101E5A00A3E0FAA3E02401F9E43AFAC003C002C0FD
:101E6A0001900384A3E0FAA3E02402F9E43AFA9089
:101E7A000635EBF0A3EAF0A3E9F0D001D002D003D3
:101E8A001253E6021FA27F0312588F7F0112518C50
:101E9A00900384E0FBA3E0FAA3E02401F9E43AFA10
:101EAA00C003C002C001900384A3E0FAA3E02402A5
:101EBA00F9E43AFA900635EBF0A3EAF0A3E9F0A3C5
:101ECA007401F0A37406F0A374A6F0D001D002D076
:101EDA000312402D021FA290037FE0FBA3E0FAA3A6
:101EEA00E0F99000011228B5FF900384E0FBA3E01B
:101EFA00FAA3E02401F9E43AFA1259DD900384E0E6
:101F0A00FBA3E0FAA3E0F9EF1228E2900383740539
:101F1A00F02290037FE0FBA3E0FAA3E0F99000012E
:101F2A001228B5FFE92402F9E43AFA125819900383
:101F3A0084E0FBA3E0FAA3E0F9EF1228E29003831E
:101F4A007401F0227F0312588F7F0212518C900382
:101F5A007FE0FBA3E0FAA3E0F99000011228B5FFA5
:101F6A00900384E0FBA3E0FAA3E02401F9E43AFA3F
:101F7A00C003C002C001900384A3E0FAA3E02402D4
:101F8A00F9E43AFA900636EBF0A3EAF0A3E9F0D0C6
:101F9A0001D002D00312463F900384E0FBA3E0FA8B
:101FAA00A3E0F9EF1228E2900384E0FBA3E0FAA38E
:101FBA00E0F99000011228B524028010900384E011
:101FCA00FBA3E0FAA3E0F974011228E2900383F07C
:011FDA0022E4
:0C5CB900C2B6125CC5C2B5125CC5D2B602
:105CC50000000000000000000000000000000000CF
:105CD50000000000000000000000000000000000BF
:105CE50000000000000000000000000000000000AF
:0B5CF500000000000000000000002282
:1060ED00D2B5D2B6125CC520B5037F0022C2B5125F
:1060FD005CC530B5037F0022C2B5125CC57F01229D
:0862D900125CB9D2B5025CC5EC
:0862E100125CB9C2B6025CC5F3
:0F62A900C2B6125CC5D2B5125CC0C2B6025CC5EB
:0D601D00EAFF12606512602AAF0312606591
:10602A00C2B6125CC5D2B5125CC030B505C2B67F25
:07603A000022C2B67F012223
:106065007E08AD061EED6018C2B6125CC5EF30E7BE
:1060750004D2B58002C2B5EF25E0FF125CC080E214
:02608500C2B6A1
:0160870022F6
:1060AA007F08E4FED2B5AD071FED6011EE25E0FED4
:1060BA00C2B6125CC030B5EE4401FE80E9C2B6AF8A
:0160CA0006CF
:0160CB0022B2
:10612C00E49002F4F09002F4E0D3943C500E126030
:0F613C00ED7FAE12606512602AEF60E90262D952
:10596F00E0FF9006C4F09006B1E0FBA3E0FAA3E0DD
:0C597F00F9A3E0FCA3E0FDEF90063CF073
:10598B0090063AECF0A3EDF01260EDEF7002FF22FF
:10599B007FAE12606512602A90063AE0FF126065D6
:1059AB0012602A90063AA3E0FF12606512602A90FB
:1059BB00063CE0FF14F0EF601312289CFF126065A9
:1059CB0012602A740129F9E43AFA80E31262D97F52
:0259DB000122A7
:103A54009006B1EBF0A3EAF0A3E9F0A3ECF0A3ED38
:013A6400F071
:103A6500E49006B8F0A3F0A3F0ED540FFFC3741073
:103A75009FF09006B6E0FCA3E0FDECC4F854F0C856
:103A8500EDC4540F48A3F0ED540FA3F0EF706F9001
:103A950006B8E0700CA312596FEF7002FF22023CCA
:103AA5002B9006B8E0FF14F0EF603E9006C474104A
:103AB500F09006B1E0FBA3E0FAA3E0F9A3E0FCA3D4
:103AC500E0FD7410125987EF7002FF2212612C90ED
:103AD50006B5E02410F09006B4E03400F09006B28C
:103AE500E475F01012296B80B89006B9E0FF7003F9
:103AF500023C2E125971EF7002FF22023C2B9006F8
:103B0500B8E070739006BAE0FFFDD39006B7E09D6C
:103B15009006B6E0940040519006C4EF125974EF38
:103B25007002FF2212612C9006B6A3E0FF9006BA40
:103B3500E0FEC3EF9E9006C4F09006B1E0FBA3E063
:103B4500FAA3E0F9EEFF7E00E92FF9EE3AFA9006C6
:103B5500B5E02FFD9006B4E03EFC9006C4E0125996
:103B650087EF7002FF22023C2B9006B912596FEFC6
:103B75007002FF22023C2B9006BAE0FDFFC39006BF
:103B8500B7E09FF09006B6E09400F0E0FAA3E0FB02
:103B9500EAC4F854F0C8EBC4540F48A3F0EB540F33
:103BA500A3F0ED6026125971EF7002FF2212612C0D
:103BB5009006BAE0FF7E009006B5E02FF09006B4BF
:103BC500E03EF09006B2EE8FF080479006B8E0FF39
:103BD50014F0EF60429006C47410F09006B1E0FB5B
:103BE500A3E0FAA3E0F9A3E0FCA3E0FD90063C7492
:103BF50010F012598BEF7002FF2212612C9006B55E
:103C0500E02410F09006B4E03400F09006B2E475BC
:103C1500F01012296B80B49006B9E0FF600B1259C1
:0B3C250071EF7002FF2212612C7F0182
:013C30002271
:1060CC007B017A067937AD07AC0690066EE4F0A337
:1060DC0004F012569EEF6006900637E0FF227F0018
:0160EC002291
:105F8700AB07AA06AC051260EDEF7002FF227FAEE9
:105F970012606512602A12601DAF041260651260FC
:075FA7002A1262D97F0122DA
:10569E00900669EBF0A3EAF0A3E9F0AB05AA0412B9
:1056AE0060EDEF7002FF227FAE12606512602AEF8E
:1056BE0070051262D9FF2212601D1260ED7FAF12CB
:1056CE00606512602A90066EE07002A3E0604012E0
:1056DE0060AA900669E0FBA3E0FAA3E0F9EF1228B6
:1056EE00E290066EE07004A3E0640170051262A9F8
:1056FE0080031262E190066AE475F00112296B9044
:10570E00066FE024FFF090066EE034FFF080B612D4
:05571E0062D97F0122A9
