:10668500759850E4F587438E40538EFE53890F75F8
:0E6695008BE8758DFFC2ABD28ED2ACD2AF2295
:10671500900662E0FBA3E475F001122993A9F0FA53
:0467250012289CFF9B
:06672900900665EFF0226E
:10627200900662EBF0A3EAF0A3E9F0ED4C701D90FA
:106282000662E0FBA3E0FAA3E0F912289C601CB4CA
:106292000A057F0D12672912671580E3ED1DAE0412
:0C62A20070011C4E600512671580F1228F
:1063F000900644E0FBA3E475F001122993A9F0FA9A
:0464000012289CFFC3
:10640400C2ACD297C299309F05EFA2D0929B8F99CC
:0A6414003099FDC299C297D2AC2264
:1062AE00900644EBF0A3EAF0A3E9F0ED4C701D90DC
:1062BE000644E0FBA3E0FAA3E0F912289C601CB4AC
:1062CE000A057F0D1264041263F080E3ED1DAE0427
:0C62DE0070011C4E60051263F080F1227C
:10644900900644E0FBA3E475F001122993A9F0FA40
:0464590012289CFF6A
:10645D0053AFFE539AFD8F9BE59A30E1FB539AFDA6
:04646D0043AF012216
:1062EA00900644EBF0A3EAF0A3E9F0ED4C701D90A0
:1062FA000644E0FBA3E0FAA3E0F912289C601CB470
:10630A000A057F0D12645D12644980E3ED1DAE0437
:0C631A0070011C4E600512644980F122E5
:10000E0053BAFE759A5075D7E875D6FF438E1443D2
:05001E00AF01D2AF228A
:104FE1000AB5E3B3AED4B10A000AB8B4BACFD4B1AA
:104FF1000A000AB1E0D2EBCAB1BCE432303139C4A3
:10500100EA31D4C23136C8D50A00504943435F4121
:105011002E5549443D3078004943435F74797065AA
:105021003D307800464D31315F4F4B0A00B3B5C575
:10503100C6CABEDDB4EDCEF30A00D0D5C3FBCABEED
:10504100DDB4EDCEF30A00786F723D006372633D0B
:105051000A00BFA8C4DAC8DDBFD50A00464D313702
:105061005F4F4B0A00C0B6D1C0D6DC000000000083
:10507100000000000000000000000000000000002F
:0550810000000000002A
:1030510060C8010500000000000000000000000041
:10306100000000000000000000000000000000005F
:10307100000000000000000000000000000000004F
:10308100000000000000000000000000000000003F
:10309100000000000000000000000000000000002F
:1030A100000000000000000000000000000000001F
:1030B100000000000000000000000000000000000F
:1030C10000000000000000000000000000000000FF
:1030D10000000000000000000000000000000000EF
:1030E10000000000000000000000000000000000DF
:1030F10000000000000000000000000000000000CF
:1031010000000000000000000000000000000000BE
:10311100000000000000000000000000420000006C
:103121000060C801CD0000000000000000000000A8
:10313100000000000000000000000000000000008E
:10314100000000000000000000000000000000007E
:10315100000000000000000000000000000000006E
:10316100000000000000000000000000000000005E
:10317100000000000000000000000000000000004E
:10318100000000000000000000000000000000003E
:10319100000000000000000000000000000000002E
:1031A100000000000000000000000000000000001E
:1031B100000000000000000000000000000000000E
:1031C10000000000000000000000000000000000FE
:1031D10000000000000000000000000000000000EE
:1031E100000000000000000000000000004200029A
:1031F10000004102EA004102D30041029500410270
:10320100EC0A4102F4004602ABFFFFFFFFFFFF6142
:10321100010004B2D9D7F7D4B13A20000000000070
:10322100000000000000000000000000000000009D
:10323100000000000000000000000000000000008D
:10324100000000000000000000000000000000007D
:10325100000000000000000000000000000000006D
:10326100000000000000000000000000000000005D
:10327100000000000000000000000000000000004D
:10328100000000000000000000000000000000003D
:10329100000000000000000000000000000000002D
:1032A100000000000000000000000000000000001D
:1032B100000000000000000000000000000000000D
:1032C10000000000000000000000000000000000FD
:1032D10000000000000000000000000000000000ED
:1032E10000000000000000000000000000000000DD
:1032F10000000000000000000000000000000000CD
:1033010000000000000000000000000000000000BC
:10331100000000004602EEC8F0B7E518134102971D
:103321000041035B00410296004102B10041029954
:103331000041029800C1024102F6004102F500413C
:10334100035C004102EB0051029A303132333435D3
:0F33510036373839414243444546004102ED00CA
:0468D90075C135222E
:105853009005A2E0FFFCA3E0FD9005A0E0FAA3E021
:10586300FBC39DFDEA9CFC74AA2DF58274053CF5EF
:1058730083EFF09005A2A3E0FF74AB2DF5827405CE
:105883003CF583EFF0EB24F8EA34FF9005B2F0EB3C
:1058930024F8A3F07B017A0579AC9005A0E0FCA382
:0258A300E0FD26
:1058A50090063DEBF0A3EAF0A3E9F0A3ECF0A3ED3D
:0158B500F002
:1058B600E4FF90064074FFF5F012299345F0601757
:1058C60090063DE0FBA3E475F001122993A9F0FAD6
:0758D60012289C6FFF80DB2C
:0158DD0022A8
:0861EA0090063BEEF0A3EFF07C
:1061F200E4FBFAFCED6AFEEE30E71CEBAE0278013E
:10620200088005C333CE33CED8F9FF90063BE06E4B
:10621200FAA3E06FFB8007EB25E0FBEA33FAED25FA
:0B622200E0FD0CECB408CDAE02AF03B1
:01622D00224E
:105A6B009002B2F07A0279B27B01900637E4F0A390
:075A7B00741EF07F057E8020
:105A8200900632EEF0A3EFF0A3EBF0A3EAF0A3E965
:015A9200F023
:105A9300E4900639F0A3F090063774FFF5F012296D
:105AA3009345F0603A900639E0FF900634E0FBA39B
:105AB300E475F001122993A9F0FA12289C6FFD9066
:105AC3000632E0FEA3E0FF1261EAAC06AD079006E2
:105AD3003AE06CFFED900639CFF0A3EFF080B89079
:075AE3000639E0FEA3E0FF1D
:015AEA002299
:1063C1001268847F327E001263D21268847F327E2B
:0163D10000CB
:1063D200D3EF9400EE940040147D6E7C00ED1D70AE
:0D63E200011CED4C70F7EF1F70E61E80E30C
:0163EF00228B
:104C3A00F07B01A314F0A37402F074FAA3F07A02D1
:044C4A0079EEE4FF1C
:104C4E00900632EFF0A3EBF0A3EAF0A3E9F0A3E0B5
:104C5E00D3648094835009A3E0FE6480948F400354
:104C6E007F0022EE25E025E0FF900636E02FF07F54
:104C7E0003125BD7E4FF1254517B017A0679A4121A
:104C8E003396900384E0FBA3E0FAA3E0F9EF122839
:104C9E00E2900384E0FBA3E0FAA3E0F912289C70F3
:104CAE0048900632E0FF900637E0FD90064D740105
:104CBE00F0A37406F0A374A7F0900633E0FBA3E014
:104CCE00FAA3E0F9124E83EF701D900636E0FF90C6
:104CDE000638E0FBA3E0FAA3E0F9124CFFEF7009EF
:104CEE00FF125BD77F01228000E4FF125BD77F00AB
:014CFE002293
:1049DD00E4900643F0A304F0A3F0A37400F0A374D5
:0A49ED0004F07B017A0279EEE4FF8A
:1049F70090063FEFF0A3EBF0A3EAF0A3E9F0A3E002
:104A0700D3648094835009A3E0FE6480948F4003AD
:104A17007F0022EE25E025E0FF900643E02FF07FA0
:104A270003125BD7E4FF1254517B017A0679A41273
:104A37003396900384E0FBA3E0FAA3E0F9EF122892
:104A4700E2900384E0FBA3E0FAA3E0F912289C704C
:104A57004890063FE0FF900644E0FD90064D740144
:104A6700F0A37406F0A374A7F0900640E0FBA3E060
:104A7700FAA3E0F9124E83EF701D900643E0FF9012
:104A87000645E0FBA3E0FAA3E0F912573BEF7009F4
:104A9700FF125BD77F01228000E4FF125BD77F0004
:014AA70022EC
:0E3F4700900632EFF0A3EBF0A3EAF0A3E9F04E
:103F5500E490063DF0A3F090063BE0C4F854F0C8A9
:103F650068FEA3E0C4540F48FFC390063EE09F904F
:103F7500063DE09E4003024001900636E0FF339582
:103F8500E0FE90063DE0FCA3E0FD2FFFEC3EFEEFDA
:103F95005403900643F0EF7802CEC313CE13D8F93D
:103FA500FF900637E02F900644F0EDC4F8540FC893
:103FB50068FFECC454F048FE900638E0FBA3E0FA35
:103FC500A3E02FF9EA3EFA900645EBF0A3EAF0A349
:103FD500E9F0900633E0FBA3E0FAA3E0F99006329E
:103FE500E0FF1249F7EF601490063EE004F060032D
:103FF500023F5C90063DE004F0023F5C90063BE02A
:10400500FCA3E0FDECC4F854F0C868FEEDC4540F01
:1040150048FFA3E06E7003A3E06F7074ED540F606A
:104025006C900636E0FF3395E0FE90063DE0FCA37C
:10403500E0FD2FFFEC3EFEEF5403900643F0EF78D2
:1040450002CEC313CE13D8F9FF900637E02F9006A2
:1040550044F0EDC4F8540FC868FFECC454F048FEB2
:10406500900638E0FBA3E0FAA3E02FF9EA3EFA90C8
:104075000645EBF0A3EAF0A3E9F0900633E0FBA3D5
:10408500E0FAA3E0F9900632E0FF0249F77F01224A
:024095007F00AA
:014097002206
:0B2CDD00900594EBF0A3EAF0A3E9F0EF
:102CE80090059AE024FE602C0460030230509005A1
:102CF8009BE599F0900000E0FFA3E090059CCFF0E1
:102D0800A3EFF09002D4E0FFA3E090059ECFF0A3DC
:102D1800EFF0807A90059BE59BF0900002E0FFA31E
:102D2800E090059CCFF0A3EFF09002D6E0FFA3E07F
:102D380090059ECFF0A3EFF020845390059BE0FF11
:102D4800900594E0FBA3E0FAA3E0F990059CE475F4
:102D5800F00112299385F082F583EF1228F490058B
:102D68009CE0FFA3E0900002CFF0A3EFF09005975E
:102D7800E0FBA3E0FAA3E0F990000374011228F441
:102D8800900002E41228F4900001E40228F490056F
:102D98009BE0FF900594E0FBA3E0FAA3E0F990051F
:102DA8009CE0FCA3E0FDF5828C83EF1228F49005EB
:102DB80097E0FBA3E0FAA3E0F9C003C002C0011248
:102DC800289CFF900594E0FBA3E0FAA3E0F98D822C
:102DD8008C831228B56FD001D002D0031228E2905C
:102DE8000597E0FBA3E0FAA3E0F99000081228B5E4
:102DF8007027900594E0FBA3E0FAA3E0F990059C06
:102E0800E0FEA3E0F5828E831228B5FF90059FE0CF
:102E18002FF090059EE03400F090059DE004F070DE
:102E28000690059CE004F090059CE07004A3E06423
:102E380001707A900594E0FBA3E0FAA3E0F9122868
:102E48009CFF900597E0FBA3E0FAA3E0F9EF1228B6
:102E5800E2900594E0FBA3E0FAA3E0F912289CFFB6
:102E6800FD90059EE4F0A3EDF0900597E0FBA3E04C
:102E7800FAA3E0F9900008E41228F4900003740122
:102E88001228F4900002E41228F4900001E41228B9
:102E9800F4EF24E27002803C900597E0FBA3E0FA8F
:102EA800A3E0F9900003E41228F4022FD890059CBF
:102EB800E0FEA3E0FF64024E7037900594E0FBA3A8
:102EC800E0FAA3E0F912289CB41E1C900001122815
:102ED800B5B46013900597E0FBA3E0FAA3E0F9907E
:102EE8000004741E022FD3E490059CF0A3F0022D79
:102EF80096900597E0FBA3E0FAA3E0F9900004128E
:102F080028B5641E6003022FD8D3EF9409EE94000D
:102F18005003022FDF900594E0FBA3E0FAA3E0F949
:102F28009000061228B5FE9000071228B57C0024F0
:102F380000FFEC3EFE90059DE024F6FD90059CE028
:102F480034FFFCEF6D7002EE6C7071900597E0FB3A
:102F5800A3E0FAA3E0F912289CFFB41F079000022F
:102F680074018037900594E0FBA3E0FAA3E0F990A0
:102F7800059DE024FEFD90059CE034FF8D82F583DD
:102F88001228B5FEEF641F6EFF126404900597E0E7
:102F9800FBA3E0FAA3E0F9900002E41228F49005FC
:102FA80097E0FBA3E0FAA3E0F9900003E41228F409
:102FB800E490059CF0A3F0900001800F900597E045
:102FC800FBA3E0FAA3E0F9900002E41228F48007DA
:102FD800E490059CF0A3F090059AE024FE60340488
:102FE8007066900597E0FBA3E0FAA3E0F990000271
:102FF8001228B5B40102C2AC90059CE0FFA3E09092
:103008000000CFF0A3EFF090059EE0FFA3E0900250
:10301800D48030900597E0FBA3E0FAA3E0F9900094
:10302800021228B5B4010353AFFE90059CE0FFA33C
:10303800E0900002CFF0A3EFF090059EE0FFA3E040
:083048009002D6CFF0A3EFF0D7
:01305000225D
:03002300025CB8C4
:105CB800C0E0C0F0C083C082C0D075D000C000C0B2
:105CC80001C002C003C004C005C006C00730990265
:105CD800C29930982FC298C3900001E094C89000F0
:105CE80000E094004004E4F0A3F09005977401F0FC
:105CF800A37402F0A374D8F0A37401F0FB7A0179BD
:105D080005122CDDD007D006D005D004D003D00270
:0F5D1800D001D000D0D0D082D083D0F0D0E032F4
:03004300025AEB73
:105AEB00C0E0C0F0C083C082C0D075D000C000C081
:105AFB0001C002C003C004C005C006C007E59A3050
:105B0B00E031539AFEC3900003E094C8900002E08A
:105B1B0094004004E4F0A3F09005977401F0A37493
:105B2B0002F0A374E1F0A37402F07B017A0179CD4A
:105B3B00122CDDE59A30E103539AFDD007D006D045
:105B4B0005D004D003D002D001D000D0D0D082D069
:065B5B0083D0F0D0E0321F
:0C688400C2B47FD07E071263D2D2B422CF
:10680500538E7F5389F0E4F58A758C4CC28DD28CFA
:05681500D2A9D2AF2260
:03000B0002430F9E
:10430F00C0E0C0F0C083C082C0D075D000C000C074
:10431F0001C002C003C004C005C006C007900298C8
:10432F00E004F09002DBE060339002D9E004F0E0AB
:10433F00C394144027900000E0FF12640490000023
:10434F00A3E0FF1264049002DAE4F0A3F0900000FF
:10435F00F0A3F09002D9F07FE11264049002E4E040
:10436F0060339002E2E004F0E0C394144027900021
:10437F0002E0FF126404900002A3E0FF12640490B5
:10438F0002E3E4F0A3F0900002F0A3F09002E2F059
:10439F007FE2126404308504D2028014C2029002BC
:1043AF00F6E0B40102E4F09002F5E0B40102E4F0AB
:1043BF00900298E0FF75F00A84E5F0703AB2A530EC
:1043CF0085319002EBE0FE7016C2A79002F6E07006
:1043DF000A9002F5E07004D2A6801CB2A68018EEF7
:1043EF00B40114C2A69002F6E07004D2A78008B2FE
:1043FF00A78004D2A6D2A7EFC394C8400590029815
:10440F00E4F09002F4E004F0E0D394504002E4F0C2
:10441F00D007D006D005D004D003D002D001D000F1
:0B442F00D0D0D082D083D0F0D0E0329B
:0B1FDB00900632EBF0A3EAF0A3E9F05F
:101FE6009000021228B590063CF0C2D5ED641E6042
:101FF600030227A3900637F0A37408F0900636E094
:102006006402702F900632E0FBA3E0FAA3E0F99099
:1020160000061228B5FE9000071228B57C002400A1
:10202600FFEC3ECF240AFDE43FFC900632A3A3E07A
:102036001262AE900632E0FBA3E0FAA3E0F990004C
:10204600041228B524FB70030223531470030224E0
:102056002D24FE7003022514240760030225F39045
:102066000637E475F00112299385F082F583740929
:102076001228F4900637E475F00112299385F08250
:10208600F583E41228F4900637E475F001122993DB
:1020960085F082F58374041228F4900637E475F00F
:1020A6000112299385F082F58374561228F490065E
:1020B60037E475F00112299385F082F58374651271
:1020C60028F4900637E475F00112299385F082F51D
:1020D6008374721228F4900637E475F0011229937E
:1020E60085F082F58374111228F49002ECE0FF90DB
:1020F600063CE06F60030221B8900632E0FBA3E0E5
:10210600FAA3E0F99000031228B5F460030221B89F
:1021160090063775F00112299385F082F583744D88
:102126001228F4900637E475F00112299385F0829F
:10213600F58374431228F4900637E475F0011229EA
:102146009385F082F58374551228F4900637E4756A
:10215600F00112299385F082F583745F1228F490BA
:102166000637E475F00112299385F082F5837449E8
:102176001228F4900637E475F00112299385F0824F
:10218600F58374441228F4E4FF740C2FF8E6FE90ED
:102196000632E0FBA3E0FAA3E0F9900637E475F017
:1021A6000112299385F082F583EE1228F40FEFB41D
:1021B60007D7900637A3E024F5FF900632E0FBA38D
:1021C600E0FAA3E0F990000AEF1228F4900637E44B
:1021D60075F00112299385F082F583740A1228F4AA
:1021E600900637E475F00112299385F082F583E4B1
:1021F6001228F4900637E475F00112299385F082CF
:10220600F58374051228F4900637E475F001122957
:102216009385F082F58374201228F4900637E475CE
:10222600F00112299385F082F58374191228F4902F
:102236000637E475F00112299385F082F58374015F
:102246001228F4900637E475F00112299385F0827E
:10225600F58374161228F4900637E475F0011229F6
:102266009385F082F58374111228F4900636E024E3
:10227600FE600804700D9002DF80039002E874018E
:10228600F080037F022290063CE0F4600302264DB4
:10229600900632E0FBA3E0FAA3E0F99000031228CF
:1022A600B5FF6401600302264D900002EF1228F488
:1022B60090000374101228F490000474051228F498
:1022C600900006E41228F4900637E0FCA3E0FD2413
:1022D600F89000071228F41258A5900632E0FBA3E6
:1022E600E0FAA3E0F9900637E475F0011229938528
:1022F600F082F583EF1228F4900637E475F00112A8
:10230600299385F082F583741F1228F4900636E02F
:1023160024FE601B047030900632E0FBA3E0FAA3B3
:10232600E0F9900637E0FCA3E0FD1262AE801B9058
:102336000632E0FBA3E0FAA3E0F9900637E0FCA33F
:10234600E0FD1262EA80037F02227F0122900632BC
:10235600E0FBA3E0FAA3E0F99000021228B5FF9093
:1023660002EAE06F600302242A9000031228B5FFF8
:102376009002D3E06F600302242A9000051228B56C
:10238600FF900295E06F600302242A90000612284F
:10239600B5FF70089000071228B56065EF70399098
:1023A6000632E0FBA3E0FAA3E0F99000071228B595
:1023B600640470249000081228B5B40C1B90000920
:1023C6001228B5701390000A1228B5B4010A9000BD
:1023D6000B1228B564016029900632E0FBA3E0FAEF
:1023E600A3E0F99000081228B56409703790000A36
:1023F6001228B5240BF582E433F5831228B5B40A06
:1024060023900636E024FE600B0470159002DE74FD
:1024160001F080109002E77401F0E490035BF08015
:10242600037F02227F0122900632E0FBA3E0FAA39B
:10243600E0F99000081228B5FF70399000051228BF
:10244600B5FE9002ECE06E70269000061228B5707C
:102456001E9000071228B5B403159000091228B57E
:10246600700D90000A1228B57005D2D502264DC20D
:10247600D502264DEF646F600302264DFDFC7F03F7
:1024860012650EE4900639F0A3F0900632E0FBA345
:10249600E0FAA3E0F99000091228B5FE90000A12AE
:1024A60028B57C002400FFEC3EFE7D21122928C3BE
:1024B60090063AE09D900639E09C503F900639E040
:1024C600FEA3E0FF240BF582E43EF5831228B5FD5A
:1024D600F5C2745D2FF58274033EF583EDF0900628
:1024E60039E0FCA3E0FD7F0212650E90063AE00497
:1024F600F07097900639E004F0808FE4F5C29006FC
:1025060039E0FCA3E0FD7F0212650E02264D90061F
:1025160032E0FBA3E0FAA3E0F99000081228B5FF29
:10252600643D60030225B2126404900632E0FBA308
:10253600E0FAA3E0F990000B1228B5FF12640490AC
:1025460002B1E0FF126404900299E0FF1264049065
:102556000632E0FBA3E0FAA3E0F990000B1228B5DF
:10256600FF702D9002B1E0B40107E4F09002F6EF9F
:10257600F0900299E06401600302264DF090063265
:10258600E0FBA3E0FAA3E0F990000B1228B5801552
:10259600900632E0FBA3E0FAA3E0F990000B1228C4
:1025A600B59002F6F09002F5F002264D900632E064
:1025B600FBA3E0FAA3E0F99000081228B5643F6097
:1025C6000302264D90000B1228B59002EBF070081E
:1025D6007BFF7A4F79E1800E9002EBE06401706731
:1025E6007BFF7A4F79EAFDFC1262AE805A90063282
:1025F600E0FBA3E0FAA3E0F9900637E475F00112D8
:10260600299385F082F583740C1228F4900637E43A
:1026160075F00112299385F082F583E41228F4906F
:102626000637E475F00112299385F082F58374016B
:102636001228F4900637E475F00112299385F0828A
:10264600F58374031228F4900632E0FBA3E0FAA3A4
:10265600E0F99000021228B5FF9002ECE06F6017D7
:1026660090063CE0F470030227769000031228B52A
:1026760064016003022776900632E0FBA3E0FAA32A
:10268600E0F99000031228B59000021228F4900693
:102696003CE09000031228F490000474051228F41C
:1026A600900006E41228F4900637E0FCA3E0FD242F
:1026B600F89000071228F41258A5900632E0FBA302
:1026C600E0FAA3E0F9900637E475F0011229938544
:1026D600F082F583EF1228F4900637E475F00112C4
:1026E600299385F082F583741F1228F4900636E04C
:1026F60024FE601B047046900632E0FBA3E0FAA3BA
:10270600E0F9900637E0FCA3E0FD1262AE8031905E
:102716000632E0FBA3E0FAA3E0F9900637E0FCA35B
:10272600E0FD1262AE900632E0FBA3E0FAA3E0F908
:10273600900637E0FCA3E0FD1262EA80037F0222E6
:1027460030D511E4900298F0900298E0C3940A40C4
:10275600F775C760900632E0FBA3E0FAA3E0F990B4
:102766000638E024FEFF900637E034FF8F82802390
:10277600900637E0FEA3E0FFD39408EE9400401ADB
:10278600900632E0FBA3E0FAA3E0F974FF2FF5828E
:0F27960074FF3EF5831228B5FF227F01227F00DA
:0127A5002211
:1067C300C2B3C2967F647E001263D2D2B3D2967FE5
:0667D300647E000263D2A7
:100046009005A574F1F0A374BFF0A374F9F0C20093
:10005600C201E4A3F0A3F0A3F0A3F078107C067D20
:10006600017BFF7A507966FE7F201228761260C4E3
:100076001264E812685712668512000E126805129D
:10008600657B1238681268D97BFF7A4F79F3E4FDF5
:10009600FC1262AE7BFF7A4F79F3E4FDFC1262EA52
:1000A600E49005A0F0A3F09005A0E0FEA3E0FFC356
:1000B6009407EE9400505F9005A5E02FF8E6C4542F
:1000C6000F7E00540F249AF582EE3402F583E0FF8A
:1000D6001264049005A0A3E0FF9005A5E02FF8E6C2
:1000E6007E00540F249AF582EE3402F583E0FF1267
:1000F60064049005A0A3E0FF9005A5E02FF8E6FEB6
:10010600740C2FF8A6069005A1E004F070999005EE
:10011600A0E004F080917F0D1264047F0A1264044B
:10012600E49005A0F0A3F09005A0E0FEA3E0FFC3D5
:100136009407EE9400505F9005A6E0FCA3E02FF52F
:1001460082EC3EF583E493C4540F7E00540F249A48
:10015600F582EE3402F583E0FF1264049005A0E018
:10016600FEA3E0FF9005A6E0FCA3E02FF582EC3E9F
:10017600F583E4937E00540F249AF582EE3402F55B
:1001860083E0FF1264049005A1E004F070999005E5
:10019600A0E004F080917F0D1264047F0A126404CB
:1001A600E49005A0F0A3F09005A0E0FCA3E0FDC359
:1001B6009420EC9400507B7F0112650EE5C270021C
:1001C6008070E5C2B4FF47E49005A0F0A3F0900567
:1001D600A0E0FEA3E0FFC39420EE940050547410F8
:1001E6002FF58274063EF583E0FF60469005A0E099
:1001F600FCA3E0245DF58274033CF583EFF09005E3
:10020600A1E004F070C89005A0E004F080C090055D
:10021600A0E0FEA3E0245DF58274033EF583E5C20B
:10022600F09005A1E004F070069005A0E004F0024D
:1002360001AD7B017A03795DE4FDFC1262AE7B01C0
:100246007A03795DE4FDFC1262EA7F0D1264047F95
:100256000A1264047A03795D125A73900630EEF03E
:10026600A3EFF0900630E0FCA3E0FDEC90037BF0FA
:10027600EDA3F01268847FE87E031263D21267C38F
:100286001264E81268577F647E001263D21249DD59
:100296001268847FF47E011263D27FF77EFF1266B6
:1002A600061268841216CA1268D91249DDEF700365
:1002B600020780E49005A9F090035CE06003020762
:1002C60092900014F07B017A007904FDFC1262AE74
:1002D600900004E064C4705FA3E064CF7059A3E0AB
:1002E60064B27053A3E064FD704DA3E064C8704728
:1002F600A3E064F07041A3E064B7703BA3E064E55B
:100306007035A3E064B9702FA3E064AB7029A3E055
:1003160064CB7023A3E064BE701DA3E064D670179F
:10032600A3E0B4F712A3E0B4BF0DA3E0B4A808900D
:10033600035C74010203E3900004E064CD7046A3FD
:10034600E064B67040A3E064B1703AA3E064D27092
:1003560034A3E064BB702EA3E064FA7028A3E064C3
:10036600C67022A3E064D5701CA3E064CD7016A30A
:10037600E0B4A811A3E0B4BF0CA3E0B4A8079003AF
:100386005C74028058900004E064D67054A3E06464
:10039600B8704EA3E064CE7048A3E064C67042A372
:1003A600E064CD703CA3E064B67036A3E064B1703F
:1003B60030A3E064D2702AA3E064BB7024A3E06497
:1003C600FA701EA3E064B87018A3E0B4B113A3E0FA
:1003D600B4BF0EA3E0B4A80990035C7403F0020650
:1003E600AC900004E064D67050A3E064DC704AA3CD
:1003F600E064D77044A3E064AA703EA3E064B170E1
:1004060038A3E064EA7032A3E064C7702CA3E0640A
:10041600A97026A3E064BF7020A3E064A8701A90B8
:10042600035C7404F09002EBE060030206B99002EC
:1004360096E060030206B9804F900004E064B17054
:1004460050A3E064D2704AA3E064B57044A3E064AC
:10045600A8703EA3E064B17038A3E064B87032A31C
:10046600E064D3702CA3E064C37026A3E064BF707D
:1004760020A3E064A8701A90035C7405F09002EB68
:10048600E0640160030206B91263C11263CB02067F
:10049600B6900004E064B560030206B1A3E064E32D
:1004A60060030206B1A3E064B360030206B1A3E0F1
:1004B60064AE60030206B1A3E064BE60030206B147
:1004C600A3E064AD60030206B1A3E064C06003026A
:1004D60006B1A3E064ED60030206B1A3E064CA605E
:1004E600030206B1A3E064DA60030206B1A3E06486
:1004F600C860030206B1A3E064A860030206B1A3C4
:10050600E064BF60030206B1A3E064A860030206CC
:10051600B190035C7406F0E49005A0F0A3F090059A
:10052600A075F001122993FE74AC25F0F5827405CE
:100536003EF583741EF09005A0E475F00112299330
:10054600FE74AC25F0F58274053EF5837460F09078
:1005560005A0E475F001122993FE74AC25F0F5822E
:1005660074053EF5837401F09005A0E475F0011260
:100576002993FE74AC25F0F58274053EF583740A62
:10058600F09005A0E475F001122993FE74AC25F0F5
:10059600F58274053EF5837408F0900297E004FF37
:1005A600F09005A0E475F001122993FC74AC25F0D7
:1005B600F58274053CF583EFF09002EA740AF09038
:1005C60002D37401F0900297E0900295F09005A195
:1005D600E02402F09005A0E03400F0E475F001128A
:1005E6002993FE74AC25F0F58274053EF583743EBE
:1005F600F09005A1E02402F09005A0E03400F0E4BC
:100606009005A2F0A3F09005A0E475F001122993DD
:10061600FE74AC25F0F58274053EF5837401F09006
:1006260005A3E004F070069005A2E004F09005A290
:10063600E07004A3E0640170CD1258539005A0E465
:1006460075F001122993FC74AC25F0F58274053C13
:10065600F583EFF09005A0E475F001122993FE747E
:10066600AC25F0F58274053EF583741FF07B017AA4
:100676000579AC9005A0E0FCA3E0FD1262AE7B011B
:100686007A0579AC9005A0E0FCA3E0FD1262EA9041
:10069600035B7401F0E4900298F09002F604F09087
:1006A60002F5F01263CB1263CB8008E490035CF092
:1006B6001268847BFF7A50790BE4FDFC1262AEE48B
:1006C6009005A0F0A3F09005A0E0FEA3E0FFC39480
:1006D60004EE9400505374A72FF58274063EF583FA
:1006E600E0C4540F7E00540F249AF582EE3402F5CE
:1006F60083E0FF1264049005A0E0FEA3E024A7F5C2
:100706008274063EF583E07E00540F249AF582EE4D
:100716003402F583E0FF1264049005A1E004F07052
:10072600A59005A0E004F0809D7F0D1264047F0A69
:100736001264047BFF7A507919E4FDFC1262AE90D4
:10074600035CE0C4540F7E00540F249AF582EE3405
:1007560002F583E0FF12640490035CE07E00540F10
:10076600249AF582EE3402F583E0FF1264047F0DCD
:100776001264047F0A12640480129005A9E004F052
:10078600E0D394054006E4F090035CF0E4FF125BCE
:10079600D7D2B77FF77EFF126606EF20E403020D7D
:1007A600329002EBE06003020D329005AAF0A3E05E
:1007B600700204F07B017A0279B27F20126794906E
:1007C60005A0E4F0A3EF125A6E900630EEF0A3EF08
:1007D600F0D2B79005A0E07004A3E06401600302C4
:1007E6000CDF900630E0FCA3E0FDECFF9002D0E0C9
:1007F600FBEF6B7001E46003020CDFAF05A3E0FDC5
:10080600EF6D7001E46003020CDF9002B2E0FF12AC
:1008160064049002F5E0FF126404900299E0FF126E
:1008260064049002B2E0640170389002F5E064015D
:100836006003020CFC7B017A03795D900637125A3D
:1008460079900630EEF0A3EFF0900630E0FCA3E0DE
:10085600FDEC90037BF0EDA3F07B017A03795D025A
:1008660009819002B2E06404600302098B90029948
:10087600E06402600302095E747E125A6B900630D1
:10088600EEF0A3EFF0900630E0FCA3E0FDEC900262
:10089600D0F0EDA3F07B017A0279B27F207E0012C0
:1008A6004DC47B017A0579AC9005B2E0FEA3E07CED
:1008B600002400FFEC3ECF240AFDE43FFC1262AEAA
:1008C6007B017A0579AC9005B2E0FEA3E07C0024BA
:1008D60000FFEC3ECF240AFDE43FFC1262EAE490FE
:1008E60005ABF090029904F090035BF0E490029857
:1008F600F090035CE06405704F9005A0F0A3F090C3
:1009060005A0E0FEA3E0FFC39409EE9400501C741A
:10091600F72FF58274023EF583E4F09005A1E0041A
:10092600F070DC9005A0E004F080D4E4900636F088
:10093600A37402F07B01A314F0A37402F074F712FF
:100946004C46EF60031268841268847F147E00129E
:1009560063D2126884020CFC74FF125A6B90063044
:10096600EEF0A3EFF0900630E0FCA3E0FDEC900281
:10097600D0F0EDA3F07B017A0279B27F207E0012DF
:100986004DC4020CFC9002B2E064036003020CFC4E
:10099600D2017BFF7A507925FDFC1262AE9002F5FA
:1009A600E064016003020CFC7B017A0279B27D1CD3
:1009B600FC1258A59002CFE06F6003020CC49005AC
:1009C600A0F0A3F09005A075F001122993FE74AC77
:1009D60025F0F58274053EF583741EF09005A0E4BB
:1009E60075F001122993FE74AC25F0F58274053E6C
:1009F600F5837460F09005A0E475F001122993FE6A
:100A060074AC25F0F58274053EF5837401F090050B
:100A1600A0E475F001122993FE74AC25F0F58274FA
:100A2600053EF583740AF09005A0E475F0011229DD
:100A360093FE74AC25F0F58274053EF5837408F0D8
:100A4600900297E004FFF09005A0E475F0011229EA
:100A560093FC74AC25F0F58274053CF583EFF090B9
:100A660002EA740AF09002D37401F0900297E090C3
:100A76000295F09005A1E02402F09005A0E0340074
:100A8600F0E475F001122993FE74AC25F0F582743A
:100A9600053EF5837428F09005A1E02402F0900548
:100AA600A0E03400F0E49005A2F0A3F09005A2E0E7
:100AB600FEA3E0FFC39409EE9400505474B32FF5DF
:100AC6008274023EF583E0F960469005A0E475F075
:100AD60001122993FC74AC25F0F58274053CF5836C
:100AE600E9F074B32FF58274023EF583E0FFC394F8
:100AF600204004EFB4FF097BFF7A50792E020C6F79
:100B06009005A3E004F070A49005A2E004F0809C98
:100B16009005A2E0FFFCA3E0FDC39005A1E09DFDCA
:100B26009005A0E09CFC74AA2DF58274053CF58323
:100B3600EFF09005A2A3E0FF74AB2DF58274053C9F
:100B4600F583EFF09005A0E475F001122993FE7489
:100B5600AC25F0F58274053EF583743CF09005A152
:100B6600E02402F09005A0E03400F0E49005A2F045
:100B7600A3F09005A2E0FEA3E0FFC39407EE940065
:100B8600503474BC2FF58274023EF583E0FF900565
:100B9600A0E475F001122993FC74AC25F0F582747B
:100BA600053CF583EFF09005A3E004F070C49005D2
:100BB600A2E004F080BC9005A2E0FFFCA3E0FDC328
:100BC6009005A1E09DFD9005A0E09CFC74AA2DF582
:100BD6008274053CF583EFF09005A2A3E0FF74ABA9
:100BE6002DF58274053CF583EFF09005A0E475F0D1
:100BF60001122993FE74AC25F0F58274053EF58347
:100C06007420F09005A1E02402F09005A0E03400E5
:100C1600F0E49005A2F0A3F09005A2E0FEA3E0FFA9
:100C2600C39408EE9400505A74C32FF58274023EA2
:100C3600F583E0F9604C9005A0E475F00112299364
:100C4600FC74AC25F0F58274053CF583E9F074C3B9
:100C56002FF58274023EF583E0FFC394204004EF33
:100C6600B4FF0F7BFF7A50793BE4FDFC1262AE02C3
:100C760015C59005A3E004F0709E9005A2E004F06F
:100C860080961258539005A0E475F001122993FC42
:100C960074AC25F0F58274053CF583EFF09005A061
:100CA600E475F001122993FE74AC25F0F582740503
:100CB6003EF583741FF09002997402F080387BFF32
:100CC6007A507948E4FDFC1262AE7B017A0279B271
:100CD6007D1C7C001258A5801A7BFF7A50794DE462
:100CE600FDFC1262AE900630E0FF126404900630FE
:100CF600A3E0FF126404E49005A0F0A3F09005A021
:100D0600E0FEA3E0FFC39420EE940040030215C565
:100D160074B22FF58274023EF583E4F09005A1E0EB
:100D260004F070D99005A0E004F080D19005AAE007
:100D360004F0E0D3940A50030215C5E4F0C2019012
:100D4600035CE0FFB404089002EBE064016011EF7D
:100D5600640560030212969002EBE06003021296AD
:100D6600E4900636F0A37402F07B01A314F0A3749A
:100D760000F0A37404F0A3E4F0A37430F07A0279CF
:100D8600EEE4FF123F47EF640160030212969005FE
:100D9600A8F09005A0F0A3F09005A0E0FEA3E0FF68
:100DA600C39408EE9400504774042FF58274003EF5
:100DB600F583E0C3942040129005A0A3E02404F537
:100DC6008274003EF583E0B4FF157BFF7A507953B9
:100DD600E4FDFC1262AE1268841268840215C290A9
:100DE60005A1E004F070B19005A0E004F080A93000
:100DF60000030212A63001030212A6D2007BFF7A7C
:100E060050795DE4FDFC1262AE9002F6E06401608A
:100E16000302128E9005A0F0A3F09005A075F001D4
:100E2600122993FE74AC25F0F58274053EF58374A1
:100E36001EF09005A0E475F001122993FE74AC250E
:100E4600F0F58274053EF5837460F09005A0E475B4
:100E5600F001122993FE74AC25F0F58274053EF577
:100E6600837401F09005A0E475F001122993FE74D5
:100E7600AC25F0F58274053EF583740AF09005A062
:100E8600E475F001122993FE74AC25F0F582740521
:100E96003EF5837408F0900297E004FFF09005A0F9
:100EA600E475F001122993FC74AC25F0F582740503
:100EB6003CF583EFF09002EA740AF09002D37401D5
:100EC600F0900297E0900295F09005A1E02402F0E0
:100ED6009005A0E03400F0E475F001122993FE7449
:100EE600AC25F0F58274053EF5837428F09005A1D3
:100EF600E02402F09005A0E03400F0E49005A2F0B2
:100F0600A3F09005A2E0FEA3E0FFC39409EE9400CF
:100F1600507374042FF58274003EF583E06066908A
:100F260005A2A3E02404F58274003EF583E0FD905B
:100F360005A0E475F001122993FA74AC25F0F58248
:100F460074053AF583EDF074042FF58274003EF5CE
:100F560083E0C3942040149005A2E0FEA3E024049D
:100F6600F58274003EF583E0B4FF097BFF7A507981
:100F76002E02110A9005A3E004F070069005A2E087
:100F860004F0020F089005A2E0FFFCA3E0FDC39069
:100F960005A1E09DFD9005A0E09CFC74AA2DF582BC
:100FA60074053CF583EFF09005A2A3E0FF74AB2D2A
:100FB600F58274053CF583EFF0E4900004F09005AB
:100FC600A075F001122993FE74AC25F0F582740524
:100FD6003EF583743CF09005A1E02402F09005A054
:100FE600E03400F0E49005A2F0A3F09005A2E0FE44
:100FF600A3E0FFC39407EE9400503474242FF582C7
:1010060074003EF583E0FF9005A0E475F001122917
:1010160093FC74AC25F0F58274053CF583EFF090F3
:1010260005A3E004F070C49005A2E004F080BC9033
:1010360005A2E0FFFCA3E0FDC39005A1E09DFD90A5
:1010460005A0E09CFC74AA2DF58274053CF583EF9F
:10105600F09005A2A3E0FF74AB2DF58274053CF574
:1010660083EFF0E4900004F09005A075F0011229DA
:1010760093FE74AC25F0F58274053EF5837420F07A
:101086009005A1E02402F09005A0E03400F0E49081
:1010960005A2F0A3F09005A2E0FEA3E0FFC394082A
:1010A600EE9400507B74142FF58274003EF583E0B5
:1010B600606E9005A2A3E02414F58274003EF583C9
:1010C600E0FD9005A0E475F001122993FA74AC25B1
:1010D600F0F58274053AF583EDF074142FF58274F9
:1010E600003EF583E0C3942040149005A2E0FEA3E1
:1010F600E02414F58274003EF583E0B4FF117BFF13
:101106007A50793BE4FDFC1262AEC2000215C5902E
:1011160005A3E004F070069005A2E004F002109B1F
:101126001258539005A0E475F001122993FC74AC93
:1011360025F0F58274053CF583EFF09005A0E47583
:10114600F001122993FE74AC25F0F58274053EF584
:1011560083741FF0E49005A2F0A3F09005A2E0FED0
:10116600A3E0FFC39404EE940050319005A2E0FC86
:10117600A3E0FD2424F58274003CF583E0FB74A70C
:101186002DF58274063CF583E0B503109005A3E0C7
:1011960004F070C79005A2E004F080BFEF64044E2F
:1011A600702D9005A2E0FEA3E0FFC39407EE940025
:1011B600501D74242FF58274003EF583E070109064
:1011C60005A3E004F070DB9005A2E004F080D39064
:1011D60005A2E07004A3E0640760377B017A057915
:1011E600AC9005A0E0FCA3E0FD1262AE7B017A059F
:1011F60079AC9005A0E0FCA3E0FD1262EA9002B192
:101206007401F090035BF0E4900296F0900298F07F
:10121600800EE49002B1F090035BF090029604F029
:10122600E49005ABF090035CE0640570599002967B
:10123600E070539005A0F0A3F09005A0E0FEA3E0B7
:10124600FFC39409EE9400501C74F72FF5827402C4
:101256003EF583E4F09005A1E004F070DC9005A073
:10126600E004F080D4E4900636F0A37402F07B012B
:10127600A314F0A37402F0A374F7124C47EF6002B4
:101286008009C200801A80031263C112688480102C
:101296009005A8E004F0E0D394054004E4F0C20011
:1012A600900296E0640160030215C590035CE06459
:1012B6000460030215C59002EBE060030215C590B9
:1012C60005A0F0A3F09005A4F09005B2E0FEA3E01F
:1012D6007C002400FFEC3EFED3EF9407EE94005012
:1012E6000302156BEF24F9FFEE34FFFEC39005A150
:1012F600E09F9005A0E09E400302156BE49005A2D6
:10130600F0A3F09005A2E0FEA3E0FF9005A1E02F78
:10131600FD9005A0E03EFC74B42DF58274053CF505
:1013260083E0FD74F72FF58274023EF583EDF090AD
:1013360005A3E004F070069005A2E004F09005A273
:10134600E07004A3E0640370BA9002F7E024E07052
:10135600030214A724E47003021408241460030291
:101366001547E49005A2F0A3F09002F9E0FFC390C0
:1013760005A3E09F9005A2E094005039E0FEA3E0AB
:10138600FF9005A1E02FFD9005A0E03EFC74B72D6F
:10139600F58274053CF583E0FD74FA2FF58274023C
:1013A6003EF583EDF09005A3E004F070BC9005A235
:1013B600E004F080B49005A2E0FEA3E0FFC3941021
:1013C600EE9400501C74FA2FF58274023EF583E405
:1013D600F09005A3E004F070DC9005A2E004F08034
:1013E600D47B017A0279F77D137C001262AEE49019
:1013F6000636F0A37402124C3AEF70030215470248
:101406001541E49005A2F0A3F09002F9E0FFC39025
:1014160005A3E09F9005A2E094005039E0FEA3E00A
:10142600FF9005A1E02FFD9005A0E03EFC74B72DCE
:10143600F58274053CF583E0FD74FA2FF58274029B
:101446003EF583EDF09005A3E004F070BC9005A294
:10145600E004F080B49005A2E0FEA3E0FFC3941080
:10146600EE9400501C74FA2FF58274023EF583E464
:10147600F09005A3E004F070DC9005A2E004F08093
:10148600D47B017A0279F77D137C001262AE900656
:10149600367402F0A3124C3AEF7003021547021598
:1014A60041E49005A2F0A3F09002F9E0FFC3900595
:1014B600A3E09F9005A2E094005039E0FEA3E0FF70
:1014C6009005A1E02FFD9005A0E03EFC74B72DF538
:1014D6008274053CF583E0FD74FA2FF58274023EB2
:1014E600F583EDF09005A3E004F070BC9005A2E052
:1014F60004F080B49005A2E0FEA3E0FFC39410EED2
:101506009400501C74FA2FF58274023EF583E4F0C1
:101516009005A3E004F070DC9005A2E004F080D40E
:101526007B017A0279F77D137C001262AE90063653
:101536007401F0A304124C3AEF60069005A4E0048F
:10154600F09002F8E0FEA3E07C002400FFEC3ECF22
:101556002403CF3400FE9005A1E02FF09005A0E013
:101566003EF00212CF9005A4E0640370527B017A2C
:101576000579AC9005B2E0FEA3E07C002400FFEC08
:101586003ECF240AFDE43FFC1262AE7B017A057968
:10159600AC9005B2E0FEA3E07C002400FFEC3ECF59
:1015A600240AFDE43FFC1262EA9002B17401F09055
:1015B600035BF0E4900296F0900298F0126884E4DF
:1015C600FF125BD790035BE064016003021675901F
:1015D6000298E0D3946450030216752002030216A3
:1015E60075900297E004F09005B1F0900297E090B4
:1015F6000295F07B017A0579AC9005B2E0FEA3E096
:101606007C002400FFEC3ECF2408FDE43FFC12588A
:10161600A5AD079005B2E0FEA3E07A002400FFEA3C
:101626003EFE74B42FF58274053EF583EDF07B0122
:101636007A0579AC9005B2E0FEA3E07C002400FFB9
:10164600EC3ECF240AFDE43FFC1262AE7B017A0534
:1016560079AC9005B2E0FEA3E07C002400FFEC3EEE
:10166600CF240AFDE43FFC1262EAE4900298F0906F
:1016760002DAE060217B017A0179059002DCE0FD67
:101686009006367401F0121FDBD2ACE49002DAF059
:10169600900000F0A3F09002E3E070030202AD7B3D
:1016A600017A0179CD9002E5E0FD9006367402F0EC
:1016B600121FDB43AF01E49002E3F0900002F0A3B7
:0416C600F00202AD7F
:1060C400E4F593F594F591F592F595F596F5B1F51A
:1060D400B2F5B3F5B4439404C282439410D284431A
:1060E4009204D292439208439210439220439240E6
:1060F400D29643B208D2B3C2A5439620C2A6439611
:0C61040040C2A7439680C29743928022BD
:10622E00E4FDFCC3ED9FEC9E503900000000000021
:10623E000000000000000000000000000000000050
:10624E000000000000000000000000000000000040
:10625E000000000000000000000000000DBD000165
:03626E000C80C0E1
:01627100220A
:1064E8009003847401F0A37403F0A37488F09003FC
:1064F8007F7401F0A37404F0A37488F0E4F509F53F
:0665080008F50AF50B2264
:0B54E90090064BEBF0A3EAF0A3E9F003
:1054F4007D807F121266477D807F131266477D0888
:105504007F131265C67D087F081266477D077F0DED
:1055140012689F7523267F017E007D007C00124B5C
:10552400739006567401F07B00A314F0A37400F08A
:10553400A37424F0A3EBF0A37400F0A37426F07A10
:105544000079237F0C12363D8F22E522702BE5274C
:1055540064104526702390064BE0FBA3E0FAA3E019
:10556400F9E5241228E290064BE0FBA3E0FAA3E05D
:0B557400F9900001E5251228F4AF2299
:01557F002209
:0B558000900632EBF0A3EAF0A3E9F084
:10558B007D807F121266477D807F131266477D08F0
:10559B007F131265C67D087F081266477D077F0D56
:1055AB0012689F7522527F017E007D007C00124B9A
:1055BB00739006567401F07B00A314F0A37400F0F3
:1055CB00A37423F0A3EBF0A37400F0A37425F07A7B
:1055DB000079227F0C12363D8F21E521702BE526B9
:1055EB00641045257023900632E0FBA3E0FAA3E09C
:1055FB00F9E5231228E2900632E0FBA3E0FAA3E0E0
:0B560B00F9900001E5241228F4AF2103
:015616002271
:10474E00900648E0FBA3E0FAA3E02407F9E43AFA66
:02475E007F9545
:0E47600090064BEFF0A3EBF0A3EAF0A3E9F014
:10476E007D807F121266477D807F131266477D081B
:10477E007F08126647E4FD7F0D12689F7D807F0ED5
:10478E0012664790064BE0F5247525207F017E00CA
:10479E007D007C00124B739006567402F0A3E4F079
:1047AE00A37400F0A37426F0A3E4F0A37400F0A3A6
:1047BE00742BF07B007A0079247F0C12363D8F2209
:1047CE00E5227058F52374262523F8E6FF90064C53
:1047DE00E0FBA3E0FAA3E0F9852382758300EF12D4
:1047EE0028F40523E523B405DD90064CE0FBA3E099
:1047FE00FAA3E0F99000011228B5FF12289C6FFF72
:10480E009000021228B56FFF9000031228B56FFFBB
:0E481E009000041228B56F6003752201AF22CE
:01482C002269
:0E50860090064BEFF0A3EBF0A3EAF0A3E9F0E5
:10509400E4FD7F0D12689F7D807F121265C67D80BE
:1050A4007F131265C67D087F0812664790064BE0A1
:1050B400F524752570E4F52390064CE0FBA3E0FA93
:1050C400A3E0F98523827583001228B5FF74262591
:1050D40023F8A6070523E523B405DD7F017E007DC3
:1050E400007C00124B739006567407F0A3E4F0A3FF
:1050F4007400F0A3742BF0A3E4F0A37400F0A37481
:1051040030F07B007A0079247F0C12363D8F22E543
:1051140022701090064FE0FBA3E0FAA3E0F9E52B20
:055124001228E2AF2299
:015129002263
:105EC600752250E4F523FD7F0D12689F7D807F12B9
:105ED6001265C67D807F131265C67D087F0812662F
:105EE600477F017E007D007C00124B73900656743E
:105EF60002F0A3E4F0A37400F0A37424F0A3E4F08A
:105F0600A37400F0A37425F07B007A0079227F0445
:055F160012363D8F2151
:015F1B002263
:0B339600900648EBF0A3EAF0A3E9F07A
:1033A1001254E98F21E521B401037F0122900648DF
:1033B100E0FBA3E0FAA3E0F912289C54C0706DE988
:1033C1002403F9E43AFA7F931247608F21E521B48F
:1033D10001037F0122900648E0FBA3E0FAA3E02469
:1033E10003F9E43AFAC003C002C001900648A3E021
:1033F100FAA3E0240FF9E43AFA90064FEBF0A3EABE
:10340100F0A3E9F0D001D002D0037F931250868F50
:1034110021E521B401037F0122900648E0FBA3E0EE
:10342100FAA3E0F990000274041228F4900648E02F
:10343100FBA3E0FAA3E0F912289C54C064406003A6
:10344100023502E92403F9E43AFA7F931247608FC7
:1034510021E521B401037F0122900648E0FBA3E0AE
:10346100FAA3E02403F9E43AFAC003C002C00190D0
:103471000648A3E0FAA3E0240FF9E43AFA90064FD4
:10348100EBF0A3EAF0A3E9F0D001D002D0037F93DF
:103491001250868F21E521B401037F012212474E8C
:1034A1008F21E521B401037F0122900648E0FBA3AF
:1034B100E0FAA3E02407F9E43AFAC003C002C0012C
:1034C100900648A3E0FAA3E0240FF9E43AFA900643
:1034D1004FEBF0A3EAF0A3E9F0D001D002D0037FD3
:1034E100951250868F21E521B401037F01229006B8
:1034F10048E0FBA3E0FAA3E0F99000027408122867
:10350100F4900648E0FBA3E0FAA3E0F912289C54EA
:10351100C06480600302363AE92403F9E43AFA7F91
:10352100931247608F21E521B401037F01229006A8
:1035310048E0FBA3E0FAA3E02403F9E43AFAC0036C
:10354100C002C001900648A3E0FAA3E0240FF9E409
:103551003AFA90064FEBF0A3EAF0A3E9F0D001D0DC
:1035610002D0037F931250868F21E521B401037F9E
:10357100012212474E8F21E521B401037F012290E0
:103581000648E0FBA3E0FAA3E02407F9E43AFAC015
:1035910003C002C001900648A3E0FAA3E0240FF99A
:1035A100E43AFA90064FEBF0A3EAF0A3E9F0D00178
:1035B100D002D0037F951250868F21E521B40103FB
:1035C1007F0122900648E0FBA3E0FAA3E0240BF977
:1035D100E43AFA7F971247608F21E521B401037F16
:1035E1000122900648E0FBA3E0FAA3E0240BF9E4F2
:1035F1003AFAC003C002C001900648A3E0FAA3E072
:10360100240FF9E43AFA90064FEBF0A3EAF0A3E9AC
:10361100F0D001D002D0037F971250868F21E5218F
:10362100B401037F0122900648E0FBA3E0FAA3E086
:0B363100F9900002740C1228F4AF2185
:01363C00226B
:1067AC00535049526561645F53657175656E6365DD
:0767BC000A00656E640A008B
:0F685700E4F5CF75CDC0D29275CED0F5A2FF2259
:10647100900663E004F07006900662E004F0D390A9
:106481000663E094C8900662E0940040037F002216
:07649100E5CD5F60DB7F0138
:0164980022E1
:10649900C292EF25E0F54F434F8075CDC0854FCFB0
:1064A9007F8012647175CDC0E4F5CF7F801264716D
:0764B90085CF4ED292AF4ED9
:0164C00022B9
:1056170090065DEFF0A3EDF0A3EBF0A3EAF0A3E9AA
:01562700F092
:105628007BFF7A6779ACE4FDFC12627290065DE05C
:105638006070C29290065EE025E0F54C434C8075A0
:10564800CDC0854CCF7F801264717F30126729905E
:10565800065DE0FF126729E4F54B90065DE0FFE583
:105668004BC39F502F75CDC0EF14B54B05E4F5CF54
:105678008003854CCF7F8012647190065FE0FBA3A6
:10568800E0FAA3E0F9854B82758300E5CF1228F490
:10569800054B80C6D2927BFF7A6779BEE4FDFC1287
:0256A80062722C
:0156AA0022DD
:10653300C292EF25E0F54D534D7E75CDC0854DCF0D
:106543007F8012647175CDC0AF058FCF7F801264D9
:0365530071D29270
:016556002222
:0D5FC80090065DEBF0A3EAF0A3E9F0AE0750
:105FD500EE6044C292AF05EF25E0F54B534B7E755D
:105FE500CDC0854BCF7F80126471E4F54CE54CC381
:105FF5009E502275CDC090065DE0FBA3E0FAA3E0BC
:10600500F9854C827583001228B5F5CF7F8012641F
:0760150071054C80D8D29206
:01601C002261
:104E8300EF7003752160EFB40103752161ED25E037
:104E930025E0F52212289CF5239000011228B5F590
:104EA300249000021228B5F5259000031228B5F5C9
:104EB300269000041228B5F5279000051228B5F5B1
:104EC3002890064DE0FBA3E0FAA3E0F912289CF535
:104ED300299000011228B5F52A9000021228B5F591
:104EE3002B9000031228B5F52C7F017E007D007CFA
:104EF30000124B73900656740CF0A3E4F0A37400F5
:104F0300F0A3742DF0A3E4F0A37400F0A3742FF0C6
:104F13007B007A0079217F0E12363D8F2EE52E70AD
:104F23000F7F081268C7EF30E3037F00227F01225F
:024F33007F01FC
:014F35002259
:105E64009000031228B5FEF5219000021228B5FD1A
:105E7400F5229000011228B5F52312289CF524EE92
:105E8400F4F525EDF4F5269000011228B5FEF4F59D
:105E94002712289CFDF4F5289000031228B5F52953
:105EA4009000021228B5F52A8E2B8D2C8F2DEFF43D
:105EB400F52E8F2FF5307B007A007921124CFF8F5D
:015EC40031AC
:015EC50022BA
:0E573B00900648EFF0A3EBF0A3EAF0A3E9F02C
:105749007D807F1212689F7D807F1312689FE4FD20
:105759007F0D12689F7F017E007D007C00124B73D4
:10576900752130900648E0F5229006567402F090B3
:105779000649E0F9A3E0FAA3E0900657C9F0A3EAC5
:10578900F0A3E9F0A3E4F0A37400F0A37424F07B80
:10579900007A0079217F0C12363D8F23E52564803C
:1057A900452460047F0180027F00E52360047E01B7
:0D57B90080027E00EE4F60037F01227F0022
:0157C60022C0
:0E4CFF0090063BEFF0A3EBF0A3EAF0A3E9F080
:104D0D007F057E007D007C00124B737533A09006ED
:104D1D003BE0F5349006567402F0A3E4F0A3740062
:104D2D00F0A37443F0A3E4F0A37400F0A37444F073
:104D3D007B007A0079337F0C12363D8F32E5435478
:104D4D000F640A60047F0180027F00E53260047EFB
:104D5D000180027E00EE4F60037F01227F0A7E00FC
:104D6D007D007C00124B739006567410F0A3E4F096
:104D7D00A37400F0A37443F0A3E4F0A37400F0A3B4
:104D8D007444F090063CE0FBA3E0FAA3E0F97F0C3D
:104D9D0012363D8F32E543540F640A60047F018063
:104DAD00027F00E53260047E0180027E00EE4F60DE
:064DBD00037F01227F00CC
:014DC30022CD
:0E512A00900632EFF0A3EBF0A3EAF0A3E9F059
:105138007F057E007D007C00124B737522C19006AE
:1051480032E0F5239006567402F0A3E4F0A374004D
:10515800F0A37424F0A3E4F0A37400F0A37425F082
:105168007B007A0079227F0C12363D8F21E524548A
:105178000F640A60047F0180027F00E52160047EDD
:105188000180027E00EE4F60037F01227F057E00D2
:105198007D007C00124B739006567404F0A3E4F073
:1051A800A37400F0A37424F0A3E4F0A37400F0A3A4
:1051B8007425F0900633E0FBA3E0FAA3E0F97F0C36
:0551C80012363DAF218D
:0151CD0022BF
:0E51CE00900632EFF0A3EBF0A3EAF0A3E9F0B5
:1051DC007F057E007D007C00124B737522C090060B
:1051EC0032E0F5239006567402F0A3E4F0A37400A9
:1051FC00F0A37424F0A3E4F0A37400F0A37425F0DE
:10520C007B007A0079227F0C12363D8F21E52454E5
:10521C000F640A60047F0180027F00E52160047E38
:10522C000180027E00EE4F60037F01227F057E002D
:10523C007D007C00124B739006567404F0A3E4F0CE
:10524C00A37400F0A37424F0A3E4F0A37400F0A3FF
:10525C007425F0900633E0FBA3E0FAA3E0F97F0C91
:05526C0012363DAF21E8
:01527100221A
:055E0000900632EFF0F6
:105E05007F057E007D007C00124B737522B09006E5
:105E150032E0F5239006567402F0A3E4F0A3740073
:105E2500F0A37424F0A3E4F0A37400F0A37425F0A8
:105E35007B007A0079227F0C12363D8F21E52454B0
:105E45000F640A60047F0180027F00E52160047E03
:0E5E55000180027E00EE4F60037F0122AF212C
:015E6300221C
:05531600900632EFF0EB
:10531B007F057E007D007C00124B737522C29006C8
:10532B0032E0F5239006567402F0A3E4F0A3740068
:10533B00F0A37426F0A3E4F0A37400F0A37427F099
:10534B007B007A0079227F0C12363D8F21E52654A3
:10535B000F640A60047F0180027F00E52160047EF8
:10536B000180027E00EE4F60037F01227F057E00ED
:10537B007D007C00124B73E4F522F523F524F52513
:10538B009006567404F0A3E4F0A37400F0A3742603
:10539B00F0A3E4F0A37400F0A37427F07B007A0071
:0953AB0079227F0C12363DAF217E
:0153B40022D6
:04336000410704001D
:0568C7001264998F4DE1
:0168CC0022A9
:0B632600900632EBF0A3EAF0A3E9F0D0
:10633100E4F521AF21126499900632E0FBA3E0FA63
:10634100A3E0F9852182758300EF1228F40521E588
:0863510021C3944040DD7F00F0
:016359002221
:04689B00E4FD7F0198
:06689F001265337F0022A8
:10677C00900657E0FBA3E0FAA3E07E002548F9EE73
:02678C003AFAD7
:06678E007D0912561722DE
:1067D900900656E0FF900653E0FBA3E0FAA3E0F928
:0667E9007D09125FC822C9
:10682F007D807F0A1265C67F0A126499EF7002FF9E
:04683F00227F012291
:0465C2007D807F0D4C
:0A65C60090065EEDF090065DEFF028
:1065D0001268C790065EE04FFD90065DE0FF12680E
:0365E0009F8F4C3E
:0165E3002295
:0A66470090065EEDF090065DEFF0A6
:106651001268C790065EE0F45FFD90065DE0FF12F0
:04666100689F8F4B54
:016665002212
:055BD700900648EFF00C
:105BDC007F141268C7EF5403FF900648E0FEB50728
:105BEC00037F0022EE70097D037F141266478F211C
:105BFC00900648E0B401127D017F141265C68F2116
:105C0C007D027F141266478F21900648E0B4021281
:105C1C007D017F141266478F217D027F141265C6A9
:105C2C008F21900648E0B403097D037F141265C6EA
:0B5C3C008F217FE87E0312622EAF2153
:015C4700223A
:0E363D00900652EFF0A3EBF0A3EAF0A3E9F041
:10364B00E4F547F548F5497F5C126729900652E08F
:10365B00FF12672912682F12689B7D207F0B12685F
:10366B009F7D7F7F0412689F900652E0B40E061276
:10367B0067D91265C27D807F2A1265C6900652E01B
:10368B00FD7F0112689F7F5C126729900652E0FF55
:10369B001267297F301267297F041268C78F4A127D
:1036AB006729E54A30E0137546017F33126729908D
:1036BB000652E0FF1267290237CC900652E0FFB4A6
:1036CB000E08E54A30E4030237C9EF64047059E58C
:1036DB004A30E244900656E0FFD39400403AEF9410
:1036EB0020900653E0FBA3E0FAA3E0F9500A12671F
:1036FB00E9E4900656F080167F201267E990065693
:10370B00E024E0F0900654E475F02012297D7D044E
:10371B007F0412689F1265C2E54A30E60B9006568D
:10372B00E07005F5460237CC900652E0640C60035E
:10373B0002369EE54A30E245900656E0FFD39400F0
:10374B00403BEFD394204023900653E0FBA3E0FAD9
:10375B00A3E0F97F201267E9900656E024E0F09091
:10376B000654E475F02012297D80081267D9E49085
:10377B000656F01265C27D047F0412689FE54A303D
:10378B00E32630E623900656E0701D7F0A1268C7C9
:10379B00EFD3942040127F2012677C74202548F5CC
:1037AB00487D087F0412689FE54A20E50302369E98
:1037BB00900656E0600302369E90070404F0E4F591
:1037CB00467F32126729900652E0640C70767F3484
:1037DB00126729E4F5487F0A1268C78F477F3512B5
:1037EB006729AF47126729AF4712677C7F3612678D
:1037FB0029E5472548F5487F0C1268C7EF5407F5B4
:10380B00496028E54824FFFFE434FFFEEF7803C34B
:10381B0033CE33CED8F97C002549FFEC3EF9900628
:10382B005AE0FBA3E0FAA3E0C98014E54875F00861
:10383B00A4FF90065AE0FBA3E0FAA3E0F9E5F08FB2
:10384B00F01229A97F311267297D807F0C1265C682
:0C385B0012689B7D807F0D126647AF460F
:01386700223E
:064B7300900652122B090E
:104B7900E4F54AF54BF549F548F547F546E47FF87C
:104B89007E34FDFC900652E0F8A3E0F9A3E0FAA315
:104B9900E0FB1229C8EF24FFFFEE34FFFEED34FFDE
:104BA900FDEC34FFFCC006C007E54B25E0FFE54AF4
:104BB90033FEEF2401FFE43EAB07FAE4F9F8D0072E
:104BC900D006122A538F498E488D478C46E47FFFC1
:104BD9007EFFFDFCAB49AA48A947A846C3122AE5AE
:104BE9004011054BE54B7002054AF47004E54A642F
:104BF9000F708AE549F549E548F548E4F547F54672
:104C0900E54AFD7F2A1265C6E54BFD7F2B12689F99
:104C1900AF49AE48AD47AC467808122AF6AD077FD2
:104C29002C12689FE549FFAD077F2D12689F7F0011
:014C39002258
:10545100900648EFF0701C7D107F0C1265C67D40F0
:105461007F151265C6E4FD7F1212689FE4FD7F136C
:1054710012689F900648E06401702A7D107F0C122B
:10548100689F7D837F1212689F7D837F1312689FBF
:105491007DF47F2712689F7DF47F2312689FE4FDCE
:1054A1007F1512689F900648E0640270387D107F76
:1054B1000C12689F7D927F1212689F7D967F131256
:1054C100689F7DF47F2712689F7D207F2812689F47
:1054D1007D4F7F2312689F7D207F2912689F7D0762
:0854E1007F1512689F7F002275
:100026007D0F7F0112689F7D107F0C1265C67F0CC5
:0D0036001268C7EF30E4037F00227F012233
:10681A00C2B37F017E0012622ED2B37F017E0012C4
:05682A00622E7F002238
:1066A3007F011268C7EF30E40A7D107F011266474D
:0D66B3007F01227D107F011265C67F00224D
:0B689000B2B330B3037F00227F01226F
:0F686600EF2480FD7F0F12689F7F0F1268C722FB
:1066C000900632EDF0EF2440FD7F0F12689F900698
:0D66D00032E024C0FD7F0F12689F7F002282
:0668CD0000840000080039
:103DE700900632EFF0A3EDF0A3EBF0A3EAF0A3E91E
:013DF700F0DB
:103DF8007D807F1212689F7D807F1312689FE4FD8B
:103E08007F0D12689F7F647E007D007C00124B73DB
:103E18007522E0900633E0F523540F9006B5F09034
:103E28000632E09006B4F012682F9006567402F03D
:103E3800900637E0F9A3E0FAA3E0900657C9F0A38B
:103E4800EAF0A3E9F0A3E4F0A37400F0A37425F06A
:103E58007B007A0079227F0C12363D8F21E52160A4
:103E680003023F35F524E526AE257803CEC313CEED
:103E780013D8F9FF900634E0FBA3E0FAA3E0F9EFCA
:103E88001228E2900637E0FBA3E0FAA3E0F9122833
:103E98009C9006B7F09000011228B59006B8F0542F
:103EA8000F9006BCF09006B8E030E61E900637A3E7
:103EB800A3E02402F9E43AFA7E00E92524F9EE3A6F
:103EC800FA12289C9006B9F005249006B8E030E56F
:103ED80031900637E0FBA3E0FAA3E02402F9E43AC4
:103EE800FA7E00E92524F9EE3AFA12289C9006BADF
:103EF800F09006BDE4F09006BAE0540F9006BEF0CC
:103F080005249006B8E030E433900637E0FBA3E0E0
:103F1800FAA3E02402F9E43AFA7E00E92524F9EE4E
:103F28003AFA12289C9006BBF00524800F900634BC
:0E3F3800E0FBA3E0FAA3E0F9E41228E2AF21D7
:013F46002258
:10527200900632EFF0A3EDF0A3EBF0A3EAF0A3E97E
:01528200F03B
:105283007F327E007D007C00124B739006B5E044B4
:10529300D0F522900632E0F52312682F900632E013
:1052A30030E40BA3E0F524900656740380059006C2
:1052B300567402F0900637E0F9A3E0FAA3E09006F3
:1052C30057C9F0A3EAF0A3E9F0A3E4F0A37400F054
:1052D300A37425F07B007A0079227F0C12363D8F70
:1052E30021E521701CE526AE257803CEC313CE132A
:1052F300D8F9FF900634E0FBA3E0FAA3E0F9EF80CE
:105303000C900634E0FBA3E0FAA3E0F9E41228E2F0
:02531300AF21C8
:015315002275
:080003009006B4E06401F02254
:0B5F1C00900632EBF0A3EAF0A3E9F0DE
:105F270078227C007D007BFF7A6879CD7E007F0533
:105F3700122876900632E0F9A3E0FAA3E090063C37
:105F4700C9F0A3EAF0A3E9F0900635E0F9A3E0FA77
:105F5700A3E090063FC9F0A3EAF0A3E9F07B007A3B
:0A5F67000079227F051240988F2177
:015F7100220D
:0E58DE00900632EFF0A3EBF0A3EAF0A3E9F09E
:1058EC007F647E007D007C00124B73900632E0904A
:1058FC000656F0900639E0F9A3E0FAA3E0900657BB
:10590C00C9F0A3EAF0A3E9F0A3E4F0A37400F0A3B8
:10591C007422F0900633E0FBA3E0FAA3E0F97F0CCD
:10592C0012363D8F21E521701CE523AE227803CE83
:10593C00C313CE13D8F9FF900636E0FBA3E0FAA30D
:10594C00E0F9EF800C900636E0FBA3E0FAA3E0F957
:06595C00E41228E2AF2175
:015962002222
:0E409800900638EFF0A3EBF0A3EAF0A3E9F0F6
:1040A6007FF47E017D007C00124B739006B4E09095
:1040B600063830E354E0FF7E00A3E0FBA3E0FAA35A
:1040C600E02402F9E43AA801FCAD03900639A3A363
:1040D600E0F9122CB59006B4E0FF900639E0FBA398
:1040E600E0FAA3E0F9EF1228E29006B5E0FF9006A9
:1040F60039E0FBA3E0FAA3E0F9900001EF1228F4FF
:10410600900638E02402F0803AE0FF7E00A3E0FB50
:10411600A3E0FAA3E02401F9E43AA801FCAD039078
:104126000639A3A3E0F9122CB59006B4E0FF900679
:1041360039E0FBA3E0FAA3E0F9EF1228E290063893
:10414600E004F0900638E0900656F090063FE0F95D
:10415600A3E0FAA3E0900657C9F0A3EAF0A3E9F0BA
:10416600A3E4F0A37400F0A37428F0900639E0FBF2
:10417600A3E0FAA3E0F97F0C12363D8F27E52770FE
:104186004A90063FE0FBA3E0FAA3E0F912289C90D0
:1041960006B4F054F0FFBFF013E030E305900002E0
:1041A60080039000011228B59006B6F0120003E5D0
:1041B60029AE287803CEC313CE13D8F9FF90063C58
:1041C600E0FBA3E0FAA3E0F9EF800C90063CE0FBED
:0C41D600A3E0FAA3E0F9E41228E2AF270E
:0141E20022BA
:0B4AA800900632EBF0A3EAF0A3E9F067
:104AB3007F647E007D007C00124B739006B4E0306F
:104AC300E311540F44A0F521A3E0F5229006567498
:104AD30002800F9006B4E0540F44A0F521900656CF
:104AE3007401F0900635E0F9A3E0FAA3E0900657CD
:104AF300C9F0A3EAF0A3E9F0A3E4F0A37400F0A3E0
:104B03007424F07B007A0079217F0C12363D8F23C9
:104B1300E523704A900635E0FBA3E0FAA3E0F9121F
:104B2300289C9006B4F054F0FFBFF013E030E30587
:104B330090000280039000011228B59006B6F0128F
:104B43000003E525AE247803CEC313CE13D8F9FFB3
:104B5300900632E0FBA3E0FAA3E0F9EF800C9006A5
:0F4B630032E0FBA3E0FAA3E0F9E41228E2AF236B
:014B72002220
:0E465C00900632EFF0A3EBF0A3EAF0A3E9F032
:10466A007FF47E017D007C00124B73900632E0FFDE
:10467A0044C0F5219006B4E030E323EF54F064F02F
:10468A00700FA3E0F522A3E0F52390065674038089
:10469A00259006B5E0F52290065674028018900619
:1046AA0032E054F0FFBFF0069006B6E08001E4F570
:1046BA00229006567402F0900636E0F9A3E0FAA3B7
:1046CA00E0900657C9F0A3EAF0A3E9F0A3E4F0A347
:1046DA007400F0A37425F07B007A0079217F0C1214
:1046EA00363D8F24E524704A900636E0FBA3E0FAB3
:1046FA00A3E0F912289C9006B4F054F0FFBFF0131F
:10470A00E030E30590000280039000011228B59082
:10471A0006B6F0120003E526AE257803CEC313CE03
:10472A0013D8F9FF900633E0FBA3E0FAA3E0F9EF10
:10473A00800C900633E0FBA3E0FAA3E0F9E4122828
:03474A00E2AF24B7
:01474D002249
:105F7200900632EFF07D707F121266477D707F13BC
:105F8200126647900632E014601514601D146025F5
:105F92002403702FE4FD7F121265C6E4FD801F7D8D
:105FA200107F121265C67D1080147D207F1212654B
:105FB200C67D2080097D307F121265C67D307F1339
:065FC2001265C67F0022FB
:0E5D9500900632EFF0A3EBF0A3EAF0A3E9F0E2
:105DA3007D807F1212689F7D807F1312689FE4FDC0
:105DB3007F0D12689F752230900632E0F5237F0134
:105DC3007E007D007C00124B739006567402F090A7
:105DD3000633E0F9A3E0FAA3E0900657C9F0A3EA7B
:105DE300F0A3E9F0A3E4F0A37400F0A37424F07B20
:0C5DF300007A0079227F0C12363D8F21CF
:015DFF002281
:105B61007522A28F2312289CF5249000011228B5DA
:105B7100F5259000021228B5F5269000031228B5EC
:105B8100F5277F0A7E007D007C00124B739006563C
:105B91007406F0A3E4F0A37400F0A37428F0A3E466
:105BA100F0A37400F0A37429F07B007A0079227FBE
:105BB1000C12363D8F21E528640A60047F018002C2
:105BC1007F00E52160047E0180027E00EE4F6003CC
:055BD1007F01227F00AE
:015BD60022AC
:0B53B500900632EBF0A3EAF0A3E9F051
:1053C0007F057E007D007C00124B7390063B74507D
:1053D000F0783C7C067D01900632E0FBA3E0FAA366
:1053E000E0F97E007F041228769006567405F0904E
:1053F0000638E0F9A3E0FAA3E0900657C9F0A3EA63
:10540000F0A3E9F0A37401F0A37406F0A37440F0D4
:105410007B017A06793B7F0C12363DAD07ED701F9C
:10542000900640E0FEA3E07803CEC313CE13D8F974
:10543000FF900635E0FBA3E0FAA3E0F9EF800C90C3
:105440000635E0FBA3E0FAA3E0F9E41228E2AF0599
:015450002239
:0B41E300900632EBF0A3EAF0A3E9F035
:1041EE007F057E007D007C00124B7390063C7405AB
:1041FE00F0E4A3F0A37408F09006567403F0900652
:10420E0035E0F9A3E0FAA3E0900657C9F0A3EAF06F
:10421E00A3E9F0A37401F0A37406F0A3743FF07B3E
:10422E00017A06793C7F0C12363D90063BEFF0602A
:10423E00030242FA90063FE0FEA3E07803CEC313DA
:10424E00CE13D8F9FF900632E0FBA3E0FAA3E0F913
:10425E00EF1228E2900635E0FBA3E0FAA3E024017A
:10426E00F9E43AFAC003C002A3E0FBA3E0FAA3E02C
:10427E00F8AC02AD03D002D0037E007F0412287684
:10428E00900635E0FBA3E0FAA3E02406F9E43AFA3F
:10429E00C003C002C001A3E0FBA3E0FAA3E0240424
:1042AE00F9E43AA801FCAD03D001D002D0037E00A0
:1042BE007F04122876900635E0FBA3E0FAA3E024F3
:1042CE000AF9E43AFAC003C002C001A3E0FBA3E07E
:1042DE00FAA3E02408F9E43AA801FCAD03D001D01A
:1042EE0002D0037E007F03122876800F900632E004
:1042FE00FBA3E0FAA3E0F9E41228E290063BE0FF0C
:01430E00228C
:0B443A00900632EBF0A3EAF0A3E9F0DB
:104445007F057E007D007C00124B7390063C740551
:10445500F0E4A3F0A3F09006567403F0900635E05F
:10446500F9A3E0FAA3E0900657C9F0A3EAF0A3E99F
:10447500F0A37401F0A37406F0A3743FF07B017AF6
:1044850006793C7F0C12363D90063BEFF060030247
:10449500454F90063FE0FEA3E07803CEC313CE134D
:1044A500D8F9FF900632E0FBA3E0FAA3E0F9EF129A
:1044B50028E2900635E0FBA3E0FAA3E02401F9E445
:1044C5003AFAC003C002A3E0FBA3E0FAA3E0F8AC0C
:1044D50002AD03D002D0037E007F04122876900639
:1044E50035E0FBA3E0FAA3E02406F9E43AFAC003B9
:1044F500C002C001A3E0FBA3E0FAA3E02404F9E4B1
:104505003AA801FCAD03D001D002D0037E007F04A0
:10451500122876900635E0FBA3E0FAA3E0240AF919
:10452500E43AFAC003C002C001A3E0FBA3E0FAA38A
:10453500E02408F9E43AA801FCAD03D001D002D08B
:10454500037E007F03122876800F900632E0FBA3DE
:0E455500E0FAA3E0F9E41228E290063BE0FF52
:014563002235
:0B4F3600900632EBF0A3EAF0A3E9F0D4
:104F41007F057E007D007C00124B7390063B741D33
:104F5100F0783C7C067D01900632E0FBA3E0FAA3E9
:104F6100E0F97E007F04122876E4900640F0A374F5
:104F710008F0A37401F0A3F09006567409F09006AE
:104F810038E0F9A3E0FAA3E0900657C9F0A3EAF0EC
:104F9100A3E9F0A37401F0A37406F0A37444F07BB9
:104FA100017A06793B7F0C12363DAD07ED701F90FB
:104FB1000644E0FEA3E07803CEC313CE13D8F9FF75
:104FC100900635E0FBA3E0FAA3E0F9EF800C900630
:0F4FD10035E0FBA3E0FAA3E0F9E41228E2AF0514
:014FE00022AE
:0B56AB00900632EBF0A3EAF0A3E9F058
:1056B6007F057E007D007C00124B73E4900638F077
:1056C600A37436F0E4A3F0A3F0A37408F090065692
:1056D6007405F0900635E0F9A3E0FAA3E0900657CA
:1056E600C9F0A3EAF0A3E9F0A37401F0A37406F0ED
:1056F600A3743DF07B017A0679387F0C12363DADF6
:1057060007ED701F90063DE0FEA3E07803CEC313BD
:10571600CE13D8F9FF900632E0FBA3E0FAA3E0F936
:10572600EF800C900632E0FBA3E0FAA3E0F9E41266
:0457360028E2AF05B1
:01573A00224C
:0668D3000600FFFF0000BB
:0E482D00900632EFF0A3EBF0A3EAF0A3E9F05F
:10483B00783B7C067D017BFF7A6879D37E007F060F
:10484B00122876900632E0FF601664016012EF6466
:10485B0003600DEF64076008EF640F60037F0122B4
:10486B00900632E0900640F07F0A7E007D007C00CF
:10487B00124B739006567406F0900636E0F9A3E0DF
:10488B00FAA3E0900657C9F0A3EAF0A3E9F0A374EA
:10489B0001F0A37406F0A37439F07B017A06793B1F
:1048AB007F0C12363DEF7040900639E0FEA3E078A6
:1048BB0003CEC313CE13D8F9FF900633E0FBA3E06E
:1048CB00FAA3E0F9EF1228E2900636E0FBA3E0FA38
:1048DB00A3E02402F9E43AFA78DF7C067D017E003E
:1048EB007F081228767F0022900633E0FBA3E0FAC4
:0948FB00A3E0F9E41228E27F01B8
:014904002290
:103364005B06700102030405060708090102030451
:0E3374000506070809010203040506070809FB
:1016CA00E50964016003021FDAE50A6003021FDA12
:1016DA00F50990037FE0FBA3E0FAA3E0F9E41228FE
:1016EA00E290037FE0FBA3E0FAA3E0F912289C1240
:1016FA002B151FDA00177201177802177E0317A736
:10170A000417F105182206187C0718D20818D809F8
:10171A0018DE0A19200B196A0C1970101A18111AF6
:10172A004C121A93131ABE141ADD151B08161B2025
:10173A00171B44181B63201BB7211C0B221C2323D5
:10174A001C62241C9D251CEA261D49271D84311D67
:10175A00D5321E15331E55341E90351EE1521F1CFC
:10176A00531F4E6000001FC6120026021F3812685F
:10177A001A021F38900384E0FBA3E0FAA3E02401D5
:10178A00F9E43AFA126326900384E0FBA3E0FAA391
:10179A00E0F9EF1228E29003837441F02290038467
:1017AA00E0FBA3E0FAA3E0F9E41228E290037FE069
:1017BA00FBA3E0FAA3E0F99000011228B5FF900319
:1017CA0084E0FBA3E0FAA3E0F9900001EF1228F409
:1017DA0090037FE0FBA3E0FAA3E0F990000112284E
:1017EA00B5FF1268C7807990037FE0FBA3E0FAA3F4
:1017FA00E0F99000011228B5FF9000021228B5FD09
:10180A0012689F900384E0FBA3E0FAA3E0F9E412D4
:10181A0028E290038304F022900384E0FBA3E0FA19
:10182A00A3E0F9E41228E290037FE0FBA3E0FAA325
:10183A00E0F99000011228B5FF900384E0FBA3E0D1
:10184A00FAA3E0F9900001EF1228F490037FE0FB7D
:10185A00A3E0FAA3E0F99000011228B5FF12686626
:10186A00900384E0FBA3E0FAA3E0F9900002EF0200
:10187A00196090037FE0FBA3E0FAA3E0F99000016E
:10188A001228B5FF9000021228B5FD1266C0900317
:10189A0084E0FBA3E0FAA3E0F9EF1228E290037FC9
:1018AA00E0FBA3E0FAA3E0F99000011228B5FF904B
:1018BA000384E0FBA3E0FAA3E0F9900001EF122809
:1018CA00F49003837402F022126890021F381266A1
:1018DA00A3021F387F03125BD7E4FF1254517B0126
:1018EA007A0679A41254E9900384E0FBA3E0FAA3F0
:1018FA00E0F9EF1228E29006A4E0FF900384E0FBEF
:10190A00A3E0FAA3E0F9900001EF1228F49006A5EB
:10191A00E090000280407F03125BD7E4FF1254512B
:10192A007B017A0679A4125580900384E0FBA3E038
:10193A00FAA3E0F9EF1228E29006A4E0FF900384EC
:10194A00E0FBA3E0FAA3E0F9900001EF1228F4907B
:10195A0006A5E09000021228F49003837403F02293
:10196A00125EC6021F387F03125BD7E4FF1254517E
:10197A007B017A0679A4123396900384E0FBA3E0F4
:10198A00FAA3E0F9EF1228E2900384E0FBA3E0FA5D
:10199A00A3E02401F9E43AA801FCAD037B017A062D
:1019AA0079A47E007F02122876900384E0FBA3E0EC
:1019BA00FAA3E02403F9E43AA801FCAD037B017A17
:1019CA000679A67E007F01122876900384E0FBA3A5
:1019DA00E0FAA3E02404F9E43AA801FCAD037B0190
:1019EA007A0679A77E007F0C122876900384E0FBA2
:1019FA00A3E0FAA3E02410F9E43AA801FCAD037BC2
:101A0A00017A0679B37E007F0112287680749003EA
:101A1A007FE0FBA3E0FAA3E0F99000011228B5FFEA
:101A2A009000021228B5FDE92403F9E43AFA900677
:101A3A004D7401F0A37406F0A374A7F0124E83024A
:101A4A001F3890037FE0FBA3E0FAA3E0F9900002BD
:101A5A001228B525E025E0FF9000011228B52FFFD6
:101A6A00900384E0FBA3E0FAA3E02401F9E43AFA44
:101A7A0012573B900384E0FBA3E0FAA3E0F9EF12CC
:101A8A0028E29003837411F02290037FE0FBA3E025
:101A9A00FAA3E0F99000021228B525E025E0FF90AC
:101AAA0000011228B52FFFE92403F9E43AFA124C8F
:101ABA00FF021F3890037FE0FBA3E0FAA3E0F9904E
:101ACA0000011228B5FFE92402F9E43AFA12512A70
:101ADA00021F3890037FE0FBA3E0FAA3E0F990002D
:101AEA00021228B525E025E0FF9000011228B52F43
:101AFA00FFE92403F9E43AFA1251CE021F3890039F
:101B0A007FE0FBA3E0FAA3E0F99000011228B5FFF9
:101B1A00125E00021F3890037FE0FBA3E0FAA3E005
:101B2A00F99000021228B525E025E0FF9000011285
:101B3A0028B52FFF125316021F3890037FE0FBA32C
:101B4A00E0FAA3E0F99000011228B5FFE92402F9AE
:101B5A00E43AFA125E64021F3890037FE0FBA3E0C6
:101B6A00FAA3E0F99000011228B5FF9000021228AA
:101B7A00B5FD900384E0FBA3E0FAA3E02401F9E4B5
:101B8A003AFAC003C002C001900384A3E0FAA3E0BA
:101B9A002402F9E43AFA900637EBF0A3EAF0A3E953
:101BAA00F0D001D002D003123DE7021FA290037FBA
:101BBA00E0FBA3E0FAA3E0F99000011228B5FF9038
:101BCA0000021228B5FD900384E0FBA3E0FAA3E02B
:101BDA002401F9E43AFAC003C002C001900384A3C5
:101BEA00E0FAA3E02402F9E43AFA900637EBF0A30C
:101BFA00EAF0A3E9F0D001D002D003125272021F18
:101C0A00A290037FE0FBA3E0FAA3E0F9900001129F
:101C1A0028B5FF125F72021F38900384E0FBA3E02D
:101C2A00FAA3E02401F9E43AFA900636EBF0A3EAC3
:101C3A00F0A3E9F0900384A3E0FAA3E02402F9E414
:101C4A003AFA900639EBF0A3EAF0A3E9F07B017ABD
:101C5A000679707F190258DE900384E0FBA3E0FA4C
:101C6A00A3E02401F9E43AFAC003C002C0019003D8
:101C7A0084A3E0FAA3E02402F9E43AFA900635EBE9
:101C8A00F0A3EAF0A3E9F0D001D002D003124AA8E7
:101C9A00021FA290037FE0FBA3E0FAA3E0F9900001
:101CAA00011228B5FF900384E0FBA3E0FAA3E02425
:101CBA0001F9E43AFAC003C002C001900384A3E028
:101CCA00FAA3E02402F9E43AFA900636EBF0A3EA22
:101CDA00F0A3E9F0D001D002D00312465C021FA2A1
:101CEA0090037FE0FBA3E0FAA3E0F9900001122839
:101CFA00B5FFE92402F9E43AFAC003C002C0019030
:101D0A000384E0FBA3E0FAA3E02401F9E43AFA90A1
:101D1A00063CEBF0A3EAF0A3E9F0900384A3E0FA0F
:101D2A00A3E02402F9E43AFA90063FEBF0A3EAF0C2
:101D3A00A3E9F0D001D002D003124098021FA2906A
:101D4A000384E0FBA3E0FAA3E02401F9E43AFAC031
:101D5A0003C002C001900384A3E0FAA3E02402F9BD
:101D6A00E43AFA900635EBF0A3EAF0A3E9F0D001E1
:101D7A00D002D003125F1C021FA27F03125BD77F1F
:101D8A0001125451900384E0FBA3E0FAA3E024017A
:101D9A00F9E43AFAC003C002C001900384A3E0FA4E
:101DAA00A3E02402F9E43AFA900635EBF0A3EAF04C
:101DBA00A3E9F0A37401F0A37406F0A374BFF0D0F2
:101DCA0001D002D00312443A021FA2900384E0FB1E
:101DDA00A3E0FAA3E02401F9E43AFA900635EBF01D
:101DEA00A3EAF0A3E9F0900384A3E0FAA3E02402B3
:101DFA00F9E43AFA900638EBF0A3EAF0A3E9F07BAB
:101E0A00017A0679BF124F36021FA2900384E0FBC3
:101E1A00A3E0FAA3E02401F9E43AFA900635EBF0DC
:101E2A00A3EAF0A3E9F0900384A3E0FAA3E0240272
:101E3A00F9E43AFA900638EBF0A3EAF0A3E9F07B6A
:101E4A00017A0679BF1253B5021FA2900384E0FB00
:101E5A00A3E0FAA3E02401F9E43AFAC003C002C0FD
:101E6A0001900384A3E0FAA3E02402F9E43AFA9089
:101E7A000635EBF0A3EAF0A3E9F0D001D002D003D3
:101E8A001256AB021FA27F03125BD77F0112545175
:101E9A00900384E0FBA3E0FAA3E02401F9E43AFA10
:101EAA00C003C002C001900384A3E0FAA3E02402A5
:101EBA00F9E43AFA900635EBF0A3EAF0A3E9F0A3C5
:101ECA007401F0A37406F0A374BFF0D001D002D05D
:101EDA00031241E3021FA290037FE0FBA3E0FAA3EF
:101EEA00E0F99000011228B5FF900384E0FBA3E01B
:101EFA00FAA3E02401F9E43AFA125D95900384E02A
:101F0A00FBA3E0FAA3E0F9EF1228E2900383740539
:101F1A00F02290037FE0FBA3E0FAA3E0F99000012E
:101F2A001228B5FFE92402F9E43AFA125B61900338
:101F3A0084E0FBA3E0FAA3E0F9EF1228E29003831E
:101F4A007401F0227F03125BD77F0212545190036F
:101F5A007FE0FBA3E0FAA3E0F99000011228B5FFA5
:101F6A00900384E0FBA3E0FAA3E02401F9E43AFA3F
:101F7A00C003C002C001900384A3E0FAA3E02402D4
:101F8A00F9E43AFA900636EBF0A3EAF0A3E9F0D0C6
:101F9A0001D002D00312482D900384E0FBA3E0FA9B
:101FAA00A3E0F9EF1228E2900384E0FBA3E0FAA38E
:101FBA00E0F99000011228B524028010900384E011
:101FCA00FBA3E0FAA3E0F974011228E2900383F07C
:011FDA0022E4
:0C615C00C2B6126168C2B5126168D2B60A
:106168000000000000000000000000000000000027
:106178000000000000000000000000000000000017
:106188000000000000000000000000000000000007
:0B6198000000000000000000000022DA
:10662700D2B5D2B612616820B5037F0022C2B51277
:10663700616830B5037F0022C2B51261687F01220D
:0868AF0012615CD2B5026168C0
:0868B70012615CC2B6026168C7
:0F687500C2B6126168D2B5126163C2B602616821
:0D655700EAFF12659F126564AF0312659F95
:10656400C2B6126168D2B512616330B505C2B67F96
:076574000022C2B67F0122E4
:10659F007E08AD061EED6018C2B6126168EF30E7D7
:1065AF0004D2B58002C2B5EF25E0FF12616380E22D
:0265BF00C2B662
:0165C10022B7
:1065E4007F08E4FED2B5AD071FED6011EE25E0FE95
:1065F400C2B612616330B5EE4401FE80E9C2B6AFA3
:01660400068F
:016605002272
:10666600E49002F4F09002F4E0D3943C500E1266EB
:0F667600277FAE12659F126564EF60E90268AF7F
:105D2700E0FF900705F09006D5E0FBA3E0FAA3E0BB
:0C5D3700F9A3E0FCA3E0FDEF90063CF0B7
:105D430090063AECF0A3EDF0126627EF7002FF2203
:105D53007FAE12659F12656490063AE0FF12659F5D
:105D630012656490063AA3E0FF12659F1265649082
:105D7300063CE0FF14F0EF601312289CFF12659FAE
:105D8300126564740129F9E43AFA80E31268AF7F7B
:025D93000122EB
:103A79009006D5EBF0A3EAF0A3E9F0A3ECF0A3EDEF
:013A8900F04C
:103A8A00E49006DCF0A3F0A3F0ED540FFFC374102A
:103A9A009FF09006DAE0FCA3E0FDECC4F854F0C80D
:103AAA00EDC4540F48A3F0ED540FA3F0EF706F90DC
:103ABA0006DCE0700CA3125D27EF7002FF22023CC5
:103ACA00509006DCE0FF14F0EF603E90070574109A
:103ADA00F09006D5E0FBA3E0FAA3E0F9A3E0FCA38B
:103AEA00E0FD7410125D3FEF7002FF2212666690CD
:103AFA0006D9E02410F09006D8E03400F09006D6FB
:103B0A00E475F01012297D80B89006DDE0FF70039D
:103B1A00023C53125D29EF7002FF22023C509006CC
:103B2A00DCE070739006DEE0FFFDD39006DBE09DDB
:103B3A009006DAE094004051900705EF125D2CEFF1
:103B4A007002FF221266669006DAA3E0FF9006DE94
:103B5A00E0FEC3EF9E900705F09006D5E0FBA3E0D8
:103B6A00FAA3E0F9EEFF7E00E92FF9EE3AFA9006A1
:103B7A00D9E02FFD9006D8E03EFC900705E0125DE3
:103B8A003FEF7002FF22023C509006DD125D27EFE4
:103B9A007002FF22023C509006DEE0FDFFC3900651
:103BAA00DBE09FF09006DAE09400F0E0FAA3E0FB95
:103BBA00EAC4F854F0C8EBC4540F48A3F0EB540F0E
:103BCA00A3F0ED6026125D29EF7002FF22126666ED
:103BDA009006DEE0FF7E009006D9E02FF09006D82E
:103BEA00E03EF09006D6EE8FF080479006DCE0FFCC
:103BFA0014F0EF60429007057410F09006D5E0FBD0
:103C0A00A3E0FAA3E0F9A3E0FCA3E0FD90063C746C
:103C1A0010F0125D43EF7002FF221266669006D919
:103C2A00E02410F09006D8E03400F09006D6E4754F
:103C3A00F01012297D80B49006DDE0FF600B125D62
:0B3C4A0029EF7002FF221266667F0166
:013C5500224C
:106606007B017A067937AD07AC0690066EE4F0A3F7
:1066160004F0125963EF6006900637E0FF227F0010
:016626002251
:1064C100AB07AA06AC05126627EF7002FF227FAE6A
:1064D10012659F126564126557AF0412659F1265BC
:0764E100641268AF7F012285
:10596300900669EBF0A3EAF0A3E9F0AB05AA0412F1
:105973006627EF7002FF227FAE12659F126564EF08
:1059830070051268AFFF221265571266277FAF12A8
:10599300659F12656490066EE07002A3E06040129A
:1059A30065E4900669E0FBA3E0FAA3E0F9EF1228AF
