:105CD800759850E4F587438E40538EFE53890F75AF
:0E5CE8008BE8758DFFC2ABD28ED2ACD2AF224C
:105D4D00900660E0FBA3E475F00112250EA9F0FAB0
:045D5D00122429FFE4
:065D6100900663EFF02242
:10595700900660EBF0A3EAF0A3E9F0ED4C701D9020
:105967000660E0FBA3E0FAA3E0F9122429601CB467
:105977000A057F0D125D61125D4D80E3ED1DAE04DA
:0C59870070011C4E6005125D4D80F12285
:105A6E00900642E0FBA3E475F00112250EA9F0FAB0
:045A7E00122429FFC6
:105A8200C2ACD297C299309F05EFA2D0929B8F9958
:0A5A92003099FDC299C297D2AC22F0
:10599300900642EBF0A3EAF0A3E9F0ED4C701D9002
:1059A3000642E0FBA3E0FAA3E0F9122429601CB449
:1059B3000A057F0D125A82125A6E80E3ED1DAE0462
:0C59C30070011C4E6005125A6E80F1222B
:105A9C00900642E0FBA3E475F00112250EA9F0FA82
:045AAC00122429FF98
:105AB00053AFFE539AFD8F9BE59A30E1FB539AFD5D
:045AC00043AF0122CD
:1059CF00900642EBF0A3EAF0A3E9F0ED4C701D90C6
:1059DF000642E0FBA3E0FAA3E0F9122429601CB40D
:1059EF000A057F0D125AB0125A9C80E3ED1DAE04CA
:0C59FF0070011C4E6005125A9C80F122C1
:10000E0053BAFE759A5075D7E875D6FF438E1443D2
:05001E00AF01D2AF228A
:104C81000AB5E3B3AED4B10A000AB8B4BACFD4B10D
:104C91000A000AB1E0D2EBCAB1BCE432303138C407
:104CA100EA3132D4C23133C8D50A004943435F7473
:104CB1007970653D307800464D31315F4F4B0A00C8
:104CC100B3B5C5C6CABEDDB4EDCEF30A00D0D5C3B7
:104CD100FBCABEDDB4EDCEF30A00786F723D00630E
:104CE10072633D0A00BFA8C4DAC8DDBFD50A004619
:104CF1004D31375F4F4B0A00D6B1BDD3BAD000005A
:104D010000000000000000000000000000000000A2
:084D110000000000000000009A
:102BCC0060C80105000000000000000000000000CB
:102BDC0000000000000000000000000000000000E9
:102BEC0000000000000000000000000000000000D9
:102BFC0000000000000000000000000000000000C9
:102C0C0000000000000000000000000000000000B8
:102C1C0000000000000000000000000000000000A8
:102C2C000000000000000000000000000000000098
:102C3C000000000000000000000000000000000088
:102C4C000000000000000000000000000000000078
:102C5C000000000000000000000000000000000068
:102C6C000000000000000000000000000000000058
:102C7C000000000000000000000000000000000048
:102C8C0000000000000000000000000042000000F6
:102C9C000060C801CD000000000000000000000032
:102CAC000000000000000000000000000000000018
:102CBC000000000000000000000000000000000008
:102CCC0000000000000000000000000000000000F8
:102CDC0000000000000000000000000000000000E8
:102CEC0000000000000000000000000000000000D8
:102CFC0000000000000000000000000000000000C8
:102D0C0000000000000000000000000000000000B7
:102D1C0000000000000000000000000000000000A7
:102D2C000000000000000000000000000000000097
:102D3C000000000000000000000000000000000087
:102D4C000000000000000000000000000000000077
:102D5C000000000000000000000000000042000223
:102D6C0000004102E9004102D200410295004102FB
:102D7C00EB0A4102F3004602AAFFFFFFFFFFFF61CF
:102D8C00010004B2D9D7F7D4B13A200000000000FA
:102D9C000000000000000000000000000000000027
:102DAC000000000000000000000000000000000017
:102DBC000000000000000000000000000000000007
:102DCC0000000000000000000000000000000000F7
:102DDC0000000000000000000000000000000000E7
:102DEC0000000000000000000000000000000000D7
:102DFC0000000000000000000000000000000000C7
:102E0C0000000000000000000000000000000000B6
:102E1C0000000000000000000000000000000000A6
:102E2C000000000000000000000000000000000096
:102E3C000000000000000000000000000000000086
:102E4C000000000000000000000000000000000076
:102E5C000000000000000000000000000000000066
:102E6C000000000000000000000000000000000056
:102E7C000000000000000000000000000000000046
:102E8C00000000004602EDC8F0B7E51813410296A9
:102E9C000041035A004102B00041029800410297E0
:102EAC0000C1024102F5004102F40041035B004104
:102EBC0002EA005102993031323334353637383921
:0B2ECC00414243444546004102EC0037
:045E880075C1352289
:10511B009005A1E0FFFCA3E0FD90059FE0FAA3E062
:10512B00FBC39DFDEA9CFC74A82DF58274053CF530
:10513B0083EFF09005A1A3E0FF74A92DF582740510
:10514B003CF583EFF0EB24F8EA34FF9005B0F0EB7D
:10515B0024F8A3F07B017A0579AA90059FE0FCA3C4
:02516B00E0FD65
:10516D0090063BEBF0A3EAF0A3E9F0A3ECF0A3ED7E
:01517D00F041
:10517E00E4FF90063E74FFF5F012250E45F0601721
:10518E0090063BE0FBA3E475F00112250EA9F0FAA0
:07519E001224296FFF80DBE2
:0151A50022E7
:08588D00900639EEF0A3EFF0E4
:10589500E4FBFAFCED6AFEEE30E71CEBAE027801A4
:1058A500088005C333CE33CED8F9FF900639E06EB4
:1058B500FAA3E06FFB8007EB25E0FBEA33FAED2561
:0B58C500E0FD0CECB408CDAE02AF0318
:0158D00022B5
:1052B0009002B1F07A0279B17B01900635E4F0A357
:0752C000741EF07F057E80E3
:1052C700900630EEF0A3EFF0A3EBF0A3EAF0A3E92A
:0152D700F0E6
:1052D800E4900637F0A3F090063574FFF5F0122538
:1052E8000E45F0603A900637E0FF900632E0FBA3E7
:1052F800E475F00112250EA9F0FA1224296FFD9029
:105308000630E0FEA3E0FF12588DAC06AD0790060C
:1053180038E06CFFED900637CFF0A3EFF080B8903F
:075328000637E0FEA3E0FFE1
:01532F00225B
:105A3F00125E457F327E00125A50125E457F327ED3
:015A4F000056
:105A5000D3EF9400EE940040147D6E7C00ED1D7039
:0D5A6000011CED4C70F7EF1F70E61E80E397
:015A6D002216
:1042AA00E4900634F0A37402F07B01A314F0A37423
:0C42BA0002F0A374F6F07A0279EDE4FF44
:1042C600900630EFF0A3EBF0A3EAF0A3E9F0A3E049
:1042D600D3648094835009A3E0FE6480948F4003E6
:1042E6007F0022EE25E025E0FF900634E02FF07FE8
:1042F6000312541CE4FF124D197B017A06798912C8
:104306002EFA900383E0FBA3E0FAA3E0F9EF122470
:104316006F900383E0FBA3E0FAA3E0F9122429706F
:1043260048900630E0FF900635E0FD90064B74019C
:10433600F0A37406F0A3748CF0900631E0FBA3E0C2
:10434600FAA3E0F9124758EF701D900634E0FF908B
:104356000636E0FBA3E0FAA3E0F91245D4EF7009B4
:10436600FF12541C7F01228000E4FF12541C7F00C0
:014376002224
:10437700E4900641F0A304F0A3F0A37400F0A37443
:0A43870004F07B017A0279EDE4FFF7
:1043910090063DEFF0A3EBF0A3EAF0A3E9F0A3E070
:1043A100D3648094835009A3E0FE6480948F40031A
:1043B1007F0022EE25E025E0FF900641E02FF07F0F
:1043C1000312541CE4FF124D197B017A06798912FC
:1043D1002EFA900383E0FBA3E0FAA3E0F9EF1224A5
:1043E1006F900383E0FBA3E0FAA3E0F912242970A4
:1043F1004890063DE0FF900642E0FD90064B7401B7
:10440100F0A37406F0A3748CF090063EE0FBA3E0E9
:10441100FAA3E0F9124758EF701D900641E0FF90B2
:104421000643E0FBA3E0FAA3E0F9125003EF7009A1
:10443100FF12541C7F01228000E4FF12541C7F00F4
:014441002258
:0E391A00900630EFF0A3EBF0A3EAF0A3E9F083
:10392800E490063BF0A3F0900639E0C4F854F0C8E0
:1039380068FEA3E0C4540F48FFC390063CE09F9084
:10394800063BE09E40030239D4900634E0FF3395ED
:10395800E0FE90063BE0FCA3E0FD2FFFEC3EFEEF0F
:103968005403900641F0EF7802CEC313CE13D8F972
:10397800FF900635E02F900642F0EDC4F8540FC8CA
:1039880068FFECC454F048FE900636E0FBA3E0FA6A
:10399800A3E02FF9EA3EFA900643EBF0A3EAF0A37E
:1039A800E9F0900631E0FBA3E0FAA3E0F9900630D5
:1039B800E0FF124391EF601490063CE004F06003CE
:1039C80002392F90063BE004F002392F900639E0C7
:1039D800FCA3E0FDECC4F854F0C868FEEDC4540F35
:1039E80048FFA3E06E7003A3E06F7074ED540F609E
:1039F8006C900634E0FF3395E0FE90063BE0FCA3B4
:103A0800E0FD2FFFEC3EFEEF5403900641F0EF7807
:103A180002CEC313CE13D8F9FF900635E02F9006D7
:103A280042F0EDC4F8540FC868FFECC454F048FEE7
:103A3800900636E0FBA3E0FAA3E02FF9EA3EFA90FD
:103A48000643EBF0A3EAF0A3E9F0900631E0FBA30C
:103A5800E0FAA3E0F9900630E0FF0243917F0122EB
:023A68007F00DD
:013A6A002239
:0B285800900593EBF0A3EAF0A3E9F079
:10286300900599E024FE602C046003022BCB9005B5
:102873009AE599F0900000E0FFA3E090059BCFF06C
:10288300A3EFF09002D3E0FFA3E090059DCFF0A368
:10289300EFF0807A90059AE59BF0900002E0FFA3A9
:1028A300E090059BCFF0A3EFF09002D5E0FFA3E00B
:1028B30090059DCFF0A3EFF020845390059AE0FF9D
:1028C300900593E0FBA3E0FAA3E0F990059BE47580
:1028D300F00112250E85F082F583EF122481900515
:1028E3009BE0FFA3E0900002CFF0A3EFF0900596EA
:1028F300E0FBA3E0FAA3E0F9900003740112248142
:10290300900002E4122481900001E40224819005E6
:102913009AE0FF900593E0FBA3E0FAA3E0F99005AA
:102923009BE0FCA3E0FDF5828C83EF1224819005EC
:1029330096E0FBA3E0FAA3E0F9C003C002C00112D2
:102943002429FF900593E0FBA3E0FAA3E0F98D822D
:102953008C831224426FD001D002D00312246F90D3
:102963000596E0FBA3E0FAA3E0F9900008122442E5
:102973007027900593E0FBA3E0FAA3E0F990059B91
:10298300E0FEA3E0F5828E83122442FF90059EE0D1
:102993002FF090059DE03400F090059CE004F0706A
:1029A3000690059BE004F090059BE07004A3E064AF
:1029B30001707A900593E0FBA3E0FAA3E0F91224F7
:1029C30029FF900596E0FBA3E0FAA3E0F9EF1224B8
:1029D3006F900593E0FBA3E0FAA3E0F9122429FF2B
:1029E300FD90059DE4F0A3EDF0900596E0FBA3E0D8
:1029F300FAA3E0F9900008E4122481900003740123
:102A0300122481900002E4122481900001E4122434
:102A130081EF24E27002803C900596E0FBA3E0FA8C
:102A2300A3E0F9900003E4122481022B5390059B49
:102A3300E0FEA3E0FF64024E7037900593E0FBA332
:102A4300E0FAA3E0F9122429B41E1C900001122419
:102A530042B46013900596E0FBA3E0FAA3E0F9907B
:102A63000004741E022B4EE490059BF0A3F0022990
:102A730011900596E0FBA3E0FAA3E0F9900004129D
:102A83002442641E6003022B53D3EF9409EE940097
:102A93005003022B5A900593E0FBA3E0FAA3E0F95D
:102AA300900006122442FE9000071224427C002468
:102AB30000FFEC3EFE90059CE024F6FD90059BE0B4
:102AC30034FFFCEF6D7002EE6C7071900596E0FBC5
:102AD300A3E0FAA3E0F9122429FFB41F0790000230
:102AE30074018037900593E0FBA3E0FAA3E0F9902B
:102AF300059CE024FEFD90059BE034FF8D82F58369
:102B0300122442FEEF641F6EFF125A82900596E074
:102B1300FBA3E0FAA3E0F9900002E41224819005FC
:102B230096E0FBA3E0FAA3E0F9900003E41224810A
:102B3300E490059BF0A3F0900001800F900596E0D0
:102B4300FBA3E0FAA3E0F9900002E41224818007DA
:102B5300E490059BF0A3F0900599E024FE60340413
:102B63007066900596E0FBA3E0FAA3E0F9900002FB
:102B7300122442B40102C2AC90059BE0FFA3E09093
:102B83000000CFF0A3EFF090059DE0FFA3E09002DB
:102B9300D38030900596E0FBA3E0FAA3E0F9900020
:102BA30002122442B4010353AFFE90059BE0FFA33E
:102BB300E0900002CFF0A3EFF090059DE0FFA3E0CB
:082BC3009002D5CFF0A3EFF062
:012BCB0022E7
:0300230002548DF7
:10548D00C0E0C0F0C083C082C0D075D000C000C0E5
:10549D0001C002C003C004C005C006C00730990298
:1054AD00C29930982FC298C3900001E094C8900023
:1054BD0000E094004004E4F0A3F09005967401F030
:1054CD00A37402F0A374D7F0A37401F0FB7A0179F1
:1054DD0005122858D007D006D005D004D003D0022D
:0F54ED00D001D000D0D0D082D083D0F0D0E03228
:0300430002533035
:10533000C0E0C0F0C083C082C0D075D000C000C043
:1053400001C002C003C004C005C006C007E59A3012
:10535000E031539AFEC3900003E094C8900002E04D
:1053600094004004E4F0A3F09005967401F0A37457
:1053700002F0A374E0F0A37402F07B017A0179CD0E
:10538000122858E59A30E103539AFDD007D006D091
:1053900005D004D003D002D001D000D0D0D082D02C
:0653A00083D0F0D0E032E2
:0C5E4500C2B47FD07E07125A50D2B422A3
:105DDA00538E7F5389F0E4F58A758C4CC28DD28C30
:055DEA00D2A9D2AF2296
:03000B00023E0CA6
:103E0C00C0E0C0F0C083C082C0D075D000C000C07C
:103E1C0001C002C003C004C005C006C007900297D1
:103E2C00E004F09002DAE060339002D8E004F0E0B5
:103E3C00C394144027900000E0FF125A82900000B7
:103E4C00A3E0FF125A829002D9E4F0A3F090000094
:103E5C00F0A3F09002D8F07FE1125A829002E3E0D6
:103E6C0060339002E1E004F0E0C39414402790002A
:103E7C0002E0FF125A82900002A3E0FF125A8290D5
:103E8C0002E2E4F0A3F0900002F0A3F09002E1F063
:103E9C007FE2125A82308504D2028014C202900250
:103EAC00F5E0B40102E4F09002F4E0B40102E4F0B5
:103EBC009002F57401F09002F4F0900297E0FF7517
:103ECC00F00A84E5F07002B2A5EFC394C8400590E7
:103EDC000297E4F09002F3E004F0E0D39450400237
:103EEC00E4F0D007D006D005D004D003D002D00126
:0D3EFC00D000D0D0D082D083D0F0D0E03202
:0B1B6800900630EBF0A3EAF0A3E9F0D8
:101B730090000212244290063AF0C2D5ED641E6032
:101B830003022330900635F0A37408F0900634E086
:101B93006402702F900630E0FBA3E0FAA3E0F99013
:101BA3000006122442FE9000071224427C00240007
:101BB300FFEC3ECF240AFDE43FFC900630A3A3E0F4
:101BC300125993900630E0FBA3E0FAA3E0F99000EA
:101BD3000412244224FB7003021EE0147003021F4C
:101BE300BA24FE70030220A124076003022180901F
:101BF3000635E475F00112250E85F082F58374092C
:101C0300122481900635E475F00112250E85F082C9
:101C1300F583E4122481900635E475F00112250E54
:101C230085F082F5837404122481900635E475F0FF
:101C33000112250E85F082F58374561224819006D5
:101C430035E475F00112250E85F082F58374651273
:101C53002481900635E475F00112250E85F082F596
:101C6300837472122481900635E475F00112250EF7
:101C730085F082F58374111224819002EBE0FF90CA
:101C8300063AE06F6003021D45900630E0FBA3E0D7
:101C9300FAA3E0F9900003122442F46003021D4505
:101CA30090063575F00112250E85F082F583744D8B
:101CB300122481900635E475F00112250E85F08219
:101CC300F5837443122481900635E475F0011225DF
:101CD3000E85F082F5837455122481900635E475E0
:101CE300F00112250E85F082F583745F1224819032
:101CF3000635E475F00112250E85F082F5837449EB
:101D0300122481900635E475F00112250E85F082C8
:101D1300F5837444122481E4FF740C2FF8E6FE90DB
:101D23000630E0FBA3E0FAA3E0F9900635E475F092
:101D33000112250E85F082F583EE1224810FEFB494
:101D430007D7900635A3E024F5FF900630E0FBA308
:101D5300E0FAA3E0F990000AEF122481900635E43B
:101D630075F00112250E85F082F583740A12248121
:101D7300900635E475F00112250E85F082F583E4B3
:101D8300122481900635E475F00112250E85F08248
:101D9300F5837405122481900635E475F00112254C
:101DA3000E85F082F5837420122481900635E47544
:101DB300F00112250E85F082F583741812248190A8
:101DC3000635E475F00112250E85F082F583741251
:101DD300122481900635E475F00112250E85F082F8
:101DE300F5837413122481900635E475F0011225EE
:101DF3000E85F082F5837410122481900634E0245A
:101E0300FE600804700D9002DE80039002E7740107
:101E1300F080037F022290063AE0F460030221DAA5
:101E2300900630E0FBA3E0FAA3E0F990000312244C
:101E330042FF640160030221DA900002EF12248161
:101E430090000374101224819000047405122481FD
:101E5300900006E4122481900635E0FCA3E0FD2403
:101E6300F890000712248112516D900630E0FBA315
:101E7300E0FAA3E0F9900635E475F00112250E852A
:101E8300F082F583EF122481900635E475F0011298
:101E9300250E85F082F583741F122481900634E0A9
:101EA30024FE601B047030900630E0FBA3E0FAA32D
:101EB300E0F9900635E0FCA3E0FD125993801B90F6
:101EC3000630E0FBA3E0FAA3E0F9900635E0FCA3BB
:101ED300E0FD1259CF80037F02227F01229006305A
:101EE300E0FBA3E0FAA3E0F9900002122442FF9082
:101EF30002E9E06F6003021FB7900003122442FF60
:101F03009002D2E06F6003021FB7900005122442D3
:101F1300FF900295E06F6003021FB7900006122442
:101F230042FF70089000071224426065EF703990F9
:101F33000630E0FBA3E0FAA3E0F990000712244285
:101F430064047024900008122442B40C1B9000090E
:101F5300122442701390000A122442B4010A900022
:101F63000B12244264016029900630E0FBA3E0FADF
:101F7300A3E0F99000081224426409703790000A24
:101F8300122442240BF582E433F583122442B40A6B
:101F930023900634E024FE600B0470159002DD7478
:101FA30001F080109002E67401F0E490035AF0808F
:101FB300037F02227F0122900630E0FBA3E0FAA315
:101FC300E0F9900008122442FF70399000051224B2
:101FD30042FE9002EBE06E702690000612244270DF
:101FE3001E900007122442B40315900009122442E4
:101FF300700D90000A1224427005D2D50221DAC274
:10200300D50221DAEF646F60030221DAFDFC7F035E
:10201300125B61E4900637F0A3F0900630E0FBA377
:10202300E0FAA3E0F9900009122442FE90000A129C
:1020330024427C002400FFEC3EFE7D211224A3C336
:10204300900638E09D900637E09C503F900637E0BD
:10205300FEA3E0FF240BF582E43EF583122442FD48
:10206300F5C2745C2FF58274033EF583EDF09006A0
:1020730037E0FCA3E0FD7F02125B61900638E004C9
:10208300F07097900637E004F0808FE4F5C2900675
:1020930037E0FCA3E0FD7F02125B610221DA9006C8
:1020A30030E0FBA3E0FAA3E0F9900008122442FF1A
:1020B300643D600302213F125A82900630E0FBA385
:1020C300E0FAA3E0F990000B122442FF125A829027
:1020D30002B0E0FF125A82900298E0FF125A8290F7
:1020E3000630E0FBA3E0FAA3E0F990000B122442D0
:1020F300FF702D9002B0E0B40107E4F09002F5EF19
:10210300F0900298E0640160030221DAF090063057
:10211300E0FBA3E0FAA3E0F990000B122442801540
:10212300900630E0FBA3E0FAA3E0F990000B122441
:10213300429002F5F09002F4F00221DA900630E0CA
:10214300FBA3E0FAA3E0F9900008122442643F6085
:10215300030221DA90000B1224429002EAF0700885
:102163007BFF7A4C7981800E9002EAE0640170670C
:102173007BFF7A4C798AFDFC125993805A90063082
:10218300E0FBA3E0FAA3E0F9900635E475F0011251
:10219300250E85F082F583740C122481900635E4B4
:1021A30075F00112250E85F082F583E412248190E7
:1021B3000635E475F00112250E85F082F58374016E
:1021C300122481900635E475F00112250E85F08204
:1021D300F5837403122481900630E0FBA3E0FAA395
:1021E300E0F9900002122442FF9002EBE06F6017C7
:1021F30090063AE0F4700302230390000312244292
:1022030064016003022303900630E0FBA3E0FAA31A
:10221300E0F99000031224429000021224819006F8
:102223003AE0900003122481900004740512248183
:10223300900006E4122481900635E0FCA3E0FD241F
:10224300F890000712248112516D900630E0FBA331
:10225300E0FAA3E0F9900635E475F00112250E8546
:10226300F082F583EF122481900635E475F00112B4
:10227300250E85F082F583741F122481900634E0C5
:1022830024FE601B047046900630E0FBA3E0FAA333
:10229300E0F9900635E0FCA3E0FD125993803190FC
:1022A3000630E0FBA3E0FAA3E0F9900635E0FCA3D7
:1022B300E0FD125993900630E0FBA3E0FAA3E0F9A6
:1022C300900635E0FCA3E0FD1259CF80037F022284
:1022D30030D511E4900297F0900297E0C3940A403E
:1022E300F775C760900630E0FBA3E0FAA3E0F9902E
:1022F3000636E024FEFF900635E034FF8F8280230C
:10230300900635E0FEA3E0FFD39408EE9400401A54
:10231300900630E0FBA3E0FAA3E0F974FF2FF58207
:0F23230074FF3EF583122442FF227F01227F00C8
:012332002288
:105DAE00C2B3C2967F647E00125A50D2B3D2967F8F
:065DBE00647E00025A5051
:100046009005A374F1F0A374BFF0A374F9F0C20095
:10005600C201E4A3F0A3F0A3F0A3F0780E7C067D22
:10006600017BFF7A4C79F9FE7F2012240312591581
:10007600125B3B125E18125CD812000E125DDA1289
:100086005BCE1233CC125E887BFF7A4C7993E4FD0B
:10009600FC1259937BFF7A4C7993E4FDFC1259CFFD
:1000A600E490059FF0A3F090059FE0FEA3E0FFC358
:1000B6009407EE9400505F9005A3E02FF8E6C45431
:1000C6000F7E00540F2499F582EE3402F583E0FF8B
:1000D600125A8290059FA3E0FF9005A3E02FF8E651
:1000E6007E00540F2499F582EE3402F583E0FF1268
:1000F6005A8290059FA3E0FF9005A3E02FF8E6FE45
:10010600740C2FF8A6069005A0E004F070999005EF
:100116009FE004F080917F0D125A827F0A125A8264
:10012600E490059FF0A3F090059FE0FEA3E0FFC3D7
:100136009407EE9400505F9005A4E0FCA3E02FF531
:1001460082EC3EF583E493C4540F7E00540F249949
:10015600F582EE3402F583E0FF125A8290059FE0A5
:10016600FEA3E0FF9005A4E0FCA3E02FF582EC3EA1
:10017600F583E4937E00540F2499F582EE3402F55C
:1001860083E0FF125A829005A0E004F07099900572
:100196009FE004F080917F0D125A827F0A125A82E4
:1001A600E490059FF0A3F090059FE0FCA3E0FDC35B
:1001B6009420EC9400507B7F01125B61E5C27002D3
:1001C6008070E5C2B4FF47E490059FF0A3F0900568
:1001D6009FE0FEA3E0FFC39420EE94005054740EFB
:1001E6002FF58274063EF583E0FF604690059FE09A
:1001F600FCA3E0245CF58274033CF583EFF09005E4
:10020600A0E004F070C890059FE004F080C090055F
:100216009FE0FEA3E0245CF58274033EF583E5C20D
:10022600F09005A0E004F0700690059FE004F0024F
:1002360001AD7B017A03795CE4FDFC1259937B01E5
:100246007A03795CE4FDFC1259CF7F0D125A827F46
:100256000A125A827A03795C1252B890062EEEF090
:10026600A3EFF090062EE0FCA3E0FDEC90037AF0FD
:10027600EDA3F0125E457FE87E03125A50125DAE82
:10028600125B3B125E187F647E00125A501243774F
:10029600125E457FF47E01125A507FF77EFF125C94
:1002A60059125E45121257125E88124377EF700399
:1002B6000206F7E49005A7F090035BE060030207EF
:1002C60009900014F07B017A007904FDFC12599321
:1002D600900004E064C4705FA3E064CF7059A3E0AB
:1002E60064B27053A3E064FD704DA3E064C8704728
:1002F600A3E064F07041A3E064B7703BA3E064E55B
:100306007035A3E064B9702FA3E064AB7029A3E055
:1003160064CB7023A3E064BE701DA3E064D670179F
:10032600A3E0B4F712A3E0B4BF0DA3E0B4A808900D
:10033600035B74010203E3900004E064CD7046A3FE
:10034600E064B67040A3E064B1703AA3E064D27092
:1003560034A3E064BB702EA3E064FA7028A3E064C3
:10036600C67022A3E064D5701CA3E064CD7016A30A
:10037600E0B4A811A3E0B4BF0CA3E0B4A8079003AF
:100386005B74028058900004E064D67054A3E06465
:10039600B8704EA3E064CE7048A3E064C67042A372
:1003A600E064CD703CA3E064B67036A3E064B1703F
:1003B60030A3E064D2702AA3E064BB7024A3E06497
:1003C600FA701EA3E064B87018A3E0B4B113A3E0FA
:1003D600B4BF0EA3E0B4A80990035B7403F0020651
:1003E600A3900004E064D67047A3E064DC7041A3E8
:1003F600E064D7703BA3E064AA7035A3E064B170F3
:100406002FA3E064EA7029A3E064C77023A3E06425
:10041600A9701DA3E064BF7017A3E064A8701190D3
:10042600035B7404F09002EAE060030206B0804FBA
:10043600900004E064B17050A3E064D2704AA3E077
:1004460064B57044A3E064A8703EA3E064B170385C
:10045600A3E064B87032A3E064D3702CA3E064C355
:100466007026A3E064BF7020A3E064A8701A90030E
:100476005B7405F09002EAE0640160030206B012C4
:100486005A3F125A490206AD900004E064B5600373
:100496000206A8A3E064E360030206A8A3E064B32F
:1004A60060030206A8A3E064AE60030206A8A3E008
:1004B60064BE60030206A8A3E064AD60030206A85A
:1004C600A3E064C060030206A8A3E064ED60030233
:1004D60006A8A3E064CA60030206A8A3E064DA6083
:1004E600030206A8A3E064C860030206A8A3E064AA
:1004F600A860030206A8A3E064BF60030206A8A3DF
:10050600E064A860030206A890035B7406F0E4901A
:10051600059FF0A3F090059F75F00112250EFE745D
:10052600AA25F0F58274053EF583741EF090059FAA
:10053600E475F00112250EFE74AA25F0F582740505
:100546003EF5837460F090059FE475F00112250E68
:10055600FE74AA25F0F58274053EF5837401F090C9
:10056600059FE475F00112250EFE74AA25F0F582AA
:1005760074053EF583740AF090059FE475F0011248
:10058600250EFE74AA25F0F58274053EF5837408DF
:10059600F0900296E004FFF090059FE475F00112DA
:1005A600250EFC74AA25F0F58274053CF583EFF060
:1005B6009002E9740AF09002D27401F0900296E07B
:1005C600900295F09005A0E02402F090059FE0349B
:1005D60000F0E475F00112250EFE74AA25F0F582EE
:1005E60074053EF583743EF09005A0E02402F09079
:1005F600059FE03400F0E49005A1F0A3F090059F7C
:10060600E475F00112250EFE74AA25F0F582740534
:100616003EF5837401F09005A2E004F070069005A3
:10062600A1E004F09005A1E07004A3E0640170CDA0
:1006360012511B90059FE475F00112250EFC74AA59
:1006460025F0F58274053CF583EFF090059FE4757F
:10065600F00112250EFE74AA25F0F58274053EF50A
:1006660083741FF07B017A0579AA90059FE0FCA3AD
:10067600E0FD1259937B017A0579AA90059FE0FC6B
:10068600A3E0FD1259CF90035A7401F0E49002974B
:10069600F09002F504F09002F4F0125A49125A4909
:1006A6008008E490035BF0125E457BFF7A4C79ACE0
:1006B600E4FDFC12599390035BE0C4540F7E005492
:1006C6000F2499F582EE3402F583E0FF125A8290E8
:1006D600035BE07E00540F2499F582EE3402F58325
:1006E600E0FF125A827F0D125A827F0A125A8280C6
:1006F600129005A7E004F0E0D394054006E4F090DC
:10070600035BF0E4FF12541CD2B77FF77EFF125C46
:1007160059EF20E403020C959002EAE06003020C14
:10072600959005A8F0A3E0700204F07B017A0279A7
:10073600B17F20125D7F90059FE4F0A3EF1252B3C4
:1007460090062EEEF0A3EFF0D2B790059FE070046E
:10075600A3E064016003020C4290062EE0FCA3E0D5
:10076600FDECFF9002CFE0FBEF6B7001E46003024B
:100776000C42AF05A3E0FDEF6D7001E46003020CCF
:10078600429002B1E0FF125A829002F4E0FF125A40
:1007960082900298E0FF125A829002B1E0640170E2
:1007A600389002F4E064016003020C5F7B017A0377
:1007B600795C9006351252BE90062EEEF0A3EFF04D
:1007C60090062EE0FCA3E0FDEC90037AF0EDA3F09A
:1007D6007B017A03795C0208E49002B1E06404606C
:1007E600030208EE900298E0640260030208C174F6
:1007F6007E1252B090062EEEF0A3EFF090062EE099
:10080600FCA3E0FDEC9002CFF0EDA3F07B017A02B1
:1008160079B17F207E001246997B017A0579AA90EC
:1008260005B0E0FEA3E07C002400FFEC3ECF240AE6
:10083600FDE43FFC1259937B017A0579AA9005B035
:10084600E0FEA3E07C002400FFEC3ECF240AFDE49A
:100856003FFC1259CFE49005A9F090029804F0905D
:10086600035AF0E4900297F090035BE06405703B56
:1008760090059FF0A3F090059FE0FEA3E0FFC394D0
:1008860009EE9400501C74F62FF58274023EF5832F
:10089600E4F09005A0E004F070DC90059FE004F021
:1008A60080D41242AAEF6003125E45125E457F14A1
:1008B6007E00125A50125E45020C5F74FF1252B04F
:1008C60090062EEEF0A3EFF090062EE0FCA3E0FDDE
:1008D600EC9002CFF0EDA3F07B017A0279B17F2094
:1008E6007E00124699020C5F9002B1E06403600339
:1008F600020C5FD2017BFF7A4C79B8FDFC1259934A
:100906009002F4E064016003020C5F7B017A0279D5
:10091600B17D1CFC12516D9002CEE06F6003020C9B
:100926002790059FF0A3F090059F75F00112250E04
:10093600FE74AA25F0F58274053EF583741EF090C8
:10094600059FE475F00112250EFE74AA25F0F582C6
:1009560074053EF5837460F090059FE475F001120E
:10096600250EFE74AA25F0F58274053EF583740102
:10097600F090059FE475F00112250EFE74AA25F08D
:10098600F58274053EF583740AF090059FE475F0D0
:100996000112250EFE74AA25F0F58274053EF58334
:1009A6007408F0900296E004FFF090059FE475F05D
:1009B6000112250EFC74AA25F0F58274053CF58318
:1009C600EFF09002E9740AF09002D27401F09002FE
:1009D60096E0900295F09005A0E02402F090059F25
:1009E600E03400F0E475F00112250EFE74AA25F03D
:1009F600F58274053EF5837428F09005A0E0240284
:100A0600F090059FE03400F0E49005A1F0A3F0908B
:100A160005A1E0FEA3E0FFC39409EE9400505474D0
:100A2600B22FF58274023EF583E0F9604690059F89
:100A3600E475F00112250EFC74AA25F0F582740502
:100A46003CF583E9F074B22FF58274023EF583E03B
:100A5600FFC394204004EFB4FF097BFF7A4C79C1B1
:100A6600020BD29005A2E004F070A49005A1E00468
:100A7600F0809C9005A1E0FFFCA3E0FDC39005A0DB
:100A8600E09DFD90059FE09CFC74A82DF582740501
:100A96003CF583EFF09005A1A3E0FF74A92DF58244
:100AA60074053CF583EFF090059FE475F00112257F
:100AB6000EFE74AA25F0F58274053EF583743CF0AB
:100AC6009005A0E02402F090059FE03400F0E49049
:100AD60005A1F0A3F09005A1E0FEA3E0FFC39407F3
:100AE600EE9400503474BB2FF58274023EF583E019
:100AF600FF90059FE475F00112250EFC74AA25F0FF
:100B0600F58274053CF583EFF09005A2E004F070E1
:100B1600C49005A1E004F080BC9005A1E0FFFCA311
:100B2600E0FDC39005A0E09DFD90059FE09CFC7450
:100B3600A82DF58274053CF583EFF09005A1A3E09E
:100B4600FF74A92DF58274053CF583EFF090059F9F
:100B5600E475F00112250EFE74AA25F0F5827405DF
:100B66003EF5837420F09005A0E02402F090059FE6
:100B7600E03400F0E49005A1F0A3F09005A1E0FEBA
:100B8600A3E0FFC39408EE9400505A74C22FF58276
:100B960074023EF583E0F9604C90059FE475F00120
:100BA60012250EFC74AA25F0F58274053CF583E93E
:100BB600F074C22FF58274023EF583E0FFC39420E1
:100BC6004004EFB4FF0F7BFF7A4C79CEE4FDFC12B4
:100BD60059930211529005A2E004F0709E9005A16F
:100BE600E004F0809612511B90059FE475F0011207
:100BF600250EFC74AA25F0F58274053CF583EFF00A
:100C060090059FE475F00112250EFE74AA25F0F5F5
:100C16008274053EF583741FF09002987402F0808A
:100C2600387BFF7A4C79DBE4FDFC1259937B017A21
:100C36000279B17D1C7C0012516D801A7BFF7A4CC3
:100C460079E0E4FDFC12599390062EE0FF125A82D9
:100C560090062EA3E0FF125A82E490059FF0A3F0BF
:100C660090059FE0FEA3E0FFC39420EE94004003AE
:100C760002115274B12FF58274023EF583E4F090AE
:100C860005A0E004F070D990059FE004F080D190B3
:100C960005A8E004F0E0D3940A5003021152E4F0F0
:100CA600C20190035BE0FFB404089002EAE064012D
:100CB6006011EF640560030211429002EAE06003EE
:100CC600021142E4900634F0A37402F07B01A314EF
:100CD600F0A37400F0A37404F0A3E4F0A37430F05E
:100CE6007A0279EDE4FF12391AEF6401600302110A
:100CF600429005A6F090059FF0A3F090059FE0FEB8
:100D0600A3E0FFC39408EE9400504774042FF582C5
:100D160074003EF583E0C39420401290059FA3E043
:100D26002404F58274003EF583E0B4FF157BFF7A58
:100D36004C79E6E4FDFC125993125E45125E4502BB
:100D4600113D9005A0E004F070B190059FE004F01D
:100D560080A9300003021152300103021152D20061
:100D66007BFF7A4C79F0E4FDFC1259939002F5E092
:100D76006401600302113A90059FF0A3F090059F6D
:100D860075F00112250EFE74AA25F0F58274053E53
:100D9600F583741EF090059FE475F00112250EFE92
:100DA60074AA25F0F58274053EF5837460F090050B
:100DB6009FE475F00112250EFE74AA25F0F58274E3
:100DC600053EF5837401F090059FE475F001122548
:100DD6000EFE74AA25F0F58274053EF583740AF0BA
:100DE60090059FE475F00112250EFE74AA25F0F514
:100DF6008274053EF5837408F0900296E004FFF0D5
:100E060090059FE475F00112250EFC74AA25F0F5F5
:100E16008274053CF583EFF09002E9740AF09002C3
:100E2600D27401F0900296E0900295F09005A0E051
:100E36002402F090059FE03400F0E475F0011225DD
:100E46000EFE74AA25F0F58274053EF5837428F02B
:100E56009005A0E02402F090059FE03400F0E490B5
:100E660005A1F0A3F09005A1E0FEA3E0FFC394095D
:100E7600EE9400507374042FF58274003EF583E0FF
:100E860060669005A1A3E02404F58274003EF58314
:100E9600E0FD90059FE475F00112250EFA74AA256F
:100EA600F0F58274053AF583EDF074042FF582743B
:100EB600003EF583E0C3942040149005A1E0FEA314
:100EC600E02404F58274003EF583E0B4FF097BFF5D
:100ED6007A4C79C102106D9005A2E004F07006907C
:100EE60005A1E004F0020E6B9005A1E0FFFCA3E073
:100EF600FDC39005A0E09DFD90059FE09CFC74A8B5
:100F06002DF58274053CF583EFF09005A1A3E0FF73
:100F160074A92DF58274053CF583EFF0E490000486
:100F2600F090059F75F00112250EFE74AA25F0F5C6
:100F36008274053EF583743CF09005A0E02402F02F
:100F460090059FE03400F0E49005A1F0A3F0900531
:100F5600A1E0FEA3E0FFC39407EE9400503474248E
:100F66002FF58274003EF583E0FF90059FE475F04F
:100F76000112250EFC74AA25F0F58274053CF58352
:100F8600EFF09005A2E004F070C49005A1E004F033
:100F960080BC9005A1E0FFFCA3E0FDC39005A0E0A6
:100FA6009DFD90059FE09CFC74A82DF58274053C80
:100FB600F583EFF09005A1A3E0FF74A92DF58274E7
:100FC600053CF583EFF0E4900004F090059F75F082
:100FD6000112250EFE74AA25F0F58274053EF583EE
:100FE6007420F09005A0E02402F090059FE0340004
:100FF600F0E49005A1F0A3F09005A1E0FEA3E0FFC8
:10100600C39408EE9400507B74142FF58274003E4E
:10101600F583E0606E9005A1A3E02414F5827400C8
:101026003EF583E0FD90059FE475F00112250EFA6A
:1010360074AA25F0F58274053AF583EDF074142F41
:10104600F58274003EF583E0C3942040149005A118
:10105600E0FEA3E02414F58274003EF583E0B4FFBD
:10106600117BFF7A4C79CEE4FDFC125993C2000243
:1010760011529005A2E004F070069005A1E004F07C
:10108600020FFE12511B90059FE475F00112250E0A
:10109600FC74AA25F0F58274053CF583EFF0900503
:1010A6009FE475F00112250EFE74AA25F0F58274F0
:1010B600053EF583741FF07B017A0579AA90059F9A
:1010C600E0FCA3E0FD1259937B017A0579AA90050D
:1010D6009FE0FCA3E0FD1259CFE49005A9F0900231
:1010E600B004F090035AF0E4900297F090035BE0AE
:1010F6006405703E90059FF0A3F090059FE0FEA367
:10110600E0FFC39409EE9400501C74F62FF5827428
:10111600023EF583E4F09005A0E004F070DC900553
:101126009FE004F080D41242AAEF60028009C20058
:10113600801A8003125A3F125E4580109005A6E081
:1011460004F0E0D394054004E4F0C200E4FF125436
:101156001C90035AE064016003021202900297E0B9
:10116600D394645003021202200203021202900278
:1011760096E004F09005AFF0900296E0900295F0AC
:101186007B017A0579AA9005B0E0FEA3E07C0024F5
:1011960000FFEC3ECF2408FDE43FFC12516DAD0785
:1011A6009005B0E0FEA3E07A002400FFEA3EFE745C
:1011B600B22FF58274053EF583EDF07B017A057951
:1011C600AA9005B0E0FEA3E07C002400FFEC3ECF31
:1011D600240AFDE43FFC1259937B017A0579AA9013
:1011E60005B0E0FEA3E07C002400FFEC3ECF240A1D
:1011F600FDE43FFC1259CFE4900297F09002D9E04B
:1012060060217B017A0179059002DBE0FD900634CE
:101216007401F0121B68D2ACE49002D9F090000081
:10122600F0A3F09002E2E070030202AD7B017A01C6
:1012360079CD9002E4E0FD9006347402F0121B684A
:1012460043AF01E49002E2F0900002F0A3F0020244
:01125600ADEA
:10591500E4F593F594F591F592F595F596F5B1F5D0
:10592500B2F5B3F5B4439404D282439410D28443C0
:105935009204D2924392084392104392204392409C
:10594500D29643B208D2B3C2A5439620C2974392DA
:025955008022AE
:1058D100E4FDFCC3ED9FEC9E503900000000000088
:1058E10000000000000000000000000000000000B7
:1058F10000000000000000000000000000000000A7
:105901000000000000000000000000000DBD0001CB
:035911000C80C047
:015914002270
:105B3B009003837401F0A37403F0A37487F09003B4
:105B4B007E7401F0A37404F0A37487F0E4F509F5F7
:065B5B0008F50AF50B221B
:0B4DB100900649EBF0A3EAF0A3E9F044
:104DBC007D807F12125C9A7D807F13125C9A7D0835
:104DCC007F13125C197D087F08125C9A7D077F0D9A
:104DDC00125E607523267F017E007D007C001245EB
:104DEC000D9006547401F07B00A314F0A37400F032
:104DFC00A37424F0A3EBF0A37400F0A37426F07A50
:104E0C000079237F0C1231A18F22E522702BE5272C
:104E1C00641045267023900649E0FBA3E0FAA3E05A
:104E2C00F9E52412246F900649E0FBA3E0FAA3E015
:0B4E3C00F9900001E525122481AF224F
:014E47002248
:0B4E4800900630EBF0A3EAF0A3E9F0C5
:104E53007D807F12125C9A7D807F13125C9A7D089D
:104E63007F13125C197D087F08125C9A7D077F0D02
:104E7300125E607522527F017E007D007C00124528
:104E83000D9006547401F07B00A314F0A37400F09A
:104E9300A37423F0A3EBF0A37400F0A37425F07ABA
:104EA3000079227F0C1231A18F21E521702BE52699
:104EB300641045257023900630E0FBA3E0FAA3E0DD
:104EC300F9E52312246F900630E0FBA3E0FAA3E098
:0B4ED300F9900001E524122481AF21BA
:014EDE0022B1
:1040F300900646E0FBA3E0FAA3E02407F9E43AFACA
:024103007F95A6
:0E410500900649EFF0A3EBF0A3EAF0A3E9F077
:104113007D807F12125C9A7D807F13125C9A7D08EA
:104123007F08125C9AE4FD7F0D125E607D807F0E36
:10413300125C9A900649E0F5247525207F017E00E4
:104143007D007C0012450D9006547402F0A3E4F048
:10415300A37400F0A37426F0A3E4F0A37400F0A307
:10416300742BF07B007A0079247F0C1231A18F220B
:10417300E5227058F52374262523F8E6FF90064AB6
:10418300E0FBA3E0FAA3E0F9852382758300EF1235
:1041930024810523E523B405DD90064AE0FBA3E073
:1041A300FAA3E0F9900001122442FF1224296FFFC1
:1041B3009000021224426FFF9000031224426FFF0B
:0E41C3009000041224426F6003752201AF22A7
:0141D10022CB
:0E48B600900649EFF0A3EBF0A3EAF0A3E9F0BF
:1048C400E4FD7F0D125E607D807F12125C197D8095
:1048D4007F13125C197D087F08125C9A900649E0E8
:1048E400F524752570E4F52390064AE0FBA3E0FA6D
:1048F400A3E0F9852382758300122442FF742625E0
:1049040023F8A6070523E523B405DD7F017E007D9A
:10491400007C0012450D9006547407F0A3E4F0A344
:104924007400F0A3742BF0A3E4F0A37400F0A37458
:1049340030F07B007A0079247F0C1231A18F22E5BC
:1049440022701090064DE0FBA3E0FAA3E0F9E52BFA
:0549540012246FAF22E8
:01495900223B
:10569B00752250E4F523FD7F0D125E607D807F1235
:1056AB00125C197D807F13125C197D087F08125CD8
:1056BB009A7F017E007D007C0012450D900654748C
:1056CB0002F0A3E4F0A37400F0A37424F0A3E4F0BD
:1056DB00A37400F0A37425F07B007A0079227F0479
:0556EB001231A18F2126
:0156F0002297
:0B2EFA00900646EBF0A3EAF0A3E9F01D
:102F0500124DB18F21E521B401037F0122900646C0
:102F1500E0FBA3E0FAA3E0F912242954C0706DE99F
:102F25002403F9E43AFA7F931241058F21E521B490
:102F350001037F0122900646E0FBA3E0FAA3E0240B
:102F450003F9E43AFAC003C002C001900646A3E0C3
:102F5500FAA3E0240FF9E43AFA90064DEBF0A3EA60
:102F6500F0A3E9F0D001D002D0037F931248B68FC9
:102F750021E521B401037F0122900646E0FBA3E091
:102F8500FAA3E0F99000027404122481900646E049
:102F9500FBA3E0FAA3E0F912242954C064406003BE
:102FA500023066E92403F9E43AFA7F931241058F6A
:102FB50021E521B401037F0122900646E0FBA3E051
:102FC500FAA3E02403F9E43AFAC003C002C0019071
:102FD5000646A3E0FAA3E0240FF9E43AFA90064D79
:102FE500EBF0A3EAF0A3E9F0D001D002D0037F9380
:102FF5001248B68F21E521B401037F01221240F367
:103005008F21E521B401037F0122900646E0FBA351
:10301500E0FAA3E02407F9E43AFAC003C002C001CC
:10302500900646A3E0FAA3E0240FF9E43AFA9006E5
:103035004DEBF0A3EAF0A3E9F0D001D002D0037F75
:10304500951248B68F21E521B401037F0122900630
:1030550046E0FBA3E0FAA3E0F9900002740812240D
:1030650081900646E0FBA3E0FAA3E0F91224295477
:10307500C06480600302319EE92403F9E43AFA7FD3
:10308500931241058F21E521B401037F01229006AA
:1030950046E0FBA3E0FAA3E02403F9E43AFAC0030F
:1030A500C002C001900646A3E0FAA3E0240FF9E4AC
:1030B5003AFA90064DEBF0A3EAF0A3E9F0D001D07F
:1030C50002D0037F931248B68F21E521B401037F17
:1030D50001221240F38F21E521B401037F012290E3
:1030E5000646E0FBA3E0FAA3E02407F9E43AFAC0B8
:1030F50003C002C001900646A3E0FAA3E0240FF93D
:10310500E43AFA90064DEBF0A3EAF0A3E9F0D0011A
:10311500D002D0037F951248B68F21E521B4010373
:103125007F0122900646E0FBA3E0FAA3E0240BF919
:10313500E43AFA7F971241058F21E521B401037F17
:103145000122900646E0FBA3E0FAA3E0240BF9E494
:103155003AFAC003C002C001900646A3E0FAA3E014
:10316500240FF9E43AFA90064DEBF0A3EAF0A3E94F
:10317500F0D001D002D0037F971248B68F21E52108
:10318500B401037F0122900646E0FBA3E0FAA3E029
:0B319500F9900002740C122481AF219D
:0131A000220C
:105D9700535049526561645F53657175656E6365FC
:075DA7000A00656E640A00AA
:0F5E1800E4F5CF75CDC0D29275CED0F5A2FF22A2
:105AC400900661E004F07006900660E004F0D39064
:105AD4000661E094C8900660E0940040037F0022D1
:075AE400E5CD5F60DB7F01EF
:015AEB002298
:105AEC00C292EF25E0F54F434F8075CDC0854FCF67
:105AFC007F80125AC475CDC0E4F5CF7F80125AC492
:075B0C0085CF4ED292AF4E8F
:015B1300226F
:104EDF0090065BEFF0A3EDF0A3EBF0A3EAF0A3E9EC
:014EEF00F0D2
:104EF0007BFF7A5D7997E4FDFC12595790065BE0E1
:104F00006070C29290065CE025E0F54C434C8075E1
:104F1000CDC0854CCF7F80125AC47F30125D619026
:104F2000065BE0FF125D61E4F54B90065BE0FFE598
:104F30004BC39F502F75CDC0EF14B54B05E4F5CF93
:104F40008003854CCF7F80125AC490065DE0FBA39E
:104F5000E0FAA3E0F9854B82758300E5CF12248146
:104F6000054B80C6D2927BFF7A5D79A9E4FDFC12E5
:024F700059578F
:014F7200221C
:105B8600C292EF25E0F54D534D7E75CDC0854DCFC4
:105B96007F80125AC475CDC0AF058FCF7F80125A51
:035BA600C4D292D4
:015BA90022D9
:0D579D0090065BEBF0A3EAF0A3E9F0AE0785
:1057AA00EE6044C292AF05EF25E0F54B534B7E7590
:1057BA00CDC0854BCF7F80125AC4E4F54CE54CC36B
:1057CA009E502275CDC090065BE0FBA3E0FAA3E0F1
:1057DA00F9854C82758300122442F5CF7F80125AD4
:0757EA00C4054C80D8D292E7
:0157F1002295
:10475800EF7003752160EFB40103752161ED25E069
:1047680025E0F522122429F523900001122442F5B0
:1047780024900002122442F525900003122442F5E9
:1047880026900004122442F527900005122442F5D1
:104798002890064BE0FBA3E0FAA3E0F9122429F5E0
:1047A80029900001122442F52A900002122442F5B1
:1047B8002B900003122442F52C7F017E007D007CA3
:1047C8000012450D900654740CF0A3E4F0A3740095
:1047D800F0A3742DF0A3E4F0A37400F0A3742FF0F9
:1047E8007B007A0079217F0E1231A18F2EE52E7081
:1047F8000F7F08125E76EF30E3037F00227F0122ED
:024808007F012E
:01480A00228B
:10563900900003122442FEF521900002122442FD3B
:10564900F522900001122442F523122429F524EEB3
:10565900F4F525EDF4F526900001122442FEF4F547
:1056690027122429FDF4F528900003122442F52974
:10567900900002122442F52A8E2B8D2C8F2DEFF4E7
:10568900F52E8F2FF5307B007A0079211245D48FC2
:0156990031DF
:01569A0022ED
:0E500300900646EFF0A3EBF0A3EAF0A3E9F06D
:105011007D807F12125E607D807F13125E60E4FDF1
:105021007F0D125E607F017E007D007C0012450DC8
:10503100752130900646E0F5229006547402F090F6
:105041000647E0F9A3E0FAA3E0900655C9F0A3EA08
:10505100F0A3E9F0A3E4F0A37400F0A37424F07BBF
:10506100007A0079217F0C1231A18F23E52564801C
:10507100452460047F0180027F00E52360047E01F6
:0D50810080027E00EE4F60037F01227F0061
:01508E0022FF
:0E45D400900639EFF0A3EBF0A3EAF0A3E9F0B4
:1045E2007F057E007D007C0012450D7533A090068C
:1045F20039E0F5349006547402F0A3E4F0A3740099
:10460200F0A37443F0A3E4F0A37400F0A37444F0A5
:104612007B007A0079337F0C1231A18F32E543544B
:104622000F640A60047F0180027F00E53260047E2D
:104632000180027E00EE4F60037F01227F0A7E002E
:104642007D007C0012450D9006547410F0A3E4F036
:10465200A37400F0A37443F0A3E4F0A37400F0A3E6
:104662007444F090063AE0FBA3E0FAA3E0F97F0C71
:104672001231A18F32E543540F640A60047F018036
:10468200027F00E53260047E0180027E00EE4F6010
:06469200037F01227F00FE
:0146980022FF
:0E495A00900630EFF0A3EBF0A3EAF0A3E9F033
:104968007F057E007D007C0012450D7522C19006F2
:1049780030E0F5239006547402F0A3E4F0A3740029
:10498800F0A37424F0A3E4F0A37400F0A37425F05A
:104998007B007A0079227F0C1231A18F21E5245403
:1049A8000F640A60047F0180027F00E52160047EB5
:1049B8000180027E00EE4F60037F01227F057E00AA
:1049C8007D007C0012450D9006547404F0A3E4F0B9
:1049D800A37400F0A37424F0A3E4F0A37400F0A37C
:1049E8007425F0900631E0FBA3E0FAA3E0F97F0C10
:0549F8001231A1AF2106
:0149FD002297
:0E49FE00900630EFF0A3EBF0A3EAF0A3E9F08F
:104A0C007F057E007D007C0012450D7522C090064E
:104A1C0030E0F5239006547402F0A3E4F0A3740084
:104A2C00F0A37424F0A3E4F0A37400F0A37425F0B5
:104A3C007B007A0079227F0C1231A18F21E524545E
:104A4C000F640A60047F0180027F00E52160047E10
:104A5C000180027E00EE4F60037F01227F057E0005
:104A6C007D007C0012450D9006547404F0A3E4F014
:104A7C00A37400F0A37424F0A3E4F0A37400F0A3D7
:104A8C007425F0900631E0FBA3E0FAA3E0F97F0C6B
:054A9C001231A1AF2161
:014AA10022F2
:0555D500900630EFF02C
:1055DA007F057E007D007C0012450D7522B0900685
:1055EA0030E0F5239006547402F0A3E4F0A37400AB
:1055FA00F0A37424F0A3E4F0A37400F0A37425F0DC
:10560A007B007A0079227F0C1231A18F21E5245484
:10561A000F640A60047F0180027F00E52160047E36
:0E562A000180027E00EE4F60037F0122AF215F
:01563800224F
:054B4600900630EFF0C5
:104B4B007F057E007D007C0012450D7522C290060C
:104B5B0030E0F5239006547402F0A3E4F0A3740044
:104B6B00F0A37426F0A3E4F0A37400F0A37427F071
:104B7B007B007A0079227F0C1231A18F21E526541C
:104B8B000F640A60047F0180027F00E52160047ED0
:104B9B000180027E00EE4F60037F01227F057E00C5
:104BAB007D007C0012450DE4F522F523F524F52557
:104BBB009006547404F0A3E4F0A37400F0A37426DD
:104BCB00F0A3E4F0A37400F0A37427F07B007A0049
:094BDB0079227F0C1231A1AF21F7
:014BE40022AE
:042ED7004106C100EF
:055E7600125AEC8F4DF3
:015E7B002204
:0B5A0B00900630EBF0A3EAF0A3E9F0F6
:105A1600E4F521AF21125AEC900630E0FBA3E0FA40
:105A2600A3E0F9852182758300EF1224810521E523
:085A360021C3944040DD7F0014
:015A3E002245
:045E5C00E4FD7F01E1
:065E6000125B867F0022A8
:105D6700900655E0FBA3E0FAA3E07E002548F9EE94
:025D77003AFAF6
:065D79007D09124EDF223D
:105DC400900654E0FF900651E0FBA3E0FAA3E0F94B
:065DD4007D0912579D221B
:105E04007D807F0A125C197F0A125AECEF7002FF40
:045E1400227F0122C6
:045C15007D807F0D02
:0A5C190090065CEDF090065BEFF0E2
:105C2300125E7690065CE04FFD90065BE0FF125E2D
:035C3300608F4C33
:015C3600224B
:0A5C9A0090065CEDF090065BEFF061
:105CA400125E7690065CE0F45FFD90065BE0FF1206
:045CB4005E608F4B54
:015CB80022C9
:05541C00900646EFF0D0
:105421007F14125E76EF5403FF900646E0FEB50747
:10543100037F0022EE70097D037F14125C9A8F2195
:10544100900646E0B401127D017F14125C198F2190
:105451007D027F14125C9A8F21900646E0B40212FD
:105461007D017F14125C9A8F217D027F14125C19D9
:105471008F21900646E0B403097D037F14125C1965
:0B5481008F217FE87E031258D1AF217D
:01548C0022FD
:0E31A100900650EFF0A3EBF0A3EAF0A3E9F0E4
:1031AF00E4F547F548F5497F5C125D61900650E004
:1031BF00FF125D61125E04125E5C7D207F0B125E5A
:1031CF00607D7F7F04125E60900650E0B40E0612A1
:1031DF005DC4125C157D807F2A125C19900650E049
:1031EF00FD7F01125E607F5C125D61900650E0FF13
:1031FF00125D617F30125D617F04125E768F4A121D
:10320F005D61E54A30E0137546017F33125D6190D1
:10321F000650E0FF125D61023330900650E0FFB4BC
:10322F000E08E54A30E40302332DEF64047059E5CC
:10323F004A30E244900654E0FFD39400403AEF94B2
:10324F0020900651E0FBA3E0FAA3E0F9500A125DCB
:10325F00D4E4900654F080167F20125DD49006546B
:10326F00E024E0F0900652E475F0201224F87D047B
:10327F007F04125E60125C15E54A30E60B9006542F
:10328F00E07005F546023330900650E0640C6003A1
:10329F00023202E54A30E245900654E0FFD3940033
:1032AF00403BEFD394204023900651E0FBA3E0FA7C
:1032BF00A3E0F97F20125DD4900654E024E0F09053
:1032CF000652E475F0201224F88008125DC4E490D1
:1032DF000654F0125C157D047F04125E60E54A30DF
:1032EF00E32630E623900654E0701D7F0A125E76C7
:1032FF00EFD3942040127F20125D6774202548F58C
:10330F00487D087F04125E60E54A20E50302320221
:10331F00900654E060030232029006C104F0E4F517
:10332F00467F32125D61900650E0640C70767F34F8
:10333F00125D61E4F5487F0A125E768F477F351282
:10334F005D61AF47125D61AF47125D677F36125DFA
:10335F0061E5472548F5487F0C125E76EF5407F577
:10336F00496028E54824FFFFE434FFFEEF7803C3EC
:10337F0033CE33CED8F97C002549FFEC3EF99006C9
:10338F0058E0FBA3E0FAA3E0C98014E54875F00804
:10339F00A4FF900658E0FBA3E0FAA3E0F9E5F08F55
:1033AF00F01225247F31125D617D807F0C125C1934
:0C33BF00125E5C7D807F0D125C9AAF46B0
:0133CB0022DF
:06450D0090065012268406
:10451300E4F54AF54BF549F548F547F546E47FF8E8
:104523007E34FDFC900650E0F8A3E0F9A3E0FAA383
:10453300E0FB122543EF24FFFFEE34FFFEED34FFD3
:10454300FDEC34FFFCC006C007E54B25E0FFE54A60
:1045530033FEEF2401FFE43EAB07FAE4F9F8D0079A
:10456300D0061225CE8F498E488D478C46E47FFFB7
:104573007EFFFDFCAB49AA48A947A846C3122660A3
:104583004011054BE54B7002054AF47004E54A649B
:104593000F708AE549F549E548F548E4F547F546DE
:1045A300E54AFD7F2A125C19E54BFD7F2B125E6005
:1045B300AF49AE48AD47AC467808122671AD077FC8
:1045C3002C125E60E549FFAD077F2D125E607F0010
:0145D30022C5
:104D1900900646EFF0701C7D107F0C125C197D40E7
:104D29007F15125C19E4FD7F12125E60E4FD7F13AA
:104D3900125E60900646E06401702A7D107F0C12B5
:104D49005E607D837F12125E607D837F13125E60D9
:104D59007DF47F27125E607DF47F23125E60E4FD9F
:104D69007F15125E60900646E0640270387D107F00
:104D79000C125E607D927F12125E607D967F131227
:104D89005E607DF47F27125E607D207F28125E6061
:104D99007D4F7F23125E607D207F29125E607D0733
:084DA9007F15125E607F0022FD
:100026007D0F7F01125E607D107F0C125C197F0CC4
:0D003600125E76EF30E4037F00227F01228E
:105DEF00C2B37F017E001258D1D2B37F017E001261
:055DFF0058D17F0022D5
:105CF6007F01125E76EF30E40A7D107F01125C9A16
:0D5D06007F01227D107F01125C197F0022B9
:0B5E5100B2B330B3037F00227F0122B8
:0F5E2700EF2480FD7F0F125E607F0F125E7622E8
:105D1300900630EDF0EF2440FD7F0F125E60900699
:0D5D230030E024C0FD7F0F125E607F002283
:065E7C0000840000080094
:1037BA00900630EFF0A3EDF0A3EBF0A3EAF0A3E953
:0137CA00F00E
:1037CB007D807F12125E607D807F13125E60E4FD50
:1037DB007F0D125E607F647E007D007C0012450DC4
:1037EB007522E0900631E0F523540F90069AF09085
:1037FB000630E0900699F0125E049006547402F0C5
:10380B00900635E0F9A3E0FAA3E0900655C9F0A3C2
:10381B00EAF0A3E9F0A3E4F0A37400F0A37425F09D
:10382B007B007A0079227F0C1231A18F21E5216078
:10383B0003023908F524E526AE257803CEC313CE53
:10384B0013D8F9FF900632E0FBA3E0FAA3E0F9EFFF
:10385B0012246F900635E0FBA3E0FAA3E0F91224E3
:10386B002990069CF090000112244290069DF05482
:10387B000F9006A1F090069DE030E61E900635A352
:10388B00A3E02402F9E43AFA7E00E92524F9EE3AA2
:10389B00FA12242990069EF0052490069DE030E54F
:1038AB0031900635E0FBA3E0FAA3E02402F9E43AF9
:1038BB00FA7E00E92524F9EE3AFA12242990069FA4
:1038CB00F09006A2E4F090069FE0540F9006A3F050
:1038DB00052490069DE030E433900635E0FBA3E031
:1038EB00FAA3E02402F9E43AFA7E00E92524F9EE82
:1038FB003AFA1224299006A0F00524800F90063284
:0E390B00E0FBA3E0FAA3E0F9E412246FAF2181
:01391900228B
:104AA200900630EFF0A3EDF0A3EBF0A3EAF0A3E958
:014AB200F013
:104AB3007F327E007D007C0012450D90069AE04413
:104AC300D0F522900630E0F523125E04900630E024
:104AD30030E40BA3E0F5249006547403800590069C
:104AE300547402F0900635E0F9A3E0FAA3E09006CF
:104AF30055C9F0A3EAF0A3E9F0A3E4F0A37400F02E
:104B0300A37425F07B007A0079227F0C1231A18FE8
:104B130021E521701CE526AE257803CEC313CE1301
:104B2300D8F9FF900632E0FBA3E0FAA3E0F9EF80A7
:104B33000C900632E0FBA3E0FAA3E0F9E412246F41
:024B4300AF21A0
:014B4500224D
:08000300900699E06401F0226F
:0B56F100900630EBF0A3EAF0A3E9F014
:1056FC0078227C007D007BFF7A5E797C7E007F05C2
:10570C00122403900630E0F9A3E0FAA3E090063AE5
:10571C00C9F0A3EAF0A3E9F0900633E0F9A3E0FAAC
:10572C00A3E090063DC9F0A3EAF0A3E9F07B007A70
:0A573C000079227F05123A6B8F21DD
:015746002240
:0E51A600900630EFF0A3EBF0A3EAF0A3E9F0DF
:1051B4007F647E007D007C0012450D900630E090F7
:1051C4000654F0900637E0F9A3E0FAA3E090065500
:1051D400C9F0A3EAF0A3E9F0A3E4F0A37400F0A3F8
:1051E4007422F0900631E0FBA3E0FAA3E0F97F0C0F
:1051F4001231A18F21E521701CE523AE227803CE64
:10520400C313CE13D8F9FF900634E0FBA3E0FAA34E
:10521400E0F9EF800C900634E0FBA3E0FAA3E0F998
:06522400E412246FAF212B
:01522A002261
:0E3A6B00900636EFF0A3EBF0A3EAF0A3E9F02B
:103A79007FF47E017D007C0012450D900699E0904F
:103A8900063630E354E0FF7E00A3E0FBA3E0FAA38F
:103A9900E02402F9E43AA801FCAD03900637A3A398
:103AA900E0F9122830900699E0FF900637E0FBA371
:103AB900E0FAA3E0F9EF12246F90069AE0FF90066E
:103AC90037E0FBA3E0FAA3E0F9900001EF122481AB
:103AD900900636E02402F0803AE0FF7E00A3E0FB86
:103AE900A3E0FAA3E02401F9E43AA801FCAD0390AC
:103AF9000637A3A3E0F9122830900699E0FF900653
:103B090037E0FBA3E0FAA3E0F9EF12246F90063641
:103B1900E004F0900636E0900654F090063DE0F996
:103B2900A3E0FAA3E0900655C9F0A3EAF0A3E9F0EF
:103B3900A3E4F0A37400F0A37428F0900637E0FB27
:103B4900A3E0FAA3E0F97F0C1231A18F27E52770D2
:103B59004A90063DE0FBA3E0FAA3E0F9122429907C
:103B69000699F054F0FFBFF013E030E3059000022E
:103B7900800390000112244290069BF0120003E595
:103B890029AE287803CEC313CE13D8F9FF90063A8D
:103B9900E0FBA3E0FAA3E0F9EF800C90063AE0FB22
:0C3BA900A3E0FAA3E0F9E412246FAF27B8
:013BB50022ED
:0B444200900630EBF0A3EAF0A3E9F0D5
:10444D007F647E007D007C0012450D900699E03062
:10445D00E311540F44A0F521A3E0F5229006547406
:10446D0002800F900699E0540F44A0F52190065458
:10447D007401F0900633E0F9A3E0FAA3E09006553D
:10448D00C9F0A3EAF0A3E9F0A3E4F0A37400F0A34C
:10449D007424F07B007A0079217F0C1231A18F23D7
:1044AD00E523704A900633E0FBA3E0FAA3E0F9128E
:1044BD002429900699F054F0FFBFF013E030E30586
:1044CD00900002800390000112244290069BF0128E
:1044DD000003E525AE247803CEC313CE13D8F9FF20
:1044ED00900630E0FBA3E0FAA3E0F9EF800C900614
:0F44FD0030E0FBA3E0FAA3E0F9E412246FAF2351
:01450C00228C
:0E400100900630EFF0A3EBF0A3EAF0A3E9F095
:10400F007FF47E017D007C0012450D900630E0FFAD
:10401F0044C0F521900699E030E323EF54F064F0AB
:10402F00700FA3E0F522A3E0F523900654740380EC
:10403F002590069AE0F52290065474028018900697
:10404F0030E054F0FFBFF00690069BE08001E4F5EE
:10405F00229006547402F0900634E0F9A3E0FAA31C
:10406F00E0900655C9F0A3EAF0A3E9F0A3E4F0A3AA
:10407F007400F0A37425F07B007A0079217F0C1275
:10408F0031A18F24E524704A900634E0FBA3E0FAB7
:10409F00A3E0F9122429900699F054F0FFBFF01312
:1040AF00E030E3059000028003900001122442905B
:1040BF00069BF0120003E526AE257803CEC313CE80
:1040CF0013D8F9FF900631E0FBA3E0FAA3E0F9EF74
:1040DF00800C900631E0FBA3E0FAA3E0F9E4122490
:0340EF006FAF248C
:0140F20022AB
:10574700900630EFF07D707F12125C9A7D707F13A8
:10575700125C9A900630E014601514601D146025E1
:105767002403702FE4FD7F12125C19E4FD801F7D76
:10577700107F12125C197D1080147D207F12125C3D
:10578700197D2080097D307F12125C197D307F13CF
:06579700125C197F0022E4
:0E556A00900630EFF0A3EBF0A3EAF0A3E9F017
:105578007D807F12125E607D807F13125E60E4FD85
:105588007F0D125E60752230900630E0F5237F01B2
:105598007E007D007C0012450D9006547402F09048
:1055A8000631E0F9A3E0FAA3E0900655C9F0A3EAB2
:1055B800F0A3E9F0A3E4F0A37400F0A37424F07B53
:0C55C800007A0079227F0C1231A18F21A3
:0155D40022B4
:1053A6007522A28F23122429F5249000011224428B
:1053B600F525900002122442F5269000031224429D
:1053C600F5277F0A7E007D007C0012450D9006546D
:1053D6007406F0A3E4F0A37400F0A37428F0A3E429
:1053E600F0A37400F0A37429F07B007A0079227F81
:1053F6000C1231A18F21E528640A60047F01800226
:105406007F00E52160047E0180027E00EE4F60038E
:055416007F01227F0070
:01541B00226E
:0B4BE500900630EBF0A3EAF0A3E9F02B
:104BF0007F057E007D007C0012450D9006397450C3
:104C0000F0783A7C067D01900630E0FBA3E0FAA341
:104C1000E0F97E007F041224039006547405F0909E
:104C20000636E0F9A3E0FAA3E0900655C9F0A3EA3E
:104C3000F0A3E9F0A37401F0A37406F0A3743EF0AE
:104C40007B017A0679397F0C1231A1AD07ED701F17
:104C500090063EE0FEA3E07803CEC313CE13D8F94E
:104C6000FF900633E0FBA3E0FAA3E0F9EF800C909D
:104C70000633E0FBA3E0FAA3E0F9E412246FAF05EA
:014C80002211
:0B3BB600900630EBF0A3EAF0A3E9F06A
:103BC1007F057E007D007C0012450D90063A74054C
:103BD100F0E4A3F0A37408F09006547403F0900687
:103BE10033E0F9A3E0FAA3E0900655C9F0A3EAF0A7
:103BF100A3E9F0A37401F0A37406F0A3743DF07B74
:103C0100017A06793A7F0C1231A1900639EFF06002
:103C110003023CCD90063DE0FEA3E07803CEC31342
:103C2100CE13D8F9FF900630E0FBA3E0FAA3E0F948
:103C3100EF12246F900633E0FBA3E0FAA3E0240126
:103C4100F9E43AFAC003C002A3E0FBA3E0FAA3E05F
:103C5100F8AC02AD03D002D0037E007F041224032E
:103C6100900633E0FBA3E0FAA3E02406F9E43AFA74
:103C7100C003C002C001A3E0FBA3E0FAA3E0240457
:103C8100F9E43AA801FCAD03D001D002D0037E00D3
:103C91007F04122403900633E0FBA3E0FAA3E0249F
:103CA1000AF9E43AFAC003C002C001A3E0FBA3E0B1
:103CB100FAA3E02408F9E43AA801FCAD03D001D04D
:103CC10002D0037E007F03122403800F900630E0B0
:103CD100FBA3E0FAA3E0F9E412246F900639E0FFB8
:013CE10022C0
:0B3CE200900630EBF0A3EAF0A3E9F03D
:103CED007F057E007D007C0012450D90063A74051F
:103CFD00F0E4A3F0A3F09006547403F0900633E0C3
:103D0D00F9A3E0FAA3E0900655C9F0A3EAF0A3E900
:103D1D00F0A37401F0A37406F0A3743DF07B017A57
:103D2D0006793A7F0C1231A1900639EFF06003024B
:103D3D003DF790063DE0FEA3E07803CEC313CE130E
:103D4D00D8F9FF900630E0FBA3E0FAA3E0F9EF12FB
:103D5D00246F900633E0FBA3E0FAA3E02401F9E41D
:103D6D003AFAC003C002A3E0FBA3E0FAA3E0F8AC6B
:103D7D0002AD03D002D0037E007F0412240390060F
:103D8D0033E0FBA3E0FAA3E02406F9E43AFAC0031A
:103D9D00C002C001A3E0FBA3E0FAA3E02404F9E410
:103DAD003AA801FCAD03D001D002D0037E007F0400
:103DBD00122403900633E0FBA3E0FAA3E0240AF9F2
:103DCD00E43AFAC003C002C001A3E0FBA3E0FAA3EA
:103DDD00E02408F9E43AA801FCAD03D001D002D0EB
:103DED00037E007F03122403800F900630E0FBA3B7
:0E3DFD00E0FAA3E0F9E412246F900639E0FF2B
:013E0B002294
:0B480B00900630EBF0A3EAF0A3E9F008
:104816007F057E007D007C0012450D900639741DD3
:10482600F0783A7C067D01900630E0FBA3E0FAA31F
:10483600E0F97E007F04122403E490063EF0A374A0
:1048460008F0A37401F0A3F09006547409F09006E2
:1048560036E0F9A3E0FAA3E0900655C9F0A3EAF022
:10486600A3E9F0A37401F0A37406F0A37442F07BED
:10487600017A0679397F0C1231A1AD07ED701F90D0
:104886000642E0FEA3E07803CEC313CE13D8F9FFA9
:10489600900633E0FBA3E0FAA3E0F9EF800C900664
:0F48A60033E0FBA3E0FAA3E0F9E412246FAF05BF
:0148B50022E0
:0B4F7300900630EBF0A3EAF0A3E9F099
:104F7E007F057E007D007C0012450DE4900636F024
:104F8E00A37436F0E4A3F0A3F0A37408F0900654D3
:104F9E007405F0900633E0F9A3E0FAA3E09006550D
:104FAE00C9F0A3EAF0A3E9F0A37401F0A37406F02C
:104FBE00A3743BF07B017A0679367F0C1231A1ADDA
:104FCE0007ED701F90063BE0FEA3E07803CEC313FF
:104FDE00CE13D8F9FF900630E0FBA3E0FAA3E0F978
:104FEE00EF800C900630E0FBA3E0FAA3E0F9E412A8
:044FFE00246FAF0568
:01500200228B
:065E82000600FFFF000016
:0E41D200900630EFF0A3EBF0A3EAF0A3E9F0C3
:1041E00078397C067D017BFF7A5E79827E007F06CE
:1041F000122403900630E0FF601664016012EF6441
:1042000003600DEF64076008EF640F60037F012215
:10421000900630E090063EF07F0A7E007D007C0034
:1042200012450D9006547406F0900634E0F9A3E0B0
:10423000FAA3E0900655C9F0A3EAF0A3E9F0A3744D
:1042400001F0A37406F0A37437F07B017A06793984
:104250007F0C1231A1EF7040900637E0FEA3E078AA
:1042600003CEC313CE13D8F9FF900631E0FBA3E0D1
:10427000FAA3E0F9EF12246F900634E0FBA3E0FA12
:10428000A3E02402F9E43AFA78B97C067D017E00C5
:104290007F081224037F0022900631E0FBA3E0FA9E
:0942A000A3E0F9E412246F7F0190
:0142A90022F2
:102EDB005B066E01020304050607080901020304E1
:0E2EEB00050607080901020304050607080989
:10125700E50964016003021B67E50A6003021B6777
:10126700F50990037EE0FBA3E0FAA3E0F9E412247A
:101277006F90037EE0FBA3E0FAA3E0F912242912A2
:1012870026901B670012FF01130502130B0313348B
:1012970004137E0513AF06140907145F08146509C4
:1012A700146B0A14AD0B14F70C14FD1015A51115CA
:1012B700D912162013164B14166A1516951616AD65
:1012C7001716D11816F02017442117982217B023A4
:1012D70017EF24182A2518772618D6271911311938
:1012E700623219A23319E2341A1D351A6E521AA93D
:1012F700531ADB6000001B53120026021AC5125D49
:10130700EF021AC5900383E0FBA3E0FAA3E02401F0
:10131700F9E43AFA125A0B900383E0FBA3E0FAA32D
:10132700E0F9EF12246F9003827441F02290038357
:10133700E0FBA3E0FAA3E0F9E412246F90037EE058
:10134700FBA3E0FAA3E0F9900001122442FF900307
:1013570083E0FBA3E0FAA3E0F9900001EF122481F8
:1013670090037EE0FBA3E0FAA3E0F99000011224CA
:1013770042FF125E76807990037EE0FBA3E0FAA33A
:10138700E0F9900001122442FF900002122442FD6E
:10139700125E60900383E0FBA3E0FAA3E0F9E41296
:1013A700246F90038204F022900383E0FBA3E0FA0A
:1013B700A3E0F9E412246F90037EE0FBA3E0FAA315
:1013C700E0F9900001122442FF900383E0FBA3E0C1
:1013D700FAA3E0F9900001EF12248190037EE0FB6D
:1013E700A3E0FAA3E0F9900001122442FF125E275E
:1013F700900383E0FBA3E0FAA3E0F9900002EF0279
:1014070014ED90037EE0FBA3E0FAA3E0F99000015E
:10141700122442FF900002122442FD125D13900332
:1014270083E0FBA3E0FAA3E0F9EF12246F90037EB9
:10143700E0FBA3E0FAA3E0F9900001122442FF9039
:101447000383E0FBA3E0FAA3E0F9900001EF122485
:10145700819003827402F022125E51021AC5125C57
:10146700F6021AC57F0312541CE4FF124D197B01C3
:101477007A067989124DB1900383E0FBA3E0FAA3C2
:10148700E0F9EF12246F900689E0FF900383E0FBF9
:10149700A3E0FAA3E0F9900001EF12248190068AF5
:1014A700E090000280407F0312541CE4FF124D19A4
:1014B7007B017A067989124E48900383E0FBA3E00B
:1014C700FAA3E0F9EF12246F900689E0FF900383F7
:1014D700E0FBA3E0FAA3E0F9900001EF122481906A
:1014E700068AE09000021224819003827403F0229E
:1014F70012569B021AC57F0312541CE4FF124D19A2
:101507007B017A067989122EFA900383E0FBA3E028
:10151700FAA3E0F9EF12246F900383E0FBA3E0FA4C
:10152700A3E02401F9E43AA801FCAD037B017A06A4
:1015370079897E007F02122403900383E0FBA3E0F6
:10154700FAA3E02403F9E43AA801FCAD037B017A8E
:1015570006798B7E007F01122403900383E0FBA3AF
:10156700E0FAA3E02404F9E43AA801FCAD037B0107
:101577007A06798C7E007F0C122403900383E0FBAC
:10158700A3E0FAA3E02410F9E43AA801FCAD037B39
:10159700017A0679987E007F0112240380749003F4
:1015A7007EE0FBA3E0FAA3E0F9900001122442FFDA
:1015B700900002122442FDE92403F9E43AFA900666
:1015C7004B7401F0A37406F0A3748CF01247580211
:1015D7001AC590037EE0FBA3E0FAA3E0F9900002AE
:1015E70012244225E025E0FF9000011224422FFF3C
:1015F700900383E0FBA3E0FAA3E02401F9E43AFABD
:10160700125003900383E0FBA3E0FAA3E0F9EF1283
:10161700246F9003827411F02290037EE0FBA3E015
:10162700FAA3E0F990000212244225E025E0FF909A
:1016370000011224422FFFE92403F9E43AFA124584
:10164700D4021AC590037EE0FBA3E0FAA3E0F99069
:101657000001122442FFE92402F9E43AFA12495A36
:10166700021AC590037EE0FBA3E0FAA3E0F990001D
:101677000212244225E025E0FF9000011224422FA8
:10168700FFE92403F9E43AFA1249FE021AC5900366
:101697007EE0FBA3E0FAA3E0F9900001122442FFE9
:1016A7001255D5021AC590037EE0FBA3E0FAA3E02A
:1016B700F990000212244225E025E0FF9000011274
:1016C70024422FFF124B46021AC590037EE0FBA36C
:1016D700E0FAA3E0F9900001122442FFE92402F99D
:1016E700E43AFA125639021AC590037EE0FBA3E0EA
:1016F700FAA3E0F9900001122442FF90000212249D
:1017070042FD900383E0FBA3E0FAA3E02401F9E4A0
:101717003AFAC003C002C001900383A3E0FAA3E032
:101727002402F9E43AFA900635EBF0A3EAF0A3E9CC
:10173700F0D001D002D0031237BA021B2F90037EDC
:10174700E0FBA3E0FAA3E0F9900001122442FF9026
:101757000002122442FD900383E0FBA3E0FAA3E01A
:101767002401F9E43AFAC003C002C001900383A33D
:10177700E0FAA3E02402F9E43AFA900635EBF0A385
:10178700EAF0A3E9F0D001D002D003124AA2021B6B
:101797002F90037EE0FBA3E0FAA3E0F9900001128B
:1017A7002442FF125747021AC5900383E0FBA3E0C8
:1017B700FAA3E02401F9E43AFA900634EBF0A3EA3D
:1017C700F0A3E9F0900383A3E0FAA3E02402F9E48D
:1017D7003AFA900637EBF0A3EAF0A3E9F07B017A37
:1017E70006796E7F190251A6900383E0FBA3E0FA06
:1017F700A3E02401F9E43AFAC003C002C001900350
:1018070083A3E0FAA3E02402F9E43AFA900633EB63
:10181700F0A3EAF0A3E9F0D001D002D003124442CA
:10182700021B2F90037EE0FBA3E0FAA3E0F99000F0
:1018370001122442FF900383E0FBA3E0FAA3E02414
:1018470001F9E43AFAC003C002C001900383A3E0A0
:10185700FAA3E02402F9E43AFA900634EBF0A3EA9B
:10186700F0A3E9F0D001D002D003124001021B2FF0
:1018770090037EE0FBA3E0FAA3E0F99000011224B5
:1018870042FFE92402F9E43AFAC003C002C001901A
:101897000383E0FBA3E0FAA3E02401F9E43AFA901A
:1018A700063AEBF0A3EAF0A3E9F0900383A3E0FA8A
:1018B700A3E02402F9E43AFA90063DEBF0A3EAF03C
:1018C700A3E9F0D001D002D003123A6B021B2F908C
:1018D7000383E0FBA3E0FAA3E02401F9E43AFAC0AA
:1018E70003C002C001900383A3E0FAA3E02402F936
:1018F700E43AFA900633EBF0A3EAF0A3E9F0D0015B
:10190700D002D0031256F1021B2F7F0312541C7F03
:1019170001124D19900383E0FBA3E0FAA3E0240131
:10192700F9E43AFAC003C002C001900383A3E0FAC6
:10193700A3E02402F9E43AFA900633EBF0A3EAF0C5
:10194700A3E9F0A37401F0A37406F0A374A4F0D084
:1019570001D002D003123CE2021B2F900383E0FB6D
:10196700A3E0FAA3E02401F9E43AFA900633EBF096
:10197700A3EAF0A3E9F0900383A3E0FAA3E024022B
:10198700F9E43AFA900636EBF0A3EAF0A3E9F07B24
:10199700017A0679A412480B021B2F900383E0FB00
:1019A700A3E0FAA3E02401F9E43AFA900633EBF056
:1019B700A3EAF0A3E9F0900383A3E0FAA3E02402EB
:1019C700F9E43AFA900636EBF0A3EAF0A3E9F07BE4
:1019D700017A0679A4124BE5021B2F900383E0FBE3
:1019E700A3E0FAA3E02401F9E43AFAC003C002C075
:1019F70001900383A3E0FAA3E02402F9E43AFA9002
:101A07000633EBF0A3EAF0A3E9F0D001D002D0034C
:101A1700124F73021B2F7F0312541C7F01124D19A3
:101A2700900383E0FBA3E0FAA3E02401F9E43AFA88
:101A3700C003C002C001900383A3E0FAA3E024021D
:101A4700F9E43AFA900633EBF0A3EAF0A3E9F0A33E
:101A57007401F0A37406F0A374A4F0D001D002D0EF
:101A670003123BB6021B2F90037EE0FBA3E0FAA311
:101A7700E0F9900001122442FF900383E0FBA3E00A
:101A8700FAA3E02401F9E43AFA12556A900383E0D5
:101A9700FBA3E0FAA3E0F9EF12246F900382740529
:101AA700F02290037EE0FBA3E0FAA3E0F9900001A7
:101AB700122442FFE92402F9E43AFA1253A69003EA
:101AC70083E0FBA3E0FAA3E0F9EF12246F9003820F
:101AD7007401F0227F0312541C7F02124D199003E8
:101AE7007EE0FBA3E0FAA3E0F9900001122442FF95
:101AF700900383E0FBA3E0FAA3E02401F9E43AFAB8
:101B0700C003C002C001900383A3E0FAA3E024024C
:101B1700F9E43AFA900634EBF0A3EAF0A3E9F0D03F
:101B270001D002D0031241D2900383E0FBA3E0FA75
:101B3700A3E0F9EF12246F900383E0FBA3E0FAA37D
:101B4700E0F990000112244224028010900383E000
:101B5700FBA3E0FAA3E0F9740112246F900382F06B
:011B6700225B
:0C584600C2B6125852C2B5125852D2B667
:105852000000000000000000000000000000000046
:105862000000000000000000000000000000000036
:105872000000000000000000000000000000000026
:0B5882000000000000000000000022F9
:105C7A00D2B5D2B612585220B5037F0022C2B5124D
:105C8A00585230B5037F0022C2B51258527F012202
:085E6600125846D2B502585251
:085E6E00125846C2B602585258
:0F5E3600C2B6125852D2B512584DC2B6025852C7
:0D5BAA00EAFF125BF2125BB7AF03125BF271
:105BB700C2B6125852D2B512584D30B505C2B67F8B
:075BC7000022C2B67F01229B
:105BF2007E08AD061EED6018C2B6125852EF30E7AD
:105C020004D2B58002C2B5EF25E0FF12584D80E202
:025C1200C2B618
:015C1400226D
:105C37007F08E4FED2B5AD071FED6011EE25E0FE4B
:105C4700C2B612584D30B5EE4401FE80E9C2B6AF78
:015C57000646
:015C58002229
:105CB900E49002F3F09002F3E0D3943C500E125CAE
:0F5CC9007A7FAE125BF2125BB7EF60E9025E66A4
:1054FC00E0FF9006C2F09006AFE0FBA3E0FAA3E059
:0C550C00F9A3E0FCA3E0FDEF90063AF0EC
:10551800900638ECF0A3EDF0125C7AEF7002FF22EF
:105528007FAE125BF2125BB7900638E0FF125BF2B7
:10553800125BB7900638A3E0FF125BF2125BB790DC
:10554800063AE0FF14F0EF6013122429FF125BF211
:10555800125BB7740129F9E43AFA80E3125E667FB8
:0255680001221E
:1035DD009006AFEBF0A3EAF0A3E9F0A3ECF0A3EDB6
:0135ED00F0ED
:1035EE00E49006B6F0A3F0A3F0ED540FFFC37410F1
:1035FE009FF09006B4E0FCA3E0FDECC4F854F0C8D4
:10360E00EDC4540F48A3F0ED540FA3F0EF706F907C
:10361E0006B6E0700CA31254FCEF7002FF220237C4
:10362E00B49006B6E0FF14F0EF603E9006C2741040
:10363E00F09006AFE0FBA3E0FAA3E0F9A3E0FCA351
:10364E00E0FD7410125514EF7002FF22125CB99057
:10365E0006B3E02410F09006B2E03400F09006B00D
:10366E00E475F0101224F880B89006B7E0FF7003EE
:10367E000237B71254FEEF7002FF220237B49006E3
:10368E00B6E070739006B8E0FFFDD39006B5E09DEE
:10369E009006B4E0940040519006C2EF125501EF2F
:1036AE007002FF22125CB99006B4A3E0FF9006B838
:1036BE00E0FEC3EF9E9006C2F09006AFE0FBA3E0E3
:1036CE00FAA3E0F9EEFF7E00E92FF9EE3AFA900642
:1036DE00B3E02FFD9006B2E03EFC9006C2E012551C
:1036EE0014EF7002FF220237B49006B71254FCEFAB
:1036FE007002FF220237B49006B8E0FDFFC39006B9
:10370E00B5E09FF09006B4E09400F0E0FAA3E0FB81
:10371E00EAC4F854F0C8EBC4540F48A3F0EB540FAE
:10372E00A3F0ED60261254FEEF7002FF22125CB978
:10373E009006B8E0FF7E009006B3E02FF09006B240
:10374E00E03EF09006B0EE8FF080479006B6E0FFB8
:10375E0014F0EF60429006C27410F09006AFE0FBDA
:10376E00A3E0FAA3E0F9A3E0FCA3E0FD90063A740F
:10377E0010F0125518EF7002FF22125CB99006B3CA
:10378E00E02410F09006B2E03400F09006B0E4753C
:10379E00F0101224F880B49006B7E0FF600B1254BC
:0B37AE00FEEF7002FF22125CB97F01E9
:0137B90022ED
:105C59007B017A067935AD07AC0690066CE4F0A3B2
:105C690004F012522BEF6006900635E0FF227F0008
:015C79002208
:105B1400AB07AA06AC05125C7AEF7002FF227FAED7
:105B2400125BF2125BB7125BAAAF04125BF2125B58
:075B3400B7125E667F01223B
:10522B00900667EBF0A3EAF0A3E9F0AB05AA041232
:10523B005C7AEF7002FF227FAE125BF2125BB7EF6C
:10524B007005125E66FF22125BAA125C7A7FAF12A8
:10525B005BF2125BB790066CE07002A3E060401249
:10526B005C37900667E0FBA3E0FAA3E0F9EF1224AA
:10527B006F90066CE07004A3E064017005125E365B
:10528B008003125E6E900668E475F0011224F890AC
:10529B00066DE024FFF090066CE034FFF080B61250
:0552AB005E667F012298
:105D7F0090066CE4F0A3EFF07DF07CFF12522BEF56
:085D8F0060037F01227F002266
:085D3000E0FBA3E0FAA3E0F997
:105D380090063AEDF07DF07CFF125518EF60037F76
:055D480001227F002292
:105BCE007D447FFA7EFF125B147D077FFB7EFF1202
:105BDE005B147D037FFD7EFF125B147DFF7FF17EE4
:045BEE00FF025B1443
:10469900900630EEF0A3EFF0A3EBF0A3EAF0A3E964
:1046A900F0D3EF9420EE9400900632E0FBA3E0FAF9
:1046B900A3E0F95013900630A3E0FD125D38E490B1
:1046C9000630F0A3F002474C7D20125D3890063188
:1046D900E024E0F0900630E034FFF0900633E47512
:1046E900F0201224F8805CD3900631E09400900603
:1046F90030E0940040587FF27EFF125C59EF543F3E
:10470900D39408503E900630E0FEA3E0FF9418EEE3
:104719009400500FA3AD07125D30E4900630F0A36A
:10472900F080209006327D18125D30900631E02429
:10473900E8F0900630E034FFF0900633E475F018A5
:0E4749001224F87D557FF47EFF125B148099D8
:01475700223F
:1057F2000A41542B5645520A0041542B5645520A2F
:10580200000A41542B4E414D450A0041542B4E4152
:105812004D450A0052462D424C45342E30004F4B26
:10582200000A41542B4D41430A0041542B4D414340
:105832000A0041542B4E414D4552462D424C4534AF
:045842002E300A00FA
:0B3F0900900642EBF0A3EAF0A3E9F001
:103F14001224297002FF22E490064AF0A3F0A3F0D1
:103F2400A3F0900648E0FEA3E0FFC390064BE09F99
:103F340090064AE09E4003023FFE900642E0FBA347
:103F4400E0FAA3E0F990064CE0FEA3E0F5828E834C
:103F5400122442FF90064EF0900645E0FBA3E0FADF
:103F6400A3E0F990064AE0FCA3E0F5828C831224D6
:103F7400426F707290064AE0FEA3E0FFD3900649B8
:103F8400E09F900648E09E4056900642E0FBA3E086
:103F9400FAA3E0F990064CE0FCA3E0F5828C8312CE
:103FA400244290064EF0700890064AA3E004FF22D3
:103FB400900645E0FBA3E0FAA3E0F98F828E83121A
:103FC4002442FD90064EE0B505150FBF00010E908A
:103FD400064DE004F070A590064CE004F0809DE4EA
:103FE40090064CF0A3F090064BE004F06003023F0F
:0C3FF4002690064AE004F0023F267F0001
:01400000229D
:1033CC0078307C067D017BFF7A5879347E007F1241
:1033DC00122403C282E4900297F0900297E0C39407
:1033EC000540F7D282E4900297F0900297E0C394E4
:1033FC000540F7C284E4900297F0900297E0C394E2
:10340C000540F7E49002E3F09002E1F0900002F046
:10341C00A3F09001CDF07BFF7A5779F2FDFC1259A5
:10342C00937BFF7A5779FBE4FDFC1259CFE49002B1
:10343C0097F0900297E0C3940540F7E49002E3F014
:10344C007B017A0179CD900002E0FCA3E0FD1259DA
:10345C0093E4900002F0A3F07F0D125A827F0A12BF
:10346C005A82E49002E3F09002E1F0900002F0A3A3
:10347C00F09001CDF07BFF7A587903FDFC12599343
:10348C007BFF7A58790DE4FDFC1259CFE49002973A
:10349C00F09006457401F0A37401F0A374CDF09084
:1034AC000002E0FFA3E0900648CFF0A3EFF07BFF13
:1034BC007A587916123F09EF7009900297E0D3946D
:1034CC000F40CEE49002E3F07B017A0179CD9000BD
:1034DC0002E0FCA3E0FD125993E4900002F0A3F08B
:1034EC00900297E0D3940F5003023581E49002E3ED
:1034FC00F09002E1F0900002F0A3F09001CDF07F8B
:10350C000D125A827F0A125A827B017A067930E4B4
:10351C00FDFC1259937B017A067930E4FDFC1259BB
:10352C00CFE4900297F09006457401F0A37401F07B
:10353C00A374CDF0900002E0FFA3E0900648CFF01A
:10354C00A3EFF07BFF7A587920123F09EF700990B6
:10355C000297E0D3940F40CEE49002E3F07B017A23
:10356C000179CD900002E0FCA3E0FD125993E490A8
:10357C000002F0A3F0E49002E3F09002E1F090007E
:10358C0002F0A3F09001CDF07BFF7A587923FDFC7B
:10359C001259937BFF7A58792CE4FDFC1259CFE435
:1035AC00900297F0900297E0C3940540F7E49002E4
:1035BC00E3F07B017A0179CD900002E0FCA3E0FD01
